{
  "_format": "hh-sol-artifact-1",
  "contractName": "MoleculeCollection",
  "sourceName": "contracts/Molecule.sol",
  "abi": [
    {
      "inputs": [],
      "stateMutability": "nonpayable",
      "type": "constructor"
    },
    {
      "anonymous": false,
      "inputs": [
        {
          "indexed": true,
          "internalType": "address",
          "name": "owner",
          "type": "address"
        },
        {
          "indexed": true,
          "internalType": "address",
          "name": "approved",
          "type": "address"
        },
        {
          "indexed": true,
          "internalType": "uint256",
          "name": "tokenId",
          "type": "uint256"
        }
      ],
      "name": "Approval",
      "type": "event"
    },
    {
      "anonymous": false,
      "inputs": [
        {
          "indexed": true,
          "internalType": "address",
          "name": "owner",
          "type": "address"
        },
        {
          "indexed": true,
          "internalType": "address",
          "name": "operator",
          "type": "address"
        },
        {
          "indexed": false,
          "internalType": "bool",
          "name": "approved",
          "type": "bool"
        }
      ],
      "name": "ApprovalForAll",
      "type": "event"
    },
    {
      "anonymous": false,
      "inputs": [
        {
          "indexed": true,
          "internalType": "address",
          "name": "from",
          "type": "address"
        },
        {
          "indexed": true,
          "internalType": "address",
          "name": "to",
          "type": "address"
        },
        {
          "indexed": true,
          "internalType": "uint256",
          "name": "tokenId",
          "type": "uint256"
        }
      ],
      "name": "Transfer",
      "type": "event"
    },
    {
      "inputs": [
        {
          "internalType": "address",
          "name": "to",
          "type": "address"
        },
        {
          "internalType": "uint256",
          "name": "tokenId",
          "type": "uint256"
        }
      ],
      "name": "approve",
      "outputs": [],
      "stateMutability": "nonpayable",
      "type": "function"
    },
    {
      "inputs": [
        {
          "internalType": "address",
          "name": "owner",
          "type": "address"
        }
      ],
      "name": "balanceOf",
      "outputs": [
        {
          "internalType": "uint256",
          "name": "",
          "type": "uint256"
        }
      ],
      "stateMutability": "view",
      "type": "function"
    },
    {
      "inputs": [
        {
          "internalType": "string",
          "name": "tokenURI",
          "type": "string"
        }
      ],
      "name": "createMolecule",
      "outputs": [
        {
          "internalType": "uint256",
          "name": "",
          "type": "uint256"
        }
      ],
      "stateMutability": "nonpayable",
      "type": "function"
    },
    {
      "inputs": [
        {
          "internalType": "uint256",
          "name": "tokenId",
          "type": "uint256"
        }
      ],
      "name": "getApproved",
      "outputs": [
        {
          "internalType": "address",
          "name": "",
          "type": "address"
        }
      ],
      "stateMutability": "view",
      "type": "function"
    },
    {
      "inputs": [
        {
          "internalType": "address",
          "name": "owner",
          "type": "address"
        },
        {
          "internalType": "address",
          "name": "operator",
          "type": "address"
        }
      ],
      "name": "isApprovedForAll",
      "outputs": [
        {
          "internalType": "bool",
          "name": "",
          "type": "bool"
        }
      ],
      "stateMutability": "view",
      "type": "function"
    },
    {
      "inputs": [],
      "name": "name",
      "outputs": [
        {
          "internalType": "string",
          "name": "",
          "type": "string"
        }
      ],
      "stateMutability": "view",
      "type": "function"
    },
    {
      "inputs": [
        {
          "internalType": "uint256",
          "name": "tokenId",
          "type": "uint256"
        }
      ],
      "name": "ownerOf",
      "outputs": [
        {
          "internalType": "address",
          "name": "",
          "type": "address"
        }
      ],
      "stateMutability": "view",
      "type": "function"
    },
    {
      "inputs": [
        {
          "internalType": "address",
          "name": "from",
          "type": "address"
        },
        {
          "internalType": "address",
          "name": "to",
          "type": "address"
        },
        {
          "internalType": "uint256",
          "name": "tokenId",
          "type": "uint256"
        }
      ],
      "name": "safeTransferFrom",
      "outputs": [],
      "stateMutability": "nonpayable",
      "type": "function"
    },
    {
      "inputs": [
        {
          "internalType": "address",
          "name": "from",
          "type": "address"
        },
        {
          "internalType": "address",
          "name": "to",
          "type": "address"
        },
        {
          "internalType": "uint256",
          "name": "tokenId",
          "type": "uint256"
        },
        {
          "internalType": "bytes",
          "name": "_data",
          "type": "bytes"
        }
      ],
      "name": "safeTransferFrom",
      "outputs": [],
      "stateMutability": "nonpayable",
      "type": "function"
    },
    {
      "inputs": [
        {
          "internalType": "address",
          "name": "operator",
          "type": "address"
        },
        {
          "internalType": "bool",
          "name": "approved",
          "type": "bool"
        }
      ],
      "name": "setApprovalForAll",
      "outputs": [],
      "stateMutability": "nonpayable",
      "type": "function"
    },
    {
      "inputs": [
        {
          "internalType": "bytes4",
          "name": "interfaceId",
          "type": "bytes4"
        }
      ],
      "name": "supportsInterface",
      "outputs": [
        {
          "internalType": "bool",
          "name": "",
          "type": "bool"
        }
      ],
      "stateMutability": "view",
      "type": "function"
    },
    {
      "inputs": [],
      "name": "symbol",
      "outputs": [
        {
          "internalType": "string",
          "name": "",
          "type": "string"
        }
      ],
      "stateMutability": "view",
      "type": "function"
    },
    {
      "inputs": [],
      "name": "tokenCounter",
      "outputs": [
        {
          "internalType": "uint256",
          "name": "",
          "type": "uint256"
        }
      ],
      "stateMutability": "view",
      "type": "function"
    },
    {
      "inputs": [
        {
          "internalType": "uint256",
          "name": "tokenId",
          "type": "uint256"
        }
      ],
      "name": "tokenURI",
      "outputs": [
        {
          "internalType": "string",
          "name": "",
          "type": "string"
        }
      ],
      "stateMutability": "view",
      "type": "function"
    },
    {
      "inputs": [
        {
          "internalType": "address",
          "name": "from",
          "type": "address"
        },
        {
          "internalType": "address",
          "name": "to",
          "type": "address"
        },
        {
          "internalType": "uint256",
          "name": "tokenId",
          "type": "uint256"
        }
      ],
      "name": "transferFrom",
      "outputs": [],
      "stateMutability": "nonpayable",
      "type": "function"
    }
  ],
  "bytecode": "0x60806040523480156200001157600080fd5b506040518060400160405280600981526020017f4d4f4c4543554c455300000000000000000000000000000000000000000000008152506040518060400160405280600381526020017f4d4f4c0000000000000000000000000000000000000000000000000000000000815250816000908051906020019062000096929190620000c0565b508060019080519060200190620000af929190620000c0565b5050506000600781905550620001d5565b828054620000ce9062000170565b90600052602060002090601f016020900481019282620000f257600085556200013e565b82601f106200010d57805160ff19168380011785556200013e565b828001600101855582156200013e579182015b828111156200013d57825182559160200191906001019062000120565b5b5090506200014d919062000151565b5090565b5b808211156200016c57600081600090555060010162000152565b5090565b600060028204905060018216806200018957607f821691505b60208210811415620001a0576200019f620001a6565b5b50919050565b7f4e487b7100000000000000000000000000000000000000000000000000000000600052602260045260246000fd5b612c0d80620001e56000396000f3fe608060405234801561001057600080fd5b50600436106100f55760003560e01c80636352211e11610097578063b88d4fde11610066578063b88d4fde14610296578063c87b56dd146102b2578063d082e381146102e2578063e985e9c514610300576100f5565b80636352211e146101fc57806370a082311461022c57806395d89b411461025c578063a22cb4651461027a576100f5565b8063095ea7b3116100d3578063095ea7b31461017857806323b872dd1461019457806335f5d654146101b057806342842e0e146101e0576100f5565b806301ffc9a7146100fa57806306fdde031461012a578063081812fc14610148575b600080fd5b610114600480360381019061010f9190611c79565b610330565b60405161012191906120c0565b60405180910390f35b610132610412565b60405161013f91906120db565b60405180910390f35b610162600480360381019061015d9190611d0c565b6104a4565b60405161016f9190612059565b60405180910390f35b610192600480360381019061018d9190611c3d565b610529565b005b6101ae60048036038101906101a99190611b37565b610641565b005b6101ca60048036038101906101c59190611ccb565b6106a1565b6040516101d791906122fd565b60405180910390f35b6101fa60048036038101906101f59190611b37565b6106db565b005b61021660048036038101906102119190611d0c565b6106fb565b6040516102239190612059565b60405180910390f35b61024660048036038101906102419190611ad2565b6107ad565b60405161025391906122fd565b60405180910390f35b610264610865565b60405161027191906120db565b60405180910390f35b610294600480360381019061028f9190611c01565b6108f7565b005b6102b060048036038101906102ab9190611b86565b61090d565b005b6102cc60048036038101906102c79190611d0c565b61096f565b6040516102d991906120db565b60405180910390f35b6102ea610ac1565b6040516102f791906122fd565b60405180910390f35b61031a60048036038101906103159190611afb565b610ac7565b60405161032791906120c0565b60405180910390f35b60007f80ac58cd000000000000000000000000000000000000000000000000000000007bffffffffffffffffffffffffffffffffffffffffffffffffffffffff1916827bffffffffffffffffffffffffffffffffffffffffffffffffffffffff191614806103fb57507f5b5e139f000000000000000000000000000000000000000000000000000000007bffffffffffffffffffffffffffffffffffffffffffffffffffffffff1916827bffffffffffffffffffffffffffffffffffffffffffffffffffffffff1916145b8061040b575061040a82610b5b565b5b9050919050565b60606000805461042190612553565b80601f016020809104026020016040519081016040528092919081815260200182805461044d90612553565b801561049a5780601f1061046f5761010080835404028352916020019161049a565b820191906000526020600020905b81548152906001019060200180831161047d57829003601f168201915b5050505050905090565b60006104af82610bc5565b6104ee576040517f08c379a00000000000000000000000000000000000000000000000000000000081526004016104e59061227d565b60405180910390fd5b6004600083815260200190815260200160002060009054906101000a900473ffffffffffffffffffffffffffffffffffffffff169050919050565b6000610534826106fb565b90508073ffffffffffffffffffffffffffffffffffffffff168373ffffffffffffffffffffffffffffffffffffffff1614156105a5576040517f08c379a000000000000000000000000000000000000000000000000000000000815260040161059c906122bd565b60405180910390fd5b8073ffffffffffffffffffffffffffffffffffffffff166105c4610c31565b73ffffffffffffffffffffffffffffffffffffffff1614806105f357506105f2816105ed610c31565b610ac7565b5b610632576040517f08c379a0000000000000000000000000000000000000000000000000000000008152600401610629906121bd565b60405180910390fd5b61063c8383610c39565b505050565b61065261064c610c31565b82610cf2565b610691576040517f08c379a0000000000000000000000000000000000000000000000000000000008152600401610688906122dd565b60405180910390fd5b61069c838383610dd0565b505050565b60008060075490506106b33382611037565b6106bd8184611055565b60016007546106cc91906123e2565b60078190555080915050919050565b6106f68383836040518060200160405280600081525061090d565b505050565b6000806002600084815260200190815260200160002060009054906101000a900473ffffffffffffffffffffffffffffffffffffffff169050600073ffffffffffffffffffffffffffffffffffffffff168173ffffffffffffffffffffffffffffffffffffffff1614156107a4576040517f08c379a000000000000000000000000000000000000000000000000000000000815260040161079b906121fd565b60405180910390fd5b80915050919050565b60008073ffffffffffffffffffffffffffffffffffffffff168273ffffffffffffffffffffffffffffffffffffffff16141561081e576040517f08c379a0000000000000000000000000000000000000000000000000000000008152600401610815906121dd565b60405180910390fd5b600360008373ffffffffffffffffffffffffffffffffffffffff1673ffffffffffffffffffffffffffffffffffffffff168152602001908152602001600020549050919050565b60606001805461087490612553565b80601f01602080910402602001604051908101604052809291908181526020018280546108a090612553565b80156108ed5780601f106108c2576101008083540402835291602001916108ed565b820191906000526020600020905b8154815290600101906020018083116108d057829003601f168201915b5050505050905090565b610909610902610c31565b83836110c9565b5050565b61091e610918610c31565b83610cf2565b61095d576040517f08c379a0000000000000000000000000000000000000000000000000000000008152600401610954906122dd565b60405180910390fd5b61096984848484611236565b50505050565b606061097a82610bc5565b6109b9576040517f08c379a00000000000000000000000000000000000000000000000000000000081526004016109b09061225d565b60405180910390fd5b60006006600084815260200190815260200160002080546109d990612553565b80601f0160208091040260200160405190810160405280929190818152602001828054610a0590612553565b8015610a525780601f10610a2757610100808354040283529160200191610a52565b820191906000526020600020905b815481529060010190602001808311610a3557829003601f168201915b505050505090506000610a63611292565b9050600081511415610a79578192505050610abc565b600082511115610aae578082604051602001610a96929190612035565b60405160208183030381529060405292505050610abc565b610ab7846112a9565b925050505b919050565b60075481565b6000600560008473ffffffffffffffffffffffffffffffffffffffff1673ffffffffffffffffffffffffffffffffffffffff16815260200190815260200160002060008373ffffffffffffffffffffffffffffffffffffffff1673ffffffffffffffffffffffffffffffffffffffff16815260200190815260200160002060009054906101000a900460ff16905092915050565b60007f01ffc9a7000000000000000000000000000000000000000000000000000000007bffffffffffffffffffffffffffffffffffffffffffffffffffffffff1916827bffffffffffffffffffffffffffffffffffffffffffffffffffffffff1916149050919050565b60008073ffffffffffffffffffffffffffffffffffffffff166002600084815260200190815260200160002060009054906101000a900473ffffffffffffffffffffffffffffffffffffffff1673ffffffffffffffffffffffffffffffffffffffff1614159050919050565b600033905090565b816004600083815260200190815260200160002060006101000a81548173ffffffffffffffffffffffffffffffffffffffff021916908373ffffffffffffffffffffffffffffffffffffffff160217905550808273ffffffffffffffffffffffffffffffffffffffff16610cac836106fb565b73ffffffffffffffffffffffffffffffffffffffff167f8c5be1e5ebec7d5bd14f71427d1e84f3dd0314c0f7b2291e5b200ac8c7c3b92560405160405180910390a45050565b6000610cfd82610bc5565b610d3c576040517f08c379a0000000000000000000000000000000000000000000000000000000008152600401610d339061219d565b60405180910390fd5b6000610d47836106fb565b90508073ffffffffffffffffffffffffffffffffffffffff168473ffffffffffffffffffffffffffffffffffffffff161480610db657508373ffffffffffffffffffffffffffffffffffffffff16610d9e846104a4565b73ffffffffffffffffffffffffffffffffffffffff16145b80610dc75750610dc68185610ac7565b5b91505092915050565b8273ffffffffffffffffffffffffffffffffffffffff16610df0826106fb565b73ffffffffffffffffffffffffffffffffffffffff1614610e46576040517f08c379a0000000000000000000000000000000000000000000000000000000008152600401610e3d9061211d565b60405180910390fd5b600073ffffffffffffffffffffffffffffffffffffffff168273ffffffffffffffffffffffffffffffffffffffff161415610eb6576040517f08c379a0000000000000000000000000000000000000000000000000000000008152600401610ead9061215d565b60405180910390fd5b610ec1838383611350565b610ecc600082610c39565b6001600360008573ffffffffffffffffffffffffffffffffffffffff1673ffffffffffffffffffffffffffffffffffffffff1681526020019081526020016000206000828254610f1c9190612469565b925050819055506001600360008473ffffffffffffffffffffffffffffffffffffffff1673ffffffffffffffffffffffffffffffffffffffff1681526020019081526020016000206000828254610f7391906123e2565b92505081905550816002600083815260200190815260200160002060006101000a81548173ffffffffffffffffffffffffffffffffffffffff021916908373ffffffffffffffffffffffffffffffffffffffff160217905550808273ffffffffffffffffffffffffffffffffffffffff168473ffffffffffffffffffffffffffffffffffffffff167fddf252ad1be2c89b69c2b068fc378daa952ba7f163c4a11628f55a4df523b3ef60405160405180910390a4611032838383611355565b505050565b61105182826040518060200160405280600081525061135a565b5050565b61105e82610bc5565b61109d576040517f08c379a00000000000000000000000000000000000000000000000000000000081526004016110949061221d565b60405180910390fd5b806006600084815260200190815260200160002090805190602001906110c49291906118f6565b505050565b8173ffffffffffffffffffffffffffffffffffffffff168373ffffffffffffffffffffffffffffffffffffffff161415611138576040517f08c379a000000000000000000000000000000000000000000000000000000000815260040161112f9061217d565b60405180910390fd5b80600560008573ffffffffffffffffffffffffffffffffffffffff1673ffffffffffffffffffffffffffffffffffffffff16815260200190815260200160002060008473ffffffffffffffffffffffffffffffffffffffff1673ffffffffffffffffffffffffffffffffffffffff16815260200190815260200160002060006101000a81548160ff0219169083151502179055508173ffffffffffffffffffffffffffffffffffffffff168373ffffffffffffffffffffffffffffffffffffffff167f17307eab39ab6107e8899845ad3d59bd9653f200f220920489ca2b5937696c318360405161122991906120c0565b60405180910390a3505050565b611241848484610dd0565b61124d848484846113b5565b61128c576040517f08c379a0000000000000000000000000000000000000000000000000000000008152600401611283906120fd565b60405180910390fd5b50505050565b606060405180602001604052806000815250905090565b60606112b482610bc5565b6112f3576040517f08c379a00000000000000000000000000000000000000000000000000000000081526004016112ea9061229d565b60405180910390fd5b60006112fd611292565b9050600081511161131d5760405180602001604052806000815250611348565b806113278461154c565b604051602001611338929190612035565b6040516020818303038152906040525b915050919050565b505050565b505050565b61136483836116f9565b61137160008484846113b5565b6113b0576040517f08c379a00000000000000000000000000000000000000000000000000000000081526004016113a7906120fd565b60405180910390fd5b505050565b60006113d68473ffffffffffffffffffffffffffffffffffffffff166118d3565b1561153f578373ffffffffffffffffffffffffffffffffffffffff1663150b7a026113ff610c31565b8786866040518563ffffffff1660e01b81526004016114219493929190612074565b602060405180830381600087803b15801561143b57600080fd5b505af192505050801561146c57506040513d601f19601f820116820180604052508101906114699190611ca2565b60015b6114ef573d806000811461149c576040519150601f19603f3d011682016040523d82523d6000602084013e6114a1565b606091505b506000815114156114e7576040517f08c379a00000000000000000000000000000000000000000000000000000000081526004016114de906120fd565b60405180910390fd5b805181602001fd5b63150b7a0260e01b7bffffffffffffffffffffffffffffffffffffffffffffffffffffffff1916817bffffffffffffffffffffffffffffffffffffffffffffffffffffffff191614915050611544565b600190505b949350505050565b60606000821415611594576040518060400160405280600181526020017f300000000000000000000000000000000000000000000000000000000000000081525090506116f4565b600082905060005b600082146115c65780806115af906125b6565b915050600a826115bf9190612438565b915061159c565b60008167ffffffffffffffff811115611608577f4e487b7100000000000000000000000000000000000000000000000000000000600052604160045260246000fd5b6040519080825280601f01601f19166020018201604052801561163a5781602001600182028036833780820191505090505b5090505b600085146116ed576001826116539190612469565b9150600a8561166291906125ff565b603061166e91906123e2565b60f81b8183815181106116aa577f4e487b7100000000000000000000000000000000000000000000000000000000600052603260045260246000fd5b60200101907effffffffffffffffffffffffffffffffffffffffffffffffffffffffffffff1916908160001a905350600a856116e69190612438565b945061163e565b8093505050505b919050565b600073ffffffffffffffffffffffffffffffffffffffff168273ffffffffffffffffffffffffffffffffffffffff161415611769576040517f08c379a00000000000000000000000000000000000000000000000000000000081526004016117609061223d565b60405180910390fd5b61177281610bc5565b156117b2576040517f08c379a00000000000000000000000000000000000000000000000000000000081526004016117a99061213d565b60405180910390fd5b6117be60008383611350565b6001600360008473ffffffffffffffffffffffffffffffffffffffff1673ffffffffffffffffffffffffffffffffffffffff168152602001908152602001600020600082825461180e91906123e2565b92505081905550816002600083815260200190815260200160002060006101000a81548173ffffffffffffffffffffffffffffffffffffffff021916908373ffffffffffffffffffffffffffffffffffffffff160217905550808273ffffffffffffffffffffffffffffffffffffffff16600073ffffffffffffffffffffffffffffffffffffffff167fddf252ad1be2c89b69c2b068fc378daa952ba7f163c4a11628f55a4df523b3ef60405160405180910390a46118cf60008383611355565b5050565b6000808273ffffffffffffffffffffffffffffffffffffffff163b119050919050565b82805461190290612553565b90600052602060002090601f016020900481019282611924576000855561196b565b82601f1061193d57805160ff191683800117855561196b565b8280016001018555821561196b579182015b8281111561196a57825182559160200191906001019061194f565b5b509050611978919061197c565b5090565b5b8082111561199557600081600090555060010161197d565b5090565b60006119ac6119a78461233d565b612318565b9050828152602081018484840111156119c457600080fd5b6119cf848285612511565b509392505050565b60006119ea6119e58461236e565b612318565b905082815260208101848484011115611a0257600080fd5b611a0d848285612511565b509392505050565b600081359050611a2481612b7b565b92915050565b600081359050611a3981612b92565b92915050565b600081359050611a4e81612ba9565b92915050565b600081519050611a6381612ba9565b92915050565b600082601f830112611a7a57600080fd5b8135611a8a848260208601611999565b91505092915050565b600082601f830112611aa457600080fd5b8135611ab48482602086016119d7565b91505092915050565b600081359050611acc81612bc0565b92915050565b600060208284031215611ae457600080fd5b6000611af284828501611a15565b91505092915050565b60008060408385031215611b0e57600080fd5b6000611b1c85828601611a15565b9250506020611b2d85828601611a15565b9150509250929050565b600080600060608486031215611b4c57600080fd5b6000611b5a86828701611a15565b9350506020611b6b86828701611a15565b9250506040611b7c86828701611abd565b9150509250925092565b60008060008060808587031215611b9c57600080fd5b6000611baa87828801611a15565b9450506020611bbb87828801611a15565b9350506040611bcc87828801611abd565b925050606085013567ffffffffffffffff811115611be957600080fd5b611bf587828801611a69565b91505092959194509250565b60008060408385031215611c1457600080fd5b6000611c2285828601611a15565b9250506020611c3385828601611a2a565b9150509250929050565b60008060408385031215611c5057600080fd5b6000611c5e85828601611a15565b9250506020611c6f85828601611abd565b9150509250929050565b600060208284031215611c8b57600080fd5b6000611c9984828501611a3f565b91505092915050565b600060208284031215611cb457600080fd5b6000611cc284828501611a54565b91505092915050565b600060208284031215611cdd57600080fd5b600082013567ffffffffffffffff811115611cf757600080fd5b611d0384828501611a93565b91505092915050565b600060208284031215611d1e57600080fd5b6000611d2c84828501611abd565b91505092915050565b611d3e8161249d565b82525050565b611d4d816124af565b82525050565b6000611d5e8261239f565b611d6881856123b5565b9350611d78818560208601612520565b611d81816126ec565b840191505092915050565b6000611d97826123aa565b611da181856123c6565b9350611db1818560208601612520565b611dba816126ec565b840191505092915050565b6000611dd0826123aa565b611dda81856123d7565b9350611dea818560208601612520565b80840191505092915050565b6000611e036032836123c6565b9150611e0e826126fd565b604082019050919050565b6000611e266025836123c6565b9150611e318261274c565b604082019050919050565b6000611e49601c836123c6565b9150611e548261279b565b602082019050919050565b6000611e6c6024836123c6565b9150611e77826127c4565b604082019050919050565b6000611e8f6019836123c6565b9150611e9a82612813565b602082019050919050565b6000611eb2602c836123c6565b9150611ebd8261283c565b604082019050919050565b6000611ed56038836123c6565b9150611ee08261288b565b604082019050919050565b6000611ef8602a836123c6565b9150611f03826128da565b604082019050919050565b6000611f1b6029836123c6565b9150611f2682612929565b604082019050919050565b6000611f3e602e836123c6565b9150611f4982612978565b604082019050919050565b6000611f616020836123c6565b9150611f6c826129c7565b602082019050919050565b6000611f846031836123c6565b9150611f8f826129f0565b604082019050919050565b6000611fa7602c836123c6565b9150611fb282612a3f565b604082019050919050565b6000611fca602f836123c6565b9150611fd582612a8e565b604082019050919050565b6000611fed6021836123c6565b9150611ff882612add565b604082019050919050565b60006120106031836123c6565b915061201b82612b2c565b604082019050919050565b61202f81612507565b82525050565b60006120418285611dc5565b915061204d8284611dc5565b91508190509392505050565b600060208201905061206e6000830184611d35565b92915050565b60006080820190506120896000830187611d35565b6120966020830186611d35565b6120a36040830185612026565b81810360608301526120b58184611d53565b905095945050505050565b60006020820190506120d56000830184611d44565b92915050565b600060208201905081810360008301526120f58184611d8c565b905092915050565b6000602082019050818103600083015261211681611df6565b9050919050565b6000602082019050818103600083015261213681611e19565b9050919050565b6000602082019050818103600083015261215681611e3c565b9050919050565b6000602082019050818103600083015261217681611e5f565b9050919050565b6000602082019050818103600083015261219681611e82565b9050919050565b600060208201905081810360008301526121b681611ea5565b9050919050565b600060208201905081810360008301526121d681611ec8565b9050919050565b600060208201905081810360008301526121f681611eeb565b9050919050565b6000602082019050818103600083015261221681611f0e565b9050919050565b6000602082019050818103600083015261223681611f31565b9050919050565b6000602082019050818103600083015261225681611f54565b9050919050565b6000602082019050818103600083015261227681611f77565b9050919050565b6000602082019050818103600083015261229681611f9a565b9050919050565b600060208201905081810360008301526122b681611fbd565b9050919050565b600060208201905081810360008301526122d681611fe0565b9050919050565b600060208201905081810360008301526122f681612003565b9050919050565b60006020820190506123126000830184612026565b92915050565b6000612322612333565b905061232e8282612585565b919050565b6000604051905090565b600067ffffffffffffffff821115612358576123576126bd565b5b612361826126ec565b9050602081019050919050565b600067ffffffffffffffff821115612389576123886126bd565b5b612392826126ec565b9050602081019050919050565b600081519050919050565b600081519050919050565b600082825260208201905092915050565b600082825260208201905092915050565b600081905092915050565b60006123ed82612507565b91506123f883612507565b9250827fffffffffffffffffffffffffffffffffffffffffffffffffffffffffffffffff0382111561242d5761242c612630565b5b828201905092915050565b600061244382612507565b915061244e83612507565b92508261245e5761245d61265f565b5b828204905092915050565b600061247482612507565b915061247f83612507565b92508282101561249257612491612630565b5b828203905092915050565b60006124a8826124e7565b9050919050565b60008115159050919050565b60007fffffffff0000000000000000000000000000000000000000000000000000000082169050919050565b600073ffffffffffffffffffffffffffffffffffffffff82169050919050565b6000819050919050565b82818337600083830152505050565b60005b8381101561253e578082015181840152602081019050612523565b8381111561254d576000848401525b50505050565b6000600282049050600182168061256b57607f821691505b6020821081141561257f5761257e61268e565b5b50919050565b61258e826126ec565b810181811067ffffffffffffffff821117156125ad576125ac6126bd565b5b80604052505050565b60006125c182612507565b91507fffffffffffffffffffffffffffffffffffffffffffffffffffffffffffffffff8214156125f4576125f3612630565b5b600182019050919050565b600061260a82612507565b915061261583612507565b9250826126255761262461265f565b5b828206905092915050565b7f4e487b7100000000000000000000000000000000000000000000000000000000600052601160045260246000fd5b7f4e487b7100000000000000000000000000000000000000000000000000000000600052601260045260246000fd5b7f4e487b7100000000000000000000000000000000000000000000000000000000600052602260045260246000fd5b7f4e487b7100000000000000000000000000000000000000000000000000000000600052604160045260246000fd5b6000601f19601f8301169050919050565b7f4552433732313a207472616e7366657220746f206e6f6e20455243373231526560008201527f63656976657220696d706c656d656e7465720000000000000000000000000000602082015250565b7f4552433732313a207472616e736665722066726f6d20696e636f72726563742060008201527f6f776e6572000000000000000000000000000000000000000000000000000000602082015250565b7f4552433732313a20746f6b656e20616c7265616479206d696e74656400000000600082015250565b7f4552433732313a207472616e7366657220746f20746865207a65726f2061646460008201527f7265737300000000000000000000000000000000000000000000000000000000602082015250565b7f4552433732313a20617070726f766520746f2063616c6c657200000000000000600082015250565b7f4552433732313a206f70657261746f7220717565727920666f72206e6f6e657860008201527f697374656e7420746f6b656e0000000000000000000000000000000000000000602082015250565b7f4552433732313a20617070726f76652063616c6c6572206973206e6f74206f7760008201527f6e6572206e6f7220617070726f76656420666f7220616c6c0000000000000000602082015250565b7f4552433732313a2062616c616e636520717565727920666f7220746865207a6560008201527f726f206164647265737300000000000000000000000000000000000000000000602082015250565b7f4552433732313a206f776e657220717565727920666f72206e6f6e657869737460008201527f656e7420746f6b656e0000000000000000000000000000000000000000000000602082015250565b7f45524337323155524953746f726167653a2055524920736574206f66206e6f6e60008201527f6578697374656e7420746f6b656e000000000000000000000000000000000000602082015250565b7f4552433732313a206d696e7420746f20746865207a65726f2061646472657373600082015250565b7f45524337323155524953746f726167653a2055524920717565727920666f722060008201527f6e6f6e6578697374656e7420746f6b656e000000000000000000000000000000602082015250565b7f4552433732313a20617070726f76656420717565727920666f72206e6f6e657860008201527f697374656e7420746f6b656e0000000000000000000000000000000000000000602082015250565b7f4552433732314d657461646174613a2055524920717565727920666f72206e6f60008201527f6e6578697374656e7420746f6b656e0000000000000000000000000000000000602082015250565b7f4552433732313a20617070726f76616c20746f2063757272656e74206f776e6560008201527f7200000000000000000000000000000000000000000000000000000000000000602082015250565b7f4552433732313a207472616e736665722063616c6c6572206973206e6f74206f60008201527f776e6572206e6f7220617070726f766564000000000000000000000000000000602082015250565b612b848161249d565b8114612b8f57600080fd5b50565b612b9b816124af565b8114612ba657600080fd5b50565b612bb2816124bb565b8114612bbd57600080fd5b50565b612bc981612507565b8114612bd457600080fd5b5056fea26469706673582212202567da9648a94554188e3bf004458ee8aee6f6ea19127e5d40afff242e9d1a9864736f6c63430008040033",
  "linkReferences": {},
  "deployedLinkReferences": {}
}