{
  "_format": "hh-sol-artifact-1",
  "contractName": "Molecule",
  "sourceName": "contracts/Molecule.sol",
  "abi": [
    {
      "inputs": [],
      "stateMutability": "nonpayable",
      "type": "constructor"
    },
    {
      "anonymous": false,
      "inputs": [
        {
          "indexed": true,
          "internalType": "address",
          "name": "owner",
          "type": "address"
        },
        {
          "indexed": true,
          "internalType": "address",
          "name": "approved",
          "type": "address"
        },
        {
          "indexed": true,
          "internalType": "uint256",
          "name": "tokenId",
          "type": "uint256"
        }
      ],
      "name": "Approval",
      "type": "event"
    },
    {
      "anonymous": false,
      "inputs": [
        {
          "indexed": true,
          "internalType": "address",
          "name": "owner",
          "type": "address"
        },
        {
          "indexed": true,
          "internalType": "address",
          "name": "operator",
          "type": "address"
        },
        {
          "indexed": false,
          "internalType": "bool",
          "name": "approved",
          "type": "bool"
        }
      ],
      "name": "ApprovalForAll",
      "type": "event"
    },
    {
      "anonymous": false,
      "inputs": [
        {
          "indexed": false,
          "internalType": "address",
          "name": "sender",
          "type": "address"
        },
        {
          "indexed": false,
          "internalType": "uint256",
          "name": "id",
          "type": "uint256"
        },
        {
          "indexed": false,
          "internalType": "uint256",
          "name": "count",
          "type": "uint256"
        }
      ],
      "name": "ElementReceived",
      "type": "event"
    },
    {
      "anonymous": false,
      "inputs": [
        {
          "indexed": true,
          "internalType": "address",
          "name": "from",
          "type": "address"
        },
        {
          "indexed": true,
          "internalType": "address",
          "name": "to",
          "type": "address"
        },
        {
          "indexed": true,
          "internalType": "uint256",
          "name": "tokenId",
          "type": "uint256"
        }
      ],
      "name": "Transfer",
      "type": "event"
    },
    {
      "inputs": [
        {
          "internalType": "address",
          "name": "to",
          "type": "address"
        },
        {
          "internalType": "uint256",
          "name": "tokenId",
          "type": "uint256"
        }
      ],
      "name": "approve",
      "outputs": [],
      "stateMutability": "nonpayable",
      "type": "function"
    },
    {
      "inputs": [
        {
          "internalType": "address",
          "name": "owner",
          "type": "address"
        }
      ],
      "name": "balanceOf",
      "outputs": [
        {
          "internalType": "uint256",
          "name": "",
          "type": "uint256"
        }
      ],
      "stateMutability": "view",
      "type": "function"
    },
    {
      "inputs": [
        {
          "internalType": "address",
          "name": "",
          "type": "address"
        },
        {
          "internalType": "uint256",
          "name": "",
          "type": "uint256"
        }
      ],
      "name": "elementTransmitters",
      "outputs": [
        {
          "internalType": "uint256",
          "name": "",
          "type": "uint256"
        }
      ],
      "stateMutability": "view",
      "type": "function"
    },
    {
      "inputs": [
        {
          "internalType": "uint256",
          "name": "tokenId",
          "type": "uint256"
        }
      ],
      "name": "getApproved",
      "outputs": [
        {
          "internalType": "address",
          "name": "",
          "type": "address"
        }
      ],
      "stateMutability": "view",
      "type": "function"
    },
    {
      "inputs": [
        {
          "internalType": "address",
          "name": "addr",
          "type": "address"
        }
      ],
      "name": "getElementsBalance",
      "outputs": [
        {
          "internalType": "uint256[18]",
          "name": "",
          "type": "uint256[18]"
        }
      ],
      "stateMutability": "view",
      "type": "function"
    },
    {
      "inputs": [
        {
          "internalType": "uint256",
          "name": "token_id",
          "type": "uint256"
        }
      ],
      "name": "getMoleculeCompound",
      "outputs": [
        {
          "internalType": "uint256[18]",
          "name": "",
          "type": "uint256[18]"
        }
      ],
      "stateMutability": "view",
      "type": "function"
    },
    {
      "inputs": [
        {
          "internalType": "address",
          "name": "owner",
          "type": "address"
        },
        {
          "internalType": "address",
          "name": "operator",
          "type": "address"
        }
      ],
      "name": "isApprovedForAll",
      "outputs": [
        {
          "internalType": "bool",
          "name": "",
          "type": "bool"
        }
      ],
      "stateMutability": "view",
      "type": "function"
    },
    {
      "inputs": [
        {
          "internalType": "string",
          "name": "tokenURI",
          "type": "string"
        },
        {
          "internalType": "uint256[18]",
          "name": "compound",
          "type": "uint256[18]"
        }
      ],
      "name": "mintMolecule",
      "outputs": [
        {
          "internalType": "uint256",
          "name": "",
          "type": "uint256"
        }
      ],
      "stateMutability": "nonpayable",
      "type": "function"
    },
    {
      "inputs": [
        {
          "internalType": "uint256",
          "name": "",
          "type": "uint256"
        },
        {
          "internalType": "uint256",
          "name": "",
          "type": "uint256"
        }
      ],
      "name": "moleculeCompound",
      "outputs": [
        {
          "internalType": "uint256",
          "name": "",
          "type": "uint256"
        }
      ],
      "stateMutability": "view",
      "type": "function"
    },
    {
      "inputs": [],
      "name": "name",
      "outputs": [
        {
          "internalType": "string",
          "name": "",
          "type": "string"
        }
      ],
      "stateMutability": "view",
      "type": "function"
    },
    {
      "inputs": [
        {
          "internalType": "address",
          "name": "operator",
          "type": "address"
        },
        {
          "internalType": "address",
          "name": "from",
          "type": "address"
        },
        {
          "internalType": "uint256[]",
          "name": "ids",
          "type": "uint256[]"
        },
        {
          "internalType": "uint256[]",
          "name": "values",
          "type": "uint256[]"
        },
        {
          "internalType": "bytes",
          "name": "data",
          "type": "bytes"
        }
      ],
      "name": "onERC1155BatchReceived",
      "outputs": [
        {
          "internalType": "bytes4",
          "name": "",
          "type": "bytes4"
        }
      ],
      "stateMutability": "nonpayable",
      "type": "function"
    },
    {
      "inputs": [
        {
          "internalType": "address",
          "name": "operator",
          "type": "address"
        },
        {
          "internalType": "address",
          "name": "from",
          "type": "address"
        },
        {
          "internalType": "uint256",
          "name": "id",
          "type": "uint256"
        },
        {
          "internalType": "uint256",
          "name": "value",
          "type": "uint256"
        },
        {
          "internalType": "bytes",
          "name": "data",
          "type": "bytes"
        }
      ],
      "name": "onERC1155Received",
      "outputs": [
        {
          "internalType": "bytes4",
          "name": "",
          "type": "bytes4"
        }
      ],
      "stateMutability": "nonpayable",
      "type": "function"
    },
    {
      "inputs": [],
      "name": "owner",
      "outputs": [
        {
          "internalType": "address",
          "name": "",
          "type": "address"
        }
      ],
      "stateMutability": "view",
      "type": "function"
    },
    {
      "inputs": [
        {
          "internalType": "uint256",
          "name": "tokenId",
          "type": "uint256"
        }
      ],
      "name": "ownerOf",
      "outputs": [
        {
          "internalType": "address",
          "name": "",
          "type": "address"
        }
      ],
      "stateMutability": "view",
      "type": "function"
    },
    {
      "inputs": [
        {
          "internalType": "address",
          "name": "from",
          "type": "address"
        },
        {
          "internalType": "address",
          "name": "to",
          "type": "address"
        },
        {
          "internalType": "uint256",
          "name": "tokenId",
          "type": "uint256"
        }
      ],
      "name": "safeTransferFrom",
      "outputs": [],
      "stateMutability": "nonpayable",
      "type": "function"
    },
    {
      "inputs": [
        {
          "internalType": "address",
          "name": "from",
          "type": "address"
        },
        {
          "internalType": "address",
          "name": "to",
          "type": "address"
        },
        {
          "internalType": "uint256",
          "name": "tokenId",
          "type": "uint256"
        },
        {
          "internalType": "bytes",
          "name": "_data",
          "type": "bytes"
        }
      ],
      "name": "safeTransferFrom",
      "outputs": [],
      "stateMutability": "nonpayable",
      "type": "function"
    },
    {
      "inputs": [
        {
          "internalType": "address",
          "name": "operator",
          "type": "address"
        },
        {
          "internalType": "bool",
          "name": "approved",
          "type": "bool"
        }
      ],
      "name": "setApprovalForAll",
      "outputs": [],
      "stateMutability": "nonpayable",
      "type": "function"
    },
    {
      "inputs": [
        {
          "internalType": "bytes4",
          "name": "interfaceId",
          "type": "bytes4"
        }
      ],
      "name": "supportsInterface",
      "outputs": [
        {
          "internalType": "bool",
          "name": "",
          "type": "bool"
        }
      ],
      "stateMutability": "view",
      "type": "function"
    },
    {
      "inputs": [],
      "name": "symbol",
      "outputs": [
        {
          "internalType": "string",
          "name": "",
          "type": "string"
        }
      ],
      "stateMutability": "view",
      "type": "function"
    },
    {
      "inputs": [],
      "name": "tokenCounter",
      "outputs": [
        {
          "internalType": "uint256",
          "name": "",
          "type": "uint256"
        }
      ],
      "stateMutability": "view",
      "type": "function"
    },
    {
      "inputs": [
        {
          "internalType": "uint256",
          "name": "tokenId",
          "type": "uint256"
        }
      ],
      "name": "tokenURI",
      "outputs": [
        {
          "internalType": "string",
          "name": "",
          "type": "string"
        }
      ],
      "stateMutability": "view",
      "type": "function"
    },
    {
      "inputs": [
        {
          "internalType": "address",
          "name": "from",
          "type": "address"
        },
        {
          "internalType": "address",
          "name": "to",
          "type": "address"
        },
        {
          "internalType": "uint256",
          "name": "tokenId",
          "type": "uint256"
        }
      ],
      "name": "transferFrom",
      "outputs": [],
      "stateMutability": "nonpayable",
      "type": "function"
    }
  ],
  "bytecode": "0x60806040523480156200001157600080fd5b506040518060400160405280600981526020017f4d4f4c4543554c455300000000000000000000000000000000000000000000008152506040518060400160405280600381526020017f4d4f4c000000000000000000000000000000000000000000000000000000000081525081600090805190602001906200009692919062000101565b508060019080519060200190620000af92919062000101565b505050600060078190555033600860006101000a81548173ffffffffffffffffffffffffffffffffffffffff021916908373ffffffffffffffffffffffffffffffffffffffff16021790555062000216565b8280546200010f90620001b1565b90600052602060002090601f0160209004810192826200013357600085556200017f565b82601f106200014e57805160ff19168380011785556200017f565b828001600101855582156200017f579182015b828111156200017e57825182559160200191906001019062000161565b5b5090506200018e919062000192565b5090565b5b80821115620001ad57600081600090555060010162000193565b5090565b60006002820490506001821680620001ca57607f821691505b60208210811415620001e157620001e0620001e7565b5b50919050565b7f4e487b7100000000000000000000000000000000000000000000000000000000600052602260045260246000fd5b6137af80620002266000396000f3fe608060405234801561001057600080fd5b50600436106101425760003560e01c8063871209b2116100b8578063bc197c811161007c578063bc197c81146103ad578063c87b56dd146103dd578063d082e3811461040d578063e985e9c51461042b578063ee3b07111461045b578063f23a6e611461048b57610142565b8063871209b2146103095780638da5cb5b1461033957806395d89b4114610357578063a22cb46514610375578063b88d4fde1461039157610142565b806339a160201161010a57806339a16020146101fd57806342842e0e1461022d5780634b2e332f146102495780635ed3e9ba146102795780636352211e146102a957806370a08231146102d957610142565b806301ffc9a71461014757806306fdde0314610177578063081812fc14610195578063095ea7b3146101c557806323b872dd146101e1575b600080fd5b610161600480360381019061015c91906125bf565b6104bb565b60405161016e9190612b59565b60405180910390f35b61017f6104cd565b60405161018c9190612b8f565b60405180910390f35b6101af60048036038101906101aa9190612666565b61055f565b6040516101bc9190612a9f565b60405180910390f35b6101df60048036038101906101da9190612583565b6105e4565b005b6101fb60048036038101906101f691906123ee565b6106fc565b005b61021760048036038101906102129190612583565b61075c565b6040516102249190612dd1565b60405180910390f35b610247600480360381019061024291906123ee565b610781565b005b610263600480360381019061025e9190612666565b6107a1565b6040516102709190612b3d565b60405180910390f35b610293600480360381019061028e91906122ca565b610841565b6040516102a09190612b3d565b60405180910390f35b6102c360048036038101906102be9190612666565b61090d565b6040516102d09190612a9f565b60405180910390f35b6102f360048036038101906102ee91906122ca565b6109bf565b6040516103009190612dd1565b60405180910390f35b610323600480360381019061031e919061268f565b610a77565b6040516103309190612dd1565b60405180910390f35b610341610a9c565b60405161034e9190612a9f565b60405180910390f35b61035f610ac2565b60405161036c9190612b8f565b60405180910390f35b61038f600480360381019061038a9190612547565b610b54565b005b6103ab60048036038101906103a6919061243d565b610b6a565b005b6103c760048036038101906103c2919061232f565b610bcc565b6040516103d49190612b74565b60405180910390f35b6103f760048036038101906103f29190612666565b610bfa565b6040516104049190612b8f565b60405180910390f35b610415610d4c565b6040516104229190612dd1565b60405180910390f35b610445600480360381019061044091906122f3565b610d52565b6040516104529190612b59565b60405180910390f35b61047560048036038101906104709190612611565b610de6565b6040516104829190612dd1565b60405180910390f35b6104a560048036038101906104a091906124b8565b610f7e565b6040516104b29190612b74565b60405180910390f35b60006104c68261109e565b9050919050565b6060600080546104dc906130a6565b80601f0160208091040260200160405190810160405280929190818152602001828054610508906130a6565b80156105555780601f1061052a57610100808354040283529160200191610555565b820191906000526020600020905b81548152906001019060200180831161053857829003601f168201915b5050505050905090565b600061056a82611118565b6105a9576040517f08c379a00000000000000000000000000000000000000000000000000000000081526004016105a090612d31565b60405180910390fd5b6004600083815260200190815260200160002060009054906101000a900473ffffffffffffffffffffffffffffffffffffffff169050919050565b60006105ef8261090d565b90508073ffffffffffffffffffffffffffffffffffffffff168373ffffffffffffffffffffffffffffffffffffffff161415610660576040517f08c379a000000000000000000000000000000000000000000000000000000000815260040161065790612d71565b60405180910390fd5b8073ffffffffffffffffffffffffffffffffffffffff1661067f611184565b73ffffffffffffffffffffffffffffffffffffffff1614806106ae57506106ad816106a8611184565b610d52565b5b6106ed576040517f08c379a00000000000000000000000000000000000000000000000000000000081526004016106e490612c71565b60405180910390fd5b6106f7838361118c565b505050565b61070d610707611184565b82611245565b61074c576040517f08c379a000000000000000000000000000000000000000000000000000000000815260040161074390612db1565b60405180910390fd5b610757838383611323565b505050565b6009602052816000526040600020602052806000526040600020600091509150505481565b61079c83838360405180602001604052806000815250610b6a565b505050565b6107a9611fab565b6107b1611fab565b60005b601281101561083757600a600085815260200190815260200160002060008281526020019081526020016000205482826012811061081b577f4e487b7100000000000000000000000000000000000000000000000000000000600052603260045260246000fd5b602002018181525050808061082f90613109565b9150506107b4565b5080915050919050565b610849611fab565b610851611fab565b60005b601281101561090357600960008573ffffffffffffffffffffffffffffffffffffffff1673ffffffffffffffffffffffffffffffffffffffff1681526020019081526020016000206000828152602001908152602001600020548282601281106108e7577f4e487b7100000000000000000000000000000000000000000000000000000000600052603260045260246000fd5b60200201818152505080806108fb90613109565b915050610854565b5080915050919050565b6000806002600084815260200190815260200160002060009054906101000a900473ffffffffffffffffffffffffffffffffffffffff169050600073ffffffffffffffffffffffffffffffffffffffff168173ffffffffffffffffffffffffffffffffffffffff1614156109b6576040517f08c379a00000000000000000000000000000000000000000000000000000000081526004016109ad90612cb1565b60405180910390fd5b80915050919050565b60008073ffffffffffffffffffffffffffffffffffffffff168273ffffffffffffffffffffffffffffffffffffffff161415610a30576040517f08c379a0000000000000000000000000000000000000000000000000000000008152600401610a2790612c91565b60405180910390fd5b600360008373ffffffffffffffffffffffffffffffffffffffff1673ffffffffffffffffffffffffffffffffffffffff168152602001908152602001600020549050919050565b600a602052816000526040600020602052806000526040600020600091509150505481565b600860009054906101000a900473ffffffffffffffffffffffffffffffffffffffff1681565b606060018054610ad1906130a6565b80601f0160208091040260200160405190810160405280929190818152602001828054610afd906130a6565b8015610b4a5780601f10610b1f57610100808354040283529160200191610b4a565b820191906000526020600020905b815481529060010190602001808311610b2d57829003601f168201915b5050505050905090565b610b66610b5f611184565b838361158a565b5050565b610b7b610b75611184565b83611245565b610bba576040517f08c379a0000000000000000000000000000000000000000000000000000000008152600401610bb190612db1565b60405180910390fd5b610bc6848484846116f7565b50505050565b60007ff23a6e612e1ff4830e658fe43f4e3cb4a5f8170bd5d9e69fb5d7a7fa9e4fdf97905095945050505050565b6060610c0582611118565b610c44576040517f08c379a0000000000000000000000000000000000000000000000000000000008152600401610c3b90612d11565b60405180910390fd5b6000600660008481526020019081526020016000208054610c64906130a6565b80601f0160208091040260200160405190810160405280929190818152602001828054610c90906130a6565b8015610cdd5780601f10610cb257610100808354040283529160200191610cdd565b820191906000526020600020905b815481529060010190602001808311610cc057829003601f168201915b505050505090506000610cee611753565b9050600081511415610d04578192505050610d47565b600082511115610d39578082604051602001610d21929190612a7b565b60405160208183030381529060405292505050610d47565b610d428461176a565b925050505b919050565b60075481565b6000600560008473ffffffffffffffffffffffffffffffffffffffff1673ffffffffffffffffffffffffffffffffffffffff16815260200190815260200160002060008373ffffffffffffffffffffffffffffffffffffffff1673ffffffffffffffffffffffffffffffffffffffff16815260200190815260200160002060009054906101000a900460ff16905092915050565b6000600860009054906101000a900473ffffffffffffffffffffffffffffffffffffffff1673ffffffffffffffffffffffffffffffffffffffff163373ffffffffffffffffffffffffffffffffffffffff1614610e78576040517f08c379a0000000000000000000000000000000000000000000000000000000008152600401610e6f90612d91565b60405180910390fd5b60006007549050610e893382611811565b610e93818561182f565b6001600754610ea29190612f35565b60078190555060005b6012811015610f73576000848260128110610eef577f4e487b7100000000000000000000000000000000000000000000000000000000600052603260045260246000fd5b602002015114610f6057838160128110610f32577f4e487b7100000000000000000000000000000000000000000000000000000000600052603260045260246000fd5b6020020151600a60008481526020019081526020016000206000838152602001908152602001600020819055505b8080610f6b90613109565b915050610eab565b508091505092915050565b60007f2d268d008d43f0645a69bd4f4e7d30b66ac808e9b857fdb6c0fa5e3be8d6b320858585604051610fb393929190612b06565b60405180910390a161101e83600960008873ffffffffffffffffffffffffffffffffffffffff1673ffffffffffffffffffffffffffffffffffffffff1681526020019081526020016000206000878152602001908152602001600020546118a390919063ffffffff16565b600960008773ffffffffffffffffffffffffffffffffffffffff1673ffffffffffffffffffffffffffffffffffffffff1681526020019081526020016000206000868152602001908152602001600020819055507ff23a6e612e1ff4830e658fe43f4e3cb4a5f8170bd5d9e69fb5d7a7fa9e4fdf97905095945050505050565b60007f4e2312e0000000000000000000000000000000000000000000000000000000007bffffffffffffffffffffffffffffffffffffffffffffffffffffffff1916827bffffffffffffffffffffffffffffffffffffffffffffffffffffffff191614806111115750611110826118b9565b5b9050919050565b60008073ffffffffffffffffffffffffffffffffffffffff166002600084815260200190815260200160002060009054906101000a900473ffffffffffffffffffffffffffffffffffffffff1673ffffffffffffffffffffffffffffffffffffffff1614159050919050565b600033905090565b816004600083815260200190815260200160002060006101000a81548173ffffffffffffffffffffffffffffffffffffffff021916908373ffffffffffffffffffffffffffffffffffffffff160217905550808273ffffffffffffffffffffffffffffffffffffffff166111ff8361090d565b73ffffffffffffffffffffffffffffffffffffffff167f8c5be1e5ebec7d5bd14f71427d1e84f3dd0314c0f7b2291e5b200ac8c7c3b92560405160405180910390a45050565b600061125082611118565b61128f576040517f08c379a000000000000000000000000000000000000000000000000000000000815260040161128690612c51565b60405180910390fd5b600061129a8361090d565b90508073ffffffffffffffffffffffffffffffffffffffff168473ffffffffffffffffffffffffffffffffffffffff16148061130957508373ffffffffffffffffffffffffffffffffffffffff166112f18461055f565b73ffffffffffffffffffffffffffffffffffffffff16145b8061131a57506113198185610d52565b5b91505092915050565b8273ffffffffffffffffffffffffffffffffffffffff166113438261090d565b73ffffffffffffffffffffffffffffffffffffffff1614611399576040517f08c379a000000000000000000000000000000000000000000000000000000000815260040161139090612bd1565b60405180910390fd5b600073ffffffffffffffffffffffffffffffffffffffff168273ffffffffffffffffffffffffffffffffffffffff161415611409576040517f08c379a000000000000000000000000000000000000000000000000000000000815260040161140090612c11565b60405180910390fd5b61141483838361199b565b61141f60008261118c565b6001600360008573ffffffffffffffffffffffffffffffffffffffff1673ffffffffffffffffffffffffffffffffffffffff168152602001908152602001600020600082825461146f9190612fbc565b925050819055506001600360008473ffffffffffffffffffffffffffffffffffffffff1673ffffffffffffffffffffffffffffffffffffffff16815260200190815260200160002060008282546114c69190612f35565b92505081905550816002600083815260200190815260200160002060006101000a81548173ffffffffffffffffffffffffffffffffffffffff021916908373ffffffffffffffffffffffffffffffffffffffff160217905550808273ffffffffffffffffffffffffffffffffffffffff168473ffffffffffffffffffffffffffffffffffffffff167fddf252ad1be2c89b69c2b068fc378daa952ba7f163c4a11628f55a4df523b3ef60405160405180910390a46115858383836119a0565b505050565b8173ffffffffffffffffffffffffffffffffffffffff168373ffffffffffffffffffffffffffffffffffffffff1614156115f9576040517f08c379a00000000000000000000000000000000000000000000000000000000081526004016115f090612c31565b60405180910390fd5b80600560008573ffffffffffffffffffffffffffffffffffffffff1673ffffffffffffffffffffffffffffffffffffffff16815260200190815260200160002060008473ffffffffffffffffffffffffffffffffffffffff1673ffffffffffffffffffffffffffffffffffffffff16815260200190815260200160002060006101000a81548160ff0219169083151502179055508173ffffffffffffffffffffffffffffffffffffffff168373ffffffffffffffffffffffffffffffffffffffff167f17307eab39ab6107e8899845ad3d59bd9653f200f220920489ca2b5937696c31836040516116ea9190612b59565b60405180910390a3505050565b611702848484611323565b61170e848484846119a5565b61174d576040517f08c379a000000000000000000000000000000000000000000000000000000000815260040161174490612bb1565b60405180910390fd5b50505050565b606060405180602001604052806000815250905090565b606061177582611118565b6117b4576040517f08c379a00000000000000000000000000000000000000000000000000000000081526004016117ab90612d51565b60405180910390fd5b60006117be611753565b905060008151116117de5760405180602001604052806000815250611809565b806117e884611b3c565b6040516020016117f9929190612a7b565b6040516020818303038152906040525b915050919050565b61182b828260405180602001604052806000815250611ce9565b5050565b61183882611118565b611877576040517f08c379a000000000000000000000000000000000000000000000000000000000815260040161186e90612cd1565b60405180910390fd5b8060066000848152602001908152602001600020908051906020019061189e929190611fce565b505050565b600081836118b19190612f35565b905092915050565b60007f80ac58cd000000000000000000000000000000000000000000000000000000007bffffffffffffffffffffffffffffffffffffffffffffffffffffffff1916827bffffffffffffffffffffffffffffffffffffffffffffffffffffffff1916148061198457507f5b5e139f000000000000000000000000000000000000000000000000000000007bffffffffffffffffffffffffffffffffffffffffffffffffffffffff1916827bffffffffffffffffffffffffffffffffffffffffffffffffffffffff1916145b80611994575061199382611d44565b5b9050919050565b505050565b505050565b60006119c68473ffffffffffffffffffffffffffffffffffffffff16611dae565b15611b2f578373ffffffffffffffffffffffffffffffffffffffff1663150b7a026119ef611184565b8786866040518563ffffffff1660e01b8152600401611a119493929190612aba565b602060405180830381600087803b158015611a2b57600080fd5b505af1925050508015611a5c57506040513d601f19601f82011682018060405250810190611a5991906125e8565b60015b611adf573d8060008114611a8c576040519150601f19603f3d011682016040523d82523d6000602084013e611a91565b606091505b50600081511415611ad7576040517f08c379a0000000000000000000000000000000000000000000000000000000008152600401611ace90612bb1565b60405180910390fd5b805181602001fd5b63150b7a0260e01b7bffffffffffffffffffffffffffffffffffffffffffffffffffffffff1916817bffffffffffffffffffffffffffffffffffffffffffffffffffffffff191614915050611b34565b600190505b949350505050565b60606000821415611b84576040518060400160405280600181526020017f30000000000000000000000000000000000000000000000000000000000000008152509050611ce4565b600082905060005b60008214611bb6578080611b9f90613109565b915050600a82611baf9190612f8b565b9150611b8c565b60008167ffffffffffffffff811115611bf8577f4e487b7100000000000000000000000000000000000000000000000000000000600052604160045260246000fd5b6040519080825280601f01601f191660200182016040528015611c2a5781602001600182028036833780820191505090505b5090505b60008514611cdd57600182611c439190612fbc565b9150600a85611c529190613152565b6030611c5e9190612f35565b60f81b818381518110611c9a577f4e487b7100000000000000000000000000000000000000000000000000000000600052603260045260246000fd5b60200101907effffffffffffffffffffffffffffffffffffffffffffffffffffffffffffff1916908160001a905350600a85611cd69190612f8b565b9450611c2e565b8093505050505b919050565b611cf38383611dd1565b611d0060008484846119a5565b611d3f576040517f08c379a0000000000000000000000000000000000000000000000000000000008152600401611d3690612bb1565b60405180910390fd5b505050565b60007f01ffc9a7000000000000000000000000000000000000000000000000000000007bffffffffffffffffffffffffffffffffffffffffffffffffffffffff1916827bffffffffffffffffffffffffffffffffffffffffffffffffffffffff1916149050919050565b6000808273ffffffffffffffffffffffffffffffffffffffff163b119050919050565b600073ffffffffffffffffffffffffffffffffffffffff168273ffffffffffffffffffffffffffffffffffffffff161415611e41576040517f08c379a0000000000000000000000000000000000000000000000000000000008152600401611e3890612cf1565b60405180910390fd5b611e4a81611118565b15611e8a576040517f08c379a0000000000000000000000000000000000000000000000000000000008152600401611e8190612bf1565b60405180910390fd5b611e966000838361199b565b6001600360008473ffffffffffffffffffffffffffffffffffffffff1673ffffffffffffffffffffffffffffffffffffffff1681526020019081526020016000206000828254611ee69190612f35565b92505081905550816002600083815260200190815260200160002060006101000a81548173ffffffffffffffffffffffffffffffffffffffff021916908373ffffffffffffffffffffffffffffffffffffffff160217905550808273ffffffffffffffffffffffffffffffffffffffff16600073ffffffffffffffffffffffffffffffffffffffff167fddf252ad1be2c89b69c2b068fc378daa952ba7f163c4a11628f55a4df523b3ef60405160405180910390a4611fa7600083836119a0565b5050565b604051806102400160405280601290602082028036833780820191505090505090565b828054611fda906130a6565b90600052602060002090601f016020900481019282611ffc5760008555612043565b82601f1061201557805160ff1916838001178555612043565b82800160010185558215612043579182015b82811115612042578251825591602001919060010190612027565b5b5090506120509190612054565b5090565b5b8082111561206d576000816000905550600101612055565b5090565b600061208461207f84612e11565b612dec565b9050808285602086028201111561209a57600080fd5b60005b858110156120ca57816120b088826122b5565b84526020840193506020830192505060018101905061209d565b5050509392505050565b60006120e76120e284612e37565b612dec565b9050808382526020820190508285602086028201111561210657600080fd5b60005b85811015612136578161211c88826122b5565b845260208401935060208301925050600181019050612109565b5050509392505050565b600061215361214e84612e63565b612dec565b90508281526020810184848401111561216b57600080fd5b612176848285613064565b509392505050565b600061219161218c84612e94565b612dec565b9050828152602081018484840111156121a957600080fd5b6121b4848285613064565b509392505050565b6000813590506121cb8161371d565b92915050565b600082601f8301126121e257600080fd5b60126121ef848285612071565b91505092915050565b600082601f83011261220957600080fd5b81356122198482602086016120d4565b91505092915050565b60008135905061223181613734565b92915050565b6000813590506122468161374b565b92915050565b60008151905061225b8161374b565b92915050565b600082601f83011261227257600080fd5b8135612282848260208601612140565b91505092915050565b600082601f83011261229c57600080fd5b81356122ac84826020860161217e565b91505092915050565b6000813590506122c481613762565b92915050565b6000602082840312156122dc57600080fd5b60006122ea848285016121bc565b91505092915050565b6000806040838503121561230657600080fd5b6000612314858286016121bc565b9250506020612325858286016121bc565b9150509250929050565b600080600080600060a0868803121561234757600080fd5b6000612355888289016121bc565b9550506020612366888289016121bc565b945050604086013567ffffffffffffffff81111561238357600080fd5b61238f888289016121f8565b935050606086013567ffffffffffffffff8111156123ac57600080fd5b6123b8888289016121f8565b925050608086013567ffffffffffffffff8111156123d557600080fd5b6123e188828901612261565b9150509295509295909350565b60008060006060848603121561240357600080fd5b6000612411868287016121bc565b9350506020612422868287016121bc565b9250506040612433868287016122b5565b9150509250925092565b6000806000806080858703121561245357600080fd5b6000612461878288016121bc565b9450506020612472878288016121bc565b9350506040612483878288016122b5565b925050606085013567ffffffffffffffff8111156124a057600080fd5b6124ac87828801612261565b91505092959194509250565b600080600080600060a086880312156124d057600080fd5b60006124de888289016121bc565b95505060206124ef888289016121bc565b9450506040612500888289016122b5565b9350506060612511888289016122b5565b925050608086013567ffffffffffffffff81111561252e57600080fd5b61253a88828901612261565b9150509295509295909350565b6000806040838503121561255a57600080fd5b6000612568858286016121bc565b925050602061257985828601612222565b9150509250929050565b6000806040838503121561259657600080fd5b60006125a4858286016121bc565b92505060206125b5858286016122b5565b9150509250929050565b6000602082840312156125d157600080fd5b60006125df84828501612237565b91505092915050565b6000602082840312156125fa57600080fd5b60006126088482850161224c565b91505092915050565b600080610260838503121561262557600080fd5b600083013567ffffffffffffffff81111561263f57600080fd5b61264b8582860161228b565b925050602061265c858286016121d1565b9150509250929050565b60006020828403121561267857600080fd5b6000612686848285016122b5565b91505092915050565b600080604083850312156126a257600080fd5b60006126b0858286016122b5565b92505060206126c1858286016122b5565b9150509250929050565b60006126d78383612a5d565b60208301905092915050565b6126ec81612ff0565b82525050565b6126fb81612ecf565b6127058184612efd565b925061271082612ec5565b8060005b8381101561274157815161272887826126cb565b965061273383612ef0565b925050600181019050612714565b505050505050565b61275281613002565b82525050565b6127618161300e565b82525050565b600061277282612eda565b61277c8185612f08565b935061278c818560208601613073565b6127958161323f565b840191505092915050565b60006127ab82612ee5565b6127b58185612f19565b93506127c5818560208601613073565b6127ce8161323f565b840191505092915050565b60006127e482612ee5565b6127ee8185612f2a565b93506127fe818560208601613073565b80840191505092915050565b6000612817603283612f19565b915061282282613250565b604082019050919050565b600061283a602583612f19565b91506128458261329f565b604082019050919050565b600061285d601c83612f19565b9150612868826132ee565b602082019050919050565b6000612880602483612f19565b915061288b82613317565b604082019050919050565b60006128a3601983612f19565b91506128ae82613366565b602082019050919050565b60006128c6602c83612f19565b91506128d18261338f565b604082019050919050565b60006128e9603883612f19565b91506128f4826133de565b604082019050919050565b600061290c602a83612f19565b91506129178261342d565b604082019050919050565b600061292f602983612f19565b915061293a8261347c565b604082019050919050565b6000612952602e83612f19565b915061295d826134cb565b604082019050919050565b6000612975602083612f19565b91506129808261351a565b602082019050919050565b6000612998603183612f19565b91506129a382613543565b604082019050919050565b60006129bb602c83612f19565b91506129c682613592565b604082019050919050565b60006129de602f83612f19565b91506129e9826135e1565b604082019050919050565b6000612a01602183612f19565b9150612a0c82613630565b604082019050919050565b6000612a24602383612f19565b9150612a2f8261367f565b604082019050919050565b6000612a47603183612f19565b9150612a52826136ce565b604082019050919050565b612a668161305a565b82525050565b612a758161305a565b82525050565b6000612a8782856127d9565b9150612a9382846127d9565b91508190509392505050565b6000602082019050612ab460008301846126e3565b92915050565b6000608082019050612acf60008301876126e3565b612adc60208301866126e3565b612ae96040830185612a6c565b8181036060830152612afb8184612767565b905095945050505050565b6000606082019050612b1b60008301866126e3565b612b286020830185612a6c565b612b356040830184612a6c565b949350505050565b600061024082019050612b5360008301846126f2565b92915050565b6000602082019050612b6e6000830184612749565b92915050565b6000602082019050612b896000830184612758565b92915050565b60006020820190508181036000830152612ba981846127a0565b905092915050565b60006020820190508181036000830152612bca8161280a565b9050919050565b60006020820190508181036000830152612bea8161282d565b9050919050565b60006020820190508181036000830152612c0a81612850565b9050919050565b60006020820190508181036000830152612c2a81612873565b9050919050565b60006020820190508181036000830152612c4a81612896565b9050919050565b60006020820190508181036000830152612c6a816128b9565b9050919050565b60006020820190508181036000830152612c8a816128dc565b9050919050565b60006020820190508181036000830152612caa816128ff565b9050919050565b60006020820190508181036000830152612cca81612922565b9050919050565b60006020820190508181036000830152612cea81612945565b9050919050565b60006020820190508181036000830152612d0a81612968565b9050919050565b60006020820190508181036000830152612d2a8161298b565b9050919050565b60006020820190508181036000830152612d4a816129ae565b9050919050565b60006020820190508181036000830152612d6a816129d1565b9050919050565b60006020820190508181036000830152612d8a816129f4565b9050919050565b60006020820190508181036000830152612daa81612a17565b9050919050565b60006020820190508181036000830152612dca81612a3a565b9050919050565b6000602082019050612de66000830184612a6c565b92915050565b6000612df6612e07565b9050612e0282826130d8565b919050565b6000604051905090565b600067ffffffffffffffff821115612e2c57612e2b613210565b5b602082029050919050565b600067ffffffffffffffff821115612e5257612e51613210565b5b602082029050602081019050919050565b600067ffffffffffffffff821115612e7e57612e7d613210565b5b612e878261323f565b9050602081019050919050565b600067ffffffffffffffff821115612eaf57612eae613210565b5b612eb88261323f565b9050602081019050919050565b6000819050919050565b600060129050919050565b600081519050919050565b600081519050919050565b6000602082019050919050565b600081905092915050565b600082825260208201905092915050565b600082825260208201905092915050565b600081905092915050565b6000612f408261305a565b9150612f4b8361305a565b9250827fffffffffffffffffffffffffffffffffffffffffffffffffffffffffffffffff03821115612f8057612f7f613183565b5b828201905092915050565b6000612f968261305a565b9150612fa18361305a565b925082612fb157612fb06131b2565b5b828204905092915050565b6000612fc78261305a565b9150612fd28361305a565b925082821015612fe557612fe4613183565b5b828203905092915050565b6000612ffb8261303a565b9050919050565b60008115159050919050565b60007fffffffff0000000000000000000000000000000000000000000000000000000082169050919050565b600073ffffffffffffffffffffffffffffffffffffffff82169050919050565b6000819050919050565b82818337600083830152505050565b60005b83811015613091578082015181840152602081019050613076565b838111156130a0576000848401525b50505050565b600060028204905060018216806130be57607f821691505b602082108114156130d2576130d16131e1565b5b50919050565b6130e18261323f565b810181811067ffffffffffffffff82111715613100576130ff613210565b5b80604052505050565b60006131148261305a565b91507fffffffffffffffffffffffffffffffffffffffffffffffffffffffffffffffff82141561314757613146613183565b5b600182019050919050565b600061315d8261305a565b91506131688361305a565b925082613178576131776131b2565b5b828206905092915050565b7f4e487b7100000000000000000000000000000000000000000000000000000000600052601160045260246000fd5b7f4e487b7100000000000000000000000000000000000000000000000000000000600052601260045260246000fd5b7f4e487b7100000000000000000000000000000000000000000000000000000000600052602260045260246000fd5b7f4e487b7100000000000000000000000000000000000000000000000000000000600052604160045260246000fd5b6000601f19601f8301169050919050565b7f4552433732313a207472616e7366657220746f206e6f6e20455243373231526560008201527f63656976657220696d706c656d656e7465720000000000000000000000000000602082015250565b7f4552433732313a207472616e736665722066726f6d20696e636f72726563742060008201527f6f776e6572000000000000000000000000000000000000000000000000000000602082015250565b7f4552433732313a20746f6b656e20616c7265616479206d696e74656400000000600082015250565b7f4552433732313a207472616e7366657220746f20746865207a65726f2061646460008201527f7265737300000000000000000000000000000000000000000000000000000000602082015250565b7f4552433732313a20617070726f766520746f2063616c6c657200000000000000600082015250565b7f4552433732313a206f70657261746f7220717565727920666f72206e6f6e657860008201527f697374656e7420746f6b656e0000000000000000000000000000000000000000602082015250565b7f4552433732313a20617070726f76652063616c6c6572206973206e6f74206f7760008201527f6e6572206e6f7220617070726f76656420666f7220616c6c0000000000000000602082015250565b7f4552433732313a2062616c616e636520717565727920666f7220746865207a6560008201527f726f206164647265737300000000000000000000000000000000000000000000602082015250565b7f4552433732313a206f776e657220717565727920666f72206e6f6e657869737460008201527f656e7420746f6b656e0000000000000000000000000000000000000000000000602082015250565b7f45524337323155524953746f726167653a2055524920736574206f66206e6f6e60008201527f6578697374656e7420746f6b656e000000000000000000000000000000000000602082015250565b7f4552433732313a206d696e7420746f20746865207a65726f2061646472657373600082015250565b7f45524337323155524953746f726167653a2055524920717565727920666f722060008201527f6e6f6e6578697374656e7420746f6b656e000000000000000000000000000000602082015250565b7f4552433732313a20617070726f76656420717565727920666f72206e6f6e657860008201527f697374656e7420746f6b656e0000000000000000000000000000000000000000602082015250565b7f4552433732314d657461646174613a2055524920717565727920666f72206e6f60008201527f6e6578697374656e7420746f6b656e0000000000000000000000000000000000602082015250565b7f4552433732313a20617070726f76616c20746f2063757272656e74206f776e6560008201527f7200000000000000000000000000000000000000000000000000000000000000602082015250565b7f4f776e6572206f6e6c792063616e20706572666f726d2074686973206163746960008201527f6f6e2e0000000000000000000000000000000000000000000000000000000000602082015250565b7f4552433732313a207472616e736665722063616c6c6572206973206e6f74206f60008201527f776e6572206e6f7220617070726f766564000000000000000000000000000000602082015250565b61372681612ff0565b811461373157600080fd5b50565b61373d81613002565b811461374857600080fd5b50565b6137548161300e565b811461375f57600080fd5b50565b61376b8161305a565b811461377657600080fd5b5056fea264697066735822122084592c70c8def9146a09f4a36397fa1499b2e6ac2f3410dc5116f9ab29361eac64736f6c63430008040033",
  "linkReferences": {},
  "deployedLinkReferences": {}
}