{
  "_format": "hh-sol-artifact-1",
  "contractName": "Molecule",
  "sourceName": "contracts/Molecule.sol",
  "abi": [
    {
      "inputs": [],
      "stateMutability": "nonpayable",
      "type": "constructor"
    },
    {
      "anonymous": false,
      "inputs": [
        {
          "indexed": true,
          "internalType": "address",
          "name": "owner",
          "type": "address"
        },
        {
          "indexed": true,
          "internalType": "address",
          "name": "approved",
          "type": "address"
        },
        {
          "indexed": true,
          "internalType": "uint256",
          "name": "tokenId",
          "type": "uint256"
        }
      ],
      "name": "Approval",
      "type": "event"
    },
    {
      "anonymous": false,
      "inputs": [
        {
          "indexed": true,
          "internalType": "address",
          "name": "owner",
          "type": "address"
        },
        {
          "indexed": true,
          "internalType": "address",
          "name": "operator",
          "type": "address"
        },
        {
          "indexed": false,
          "internalType": "bool",
          "name": "approved",
          "type": "bool"
        }
      ],
      "name": "ApprovalForAll",
      "type": "event"
    },
    {
      "anonymous": false,
      "inputs": [
        {
          "indexed": false,
          "internalType": "address",
          "name": "sender",
          "type": "address"
        },
        {
          "indexed": false,
          "internalType": "uint256",
          "name": "id",
          "type": "uint256"
        },
        {
          "indexed": false,
          "internalType": "uint256",
          "name": "count",
          "type": "uint256"
        }
      ],
      "name": "ElementReceived",
      "type": "event"
    },
    {
      "anonymous": false,
      "inputs": [
        {
          "indexed": false,
          "internalType": "address",
          "name": "operator",
          "type": "address"
        },
        {
          "indexed": false,
          "internalType": "address",
          "name": "applicant",
          "type": "address"
        },
        {
          "indexed": false,
          "internalType": "address",
          "name": "owner",
          "type": "address"
        },
        {
          "indexed": false,
          "internalType": "uint256",
          "name": "id",
          "type": "uint256"
        }
      ],
      "name": "ObtainRequested",
      "type": "event"
    },
    {
      "anonymous": false,
      "inputs": [
        {
          "indexed": true,
          "internalType": "address",
          "name": "from",
          "type": "address"
        },
        {
          "indexed": true,
          "internalType": "address",
          "name": "to",
          "type": "address"
        },
        {
          "indexed": true,
          "internalType": "uint256",
          "name": "tokenId",
          "type": "uint256"
        }
      ],
      "name": "Transfer",
      "type": "event"
    },
    {
      "inputs": [
        {
          "internalType": "address",
          "name": "to",
          "type": "address"
        },
        {
          "internalType": "uint256",
          "name": "tokenId",
          "type": "uint256"
        }
      ],
      "name": "approve",
      "outputs": [],
      "stateMutability": "nonpayable",
      "type": "function"
    },
    {
      "inputs": [
        {
          "internalType": "address",
          "name": "owner",
          "type": "address"
        }
      ],
      "name": "balanceOf",
      "outputs": [
        {
          "internalType": "uint256",
          "name": "",
          "type": "uint256"
        }
      ],
      "stateMutability": "view",
      "type": "function"
    },
    {
      "inputs": [
        {
          "internalType": "address",
          "name": "",
          "type": "address"
        },
        {
          "internalType": "uint256",
          "name": "",
          "type": "uint256"
        }
      ],
      "name": "elementTransmitters",
      "outputs": [
        {
          "internalType": "uint256",
          "name": "",
          "type": "uint256"
        }
      ],
      "stateMutability": "view",
      "type": "function"
    },
    {
      "inputs": [
        {
          "internalType": "uint256",
          "name": "tokenId",
          "type": "uint256"
        }
      ],
      "name": "getApproved",
      "outputs": [
        {
          "internalType": "address",
          "name": "",
          "type": "address"
        }
      ],
      "stateMutability": "view",
      "type": "function"
    },
    {
      "inputs": [
        {
          "internalType": "address",
          "name": "addr",
          "type": "address"
        }
      ],
      "name": "getElementsBalance",
      "outputs": [
        {
          "internalType": "uint256[18]",
          "name": "",
          "type": "uint256[18]"
        }
      ],
      "stateMutability": "view",
      "type": "function"
    },
    {
      "inputs": [
        {
          "internalType": "uint256",
          "name": "token_id",
          "type": "uint256"
        }
      ],
      "name": "getMoleculeCompound",
      "outputs": [
        {
          "internalType": "uint256[18]",
          "name": "",
          "type": "uint256[18]"
        }
      ],
      "stateMutability": "view",
      "type": "function"
    },
    {
      "inputs": [
        {
          "internalType": "address",
          "name": "owner",
          "type": "address"
        },
        {
          "internalType": "address",
          "name": "operator",
          "type": "address"
        }
      ],
      "name": "isApprovedForAll",
      "outputs": [
        {
          "internalType": "bool",
          "name": "",
          "type": "bool"
        }
      ],
      "stateMutability": "view",
      "type": "function"
    },
    {
      "inputs": [
        {
          "internalType": "string",
          "name": "tokenURI",
          "type": "string"
        },
        {
          "internalType": "uint256[18]",
          "name": "compound",
          "type": "uint256[18]"
        }
      ],
      "name": "mintMolecule",
      "outputs": [
        {
          "internalType": "uint256",
          "name": "",
          "type": "uint256"
        }
      ],
      "stateMutability": "nonpayable",
      "type": "function"
    },
    {
      "inputs": [
        {
          "internalType": "uint256",
          "name": "",
          "type": "uint256"
        },
        {
          "internalType": "uint256",
          "name": "",
          "type": "uint256"
        }
      ],
      "name": "moleculeCompound",
      "outputs": [
        {
          "internalType": "uint256",
          "name": "",
          "type": "uint256"
        }
      ],
      "stateMutability": "view",
      "type": "function"
    },
    {
      "inputs": [],
      "name": "name",
      "outputs": [
        {
          "internalType": "string",
          "name": "",
          "type": "string"
        }
      ],
      "stateMutability": "view",
      "type": "function"
    },
    {
      "inputs": [
        {
          "internalType": "address",
          "name": "operator",
          "type": "address"
        },
        {
          "internalType": "address",
          "name": "from",
          "type": "address"
        },
        {
          "internalType": "uint256[]",
          "name": "ids",
          "type": "uint256[]"
        },
        {
          "internalType": "uint256[]",
          "name": "values",
          "type": "uint256[]"
        },
        {
          "internalType": "bytes",
          "name": "data",
          "type": "bytes"
        }
      ],
      "name": "onERC1155BatchReceived",
      "outputs": [
        {
          "internalType": "bytes4",
          "name": "",
          "type": "bytes4"
        }
      ],
      "stateMutability": "nonpayable",
      "type": "function"
    },
    {
      "inputs": [
        {
          "internalType": "address",
          "name": "operator",
          "type": "address"
        },
        {
          "internalType": "address",
          "name": "from",
          "type": "address"
        },
        {
          "internalType": "uint256",
          "name": "id",
          "type": "uint256"
        },
        {
          "internalType": "uint256",
          "name": "value",
          "type": "uint256"
        },
        {
          "internalType": "bytes",
          "name": "data",
          "type": "bytes"
        }
      ],
      "name": "onERC1155Received",
      "outputs": [
        {
          "internalType": "bytes4",
          "name": "",
          "type": "bytes4"
        }
      ],
      "stateMutability": "nonpayable",
      "type": "function"
    },
    {
      "inputs": [],
      "name": "owner",
      "outputs": [
        {
          "internalType": "address",
          "name": "",
          "type": "address"
        }
      ],
      "stateMutability": "view",
      "type": "function"
    },
    {
      "inputs": [
        {
          "internalType": "uint256",
          "name": "tokenId",
          "type": "uint256"
        }
      ],
      "name": "ownerOf",
      "outputs": [
        {
          "internalType": "address",
          "name": "",
          "type": "address"
        }
      ],
      "stateMutability": "view",
      "type": "function"
    },
    {
      "inputs": [
        {
          "internalType": "address",
          "name": "account",
          "type": "address"
        },
        {
          "internalType": "uint256",
          "name": "id",
          "type": "uint256"
        }
      ],
      "name": "requestObtain",
      "outputs": [],
      "stateMutability": "nonpayable",
      "type": "function"
    },
    {
      "inputs": [
        {
          "internalType": "address",
          "name": "from",
          "type": "address"
        },
        {
          "internalType": "address",
          "name": "to",
          "type": "address"
        },
        {
          "internalType": "uint256",
          "name": "tokenId",
          "type": "uint256"
        }
      ],
      "name": "safeTransferFrom",
      "outputs": [],
      "stateMutability": "nonpayable",
      "type": "function"
    },
    {
      "inputs": [
        {
          "internalType": "address",
          "name": "from",
          "type": "address"
        },
        {
          "internalType": "address",
          "name": "to",
          "type": "address"
        },
        {
          "internalType": "uint256",
          "name": "tokenId",
          "type": "uint256"
        },
        {
          "internalType": "bytes",
          "name": "_data",
          "type": "bytes"
        }
      ],
      "name": "safeTransferFrom",
      "outputs": [],
      "stateMutability": "nonpayable",
      "type": "function"
    },
    {
      "inputs": [
        {
          "internalType": "address",
          "name": "operator",
          "type": "address"
        },
        {
          "internalType": "bool",
          "name": "approved",
          "type": "bool"
        }
      ],
      "name": "setApprovalForAll",
      "outputs": [],
      "stateMutability": "nonpayable",
      "type": "function"
    },
    {
      "inputs": [
        {
          "internalType": "bytes4",
          "name": "interfaceId",
          "type": "bytes4"
        }
      ],
      "name": "supportsInterface",
      "outputs": [
        {
          "internalType": "bool",
          "name": "",
          "type": "bool"
        }
      ],
      "stateMutability": "view",
      "type": "function"
    },
    {
      "inputs": [],
      "name": "symbol",
      "outputs": [
        {
          "internalType": "string",
          "name": "",
          "type": "string"
        }
      ],
      "stateMutability": "view",
      "type": "function"
    },
    {
      "inputs": [],
      "name": "tokenCounter",
      "outputs": [
        {
          "internalType": "uint256",
          "name": "",
          "type": "uint256"
        }
      ],
      "stateMutability": "view",
      "type": "function"
    },
    {
      "inputs": [
        {
          "internalType": "uint256",
          "name": "tokenId",
          "type": "uint256"
        }
      ],
      "name": "tokenURI",
      "outputs": [
        {
          "internalType": "string",
          "name": "",
          "type": "string"
        }
      ],
      "stateMutability": "view",
      "type": "function"
    },
    {
      "inputs": [
        {
          "internalType": "address",
          "name": "from",
          "type": "address"
        },
        {
          "internalType": "address",
          "name": "to",
          "type": "address"
        },
        {
          "internalType": "uint256",
          "name": "tokenId",
          "type": "uint256"
        }
      ],
      "name": "transferFrom",
      "outputs": [],
      "stateMutability": "nonpayable",
      "type": "function"
    }
  ],
  "bytecode": "0x60806040523480156200001157600080fd5b506040518060400160405280600981526020017f4d4f4c4543554c455300000000000000000000000000000000000000000000008152506040518060400160405280600381526020017f4d4f4c000000000000000000000000000000000000000000000000000000000081525081600090805190602001906200009692919062000101565b508060019080519060200190620000af92919062000101565b505050600060078190555033600860006101000a81548173ffffffffffffffffffffffffffffffffffffffff021916908373ffffffffffffffffffffffffffffffffffffffff16021790555062000216565b8280546200010f90620001b1565b90600052602060002090601f0160209004810192826200013357600085556200017f565b82601f106200014e57805160ff19168380011785556200017f565b828001600101855582156200017f579182015b828111156200017e57825182559160200191906001019062000161565b5b5090506200018e919062000192565b5090565b5b80821115620001ad57600081600090555060010162000193565b5090565b60006002820490506001821680620001ca57607f821691505b60208210811415620001e157620001e0620001e7565b5b50919050565b7f4e487b7100000000000000000000000000000000000000000000000000000000600052602260045260246000fd5b613b5280620002266000396000f3fe608060405234801561001057600080fd5b506004361061014d5760003560e01c8063871209b2116100c3578063c87b56dd1161007c578063c87b56dd146103e8578063d082e38114610418578063e533209d14610436578063e985e9c514610452578063ee3b071114610482578063f23a6e61146104b25761014d565b8063871209b2146103145780638da5cb5b1461034457806395d89b4114610362578063a22cb46514610380578063b88d4fde1461039c578063bc197c81146103b85761014d565b806339a160201161011557806339a160201461020857806342842e0e146102385780634b2e332f146102545780635ed3e9ba146102845780636352211e146102b457806370a08231146102e45761014d565b806301ffc9a71461015257806306fdde0314610182578063081812fc146101a0578063095ea7b3146101d057806323b872dd146101ec575b600080fd5b61016c600480360381019061016791906128b1565b6104e2565b6040516101799190612eb3565b60405180910390f35b61018a6104f4565b6040516101979190612ee9565b60405180910390f35b6101ba60048036038101906101b59190612958565b610586565b6040516101c79190612db4565b60405180910390f35b6101ea60048036038101906101e59190612875565b61060b565b005b610206600480360381019061020191906126e0565b610723565b005b610222600480360381019061021d9190612875565b610783565b60405161022f919061314b565b60405180910390f35b610252600480360381019061024d91906126e0565b6107a8565b005b61026e60048036038101906102699190612958565b6107c8565b60405161027b9190612e97565b60405180910390f35b61029e600480360381019061029991906125bc565b610868565b6040516102ab9190612e97565b60405180910390f35b6102ce60048036038101906102c99190612958565b610934565b6040516102db9190612db4565b60405180910390f35b6102fe60048036038101906102f991906125bc565b6109e6565b60405161030b919061314b565b60405180910390f35b61032e60048036038101906103299190612981565b610a9e565b60405161033b919061314b565b60405180910390f35b61034c610ac3565b6040516103599190612db4565b60405180910390f35b61036a610ae9565b6040516103779190612ee9565b60405180910390f35b61039a60048036038101906103959190612839565b610b7b565b005b6103b660048036038101906103b1919061272f565b610b91565b005b6103d260048036038101906103cd9190612621565b610bf3565b6040516103df9190612ece565b60405180910390f35b61040260048036038101906103fd9190612958565b610c21565b60405161040f9190612ee9565b60405180910390f35b610420610d73565b60405161042d919061314b565b60405180910390f35b610450600480360381019061044b9190612875565b610d79565b005b61046c600480360381019061046791906125e5565b61102e565b6040516104799190612eb3565b60405180910390f35b61049c60048036038101906104979190612903565b6110c2565b6040516104a9919061314b565b60405180910390f35b6104cc60048036038101906104c791906127aa565b61125a565b6040516104d99190612ece565b60405180910390f35b60006104ed8261137a565b9050919050565b60606000805461050390613420565b80601f016020809104026020016040519081016040528092919081815260200182805461052f90613420565b801561057c5780601f106105515761010080835404028352916020019161057c565b820191906000526020600020905b81548152906001019060200180831161055f57829003601f168201915b5050505050905090565b6000610591826113f4565b6105d0576040517f08c379a00000000000000000000000000000000000000000000000000000000081526004016105c79061308b565b60405180910390fd5b6004600083815260200190815260200160002060009054906101000a900473ffffffffffffffffffffffffffffffffffffffff169050919050565b600061061682610934565b90508073ffffffffffffffffffffffffffffffffffffffff168373ffffffffffffffffffffffffffffffffffffffff161415610687576040517f08c379a000000000000000000000000000000000000000000000000000000000815260040161067e906130cb565b60405180910390fd5b8073ffffffffffffffffffffffffffffffffffffffff166106a6611460565b73ffffffffffffffffffffffffffffffffffffffff1614806106d557506106d4816106cf611460565b61102e565b5b610714576040517f08c379a000000000000000000000000000000000000000000000000000000000815260040161070b90612fcb565b60405180910390fd5b61071e8383611468565b505050565b61073461072e611460565b82611521565b610773576040517f08c379a000000000000000000000000000000000000000000000000000000000815260040161076a9061312b565b60405180910390fd5b61077e8383836115ff565b505050565b6009602052816000526040600020602052806000526040600020600091509150505481565b6107c383838360405180602001604052806000815250610b91565b505050565b6107d061229d565b6107d861229d565b60005b601281101561085e57600a6000858152602001908152602001600020600082815260200190815260200160002054828260128110610842577f4e487b7100000000000000000000000000000000000000000000000000000000600052603260045260246000fd5b602002018181525050808061085690613483565b9150506107db565b5080915050919050565b61087061229d565b61087861229d565b60005b601281101561092a57600960008573ffffffffffffffffffffffffffffffffffffffff1673ffffffffffffffffffffffffffffffffffffffff16815260200190815260200160002060008281526020019081526020016000205482826012811061090e577f4e487b7100000000000000000000000000000000000000000000000000000000600052603260045260246000fd5b602002018181525050808061092290613483565b91505061087b565b5080915050919050565b6000806002600084815260200190815260200160002060009054906101000a900473ffffffffffffffffffffffffffffffffffffffff169050600073ffffffffffffffffffffffffffffffffffffffff168173ffffffffffffffffffffffffffffffffffffffff1614156109dd576040517f08c379a00000000000000000000000000000000000000000000000000000000081526004016109d49061300b565b60405180910390fd5b80915050919050565b60008073ffffffffffffffffffffffffffffffffffffffff168273ffffffffffffffffffffffffffffffffffffffff161415610a57576040517f08c379a0000000000000000000000000000000000000000000000000000000008152600401610a4e90612feb565b60405180910390fd5b600360008373ffffffffffffffffffffffffffffffffffffffff1673ffffffffffffffffffffffffffffffffffffffff168152602001908152602001600020549050919050565b600a602052816000526040600020602052806000526040600020600091509150505481565b600860009054906101000a900473ffffffffffffffffffffffffffffffffffffffff1681565b606060018054610af890613420565b80601f0160208091040260200160405190810160405280929190818152602001828054610b2490613420565b8015610b715780601f10610b4657610100808354040283529160200191610b71565b820191906000526020600020905b815481529060010190602001808311610b5457829003601f168201915b5050505050905090565b610b8d610b86611460565b8383611866565b5050565b610ba2610b9c611460565b83611521565b610be1576040517f08c379a0000000000000000000000000000000000000000000000000000000008152600401610bd89061312b565b60405180910390fd5b610bed848484846119d3565b50505050565b60007ff23a6e612e1ff4830e658fe43f4e3cb4a5f8170bd5d9e69fb5d7a7fa9e4fdf97905095945050505050565b6060610c2c826113f4565b610c6b576040517f08c379a0000000000000000000000000000000000000000000000000000000008152600401610c629061306b565b60405180910390fd5b6000600660008481526020019081526020016000208054610c8b90613420565b80601f0160208091040260200160405190810160405280929190818152602001828054610cb790613420565b8015610d045780601f10610cd957610100808354040283529160200191610d04565b820191906000526020600020905b815481529060010190602001808311610ce757829003601f168201915b505050505090506000610d15611a2f565b9050600081511415610d2b578192505050610d6e565b600082511115610d60578082604051602001610d48929190612d90565b60405160208183030381529060405292505050610d6e565b610d6984611a46565b925050505b919050565b60075481565b80826000610d86836107c8565b90506000610d9383610868565b905060005b6012811015610e7157828160128110610dda577f4e487b7100000000000000000000000000000000000000000000000000000000600052603260045260246000fd5b6020020151828260128110610e18577f4e487b7100000000000000000000000000000000000000000000000000000000600052603260045260246000fd5b60200201511015610e5e576040517f08c379a0000000000000000000000000000000000000000000000000000000008152600401610e55906130eb565b60405180910390fd5b8080610e6990613483565b915050610d98565b5060003390507fe71c416ad4facc5fadc36aabc3b98aed4d8d94e3eb1db977e87128716d255e268188600860009054906101000a900473ffffffffffffffffffffffffffffffffffffffff1689604051610ece9493929190612dcf565b60405180910390a16000610ee1876107c8565b905060005b6012811015610ff657610f8f828260128110610f2b577f4e487b7100000000000000000000000000000000000000000000000000000000600052603260045260246000fd5b6020020151600960008c73ffffffffffffffffffffffffffffffffffffffff1673ffffffffffffffffffffffffffffffffffffffff168152602001908152602001600020600084815260200190815260200160002054611aed90919063ffffffff16565b600960008b73ffffffffffffffffffffffffffffffffffffffff1673ffffffffffffffffffffffffffffffffffffffff1681526020019081526020016000206000838152602001908152602001600020819055508080610fee90613483565b915050610ee6565b50611024600860009054906101000a900473ffffffffffffffffffffffffffffffffffffffff1689896107a8565b5050505050505050565b6000600560008473ffffffffffffffffffffffffffffffffffffffff1673ffffffffffffffffffffffffffffffffffffffff16815260200190815260200160002060008373ffffffffffffffffffffffffffffffffffffffff1673ffffffffffffffffffffffffffffffffffffffff16815260200190815260200160002060009054906101000a900460ff16905092915050565b6000600860009054906101000a900473ffffffffffffffffffffffffffffffffffffffff1673ffffffffffffffffffffffffffffffffffffffff163373ffffffffffffffffffffffffffffffffffffffff1614611154576040517f08c379a000000000000000000000000000000000000000000000000000000000815260040161114b9061310b565b60405180910390fd5b600060075490506111653382611b03565b61116f8185611b21565b600160075461117e91906132af565b60078190555060005b601281101561124f5760008482601281106111cb577f4e487b7100000000000000000000000000000000000000000000000000000000600052603260045260246000fd5b60200201511461123c5783816012811061120e577f4e487b7100000000000000000000000000000000000000000000000000000000600052603260045260246000fd5b6020020151600a60008481526020019081526020016000206000838152602001908152602001600020819055505b808061124790613483565b915050611187565b508091505092915050565b60007f2d268d008d43f0645a69bd4f4e7d30b66ac808e9b857fdb6c0fa5e3be8d6b32085858560405161128f93929190612e60565b60405180910390a16112fa83600960008873ffffffffffffffffffffffffffffffffffffffff1673ffffffffffffffffffffffffffffffffffffffff168152602001908152602001600020600087815260200190815260200160002054611b9590919063ffffffff16565b600960008773ffffffffffffffffffffffffffffffffffffffff1673ffffffffffffffffffffffffffffffffffffffff1681526020019081526020016000206000868152602001908152602001600020819055507ff23a6e612e1ff4830e658fe43f4e3cb4a5f8170bd5d9e69fb5d7a7fa9e4fdf97905095945050505050565b60007f4e2312e0000000000000000000000000000000000000000000000000000000007bffffffffffffffffffffffffffffffffffffffffffffffffffffffff1916827bffffffffffffffffffffffffffffffffffffffffffffffffffffffff191614806113ed57506113ec82611bab565b5b9050919050565b60008073ffffffffffffffffffffffffffffffffffffffff166002600084815260200190815260200160002060009054906101000a900473ffffffffffffffffffffffffffffffffffffffff1673ffffffffffffffffffffffffffffffffffffffff1614159050919050565b600033905090565b816004600083815260200190815260200160002060006101000a81548173ffffffffffffffffffffffffffffffffffffffff021916908373ffffffffffffffffffffffffffffffffffffffff160217905550808273ffffffffffffffffffffffffffffffffffffffff166114db83610934565b73ffffffffffffffffffffffffffffffffffffffff167f8c5be1e5ebec7d5bd14f71427d1e84f3dd0314c0f7b2291e5b200ac8c7c3b92560405160405180910390a45050565b600061152c826113f4565b61156b576040517f08c379a000000000000000000000000000000000000000000000000000000000815260040161156290612fab565b60405180910390fd5b600061157683610934565b90508073ffffffffffffffffffffffffffffffffffffffff168473ffffffffffffffffffffffffffffffffffffffff1614806115e557508373ffffffffffffffffffffffffffffffffffffffff166115cd84610586565b73ffffffffffffffffffffffffffffffffffffffff16145b806115f657506115f5818561102e565b5b91505092915050565b8273ffffffffffffffffffffffffffffffffffffffff1661161f82610934565b73ffffffffffffffffffffffffffffffffffffffff1614611675576040517f08c379a000000000000000000000000000000000000000000000000000000000815260040161166c90612f2b565b60405180910390fd5b600073ffffffffffffffffffffffffffffffffffffffff168273ffffffffffffffffffffffffffffffffffffffff1614156116e5576040517f08c379a00000000000000000000000000000000000000000000000000000000081526004016116dc90612f6b565b60405180910390fd5b6116f0838383611c8d565b6116fb600082611468565b6001600360008573ffffffffffffffffffffffffffffffffffffffff1673ffffffffffffffffffffffffffffffffffffffff168152602001908152602001600020600082825461174b9190613336565b925050819055506001600360008473ffffffffffffffffffffffffffffffffffffffff1673ffffffffffffffffffffffffffffffffffffffff16815260200190815260200160002060008282546117a291906132af565b92505081905550816002600083815260200190815260200160002060006101000a81548173ffffffffffffffffffffffffffffffffffffffff021916908373ffffffffffffffffffffffffffffffffffffffff160217905550808273ffffffffffffffffffffffffffffffffffffffff168473ffffffffffffffffffffffffffffffffffffffff167fddf252ad1be2c89b69c2b068fc378daa952ba7f163c4a11628f55a4df523b3ef60405160405180910390a4611861838383611c92565b505050565b8173ffffffffffffffffffffffffffffffffffffffff168373ffffffffffffffffffffffffffffffffffffffff1614156118d5576040517f08c379a00000000000000000000000000000000000000000000000000000000081526004016118cc90612f8b565b60405180910390fd5b80600560008573ffffffffffffffffffffffffffffffffffffffff1673ffffffffffffffffffffffffffffffffffffffff16815260200190815260200160002060008473ffffffffffffffffffffffffffffffffffffffff1673ffffffffffffffffffffffffffffffffffffffff16815260200190815260200160002060006101000a81548160ff0219169083151502179055508173ffffffffffffffffffffffffffffffffffffffff168373ffffffffffffffffffffffffffffffffffffffff167f17307eab39ab6107e8899845ad3d59bd9653f200f220920489ca2b5937696c31836040516119c69190612eb3565b60405180910390a3505050565b6119de8484846115ff565b6119ea84848484611c97565b611a29576040517f08c379a0000000000000000000000000000000000000000000000000000000008152600401611a2090612f0b565b60405180910390fd5b50505050565b606060405180602001604052806000815250905090565b6060611a51826113f4565b611a90576040517f08c379a0000000000000000000000000000000000000000000000000000000008152600401611a87906130ab565b60405180910390fd5b6000611a9a611a2f565b90506000815111611aba5760405180602001604052806000815250611ae5565b80611ac484611e2e565b604051602001611ad5929190612d90565b6040516020818303038152906040525b915050919050565b60008183611afb9190613336565b905092915050565b611b1d828260405180602001604052806000815250611fdb565b5050565b611b2a826113f4565b611b69576040517f08c379a0000000000000000000000000000000000000000000000000000000008152600401611b609061302b565b60405180910390fd5b80600660008481526020019081526020016000209080519060200190611b909291906122c0565b505050565b60008183611ba391906132af565b905092915050565b60007f80ac58cd000000000000000000000000000000000000000000000000000000007bffffffffffffffffffffffffffffffffffffffffffffffffffffffff1916827bffffffffffffffffffffffffffffffffffffffffffffffffffffffff19161480611c7657507f5b5e139f000000000000000000000000000000000000000000000000000000007bffffffffffffffffffffffffffffffffffffffffffffffffffffffff1916827bffffffffffffffffffffffffffffffffffffffffffffffffffffffff1916145b80611c865750611c8582612036565b5b9050919050565b505050565b505050565b6000611cb88473ffffffffffffffffffffffffffffffffffffffff166120a0565b15611e21578373ffffffffffffffffffffffffffffffffffffffff1663150b7a02611ce1611460565b8786866040518563ffffffff1660e01b8152600401611d039493929190612e14565b602060405180830381600087803b158015611d1d57600080fd5b505af1925050508015611d4e57506040513d601f19601f82011682018060405250810190611d4b91906128da565b60015b611dd1573d8060008114611d7e576040519150601f19603f3d011682016040523d82523d6000602084013e611d83565b606091505b50600081511415611dc9576040517f08c379a0000000000000000000000000000000000000000000000000000000008152600401611dc090612f0b565b60405180910390fd5b805181602001fd5b63150b7a0260e01b7bffffffffffffffffffffffffffffffffffffffffffffffffffffffff1916817bffffffffffffffffffffffffffffffffffffffffffffffffffffffff191614915050611e26565b600190505b949350505050565b60606000821415611e76576040518060400160405280600181526020017f30000000000000000000000000000000000000000000000000000000000000008152509050611fd6565b600082905060005b60008214611ea8578080611e9190613483565b915050600a82611ea19190613305565b9150611e7e565b60008167ffffffffffffffff811115611eea577f4e487b7100000000000000000000000000000000000000000000000000000000600052604160045260246000fd5b6040519080825280601f01601f191660200182016040528015611f1c5781602001600182028036833780820191505090505b5090505b60008514611fcf57600182611f359190613336565b9150600a85611f4491906134cc565b6030611f5091906132af565b60f81b818381518110611f8c577f4e487b7100000000000000000000000000000000000000000000000000000000600052603260045260246000fd5b60200101907effffffffffffffffffffffffffffffffffffffffffffffffffffffffffffff1916908160001a905350600a85611fc89190613305565b9450611f20565b8093505050505b919050565b611fe583836120c3565b611ff26000848484611c97565b612031576040517f08c379a000000000000000000000000000000000000000000000000000000000815260040161202890612f0b565b60405180910390fd5b505050565b60007f01ffc9a7000000000000000000000000000000000000000000000000000000007bffffffffffffffffffffffffffffffffffffffffffffffffffffffff1916827bffffffffffffffffffffffffffffffffffffffffffffffffffffffff1916149050919050565b6000808273ffffffffffffffffffffffffffffffffffffffff163b119050919050565b600073ffffffffffffffffffffffffffffffffffffffff168273ffffffffffffffffffffffffffffffffffffffff161415612133576040517f08c379a000000000000000000000000000000000000000000000000000000000815260040161212a9061304b565b60405180910390fd5b61213c816113f4565b1561217c576040517f08c379a000000000000000000000000000000000000000000000000000000000815260040161217390612f4b565b60405180910390fd5b61218860008383611c8d565b6001600360008473ffffffffffffffffffffffffffffffffffffffff1673ffffffffffffffffffffffffffffffffffffffff16815260200190815260200160002060008282546121d891906132af565b92505081905550816002600083815260200190815260200160002060006101000a81548173ffffffffffffffffffffffffffffffffffffffff021916908373ffffffffffffffffffffffffffffffffffffffff160217905550808273ffffffffffffffffffffffffffffffffffffffff16600073ffffffffffffffffffffffffffffffffffffffff167fddf252ad1be2c89b69c2b068fc378daa952ba7f163c4a11628f55a4df523b3ef60405160405180910390a461229960008383611c92565b5050565b604051806102400160405280601290602082028036833780820191505090505090565b8280546122cc90613420565b90600052602060002090601f0160209004810192826122ee5760008555612335565b82601f1061230757805160ff1916838001178555612335565b82800160010185558215612335579182015b82811115612334578251825591602001919060010190612319565b5b5090506123429190612346565b5090565b5b8082111561235f576000816000905550600101612347565b5090565b60006123766123718461318b565b613166565b9050808285602086028201111561238c57600080fd5b60005b858110156123bc57816123a288826125a7565b84526020840193506020830192505060018101905061238f565b5050509392505050565b60006123d96123d4846131b1565b613166565b905080838252602082019050828560208602820111156123f857600080fd5b60005b85811015612428578161240e88826125a7565b8452602084019350602083019250506001810190506123fb565b5050509392505050565b6000612445612440846131dd565b613166565b90508281526020810184848401111561245d57600080fd5b6124688482856133de565b509392505050565b600061248361247e8461320e565b613166565b90508281526020810184848401111561249b57600080fd5b6124a68482856133de565b509392505050565b6000813590506124bd81613ac0565b92915050565b600082601f8301126124d457600080fd5b60126124e1848285612363565b91505092915050565b600082601f8301126124fb57600080fd5b813561250b8482602086016123c6565b91505092915050565b60008135905061252381613ad7565b92915050565b60008135905061253881613aee565b92915050565b60008151905061254d81613aee565b92915050565b600082601f83011261256457600080fd5b8135612574848260208601612432565b91505092915050565b600082601f83011261258e57600080fd5b813561259e848260208601612470565b91505092915050565b6000813590506125b681613b05565b92915050565b6000602082840312156125ce57600080fd5b60006125dc848285016124ae565b91505092915050565b600080604083850312156125f857600080fd5b6000612606858286016124ae565b9250506020612617858286016124ae565b9150509250929050565b600080600080600060a0868803121561263957600080fd5b6000612647888289016124ae565b9550506020612658888289016124ae565b945050604086013567ffffffffffffffff81111561267557600080fd5b612681888289016124ea565b935050606086013567ffffffffffffffff81111561269e57600080fd5b6126aa888289016124ea565b925050608086013567ffffffffffffffff8111156126c757600080fd5b6126d388828901612553565b9150509295509295909350565b6000806000606084860312156126f557600080fd5b6000612703868287016124ae565b9350506020612714868287016124ae565b9250506040612725868287016125a7565b9150509250925092565b6000806000806080858703121561274557600080fd5b6000612753878288016124ae565b9450506020612764878288016124ae565b9350506040612775878288016125a7565b925050606085013567ffffffffffffffff81111561279257600080fd5b61279e87828801612553565b91505092959194509250565b600080600080600060a086880312156127c257600080fd5b60006127d0888289016124ae565b95505060206127e1888289016124ae565b94505060406127f2888289016125a7565b9350506060612803888289016125a7565b925050608086013567ffffffffffffffff81111561282057600080fd5b61282c88828901612553565b9150509295509295909350565b6000806040838503121561284c57600080fd5b600061285a858286016124ae565b925050602061286b85828601612514565b9150509250929050565b6000806040838503121561288857600080fd5b6000612896858286016124ae565b92505060206128a7858286016125a7565b9150509250929050565b6000602082840312156128c357600080fd5b60006128d184828501612529565b91505092915050565b6000602082840312156128ec57600080fd5b60006128fa8482850161253e565b91505092915050565b600080610260838503121561291757600080fd5b600083013567ffffffffffffffff81111561293157600080fd5b61293d8582860161257d565b925050602061294e858286016124c3565b9150509250929050565b60006020828403121561296a57600080fd5b6000612978848285016125a7565b91505092915050565b6000806040838503121561299457600080fd5b60006129a2858286016125a7565b92505060206129b3858286016125a7565b9150509250929050565b60006129c98383612d72565b60208301905092915050565b6129de8161336a565b82525050565b6129ed81613249565b6129f78184613277565b9250612a028261323f565b8060005b83811015612a33578151612a1a87826129bd565b9650612a258361326a565b925050600181019050612a06565b505050505050565b612a448161337c565b82525050565b612a5381613388565b82525050565b6000612a6482613254565b612a6e8185613282565b9350612a7e8185602086016133ed565b612a87816135b9565b840191505092915050565b6000612a9d8261325f565b612aa78185613293565b9350612ab78185602086016133ed565b612ac0816135b9565b840191505092915050565b6000612ad68261325f565b612ae081856132a4565b9350612af08185602086016133ed565b80840191505092915050565b6000612b09603283613293565b9150612b14826135ca565b604082019050919050565b6000612b2c602583613293565b9150612b3782613619565b604082019050919050565b6000612b4f601c83613293565b9150612b5a82613668565b602082019050919050565b6000612b72602483613293565b9150612b7d82613691565b604082019050919050565b6000612b95601983613293565b9150612ba0826136e0565b602082019050919050565b6000612bb8602c83613293565b9150612bc382613709565b604082019050919050565b6000612bdb603883613293565b9150612be682613758565b604082019050919050565b6000612bfe602a83613293565b9150612c09826137a7565b604082019050919050565b6000612c21602983613293565b9150612c2c826137f6565b604082019050919050565b6000612c44602e83613293565b9150612c4f82613845565b604082019050919050565b6000612c67602083613293565b9150612c7282613894565b602082019050919050565b6000612c8a603183613293565b9150612c95826138bd565b604082019050919050565b6000612cad602c83613293565b9150612cb88261390c565b604082019050919050565b6000612cd0602f83613293565b9150612cdb8261395b565b604082019050919050565b6000612cf3602183613293565b9150612cfe826139aa565b604082019050919050565b6000612d16601583613293565b9150612d21826139f9565b602082019050919050565b6000612d39602383613293565b9150612d4482613a22565b604082019050919050565b6000612d5c603183613293565b9150612d6782613a71565b604082019050919050565b612d7b816133d4565b82525050565b612d8a816133d4565b82525050565b6000612d9c8285612acb565b9150612da88284612acb565b91508190509392505050565b6000602082019050612dc960008301846129d5565b92915050565b6000608082019050612de460008301876129d5565b612df160208301866129d5565b612dfe60408301856129d5565b612e0b6060830184612d81565b95945050505050565b6000608082019050612e2960008301876129d5565b612e3660208301866129d5565b612e436040830185612d81565b8181036060830152612e558184612a59565b905095945050505050565b6000606082019050612e7560008301866129d5565b612e826020830185612d81565b612e8f6040830184612d81565b949350505050565b600061024082019050612ead60008301846129e4565b92915050565b6000602082019050612ec86000830184612a3b565b92915050565b6000602082019050612ee36000830184612a4a565b92915050565b60006020820190508181036000830152612f038184612a92565b905092915050565b60006020820190508181036000830152612f2481612afc565b9050919050565b60006020820190508181036000830152612f4481612b1f565b9050919050565b60006020820190508181036000830152612f6481612b42565b9050919050565b60006020820190508181036000830152612f8481612b65565b9050919050565b60006020820190508181036000830152612fa481612b88565b9050919050565b60006020820190508181036000830152612fc481612bab565b9050919050565b60006020820190508181036000830152612fe481612bce565b9050919050565b6000602082019050818103600083015261300481612bf1565b9050919050565b6000602082019050818103600083015261302481612c14565b9050919050565b6000602082019050818103600083015261304481612c37565b9050919050565b6000602082019050818103600083015261306481612c5a565b9050919050565b6000602082019050818103600083015261308481612c7d565b9050919050565b600060208201905081810360008301526130a481612ca0565b9050919050565b600060208201905081810360008301526130c481612cc3565b9050919050565b600060208201905081810360008301526130e481612ce6565b9050919050565b6000602082019050818103600083015261310481612d09565b9050919050565b6000602082019050818103600083015261312481612d2c565b9050919050565b6000602082019050818103600083015261314481612d4f565b9050919050565b60006020820190506131606000830184612d81565b92915050565b6000613170613181565b905061317c8282613452565b919050565b6000604051905090565b600067ffffffffffffffff8211156131a6576131a561358a565b5b602082029050919050565b600067ffffffffffffffff8211156131cc576131cb61358a565b5b602082029050602081019050919050565b600067ffffffffffffffff8211156131f8576131f761358a565b5b613201826135b9565b9050602081019050919050565b600067ffffffffffffffff8211156132295761322861358a565b5b613232826135b9565b9050602081019050919050565b6000819050919050565b600060129050919050565b600081519050919050565b600081519050919050565b6000602082019050919050565b600081905092915050565b600082825260208201905092915050565b600082825260208201905092915050565b600081905092915050565b60006132ba826133d4565b91506132c5836133d4565b9250827fffffffffffffffffffffffffffffffffffffffffffffffffffffffffffffffff038211156132fa576132f96134fd565b5b828201905092915050565b6000613310826133d4565b915061331b836133d4565b92508261332b5761332a61352c565b5b828204905092915050565b6000613341826133d4565b915061334c836133d4565b92508282101561335f5761335e6134fd565b5b828203905092915050565b6000613375826133b4565b9050919050565b60008115159050919050565b60007fffffffff0000000000000000000000000000000000000000000000000000000082169050919050565b600073ffffffffffffffffffffffffffffffffffffffff82169050919050565b6000819050919050565b82818337600083830152505050565b60005b8381101561340b5780820151818401526020810190506133f0565b8381111561341a576000848401525b50505050565b6000600282049050600182168061343857607f821691505b6020821081141561344c5761344b61355b565b5b50919050565b61345b826135b9565b810181811067ffffffffffffffff8211171561347a5761347961358a565b5b80604052505050565b600061348e826133d4565b91507fffffffffffffffffffffffffffffffffffffffffffffffffffffffffffffffff8214156134c1576134c06134fd565b5b600182019050919050565b60006134d7826133d4565b91506134e2836133d4565b9250826134f2576134f161352c565b5b828206905092915050565b7f4e487b7100000000000000000000000000000000000000000000000000000000600052601160045260246000fd5b7f4e487b7100000000000000000000000000000000000000000000000000000000600052601260045260246000fd5b7f4e487b7100000000000000000000000000000000000000000000000000000000600052602260045260246000fd5b7f4e487b7100000000000000000000000000000000000000000000000000000000600052604160045260246000fd5b6000601f19601f8301169050919050565b7f4552433732313a207472616e7366657220746f206e6f6e20455243373231526560008201527f63656976657220696d706c656d656e7465720000000000000000000000000000602082015250565b7f4552433732313a207472616e736665722066726f6d20696e636f72726563742060008201527f6f776e6572000000000000000000000000000000000000000000000000000000602082015250565b7f4552433732313a20746f6b656e20616c7265616479206d696e74656400000000600082015250565b7f4552433732313a207472616e7366657220746f20746865207a65726f2061646460008201527f7265737300000000000000000000000000000000000000000000000000000000602082015250565b7f4552433732313a20617070726f766520746f2063616c6c657200000000000000600082015250565b7f4552433732313a206f70657261746f7220717565727920666f72206e6f6e657860008201527f697374656e7420746f6b656e0000000000000000000000000000000000000000602082015250565b7f4552433732313a20617070726f76652063616c6c6572206973206e6f74206f7760008201527f6e6572206e6f7220617070726f76656420666f7220616c6c0000000000000000602082015250565b7f4552433732313a2062616c616e636520717565727920666f7220746865207a6560008201527f726f206164647265737300000000000000000000000000000000000000000000602082015250565b7f4552433732313a206f776e657220717565727920666f72206e6f6e657869737460008201527f656e7420746f6b656e0000000000000000000000000000000000000000000000602082015250565b7f45524337323155524953746f726167653a2055524920736574206f66206e6f6e60008201527f6578697374656e7420746f6b656e000000000000000000000000000000000000602082015250565b7f4552433732313a206d696e7420746f20746865207a65726f2061646472657373600082015250565b7f45524337323155524953746f726167653a2055524920717565727920666f722060008201527f6e6f6e6578697374656e7420746f6b656e000000000000000000000000000000602082015250565b7f4552433732313a20617070726f76656420717565727920666f72206e6f6e657860008201527f697374656e7420746f6b656e0000000000000000000000000000000000000000602082015250565b7f4552433732314d657461646174613a2055524920717565727920666f72206e6f60008201527f6e6578697374656e7420746f6b656e0000000000000000000000000000000000602082015250565b7f4552433732313a20617070726f76616c20746f2063757272656e74206f776e6560008201527f7200000000000000000000000000000000000000000000000000000000000000602082015250565b7f4e6f7420656e6f7567687420656c656d656e74732e0000000000000000000000600082015250565b7f4f776e6572206f6e6c792063616e20706572666f726d2074686973206163746960008201527f6f6e2e0000000000000000000000000000000000000000000000000000000000602082015250565b7f4552433732313a207472616e736665722063616c6c6572206973206e6f74206f60008201527f776e6572206e6f7220617070726f766564000000000000000000000000000000602082015250565b613ac98161336a565b8114613ad457600080fd5b50565b613ae08161337c565b8114613aeb57600080fd5b50565b613af781613388565b8114613b0257600080fd5b50565b613b0e816133d4565b8114613b1957600080fd5b5056fea26469706673582212208de0c54dfd05a3fc57ad68d1985e15cfc3379e166049a899aa1f460968025f7e64736f6c63430008040033",
  "linkReferences": {},
  "deployedLinkReferences": {}
}