{
  "_format": "hh-sol-artifact-1",
  "contractName": "ERC20Holder",
  "sourceName": "contracts/interfaces/ERC20Holder.sol",
  "abi": [
    {
      "inputs": [
        {
          "internalType": "address",
          "name": "",
          "type": "address"
        },
        {
          "internalType": "uint256",
          "name": "",
          "type": "uint256"
        },
        {
          "internalType": "uint256",
          "name": "",
          "type": "uint256"
        }
      ],
      "name": "onERC20Received",
      "outputs": [
        {
          "internalType": "bool",
          "name": "",
          "type": "bool"
        }
      ],
      "stateMutability": "nonpayable",
      "type": "function"
    },
    {
      "inputs": [
        {
          "internalType": "bytes4",
          "name": "interfaceId",
          "type": "bytes4"
        }
      ],
      "name": "supportsInterface",
      "outputs": [
        {
          "internalType": "bool",
          "name": "",
          "type": "bool"
        }
      ],
      "stateMutability": "view",
      "type": "function"
    }
  ],
  "bytecode": "0x608060405234801561001057600080fd5b5061035c806100206000396000f3fe608060405234801561001057600080fd5b50600436106100365760003560e01c806301ffc9a71461003b5780630915c9ce1461006b575b600080fd5b6100556004803603810190610050919061021a565b61009b565b6040516100629190610252565b60405180910390f35b610085600480360381019061008091906101cb565b610115565b6040516100929190610252565b60405180910390f35b60007f0915c9ce000000000000000000000000000000000000000000000000000000007bffffffffffffffffffffffffffffffffffffffffffffffffffffffff1916827bffffffffffffffffffffffffffffffffffffffffffffffffffffffff1916148061010e575061010d82610122565b5b9050919050565b6000600190509392505050565b60007f01ffc9a7000000000000000000000000000000000000000000000000000000007bffffffffffffffffffffffffffffffffffffffffffffffffffffffff1916827bffffffffffffffffffffffffffffffffffffffffffffffffffffffff1916149050919050565b60008135905061019b816102e1565b92915050565b6000813590506101b0816102f8565b92915050565b6000813590506101c58161030f565b92915050565b6000806000606084860312156101e057600080fd5b60006101ee8682870161018c565b93505060206101ff868287016101b6565b9250506040610210868287016101b6565b9150509250925092565b60006020828403121561022c57600080fd5b600061023a848285016101a1565b91505092915050565b61024c8161027f565b82525050565b60006020820190506102676000830184610243565b92915050565b6000610278826102b7565b9050919050565b60008115159050919050565b60007fffffffff0000000000000000000000000000000000000000000000000000000082169050919050565b600073ffffffffffffffffffffffffffffffffffffffff82169050919050565b6000819050919050565b6102ea8161026d565b81146102f557600080fd5b50565b6103018161028b565b811461030c57600080fd5b50565b610318816102d7565b811461032357600080fd5b5056fea26469706673582212203b1c4b3f8411b8ae523d0047a33223ed9258fe99823b1fe17b7673c7186e7ffe64736f6c63430008040033",
  "linkReferences": {},
  "deployedLinkReferences": {}
}