{
  "_format": "hh-sol-artifact-1",
  "contractName": "Element",
  "sourceName": "contracts/Element.sol",
  "abi": [
    {
      "inputs": [],
      "stateMutability": "nonpayable",
      "type": "constructor"
    },
    {
      "anonymous": false,
      "inputs": [
        {
          "indexed": true,
          "internalType": "address",
          "name": "account",
          "type": "address"
        },
        {
          "indexed": true,
          "internalType": "address",
          "name": "operator",
          "type": "address"
        },
        {
          "indexed": false,
          "internalType": "bool",
          "name": "approved",
          "type": "bool"
        }
      ],
      "name": "ApprovalForAll",
      "type": "event"
    },
    {
      "anonymous": false,
      "inputs": [
        {
          "indexed": false,
          "internalType": "address",
          "name": "operator",
          "type": "address"
        },
        {
          "indexed": false,
          "internalType": "address",
          "name": "applicant",
          "type": "address"
        },
        {
          "indexed": false,
          "internalType": "address",
          "name": "owner",
          "type": "address"
        },
        {
          "indexed": false,
          "internalType": "uint256",
          "name": "id",
          "type": "uint256"
        },
        {
          "indexed": false,
          "internalType": "uint256",
          "name": "count",
          "type": "uint256"
        }
      ],
      "name": "ObtainRequested",
      "type": "event"
    },
    {
      "anonymous": false,
      "inputs": [
        {
          "indexed": false,
          "internalType": "address",
          "name": "sender",
          "type": "address"
        },
        {
          "indexed": false,
          "internalType": "uint256",
          "name": "id",
          "type": "uint256"
        },
        {
          "indexed": false,
          "internalType": "uint256",
          "name": "count",
          "type": "uint256"
        }
      ],
      "name": "ParticleReceived",
      "type": "event"
    },
    {
      "anonymous": false,
      "inputs": [
        {
          "indexed": true,
          "internalType": "address",
          "name": "operator",
          "type": "address"
        },
        {
          "indexed": true,
          "internalType": "address",
          "name": "from",
          "type": "address"
        },
        {
          "indexed": true,
          "internalType": "address",
          "name": "to",
          "type": "address"
        },
        {
          "indexed": false,
          "internalType": "uint256[]",
          "name": "ids",
          "type": "uint256[]"
        },
        {
          "indexed": false,
          "internalType": "uint256[]",
          "name": "values",
          "type": "uint256[]"
        }
      ],
      "name": "TransferBatch",
      "type": "event"
    },
    {
      "anonymous": false,
      "inputs": [
        {
          "indexed": true,
          "internalType": "address",
          "name": "operator",
          "type": "address"
        },
        {
          "indexed": true,
          "internalType": "address",
          "name": "from",
          "type": "address"
        },
        {
          "indexed": true,
          "internalType": "address",
          "name": "to",
          "type": "address"
        },
        {
          "indexed": false,
          "internalType": "uint256",
          "name": "id",
          "type": "uint256"
        },
        {
          "indexed": false,
          "internalType": "uint256",
          "name": "value",
          "type": "uint256"
        }
      ],
      "name": "TransferSingle",
      "type": "event"
    },
    {
      "anonymous": false,
      "inputs": [
        {
          "indexed": false,
          "internalType": "string",
          "name": "value",
          "type": "string"
        },
        {
          "indexed": true,
          "internalType": "uint256",
          "name": "id",
          "type": "uint256"
        }
      ],
      "name": "URI",
      "type": "event"
    },
    {
      "inputs": [],
      "name": "C",
      "outputs": [
        {
          "internalType": "uint256",
          "name": "",
          "type": "uint256"
        }
      ],
      "stateMutability": "view",
      "type": "function"
    },
    {
      "inputs": [],
      "name": "Cl",
      "outputs": [
        {
          "internalType": "uint256",
          "name": "",
          "type": "uint256"
        }
      ],
      "stateMutability": "view",
      "type": "function"
    },
    {
      "inputs": [],
      "name": "H",
      "outputs": [
        {
          "internalType": "uint256",
          "name": "",
          "type": "uint256"
        }
      ],
      "stateMutability": "view",
      "type": "function"
    },
    {
      "inputs": [],
      "name": "Li",
      "outputs": [
        {
          "internalType": "uint256",
          "name": "",
          "type": "uint256"
        }
      ],
      "stateMutability": "view",
      "type": "function"
    },
    {
      "inputs": [],
      "name": "N",
      "outputs": [
        {
          "internalType": "uint256",
          "name": "",
          "type": "uint256"
        }
      ],
      "stateMutability": "view",
      "type": "function"
    },
    {
      "inputs": [],
      "name": "Na",
      "outputs": [
        {
          "internalType": "uint256",
          "name": "",
          "type": "uint256"
        }
      ],
      "stateMutability": "view",
      "type": "function"
    },
    {
      "inputs": [],
      "name": "O",
      "outputs": [
        {
          "internalType": "uint256",
          "name": "",
          "type": "uint256"
        }
      ],
      "stateMutability": "view",
      "type": "function"
    },
    {
      "inputs": [],
      "name": "P",
      "outputs": [
        {
          "internalType": "uint256",
          "name": "",
          "type": "uint256"
        }
      ],
      "stateMutability": "view",
      "type": "function"
    },
    {
      "inputs": [],
      "name": "S",
      "outputs": [
        {
          "internalType": "uint256",
          "name": "",
          "type": "uint256"
        }
      ],
      "stateMutability": "view",
      "type": "function"
    },
    {
      "inputs": [
        {
          "internalType": "address",
          "name": "account",
          "type": "address"
        },
        {
          "internalType": "uint256",
          "name": "id",
          "type": "uint256"
        }
      ],
      "name": "balanceOf",
      "outputs": [
        {
          "internalType": "uint256",
          "name": "",
          "type": "uint256"
        }
      ],
      "stateMutability": "view",
      "type": "function"
    },
    {
      "inputs": [
        {
          "internalType": "address[]",
          "name": "accounts",
          "type": "address[]"
        },
        {
          "internalType": "uint256[]",
          "name": "ids",
          "type": "uint256[]"
        }
      ],
      "name": "balanceOfBatch",
      "outputs": [
        {
          "internalType": "uint256[]",
          "name": "",
          "type": "uint256[]"
        }
      ],
      "stateMutability": "view",
      "type": "function"
    },
    {
      "inputs": [
        {
          "internalType": "uint256",
          "name": "",
          "type": "uint256"
        },
        {
          "internalType": "uint256",
          "name": "",
          "type": "uint256"
        }
      ],
      "name": "elementsCompound",
      "outputs": [
        {
          "internalType": "uint256",
          "name": "",
          "type": "uint256"
        }
      ],
      "stateMutability": "view",
      "type": "function"
    },
    {
      "inputs": [
        {
          "internalType": "uint256",
          "name": "token_id",
          "type": "uint256"
        }
      ],
      "name": "getElementCompound",
      "outputs": [
        {
          "internalType": "uint256[3]",
          "name": "",
          "type": "uint256[3]"
        }
      ],
      "stateMutability": "view",
      "type": "function"
    },
    {
      "inputs": [
        {
          "internalType": "address",
          "name": "addr",
          "type": "address"
        }
      ],
      "name": "getParticlesBalance",
      "outputs": [
        {
          "internalType": "uint256[3]",
          "name": "",
          "type": "uint256[3]"
        }
      ],
      "stateMutability": "view",
      "type": "function"
    },
    {
      "inputs": [
        {
          "internalType": "address",
          "name": "account",
          "type": "address"
        },
        {
          "internalType": "address",
          "name": "operator",
          "type": "address"
        }
      ],
      "name": "isApprovedForAll",
      "outputs": [
        {
          "internalType": "bool",
          "name": "",
          "type": "bool"
        }
      ],
      "stateMutability": "view",
      "type": "function"
    },
    {
      "inputs": [
        {
          "internalType": "address",
          "name": "operator",
          "type": "address"
        },
        {
          "internalType": "address",
          "name": "from",
          "type": "address"
        },
        {
          "internalType": "uint256[]",
          "name": "ids",
          "type": "uint256[]"
        },
        {
          "internalType": "uint256[]",
          "name": "values",
          "type": "uint256[]"
        },
        {
          "internalType": "bytes",
          "name": "data",
          "type": "bytes"
        }
      ],
      "name": "onERC1155BatchReceived",
      "outputs": [
        {
          "internalType": "bytes4",
          "name": "",
          "type": "bytes4"
        }
      ],
      "stateMutability": "nonpayable",
      "type": "function"
    },
    {
      "inputs": [
        {
          "internalType": "address",
          "name": "operator",
          "type": "address"
        },
        {
          "internalType": "address",
          "name": "from",
          "type": "address"
        },
        {
          "internalType": "uint256",
          "name": "id",
          "type": "uint256"
        },
        {
          "internalType": "uint256",
          "name": "value",
          "type": "uint256"
        },
        {
          "internalType": "bytes",
          "name": "data",
          "type": "bytes"
        }
      ],
      "name": "onERC1155Received",
      "outputs": [
        {
          "internalType": "bytes4",
          "name": "",
          "type": "bytes4"
        }
      ],
      "stateMutability": "nonpayable",
      "type": "function"
    },
    {
      "inputs": [],
      "name": "owner",
      "outputs": [
        {
          "internalType": "address",
          "name": "",
          "type": "address"
        }
      ],
      "stateMutability": "view",
      "type": "function"
    },
    {
      "inputs": [
        {
          "internalType": "address",
          "name": "",
          "type": "address"
        },
        {
          "internalType": "uint256",
          "name": "",
          "type": "uint256"
        }
      ],
      "name": "particleTransmitters",
      "outputs": [
        {
          "internalType": "uint256",
          "name": "",
          "type": "uint256"
        }
      ],
      "stateMutability": "view",
      "type": "function"
    },
    {
      "inputs": [
        {
          "internalType": "address",
          "name": "account",
          "type": "address"
        },
        {
          "internalType": "uint256",
          "name": "id",
          "type": "uint256"
        },
        {
          "internalType": "uint256",
          "name": "amount",
          "type": "uint256"
        },
        {
          "internalType": "bytes",
          "name": "data",
          "type": "bytes"
        }
      ],
      "name": "requestObtain",
      "outputs": [],
      "stateMutability": "nonpayable",
      "type": "function"
    },
    {
      "inputs": [
        {
          "internalType": "address",
          "name": "from",
          "type": "address"
        },
        {
          "internalType": "address",
          "name": "to",
          "type": "address"
        },
        {
          "internalType": "uint256[]",
          "name": "ids",
          "type": "uint256[]"
        },
        {
          "internalType": "uint256[]",
          "name": "amounts",
          "type": "uint256[]"
        },
        {
          "internalType": "bytes",
          "name": "data",
          "type": "bytes"
        }
      ],
      "name": "safeBatchTransferFrom",
      "outputs": [],
      "stateMutability": "nonpayable",
      "type": "function"
    },
    {
      "inputs": [
        {
          "internalType": "address",
          "name": "from",
          "type": "address"
        },
        {
          "internalType": "address",
          "name": "to",
          "type": "address"
        },
        {
          "internalType": "uint256",
          "name": "id",
          "type": "uint256"
        },
        {
          "internalType": "uint256",
          "name": "amount",
          "type": "uint256"
        },
        {
          "internalType": "bytes",
          "name": "data",
          "type": "bytes"
        }
      ],
      "name": "safeTransferFrom",
      "outputs": [],
      "stateMutability": "nonpayable",
      "type": "function"
    },
    {
      "inputs": [
        {
          "internalType": "address",
          "name": "operator",
          "type": "address"
        },
        {
          "internalType": "bool",
          "name": "approved",
          "type": "bool"
        }
      ],
      "name": "setApprovalForAll",
      "outputs": [],
      "stateMutability": "nonpayable",
      "type": "function"
    },
    {
      "inputs": [
        {
          "internalType": "bytes4",
          "name": "interfaceId",
          "type": "bytes4"
        }
      ],
      "name": "supportsInterface",
      "outputs": [
        {
          "internalType": "bool",
          "name": "",
          "type": "bool"
        }
      ],
      "stateMutability": "view",
      "type": "function"
    },
    {
      "inputs": [
        {
          "internalType": "uint256",
          "name": "",
          "type": "uint256"
        }
      ],
      "name": "uri",
      "outputs": [
        {
          "internalType": "string",
          "name": "",
          "type": "string"
        }
      ],
      "stateMutability": "view",
      "type": "function"
    }
  ],
  "bytecode": "0x60806040523480156200001157600080fd5b506040518060600160405280602c815260200162005612602c91396200003d8162000cc960201b60201c565b5033600360006101000a81548173ffffffffffffffffffffffffffffffffffffffff021916908373ffffffffffffffffffffffffffffffffffffffff160217905550600160046000600181526020019081526020016000206000806002811115620000d1577f4e487b7100000000000000000000000000000000000000000000000000000000600052602160045260246000fd5b8152602001908152602001600020819055506001600460006001815260200190815260200160002060006001600281111562000136577f4e487b7100000000000000000000000000000000000000000000000000000000600052602160045260246000fd5b8152602001908152602001600020819055506000600460006001815260200190815260200160002060006002808111156200019a577f4e487b7100000000000000000000000000000000000000000000000000000000600052602160045260246000fd5b815260200190815260200160002081905550600360046000600381526020019081526020016000206000806002811115620001fe577f4e487b7100000000000000000000000000000000000000000000000000000000600052602160045260246000fd5b8152602001908152602001600020819055506003600460006003815260200190815260200160002060006001600281111562000263577f4e487b7100000000000000000000000000000000000000000000000000000000600052602160045260246000fd5b8152602001908152602001600020819055506004806000600381526020019081526020016000206000600280811115620002c6577f4e487b7100000000000000000000000000000000000000000000000000000000600052602160045260246000fd5b815260200190815260200160002081905550600b60046000600b815260200190815260200160002060008060028111156200032a577f4e487b7100000000000000000000000000000000000000000000000000000000600052602160045260246000fd5b815260200190815260200160002081905550600b60046000600b81526020019081526020016000206000600160028111156200038f577f4e487b7100000000000000000000000000000000000000000000000000000000600052602160045260246000fd5b815260200190815260200160002081905550600c60046000600b81526020019081526020016000206000600280811115620003f3577f4e487b7100000000000000000000000000000000000000000000000000000000600052602160045260246000fd5b81526020019081526020016000208190555060086004600060088152602001908152602001600020600080600281111562000457577f4e487b7100000000000000000000000000000000000000000000000000000000600052602160045260246000fd5b81526020019081526020016000208190555060086004600060088152602001908152602001600020600060016002811115620004bc577f4e487b7100000000000000000000000000000000000000000000000000000000600052602160045260246000fd5b81526020019081526020016000208190555060086004600060088152602001908152602001600020600060028081111562000520577f4e487b7100000000000000000000000000000000000000000000000000000000600052602160045260246000fd5b81526020019081526020016000208190555060066004600060068152602001908152602001600020600080600281111562000584577f4e487b7100000000000000000000000000000000000000000000000000000000600052602160045260246000fd5b81526020019081526020016000208190555060066004600060068152602001908152602001600020600060016002811115620005e9577f4e487b7100000000000000000000000000000000000000000000000000000000600052602160045260246000fd5b8152602001908152602001600020819055506006600460006006815260200190815260200160002060006002808111156200064d577f4e487b7100000000000000000000000000000000000000000000000000000000600052602160045260246000fd5b815260200190815260200160002081905550600760046000600781526020019081526020016000206000806002811115620006b1577f4e487b7100000000000000000000000000000000000000000000000000000000600052602160045260246000fd5b8152602001908152602001600020819055506007600460006007815260200190815260200160002060006001600281111562000716577f4e487b7100000000000000000000000000000000000000000000000000000000600052602160045260246000fd5b8152602001908152602001600020819055506007600460006007815260200190815260200160002060006002808111156200077a577f4e487b7100000000000000000000000000000000000000000000000000000000600052602160045260246000fd5b815260200190815260200160002081905550601160046000601181526020019081526020016000206000806002811115620007de577f4e487b7100000000000000000000000000000000000000000000000000000000600052602160045260246000fd5b8152602001908152602001600020819055506011600460006011815260200190815260200160002060006001600281111562000843577f4e487b7100000000000000000000000000000000000000000000000000000000600052602160045260246000fd5b815260200190815260200160002081905550601160046000601181526020019081526020016000206000600280811115620008a7577f4e487b7100000000000000000000000000000000000000000000000000000000600052602160045260246000fd5b815260200190815260200160002081905550600f60046000600f815260200190815260200160002060008060028111156200090b577f4e487b7100000000000000000000000000000000000000000000000000000000600052602160045260246000fd5b815260200190815260200160002081905550600f60046000600f815260200190815260200160002060006001600281111562000970577f4e487b7100000000000000000000000000000000000000000000000000000000600052602160045260246000fd5b815260200190815260200160002081905550601060046000600f81526020019081526020016000206000600280811115620009d4577f4e487b7100000000000000000000000000000000000000000000000000000000600052602160045260246000fd5b81526020019081526020016000208190555060106004600060108152602001908152602001600020600080600281111562000a38577f4e487b7100000000000000000000000000000000000000000000000000000000600052602160045260246000fd5b8152602001908152602001600020819055506010600460006010815260200190815260200160002060006001600281111562000a9d577f4e487b7100000000000000000000000000000000000000000000000000000000600052602160045260246000fd5b81526020019081526020016000208190555060106004600060108152602001908152602001600020600060028081111562000b01577f4e487b7100000000000000000000000000000000000000000000000000000000600052602160045260246000fd5b81526020019081526020016000208190555062000b433360016b033b2e3c9fd0803ce80000006040518060200160405280600081525062000ce560201b60201c565b62000b733360036b033b2e3c9fd0803ce80000006040518060200160405280600081525062000ce560201b60201c565b62000ba333600b6b033b2e3c9fd0803ce80000006040518060200160405280600081525062000ce560201b60201c565b62000bd33360086b033b2e3c9fd0803ce80000006040518060200160405280600081525062000ce560201b60201c565b62000c033360066b033b2e3c9fd0803ce80000006040518060200160405280600081525062000ce560201b60201c565b62000c333360076b033b2e3c9fd0803ce80000006040518060200160405280600081525062000ce560201b60201c565b62000c633360116b033b2e3c9fd0803ce80000006040518060200160405280600081525062000ce560201b60201c565b62000c9333600f6b033b2e3c9fd0803ce80000006040518060200160405280600081525062000ce560201b60201c565b62000cc33360106b033b2e3c9fd0803ce80000006040518060200160405280600081525062000ce560201b60201c565b620018fb565b806002908051906020019062000ce1929190620011b0565b5050565b600073ffffffffffffffffffffffffffffffffffffffff168473ffffffffffffffffffffffffffffffffffffffff16141562000d58576040517f08c379a000000000000000000000000000000000000000000000000000000000815260040162000d4f9062001488565b60405180910390fd5b600062000d6a62000eaa60201b60201c565b905062000da38160008762000d858862000eb260201b60201c565b62000d968862000eb260201b60201c565b8762000f7b60201b60201c565b8260008086815260200190815260200160002060008773ffffffffffffffffffffffffffffffffffffffff1673ffffffffffffffffffffffffffffffffffffffff168152602001908152602001600020600082825462000e04919062001519565b925050819055508473ffffffffffffffffffffffffffffffffffffffff16600073ffffffffffffffffffffffffffffffffffffffff168273ffffffffffffffffffffffffffffffffffffffff167fc3d58168c5ae7397731d063d5bbf3d657854427343f4c083240f7aacaa2d0f62878760405162000e84929190620014aa565b60405180910390a462000ea38160008787878762000f8360201b60201c565b5050505050565b600033905090565b60606000600167ffffffffffffffff81111562000ef8577f4e487b7100000000000000000000000000000000000000000000000000000000600052604160045260246000fd5b60405190808252806020026020018201604052801562000f275781602001602082028036833780820191505090505b509050828160008151811062000f66577f4e487b7100000000000000000000000000000000000000000000000000000000600052603260045260246000fd5b60200260200101818152505080915050919050565b505050505050565b62000faf8473ffffffffffffffffffffffffffffffffffffffff166200118d60201b620018811760201c565b1562001185578373ffffffffffffffffffffffffffffffffffffffff1663f23a6e6187878686866040518663ffffffff1660e01b815260040162000ff8959493929190620013bc565b602060405180830381600087803b1580156200101357600080fd5b505af19250505080156200104757506040513d601f19601f8201168201806040525081019062001044919062001277565b60015b620010f957620010566200170f565b806308c379a01415620010ba57506200106e6200183f565b806200107b5750620010bc565b806040517f08c379a0000000000000000000000000000000000000000000000000000000008152600401620010b1919062001420565b60405180910390fd5b505b6040517f08c379a0000000000000000000000000000000000000000000000000000000008152600401620010f09062001444565b60405180910390fd5b63f23a6e6160e01b7bffffffffffffffffffffffffffffffffffffffffffffffffffffffff1916817bffffffffffffffffffffffffffffffffffffffffffffffffffffffff19161462001183576040517f08c379a00000000000000000000000000000000000000000000000000000000081526004016200117a9062001466565b60405180910390fd5b505b505050505050565b6000808273ffffffffffffffffffffffffffffffffffffffff163b119050919050565b828054620011be9062001616565b90600052602060002090601f016020900481019282620011e257600085556200122e565b82601f10620011fd57805160ff19168380011785556200122e565b828001600101855582156200122e579182015b828111156200122d57825182559160200191906001019062001210565b5b5090506200123d919062001241565b5090565b5b808211156200125c57600081600090555060010162001242565b5090565b6000815190506200127181620018e1565b92915050565b6000602082840312156200128a57600080fd5b60006200129a8482850162001260565b91505092915050565b620012ae8162001576565b82525050565b6000620012c182620014e1565b620012cd8185620014f7565b9350620012df818560208601620015e0565b620012ea8162001734565b840191505092915050565b60006200130282620014ec565b6200130e818562001508565b935062001320818560208601620015e0565b6200132b8162001734565b840191505092915050565b60006200134560348362001508565b9150620013528262001752565b604082019050919050565b60006200136c60288362001508565b91506200137982620017a1565b604082019050919050565b60006200139360218362001508565b9150620013a082620017f0565b604082019050919050565b620013b681620015d6565b82525050565b600060a082019050620013d36000830188620012a3565b620013e26020830187620012a3565b620013f16040830186620013ab565b620014006060830185620013ab565b8181036080830152620014148184620012b4565b90509695505050505050565b600060208201905081810360008301526200143c8184620012f5565b905092915050565b600060208201905081810360008301526200145f8162001336565b9050919050565b6000602082019050818103600083015262001481816200135d565b9050919050565b60006020820190508181036000830152620014a38162001384565b9050919050565b6000604082019050620014c16000830185620013ab565b620014d06020830184620013ab565b9392505050565b6000604051905090565b600081519050919050565b600081519050919050565b600082825260208201905092915050565b600082825260208201905092915050565b60006200152682620015d6565b91506200153383620015d6565b9250827fffffffffffffffffffffffffffffffffffffffffffffffffffffffffffffffff038211156200156b576200156a62001682565b5b828201905092915050565b60006200158382620015b6565b9050919050565b60007fffffffff0000000000000000000000000000000000000000000000000000000082169050919050565b600073ffffffffffffffffffffffffffffffffffffffff82169050919050565b6000819050919050565b60005b8381101562001600578082015181840152602081019050620015e3565b8381111562001610576000848401525b50505050565b600060028204905060018216806200162f57607f821691505b60208210811415620016465762001645620016b1565b5b50919050565b620016578262001734565b810181811067ffffffffffffffff82111715620016795762001678620016e0565b5b80604052505050565b7f4e487b7100000000000000000000000000000000000000000000000000000000600052601160045260246000fd5b7f4e487b7100000000000000000000000000000000000000000000000000000000600052602260045260246000fd5b7f4e487b7100000000000000000000000000000000000000000000000000000000600052604160045260246000fd5b600060033d1115620017315760046000803e6200172e60005162001745565b90505b90565b6000601f19601f8301169050919050565b60008160e01c9050919050565b7f455243313135353a207472616e7366657220746f206e6f6e204552433131353560008201527f526563656976657220696d706c656d656e746572000000000000000000000000602082015250565b7f455243313135353a204552433131353552656365697665722072656a6563746560008201527f6420746f6b656e73000000000000000000000000000000000000000000000000602082015250565b7f455243313135353a206d696e7420746f20746865207a65726f2061646472657360008201527f7300000000000000000000000000000000000000000000000000000000000000602082015250565b600060443d10156200185157620018de565b6200185b620014d7565b60043d036004823e80513d602482011167ffffffffffffffff8211171562001885575050620018de565b808201805167ffffffffffffffff811115620018a55750505050620018de565b80602083010160043d038501811115620018c4575050505050620018de565b620018d5826020018501866200164c565b82955050505050505b90565b620018ec816200158a565b8114620018f857600080fd5b50565b613d07806200190b6000396000f3fe608060405234801561001057600080fd5b50600436106101725760003560e01c80638b8fbd92116100de578063c9e525df11610097578063e985e9c511610071578063e985e9c51461048b578063f23a6e61146104bb578063f242432a146104eb578063fd9d0b9c1461050757610172565b8063c9e525df1461041f578063e1954f121461043d578063e264471e1461046d57610172565b80638b8fbd92146103495780638da5cb5b14610367578063a0ea32de14610385578063a22cb465146103a3578063bc197c81146103bf578063c42f83b3146103ef57610172565b80634be1c796116101305780634be1c796146102715780634e1273f41461028f57806364a55323146102bf57806370a5d861146102ef5780637fc12af21461030d57806383dfe5fd1461032b57610172565b8062fdd58e1461017757806301ffc9a7146101a757806303cc0e8c146101d75780630e89341c146102075780632eb2c2d6146102375780633ec252f614610253575b600080fd5b610191600480360381019061018c9190612aad565b610523565b60405161019e91906133ab565b60405180910390f35b6101c160048036038101906101bc9190612bd0565b6105ec565b6040516101ce91906131b3565b60405180910390f35b6101f160048036038101906101ec91906128be565b6105fe565b6040516101fe919061313f565b60405180910390f35b610221600480360381019061021c9190612c22565b6107c1565b60405161022e91906131e9565b60405180910390f35b610251600480360381019061024c9190612923565b610855565b005b61025b6108f6565b60405161026891906133ab565b60405180910390f35b6102796108fb565b60405161028691906133ab565b60405180910390f35b6102a960048036038101906102a49190612b64565b610900565b6040516102b6919061315a565b60405180910390f35b6102d960048036038101906102d49190612c4b565b610ab1565b6040516102e691906133ab565b60405180910390f35b6102f7610ad6565b60405161030491906133ab565b60405180910390f35b610315610adb565b60405161032291906133ab565b60405180910390f35b610333610ae0565b60405161034091906133ab565b60405180910390f35b610351610ae5565b60405161035e91906133ab565b60405180910390f35b61036f610aea565b60405161037c9190612fd8565b60405180910390f35b61038d610b10565b60405161039a91906133ab565b60405180910390f35b6103bd60048036038101906103b89190612a71565b610b15565b005b6103d960048036038101906103d49190612923565b610b2b565b6040516103e691906131ce565b60405180910390f35b61040960048036038101906104049190612c22565b610b59565b604051610416919061313f565b60405180910390f35b610427610c98565b60405161043491906133ab565b60405180910390f35b61045760048036038101906104529190612aad565b610c9d565b60405161046491906133ab565b60405180910390f35b610475610cc2565b60405161048291906133ab565b60405180910390f35b6104a560048036038101906104a091906128e7565b610cc7565b6040516104b291906131b3565b60405180910390f35b6104d560048036038101906104d091906129e2565b610d5b565b6040516104e291906131ce565b60405180910390f35b610505600480360381019061050091906129e2565b610e7b565b005b610521600480360381019061051c9190612ae9565b610f1c565b005b60008073ffffffffffffffffffffffffffffffffffffffff168373ffffffffffffffffffffffffffffffffffffffff161415610594576040517f08c379a000000000000000000000000000000000000000000000000000000000815260040161058b9061324b565b60405180910390fd5b60008083815260200190815260200160002060008473ffffffffffffffffffffffffffffffffffffffff1673ffffffffffffffffffffffffffffffffffffffff16815260200190815260200160002054905092915050565b60006105f7826118a4565b9050919050565b61060661269f565b6040518060600160405280600560008573ffffffffffffffffffffffffffffffffffffffff1673ffffffffffffffffffffffffffffffffffffffff168152602001908152602001600020600080600281111561068b577f4e487b7100000000000000000000000000000000000000000000000000000000600052602160045260246000fd5b8152602001908152602001600020548152602001600560008573ffffffffffffffffffffffffffffffffffffffff1673ffffffffffffffffffffffffffffffffffffffff16815260200190815260200160002060006001600281111561071a577f4e487b7100000000000000000000000000000000000000000000000000000000600052602160045260246000fd5b8152602001908152602001600020548152602001600560008573ffffffffffffffffffffffffffffffffffffffff1673ffffffffffffffffffffffffffffffffffffffff16815260200190815260200160002060006002808111156107a8577f4e487b7100000000000000000000000000000000000000000000000000000000600052602160045260246000fd5b8152602001908152602001600020548152509050919050565b6060600280546107d0906136d5565b80601f01602080910402602001604051908101604052809291908181526020018280546107fc906136d5565b80156108495780601f1061081e57610100808354040283529160200191610849565b820191906000526020600020905b81548152906001019060200180831161082c57829003601f168201915b50505050509050919050565b61085d61191e565b73ffffffffffffffffffffffffffffffffffffffff168573ffffffffffffffffffffffffffffffffffffffff1614806108a357506108a28561089d61191e565b610cc7565b5b6108e2576040517f08c379a00000000000000000000000000000000000000000000000000000000081526004016108d9906132cb565b60405180910390fd5b6108ef8585858585611926565b5050505050565b601181565b601081565b60608151835114610946576040517f08c379a000000000000000000000000000000000000000000000000000000000815260040161093d9061336b565b60405180910390fd5b6000835167ffffffffffffffff811115610989577f4e487b7100000000000000000000000000000000000000000000000000000000600052604160045260246000fd5b6040519080825280602002602001820160405280156109b75781602001602082028036833780820191505090505b50905060005b8451811015610aa657610a50858281518110610a02577f4e487b7100000000000000000000000000000000000000000000000000000000600052603260045260246000fd5b6020026020010151858381518110610a43577f4e487b7100000000000000000000000000000000000000000000000000000000600052603260045260246000fd5b6020026020010151610523565b828281518110610a89577f4e487b7100000000000000000000000000000000000000000000000000000000600052603260045260246000fd5b60200260200101818152505080610a9f90613738565b90506109bd565b508091505092915050565b6004602052816000526040600020602052806000526040600020600091509150505481565b600181565b600b81565b600681565b600f81565b600360009054906101000a900473ffffffffffffffffffffffffffffffffffffffff1681565b600881565b610b27610b2061191e565b8383611c86565b5050565b60007ff23a6e612e1ff4830e658fe43f4e3cb4a5f8170bd5d9e69fb5d7a7fa9e4fdf97905095945050505050565b610b6161269f565b6040518060600160405280600460008581526020019081526020016000206000806002811115610bba577f4e487b7100000000000000000000000000000000000000000000000000000000600052602160045260246000fd5b815260200190815260200160002054815260200160046000858152602001908152602001600020600060016002811115610c1d577f4e487b7100000000000000000000000000000000000000000000000000000000600052602160045260246000fd5b8152602001908152602001600020548152602001600460008581526020019081526020016000206000600280811115610c7f577f4e487b7100000000000000000000000000000000000000000000000000000000600052602160045260246000fd5b8152602001908152602001600020548152509050919050565b600781565b6005602052816000526040600020602052806000526040600020600091509150505481565b600381565b6000600160008473ffffffffffffffffffffffffffffffffffffffff1673ffffffffffffffffffffffffffffffffffffffff16815260200190815260200160002060008373ffffffffffffffffffffffffffffffffffffffff1673ffffffffffffffffffffffffffffffffffffffff16815260200190815260200160002060009054906101000a900460ff16905092915050565b60007fd0ca18092a86c00a4cef53e183e80daee7b403b352f89c089767165224fbe6b1858585604051610d9093929190613108565b60405180910390a1610dfb83600560008873ffffffffffffffffffffffffffffffffffffffff1673ffffffffffffffffffffffffffffffffffffffff168152602001908152602001600020600087815260200190815260200160002054611df390919063ffffffff16565b600560008773ffffffffffffffffffffffffffffffffffffffff1673ffffffffffffffffffffffffffffffffffffffff1681526020019081526020016000206000868152602001908152602001600020819055507ff23a6e612e1ff4830e658fe43f4e3cb4a5f8170bd5d9e69fb5d7a7fa9e4fdf97905095945050505050565b610e8361191e565b73ffffffffffffffffffffffffffffffffffffffff168573ffffffffffffffffffffffffffffffffffffffff161480610ec95750610ec885610ec361191e565b610cc7565b5b610f08576040517f08c379a0000000000000000000000000000000000000000000000000000000008152600401610eff9061326b565b60405180910390fd5b610f158585858585611e09565b5050505050565b8282856000610f2a84610b59565b90506000610f37836105fe565b9050610fc2848360006002811115610f78577f4e487b7100000000000000000000000000000000000000000000000000000000600052602160045260246000fd5b60038110610faf577f4e487b7100000000000000000000000000000000000000000000000000000000600052603260045260246000fd5b602002015161208b90919063ffffffff16565b8160006002811115610ffd577f4e487b7100000000000000000000000000000000000000000000000000000000600052602160045260246000fd5b60038110611034577f4e487b7100000000000000000000000000000000000000000000000000000000600052603260045260246000fd5b6020020151101561107a576040517f08c379a00000000000000000000000000000000000000000000000000000000081526004016110719061328b565b60405180910390fd5b6111038483600160028111156110b9577f4e487b7100000000000000000000000000000000000000000000000000000000600052602160045260246000fd5b600381106110f0577f4e487b7100000000000000000000000000000000000000000000000000000000600052603260045260246000fd5b602002015161208b90919063ffffffff16565b816001600281111561113e577f4e487b7100000000000000000000000000000000000000000000000000000000600052602160045260246000fd5b60038110611175577f4e487b7100000000000000000000000000000000000000000000000000000000600052603260045260246000fd5b602002015110156111bb576040517f08c379a00000000000000000000000000000000000000000000000000000000081526004016111b29061330b565b60405180910390fd5b61124384836002808111156111f9577f4e487b7100000000000000000000000000000000000000000000000000000000600052602160045260246000fd5b60038110611230577f4e487b7100000000000000000000000000000000000000000000000000000000600052603260045260246000fd5b602002015161208b90919063ffffffff16565b8160028081111561127d577f4e487b7100000000000000000000000000000000000000000000000000000000600052602160045260246000fd5b600381106112b4577f4e487b7100000000000000000000000000000000000000000000000000000000600052603260045260246000fd5b602002015110156112fa576040517f08c379a00000000000000000000000000000000000000000000000000000000081526004016112f19061332b565b60405180910390fd5b60003390507fb257737aae7c16bd97a7f44817796b7c57821eea18c118627855455fdd461a38818b600360009054906101000a900473ffffffffffffffffffffffffffffffffffffffff168c8c604051611358959493929190612ff3565b60405180910390a1600061136b8a610b59565b905061147e81600060028111156113ab577f4e487b7100000000000000000000000000000000000000000000000000000000600052602160045260246000fd5b600381106113e2577f4e487b7100000000000000000000000000000000000000000000000000000000600052603260045260246000fd5b6020020151600560008e73ffffffffffffffffffffffffffffffffffffffff1673ffffffffffffffffffffffffffffffffffffffff1681526020019081526020016000206000806002811115611461577f4e487b7100000000000000000000000000000000000000000000000000000000600052602160045260246000fd5b8152602001908152602001600020546120a190919063ffffffff16565b600560008d73ffffffffffffffffffffffffffffffffffffffff1673ffffffffffffffffffffffffffffffffffffffff16815260200190815260200160002060008060028111156114f8577f4e487b7100000000000000000000000000000000000000000000000000000000600052602160045260246000fd5b81526020019081526020016000208190555061161c8160016002811115611548577f4e487b7100000000000000000000000000000000000000000000000000000000600052602160045260246000fd5b6003811061157f577f4e487b7100000000000000000000000000000000000000000000000000000000600052603260045260246000fd5b6020020151600560008e73ffffffffffffffffffffffffffffffffffffffff1673ffffffffffffffffffffffffffffffffffffffff1681526020019081526020016000206000600160028111156115ff577f4e487b7100000000000000000000000000000000000000000000000000000000600052602160045260246000fd5b8152602001908152602001600020546120a190919063ffffffff16565b600560008d73ffffffffffffffffffffffffffffffffffffffff1673ffffffffffffffffffffffffffffffffffffffff168152602001908152602001600020600060016002811115611697577f4e487b7100000000000000000000000000000000000000000000000000000000600052602160045260246000fd5b8152602001908152602001600020819055506117b9816002808111156116e6577f4e487b7100000000000000000000000000000000000000000000000000000000600052602160045260246000fd5b6003811061171d577f4e487b7100000000000000000000000000000000000000000000000000000000600052603260045260246000fd5b6020020151600560008e73ffffffffffffffffffffffffffffffffffffffff1673ffffffffffffffffffffffffffffffffffffffff168152602001908152602001600020600060028081111561179c577f4e487b7100000000000000000000000000000000000000000000000000000000600052602160045260246000fd5b8152602001908152602001600020546120a190919063ffffffff16565b600560008d73ffffffffffffffffffffffffffffffffffffffff1673ffffffffffffffffffffffffffffffffffffffff1681526020019081526020016000206000600280811115611833577f4e487b7100000000000000000000000000000000000000000000000000000000600052602160045260246000fd5b815260200190815260200160002081905550611874600360009054906101000a900473ffffffffffffffffffffffffffffffffffffffff168c8c8c8c610e7b565b5050505050505050505050565b6000808273ffffffffffffffffffffffffffffffffffffffff163b119050919050565b60007f4e2312e0000000000000000000000000000000000000000000000000000000007bffffffffffffffffffffffffffffffffffffffffffffffffffffffff1916827bffffffffffffffffffffffffffffffffffffffffffffffffffffffff191614806119175750611916826120b7565b5b9050919050565b600033905090565b815183511461196a576040517f08c379a00000000000000000000000000000000000000000000000000000000081526004016119619061338b565b60405180910390fd5b600073ffffffffffffffffffffffffffffffffffffffff168473ffffffffffffffffffffffffffffffffffffffff1614156119da576040517f08c379a00000000000000000000000000000000000000000000000000000000081526004016119d1906132ab565b60405180910390fd5b60006119e461191e565b90506119f4818787878787612199565b60005b8451811015611bf1576000858281518110611a3b577f4e487b7100000000000000000000000000000000000000000000000000000000600052603260045260246000fd5b602002602001015190506000858381518110611a80577f4e487b7100000000000000000000000000000000000000000000000000000000600052603260045260246000fd5b60200260200101519050600080600084815260200190815260200160002060008b73ffffffffffffffffffffffffffffffffffffffff1673ffffffffffffffffffffffffffffffffffffffff16815260200190815260200160002054905081811015611b21576040517f08c379a0000000000000000000000000000000000000000000000000000000008152600401611b18906132eb565b60405180910390fd5b81810360008085815260200190815260200160002060008c73ffffffffffffffffffffffffffffffffffffffff1673ffffffffffffffffffffffffffffffffffffffff168152602001908152602001600020819055508160008085815260200190815260200160002060008b73ffffffffffffffffffffffffffffffffffffffff1673ffffffffffffffffffffffffffffffffffffffff1681526020019081526020016000206000828254611bd6919061353b565b9250508190555050505080611bea90613738565b90506119f7565b508473ffffffffffffffffffffffffffffffffffffffff168673ffffffffffffffffffffffffffffffffffffffff168273ffffffffffffffffffffffffffffffffffffffff167f4a39dc06d4c0dbc64b70af90fd698a233a518aa5d07e595d983b8c0526c8f7fb8787604051611c6892919061317c565b60405180910390a4611c7e8187878787876121a1565b505050505050565b8173ffffffffffffffffffffffffffffffffffffffff168373ffffffffffffffffffffffffffffffffffffffff161415611cf5576040517f08c379a0000000000000000000000000000000000000000000000000000000008152600401611cec9061334b565b60405180910390fd5b80600160008573ffffffffffffffffffffffffffffffffffffffff1673ffffffffffffffffffffffffffffffffffffffff16815260200190815260200160002060008473ffffffffffffffffffffffffffffffffffffffff1673ffffffffffffffffffffffffffffffffffffffff16815260200190815260200160002060006101000a81548160ff0219169083151502179055508173ffffffffffffffffffffffffffffffffffffffff168373ffffffffffffffffffffffffffffffffffffffff167f17307eab39ab6107e8899845ad3d59bd9653f200f220920489ca2b5937696c3183604051611de691906131b3565b60405180910390a3505050565b60008183611e01919061353b565b905092915050565b600073ffffffffffffffffffffffffffffffffffffffff168473ffffffffffffffffffffffffffffffffffffffff161415611e79576040517f08c379a0000000000000000000000000000000000000000000000000000000008152600401611e70906132ab565b60405180910390fd5b6000611e8361191e565b9050611ea3818787611e9488612388565b611e9d88612388565b87612199565b600080600086815260200190815260200160002060008873ffffffffffffffffffffffffffffffffffffffff1673ffffffffffffffffffffffffffffffffffffffff16815260200190815260200160002054905083811015611f3a576040517f08c379a0000000000000000000000000000000000000000000000000000000008152600401611f31906132eb565b60405180910390fd5b83810360008087815260200190815260200160002060008973ffffffffffffffffffffffffffffffffffffffff1673ffffffffffffffffffffffffffffffffffffffff168152602001908152602001600020819055508360008087815260200190815260200160002060008873ffffffffffffffffffffffffffffffffffffffff1673ffffffffffffffffffffffffffffffffffffffff1681526020019081526020016000206000828254611fef919061353b565b925050819055508573ffffffffffffffffffffffffffffffffffffffff168773ffffffffffffffffffffffffffffffffffffffff168373ffffffffffffffffffffffffffffffffffffffff167fc3d58168c5ae7397731d063d5bbf3d657854427343f4c083240f7aacaa2d0f62888860405161206c9291906133c6565b60405180910390a461208282888888888861244e565b50505050505050565b600081836120999190613591565b905092915050565b600081836120af91906135eb565b905092915050565b60007fd9b67a26000000000000000000000000000000000000000000000000000000007bffffffffffffffffffffffffffffffffffffffffffffffffffffffff1916827bffffffffffffffffffffffffffffffffffffffffffffffffffffffff1916148061218257507f0e89341c000000000000000000000000000000000000000000000000000000007bffffffffffffffffffffffffffffffffffffffffffffffffffffffff1916827bffffffffffffffffffffffffffffffffffffffffffffffffffffffff1916145b80612192575061219182612635565b5b9050919050565b505050505050565b6121c08473ffffffffffffffffffffffffffffffffffffffff16611881565b15612380578373ffffffffffffffffffffffffffffffffffffffff1663bc197c8187878686866040518663ffffffff1660e01b8152600401612206959493929190613046565b602060405180830381600087803b15801561222057600080fd5b505af192505050801561225157506040513d601f19601f8201168201806040525081019061224e9190612bf9565b60015b6122f75761225d61380e565b806308c379a014156122ba5750612272613bdf565b8061227d57506122bc565b806040517f08c379a00000000000000000000000000000000000000000000000000000000081526004016122b191906131e9565b60405180910390fd5b505b6040517f08c379a00000000000000000000000000000000000000000000000000000000081526004016122ee9061320b565b60405180910390fd5b63bc197c8160e01b7bffffffffffffffffffffffffffffffffffffffffffffffffffffffff1916817bffffffffffffffffffffffffffffffffffffffffffffffffffffffff19161461237e576040517f08c379a00000000000000000000000000000000000000000000000000000000081526004016123759061322b565b60405180910390fd5b505b505050505050565b60606000600167ffffffffffffffff8111156123cd577f4e487b7100000000000000000000000000000000000000000000000000000000600052604160045260246000fd5b6040519080825280602002602001820160405280156123fb5781602001602082028036833780820191505090505b5090508281600081518110612439577f4e487b7100000000000000000000000000000000000000000000000000000000600052603260045260246000fd5b60200260200101818152505080915050919050565b61246d8473ffffffffffffffffffffffffffffffffffffffff16611881565b1561262d578373ffffffffffffffffffffffffffffffffffffffff1663f23a6e6187878686866040518663ffffffff1660e01b81526004016124b39594939291906130ae565b602060405180830381600087803b1580156124cd57600080fd5b505af19250505080156124fe57506040513d601f19601f820116820180604052508101906124fb9190612bf9565b60015b6125a45761250a61380e565b806308c379a01415612567575061251f613bdf565b8061252a5750612569565b806040517f08c379a000000000000000000000000000000000000000000000000000000000815260040161255e91906131e9565b60405180910390fd5b505b6040517f08c379a000000000000000000000000000000000000000000000000000000000815260040161259b9061320b565b60405180910390fd5b63f23a6e6160e01b7bffffffffffffffffffffffffffffffffffffffffffffffffffffffff1916817bffffffffffffffffffffffffffffffffffffffffffffffffffffffff19161461262b576040517f08c379a00000000000000000000000000000000000000000000000000000000081526004016126229061322b565b60405180910390fd5b505b505050505050565b60007f01ffc9a7000000000000000000000000000000000000000000000000000000007bffffffffffffffffffffffffffffffffffffffffffffffffffffffff1916827bffffffffffffffffffffffffffffffffffffffffffffffffffffffff1916149050919050565b6040518060600160405280600390602082028036833780820191505090505090565b60006126d46126cf84613414565b6133ef565b905080838252602082019050828560208602820111156126f357600080fd5b60005b85811015612723578161270988826127d7565b8452602084019350602083019250506001810190506126f6565b5050509392505050565b600061274061273b84613440565b6133ef565b9050808382526020820190508285602086028201111561275f57600080fd5b60005b8581101561278f578161277588826128a9565b845260208401935060208301925050600181019050612762565b5050509392505050565b60006127ac6127a78461346c565b6133ef565b9050828152602081018484840111156127c457600080fd5b6127cf848285613693565b509392505050565b6000813590506127e681613c75565b92915050565b600082601f8301126127fd57600080fd5b813561280d8482602086016126c1565b91505092915050565b600082601f83011261282757600080fd5b813561283784826020860161272d565b91505092915050565b60008135905061284f81613c8c565b92915050565b60008135905061286481613ca3565b92915050565b60008151905061287981613ca3565b92915050565b600082601f83011261289057600080fd5b81356128a0848260208601612799565b91505092915050565b6000813590506128b881613cba565b92915050565b6000602082840312156128d057600080fd5b60006128de848285016127d7565b91505092915050565b600080604083850312156128fa57600080fd5b6000612908858286016127d7565b9250506020612919858286016127d7565b9150509250929050565b600080600080600060a0868803121561293b57600080fd5b6000612949888289016127d7565b955050602061295a888289016127d7565b945050604086013567ffffffffffffffff81111561297757600080fd5b61298388828901612816565b935050606086013567ffffffffffffffff8111156129a057600080fd5b6129ac88828901612816565b925050608086013567ffffffffffffffff8111156129c957600080fd5b6129d58882890161287f565b9150509295509295909350565b600080600080600060a086880312156129fa57600080fd5b6000612a08888289016127d7565b9550506020612a19888289016127d7565b9450506040612a2a888289016128a9565b9350506060612a3b888289016128a9565b925050608086013567ffffffffffffffff811115612a5857600080fd5b612a648882890161287f565b9150509295509295909350565b60008060408385031215612a8457600080fd5b6000612a92858286016127d7565b9250506020612aa385828601612840565b9150509250929050565b60008060408385031215612ac057600080fd5b6000612ace858286016127d7565b9250506020612adf858286016128a9565b9150509250929050565b60008060008060808587031215612aff57600080fd5b6000612b0d878288016127d7565b9450506020612b1e878288016128a9565b9350506040612b2f878288016128a9565b925050606085013567ffffffffffffffff811115612b4c57600080fd5b612b588782880161287f565b91505092959194509250565b60008060408385031215612b7757600080fd5b600083013567ffffffffffffffff811115612b9157600080fd5b612b9d858286016127ec565b925050602083013567ffffffffffffffff811115612bba57600080fd5b612bc685828601612816565b9150509250929050565b600060208284031215612be257600080fd5b6000612bf084828501612855565b91505092915050565b600060208284031215612c0b57600080fd5b6000612c198482850161286a565b91505092915050565b600060208284031215612c3457600080fd5b6000612c42848285016128a9565b91505092915050565b60008060408385031215612c5e57600080fd5b6000612c6c858286016128a9565b9250506020612c7d858286016128a9565b9150509250929050565b6000612c938383612fba565b60208301905092915050565b612ca88161361f565b82525050565b612cb7816134b7565b612cc181846134fd565b9250612ccc8261349d565b8060005b83811015612cfd578151612ce48782612c87565b9650612cef836134e3565b925050600181019050612cd0565b505050505050565b6000612d10826134c2565b612d1a8185613508565b9350612d25836134a7565b8060005b83811015612d56578151612d3d8882612c87565b9750612d48836134f0565b925050600181019050612d29565b5085935050505092915050565b612d6c81613631565b82525050565b612d7b8161363d565b82525050565b6000612d8c826134cd565b612d968185613519565b9350612da68185602086016136a2565b612daf81613830565b840191505092915050565b6000612dc5826134d8565b612dcf818561352a565b9350612ddf8185602086016136a2565b612de881613830565b840191505092915050565b6000612e0060348361352a565b9150612e0b8261384e565b604082019050919050565b6000612e2360288361352a565b9150612e2e8261389d565b604082019050919050565b6000612e46602b8361352a565b9150612e51826138ec565b604082019050919050565b6000612e6960298361352a565b9150612e748261393b565b604082019050919050565b6000612e8c60168361352a565b9150612e978261398a565b602082019050919050565b6000612eaf60258361352a565b9150612eba826139b3565b604082019050919050565b6000612ed260328361352a565b9150612edd82613a02565b604082019050919050565b6000612ef5602a8361352a565b9150612f0082613a51565b604082019050919050565b6000612f1860158361352a565b9150612f2382613aa0565b602082019050919050565b6000612f3b60148361352a565b9150612f4682613ac9565b602082019050919050565b6000612f5e60298361352a565b9150612f6982613af2565b604082019050919050565b6000612f8160298361352a565b9150612f8c82613b41565b604082019050919050565b6000612fa460288361352a565b9150612faf82613b90565b604082019050919050565b612fc381613689565b82525050565b612fd281613689565b82525050565b6000602082019050612fed6000830184612c9f565b92915050565b600060a0820190506130086000830188612c9f565b6130156020830187612c9f565b6130226040830186612c9f565b61302f6060830185612fc9565b61303c6080830184612fc9565b9695505050505050565b600060a08201905061305b6000830188612c9f565b6130686020830187612c9f565b818103604083015261307a8186612d05565b9050818103606083015261308e8185612d05565b905081810360808301526130a28184612d81565b90509695505050505050565b600060a0820190506130c36000830188612c9f565b6130d06020830187612c9f565b6130dd6040830186612fc9565b6130ea6060830185612fc9565b81810360808301526130fc8184612d81565b90509695505050505050565b600060608201905061311d6000830186612c9f565b61312a6020830185612fc9565b6131376040830184612fc9565b949350505050565b60006060820190506131546000830184612cae565b92915050565b600060208201905081810360008301526131748184612d05565b905092915050565b600060408201905081810360008301526131968185612d05565b905081810360208301526131aa8184612d05565b90509392505050565b60006020820190506131c86000830184612d63565b92915050565b60006020820190506131e36000830184612d72565b92915050565b600060208201905081810360008301526132038184612dba565b905092915050565b6000602082019050818103600083015261322481612df3565b9050919050565b6000602082019050818103600083015261324481612e16565b9050919050565b6000602082019050818103600083015261326481612e39565b9050919050565b6000602082019050818103600083015261328481612e5c565b9050919050565b600060208201905081810360008301526132a481612e7f565b9050919050565b600060208201905081810360008301526132c481612ea2565b9050919050565b600060208201905081810360008301526132e481612ec5565b9050919050565b6000602082019050818103600083015261330481612ee8565b9050919050565b6000602082019050818103600083015261332481612f0b565b9050919050565b6000602082019050818103600083015261334481612f2e565b9050919050565b6000602082019050818103600083015261336481612f51565b9050919050565b6000602082019050818103600083015261338481612f74565b9050919050565b600060208201905081810360008301526133a481612f97565b9050919050565b60006020820190506133c06000830184612fc9565b92915050565b60006040820190506133db6000830185612fc9565b6133e86020830184612fc9565b9392505050565b60006133f961340a565b90506134058282613707565b919050565b6000604051905090565b600067ffffffffffffffff82111561342f5761342e6137df565b5b602082029050602081019050919050565b600067ffffffffffffffff82111561345b5761345a6137df565b5b602082029050602081019050919050565b600067ffffffffffffffff821115613487576134866137df565b5b61349082613830565b9050602081019050919050565b6000819050919050565b6000819050602082019050919050565b600060039050919050565b600081519050919050565b600081519050919050565b600081519050919050565b6000602082019050919050565b6000602082019050919050565b600081905092915050565b600082825260208201905092915050565b600082825260208201905092915050565b600082825260208201905092915050565b600061354682613689565b915061355183613689565b9250827fffffffffffffffffffffffffffffffffffffffffffffffffffffffffffffffff0382111561358657613585613781565b5b828201905092915050565b600061359c82613689565b91506135a783613689565b9250817fffffffffffffffffffffffffffffffffffffffffffffffffffffffffffffffff04831182151516156135e0576135df613781565b5b828202905092915050565b60006135f682613689565b915061360183613689565b92508282101561361457613613613781565b5b828203905092915050565b600061362a82613669565b9050919050565b60008115159050919050565b60007fffffffff0000000000000000000000000000000000000000000000000000000082169050919050565b600073ffffffffffffffffffffffffffffffffffffffff82169050919050565b6000819050919050565b82818337600083830152505050565b60005b838110156136c05780820151818401526020810190506136a5565b838111156136cf576000848401525b50505050565b600060028204905060018216806136ed57607f821691505b60208210811415613701576137006137b0565b5b50919050565b61371082613830565b810181811067ffffffffffffffff8211171561372f5761372e6137df565b5b80604052505050565b600061374382613689565b91507fffffffffffffffffffffffffffffffffffffffffffffffffffffffffffffffff82141561377657613775613781565b5b600182019050919050565b7f4e487b7100000000000000000000000000000000000000000000000000000000600052601160045260246000fd5b7f4e487b7100000000000000000000000000000000000000000000000000000000600052602260045260246000fd5b7f4e487b7100000000000000000000000000000000000000000000000000000000600052604160045260246000fd5b600060033d111561382d5760046000803e61382a600051613841565b90505b90565b6000601f19601f8301169050919050565b60008160e01c9050919050565b7f455243313135353a207472616e7366657220746f206e6f6e204552433131353560008201527f526563656976657220696d706c656d656e746572000000000000000000000000602082015250565b7f455243313135353a204552433131353552656365697665722072656a6563746560008201527f6420746f6b656e73000000000000000000000000000000000000000000000000602082015250565b7f455243313135353a2062616c616e636520717565727920666f7220746865207a60008201527f65726f2061646472657373000000000000000000000000000000000000000000602082015250565b7f455243313135353a2063616c6c6572206973206e6f74206f776e6572206e6f7260008201527f20617070726f7665640000000000000000000000000000000000000000000000602082015250565b7f4e6f7420656e6f7567687420656c656374726f6e732e00000000000000000000600082015250565b7f455243313135353a207472616e7366657220746f20746865207a65726f20616460008201527f6472657373000000000000000000000000000000000000000000000000000000602082015250565b7f455243313135353a207472616e736665722063616c6c6572206973206e6f742060008201527f6f776e6572206e6f7220617070726f7665640000000000000000000000000000602082015250565b7f455243313135353a20696e73756666696369656e742062616c616e636520666f60008201527f72207472616e7366657200000000000000000000000000000000000000000000602082015250565b7f4e6f7420656e6f75676874206e657574726f6e732e0000000000000000000000600082015250565b7f4e6f7420656e6f756768742070726f746f6e732e000000000000000000000000600082015250565b7f455243313135353a2073657474696e6720617070726f76616c2073746174757360008201527f20666f722073656c660000000000000000000000000000000000000000000000602082015250565b7f455243313135353a206163636f756e747320616e6420696473206c656e67746860008201527f206d69736d617463680000000000000000000000000000000000000000000000602082015250565b7f455243313135353a2069647320616e6420616d6f756e7473206c656e6774682060008201527f6d69736d61746368000000000000000000000000000000000000000000000000602082015250565b600060443d1015613bef57613c72565b613bf761340a565b60043d036004823e80513d602482011167ffffffffffffffff82111715613c1f575050613c72565b808201805167ffffffffffffffff811115613c3d5750505050613c72565b80602083010160043d038501811115613c5a575050505050613c72565b613c6982602001850186613707565b82955050505050505b90565b613c7e8161361f565b8114613c8957600080fd5b50565b613c9581613631565b8114613ca057600080fd5b50565b613cac8161363d565b8114613cb757600080fd5b50565b613cc381613689565b8114613cce57600080fd5b5056fea2646970667358221220787e3ed9ec173c09c80b7946053eb4e2a6cecb4807b87855ab5c23a440331a8264736f6c6343000804003368747470733a2f2f73796e7468657369732e6578616d706c652f6170692f6974656d2f7b69647d2e6a736f6e",
  "linkReferences": {},
  "deployedLinkReferences": {}
}