{
  "_format": "hh-sol-artifact-1",
  "contractName": "Element",
  "sourceName": "contracts/Element.sol",
  "abi": [
    {
      "inputs": [],
      "stateMutability": "nonpayable",
      "type": "constructor"
    },
    {
      "anonymous": false,
      "inputs": [
        {
          "indexed": true,
          "internalType": "address",
          "name": "account",
          "type": "address"
        },
        {
          "indexed": true,
          "internalType": "address",
          "name": "operator",
          "type": "address"
        },
        {
          "indexed": false,
          "internalType": "bool",
          "name": "approved",
          "type": "bool"
        }
      ],
      "name": "ApprovalForAll",
      "type": "event"
    },
    {
      "anonymous": false,
      "inputs": [
        {
          "indexed": false,
          "internalType": "address",
          "name": "sender",
          "type": "address"
        },
        {
          "indexed": false,
          "internalType": "uint256",
          "name": "id",
          "type": "uint256"
        },
        {
          "indexed": false,
          "internalType": "uint256",
          "name": "count",
          "type": "uint256"
        }
      ],
      "name": "ParticleReceived",
      "type": "event"
    },
    {
      "anonymous": false,
      "inputs": [
        {
          "indexed": true,
          "internalType": "address",
          "name": "operator",
          "type": "address"
        },
        {
          "indexed": true,
          "internalType": "address",
          "name": "from",
          "type": "address"
        },
        {
          "indexed": true,
          "internalType": "address",
          "name": "to",
          "type": "address"
        },
        {
          "indexed": false,
          "internalType": "uint256[]",
          "name": "ids",
          "type": "uint256[]"
        },
        {
          "indexed": false,
          "internalType": "uint256[]",
          "name": "values",
          "type": "uint256[]"
        }
      ],
      "name": "TransferBatch",
      "type": "event"
    },
    {
      "anonymous": false,
      "inputs": [
        {
          "indexed": true,
          "internalType": "address",
          "name": "operator",
          "type": "address"
        },
        {
          "indexed": true,
          "internalType": "address",
          "name": "from",
          "type": "address"
        },
        {
          "indexed": true,
          "internalType": "address",
          "name": "to",
          "type": "address"
        },
        {
          "indexed": false,
          "internalType": "uint256",
          "name": "id",
          "type": "uint256"
        },
        {
          "indexed": false,
          "internalType": "uint256",
          "name": "value",
          "type": "uint256"
        }
      ],
      "name": "TransferSingle",
      "type": "event"
    },
    {
      "anonymous": false,
      "inputs": [
        {
          "indexed": false,
          "internalType": "string",
          "name": "value",
          "type": "string"
        },
        {
          "indexed": true,
          "internalType": "uint256",
          "name": "id",
          "type": "uint256"
        }
      ],
      "name": "URI",
      "type": "event"
    },
    {
      "inputs": [],
      "name": "C",
      "outputs": [
        {
          "internalType": "uint256",
          "name": "",
          "type": "uint256"
        }
      ],
      "stateMutability": "view",
      "type": "function"
    },
    {
      "inputs": [],
      "name": "Cl",
      "outputs": [
        {
          "internalType": "uint256",
          "name": "",
          "type": "uint256"
        }
      ],
      "stateMutability": "view",
      "type": "function"
    },
    {
      "inputs": [],
      "name": "H",
      "outputs": [
        {
          "internalType": "uint256",
          "name": "",
          "type": "uint256"
        }
      ],
      "stateMutability": "view",
      "type": "function"
    },
    {
      "inputs": [],
      "name": "Li",
      "outputs": [
        {
          "internalType": "uint256",
          "name": "",
          "type": "uint256"
        }
      ],
      "stateMutability": "view",
      "type": "function"
    },
    {
      "inputs": [],
      "name": "N",
      "outputs": [
        {
          "internalType": "uint256",
          "name": "",
          "type": "uint256"
        }
      ],
      "stateMutability": "view",
      "type": "function"
    },
    {
      "inputs": [],
      "name": "Na",
      "outputs": [
        {
          "internalType": "uint256",
          "name": "",
          "type": "uint256"
        }
      ],
      "stateMutability": "view",
      "type": "function"
    },
    {
      "inputs": [],
      "name": "O",
      "outputs": [
        {
          "internalType": "uint256",
          "name": "",
          "type": "uint256"
        }
      ],
      "stateMutability": "view",
      "type": "function"
    },
    {
      "inputs": [],
      "name": "P",
      "outputs": [
        {
          "internalType": "uint256",
          "name": "",
          "type": "uint256"
        }
      ],
      "stateMutability": "view",
      "type": "function"
    },
    {
      "inputs": [],
      "name": "S",
      "outputs": [
        {
          "internalType": "uint256",
          "name": "",
          "type": "uint256"
        }
      ],
      "stateMutability": "view",
      "type": "function"
    },
    {
      "inputs": [
        {
          "internalType": "address",
          "name": "account",
          "type": "address"
        },
        {
          "internalType": "uint256",
          "name": "id",
          "type": "uint256"
        }
      ],
      "name": "balanceOf",
      "outputs": [
        {
          "internalType": "uint256",
          "name": "",
          "type": "uint256"
        }
      ],
      "stateMutability": "view",
      "type": "function"
    },
    {
      "inputs": [
        {
          "internalType": "address[]",
          "name": "accounts",
          "type": "address[]"
        },
        {
          "internalType": "uint256[]",
          "name": "ids",
          "type": "uint256[]"
        }
      ],
      "name": "balanceOfBatch",
      "outputs": [
        {
          "internalType": "uint256[]",
          "name": "",
          "type": "uint256[]"
        }
      ],
      "stateMutability": "view",
      "type": "function"
    },
    {
      "inputs": [
        {
          "internalType": "uint256",
          "name": "",
          "type": "uint256"
        },
        {
          "internalType": "uint256",
          "name": "",
          "type": "uint256"
        }
      ],
      "name": "elementsCompound",
      "outputs": [
        {
          "internalType": "uint256",
          "name": "",
          "type": "uint256"
        }
      ],
      "stateMutability": "view",
      "type": "function"
    },
    {
      "inputs": [
        {
          "internalType": "uint256",
          "name": "token_id",
          "type": "uint256"
        }
      ],
      "name": "getElementCompound",
      "outputs": [
        {
          "internalType": "uint256[3]",
          "name": "",
          "type": "uint256[3]"
        }
      ],
      "stateMutability": "view",
      "type": "function"
    },
    {
      "inputs": [
        {
          "internalType": "address",
          "name": "addr",
          "type": "address"
        }
      ],
      "name": "getParticlesBalance",
      "outputs": [
        {
          "internalType": "uint256[3]",
          "name": "",
          "type": "uint256[3]"
        }
      ],
      "stateMutability": "view",
      "type": "function"
    },
    {
      "inputs": [
        {
          "internalType": "address",
          "name": "account",
          "type": "address"
        },
        {
          "internalType": "address",
          "name": "operator",
          "type": "address"
        }
      ],
      "name": "isApprovedForAll",
      "outputs": [
        {
          "internalType": "bool",
          "name": "",
          "type": "bool"
        }
      ],
      "stateMutability": "view",
      "type": "function"
    },
    {
      "inputs": [
        {
          "internalType": "address",
          "name": "operator",
          "type": "address"
        },
        {
          "internalType": "address",
          "name": "from",
          "type": "address"
        },
        {
          "internalType": "uint256[]",
          "name": "ids",
          "type": "uint256[]"
        },
        {
          "internalType": "uint256[]",
          "name": "values",
          "type": "uint256[]"
        },
        {
          "internalType": "bytes",
          "name": "data",
          "type": "bytes"
        }
      ],
      "name": "onERC1155BatchReceived",
      "outputs": [
        {
          "internalType": "bytes4",
          "name": "",
          "type": "bytes4"
        }
      ],
      "stateMutability": "nonpayable",
      "type": "function"
    },
    {
      "inputs": [
        {
          "internalType": "address",
          "name": "operator",
          "type": "address"
        },
        {
          "internalType": "address",
          "name": "from",
          "type": "address"
        },
        {
          "internalType": "uint256",
          "name": "id",
          "type": "uint256"
        },
        {
          "internalType": "uint256",
          "name": "value",
          "type": "uint256"
        },
        {
          "internalType": "bytes",
          "name": "data",
          "type": "bytes"
        }
      ],
      "name": "onERC1155Received",
      "outputs": [
        {
          "internalType": "bytes4",
          "name": "",
          "type": "bytes4"
        }
      ],
      "stateMutability": "nonpayable",
      "type": "function"
    },
    {
      "inputs": [
        {
          "internalType": "address",
          "name": "",
          "type": "address"
        },
        {
          "internalType": "uint256",
          "name": "",
          "type": "uint256"
        }
      ],
      "name": "particleTransmitters",
      "outputs": [
        {
          "internalType": "uint256",
          "name": "",
          "type": "uint256"
        }
      ],
      "stateMutability": "view",
      "type": "function"
    },
    {
      "inputs": [
        {
          "internalType": "address",
          "name": "from",
          "type": "address"
        },
        {
          "internalType": "address",
          "name": "to",
          "type": "address"
        },
        {
          "internalType": "uint256[]",
          "name": "ids",
          "type": "uint256[]"
        },
        {
          "internalType": "uint256[]",
          "name": "amounts",
          "type": "uint256[]"
        },
        {
          "internalType": "bytes",
          "name": "data",
          "type": "bytes"
        }
      ],
      "name": "safeBatchTransferFrom",
      "outputs": [],
      "stateMutability": "nonpayable",
      "type": "function"
    },
    {
      "inputs": [
        {
          "internalType": "address",
          "name": "from",
          "type": "address"
        },
        {
          "internalType": "address",
          "name": "to",
          "type": "address"
        },
        {
          "internalType": "uint256",
          "name": "id",
          "type": "uint256"
        },
        {
          "internalType": "uint256",
          "name": "amount",
          "type": "uint256"
        },
        {
          "internalType": "bytes",
          "name": "data",
          "type": "bytes"
        }
      ],
      "name": "safeTransferFrom",
      "outputs": [],
      "stateMutability": "nonpayable",
      "type": "function"
    },
    {
      "inputs": [
        {
          "internalType": "address",
          "name": "operator",
          "type": "address"
        },
        {
          "internalType": "bool",
          "name": "approved",
          "type": "bool"
        }
      ],
      "name": "setApprovalForAll",
      "outputs": [],
      "stateMutability": "nonpayable",
      "type": "function"
    },
    {
      "inputs": [
        {
          "internalType": "bytes4",
          "name": "interfaceId",
          "type": "bytes4"
        }
      ],
      "name": "supportsInterface",
      "outputs": [
        {
          "internalType": "bool",
          "name": "",
          "type": "bool"
        }
      ],
      "stateMutability": "view",
      "type": "function"
    },
    {
      "inputs": [
        {
          "internalType": "uint256",
          "name": "",
          "type": "uint256"
        }
      ],
      "name": "uri",
      "outputs": [
        {
          "internalType": "string",
          "name": "",
          "type": "string"
        }
      ],
      "stateMutability": "view",
      "type": "function"
    }
  ],
  "bytecode": "0x60806040523480156200001157600080fd5b506040518060600160405280602c815260200162005413602c91396200003d8162000c8760201b60201c565b5060016003600060018152602001908152602001600020600080600281111562000090577f4e487b7100000000000000000000000000000000000000000000000000000000600052602160045260246000fd5b81526020019081526020016000208190555060016003600060018152602001908152602001600020600060016002811115620000f5577f4e487b7100000000000000000000000000000000000000000000000000000000600052602160045260246000fd5b81526020019081526020016000208190555060006003600060018152602001908152602001600020600060028081111562000159577f4e487b7100000000000000000000000000000000000000000000000000000000600052602160045260246000fd5b8152602001908152602001600020819055506003806000600381526020019081526020016000206000806002811115620001bc577f4e487b7100000000000000000000000000000000000000000000000000000000600052602160045260246000fd5b81526020019081526020016000208190555060038060006003815260200190815260200160002060006001600281111562000220577f4e487b7100000000000000000000000000000000000000000000000000000000600052602160045260246000fd5b81526020019081526020016000208190555060046003600060038152602001908152602001600020600060028081111562000284577f4e487b7100000000000000000000000000000000000000000000000000000000600052602160045260246000fd5b815260200190815260200160002081905550600b60036000600b81526020019081526020016000206000806002811115620002e8577f4e487b7100000000000000000000000000000000000000000000000000000000600052602160045260246000fd5b815260200190815260200160002081905550600b60036000600b81526020019081526020016000206000600160028111156200034d577f4e487b7100000000000000000000000000000000000000000000000000000000600052602160045260246000fd5b815260200190815260200160002081905550600c60036000600b81526020019081526020016000206000600280811115620003b1577f4e487b7100000000000000000000000000000000000000000000000000000000600052602160045260246000fd5b81526020019081526020016000208190555060086003600060088152602001908152602001600020600080600281111562000415577f4e487b7100000000000000000000000000000000000000000000000000000000600052602160045260246000fd5b815260200190815260200160002081905550600860036000600881526020019081526020016000206000600160028111156200047a577f4e487b7100000000000000000000000000000000000000000000000000000000600052602160045260246000fd5b815260200190815260200160002081905550600860036000600881526020019081526020016000206000600280811115620004de577f4e487b7100000000000000000000000000000000000000000000000000000000600052602160045260246000fd5b81526020019081526020016000208190555060066003600060068152602001908152602001600020600080600281111562000542577f4e487b7100000000000000000000000000000000000000000000000000000000600052602160045260246000fd5b81526020019081526020016000208190555060066003600060068152602001908152602001600020600060016002811115620005a7577f4e487b7100000000000000000000000000000000000000000000000000000000600052602160045260246000fd5b8152602001908152602001600020819055506006600360006006815260200190815260200160002060006002808111156200060b577f4e487b7100000000000000000000000000000000000000000000000000000000600052602160045260246000fd5b8152602001908152602001600020819055506007600360006007815260200190815260200160002060008060028111156200066f577f4e487b7100000000000000000000000000000000000000000000000000000000600052602160045260246000fd5b81526020019081526020016000208190555060076003600060078152602001908152602001600020600060016002811115620006d4577f4e487b7100000000000000000000000000000000000000000000000000000000600052602160045260246000fd5b81526020019081526020016000208190555060076003600060078152602001908152602001600020600060028081111562000738577f4e487b7100000000000000000000000000000000000000000000000000000000600052602160045260246000fd5b8152602001908152602001600020819055506011600360006011815260200190815260200160002060008060028111156200079c577f4e487b7100000000000000000000000000000000000000000000000000000000600052602160045260246000fd5b8152602001908152602001600020819055506011600360006011815260200190815260200160002060006001600281111562000801577f4e487b7100000000000000000000000000000000000000000000000000000000600052602160045260246000fd5b81526020019081526020016000208190555060116003600060118152602001908152602001600020600060028081111562000865577f4e487b7100000000000000000000000000000000000000000000000000000000600052602160045260246000fd5b815260200190815260200160002081905550600f60036000600f81526020019081526020016000206000806002811115620008c9577f4e487b7100000000000000000000000000000000000000000000000000000000600052602160045260246000fd5b815260200190815260200160002081905550600f60036000600f81526020019081526020016000206000600160028111156200092e577f4e487b7100000000000000000000000000000000000000000000000000000000600052602160045260246000fd5b815260200190815260200160002081905550601060036000600f8152602001908152602001600020600060028081111562000992577f4e487b7100000000000000000000000000000000000000000000000000000000600052602160045260246000fd5b815260200190815260200160002081905550601060036000601081526020019081526020016000206000806002811115620009f6577f4e487b7100000000000000000000000000000000000000000000000000000000600052602160045260246000fd5b8152602001908152602001600020819055506010600360006010815260200190815260200160002060006001600281111562000a5b577f4e487b7100000000000000000000000000000000000000000000000000000000600052602160045260246000fd5b81526020019081526020016000208190555060106003600060108152602001908152602001600020600060028081111562000abf577f4e487b7100000000000000000000000000000000000000000000000000000000600052602160045260246000fd5b81526020019081526020016000208190555062000b013360016b033b2e3c9fd0803ce80000006040518060200160405280600081525062000ca360201b60201c565b62000b313360036b033b2e3c9fd0803ce80000006040518060200160405280600081525062000ca360201b60201c565b62000b6133600b6b033b2e3c9fd0803ce80000006040518060200160405280600081525062000ca360201b60201c565b62000b913360086b033b2e3c9fd0803ce80000006040518060200160405280600081525062000ca360201b60201c565b62000bc13360066b033b2e3c9fd0803ce80000006040518060200160405280600081525062000ca360201b60201c565b62000bf13360076b033b2e3c9fd0803ce80000006040518060200160405280600081525062000ca360201b60201c565b62000c213360116b033b2e3c9fd0803ce80000006040518060200160405280600081525062000ca360201b60201c565b62000c5133600f6b033b2e3c9fd0803ce80000006040518060200160405280600081525062000ca360201b60201c565b62000c813360106b033b2e3c9fd0803ce80000006040518060200160405280600081525062000ca360201b60201c565b620018b9565b806002908051906020019062000c9f9291906200116e565b5050565b600073ffffffffffffffffffffffffffffffffffffffff168473ffffffffffffffffffffffffffffffffffffffff16141562000d16576040517f08c379a000000000000000000000000000000000000000000000000000000000815260040162000d0d9062001446565b60405180910390fd5b600062000d2862000e6860201b60201c565b905062000d618160008762000d438862000e7060201b60201c565b62000d548862000e7060201b60201c565b8762000f3960201b60201c565b8260008086815260200190815260200160002060008773ffffffffffffffffffffffffffffffffffffffff1673ffffffffffffffffffffffffffffffffffffffff168152602001908152602001600020600082825462000dc29190620014d7565b925050819055508473ffffffffffffffffffffffffffffffffffffffff16600073ffffffffffffffffffffffffffffffffffffffff168273ffffffffffffffffffffffffffffffffffffffff167fc3d58168c5ae7397731d063d5bbf3d657854427343f4c083240f7aacaa2d0f62878760405162000e4292919062001468565b60405180910390a462000e618160008787878762000f4160201b60201c565b5050505050565b600033905090565b60606000600167ffffffffffffffff81111562000eb6577f4e487b7100000000000000000000000000000000000000000000000000000000600052604160045260246000fd5b60405190808252806020026020018201604052801562000ee55781602001602082028036833780820191505090505b509050828160008151811062000f24577f4e487b7100000000000000000000000000000000000000000000000000000000600052603260045260246000fd5b60200260200101818152505080915050919050565b505050505050565b62000f6d8473ffffffffffffffffffffffffffffffffffffffff166200114b60201b6200170c1760201c565b1562001143578373ffffffffffffffffffffffffffffffffffffffff1663f23a6e6187878686866040518663ffffffff1660e01b815260040162000fb69594939291906200137a565b602060405180830381600087803b15801562000fd157600080fd5b505af19250505080156200100557506040513d601f19601f8201168201806040525081019062001002919062001235565b60015b620010b75762001014620016cd565b806308c379a014156200107857506200102c620017fd565b806200103957506200107a565b806040517f08c379a00000000000000000000000000000000000000000000000000000000081526004016200106f9190620013de565b60405180910390fd5b505b6040517f08c379a0000000000000000000000000000000000000000000000000000000008152600401620010ae9062001402565b60405180910390fd5b63f23a6e6160e01b7bffffffffffffffffffffffffffffffffffffffffffffffffffffffff1916817bffffffffffffffffffffffffffffffffffffffffffffffffffffffff19161462001141576040517f08c379a0000000000000000000000000000000000000000000000000000000008152600401620011389062001424565b60405180910390fd5b505b505050505050565b6000808273ffffffffffffffffffffffffffffffffffffffff163b119050919050565b8280546200117c90620015d4565b90600052602060002090601f016020900481019282620011a05760008555620011ec565b82601f10620011bb57805160ff1916838001178555620011ec565b82800160010185558215620011ec579182015b82811115620011eb578251825591602001919060010190620011ce565b5b509050620011fb9190620011ff565b5090565b5b808211156200121a57600081600090555060010162001200565b5090565b6000815190506200122f816200189f565b92915050565b6000602082840312156200124857600080fd5b600062001258848285016200121e565b91505092915050565b6200126c8162001534565b82525050565b60006200127f826200149f565b6200128b8185620014b5565b93506200129d8185602086016200159e565b620012a881620016f2565b840191505092915050565b6000620012c082620014aa565b620012cc8185620014c6565b9350620012de8185602086016200159e565b620012e981620016f2565b840191505092915050565b600062001303603483620014c6565b9150620013108262001710565b604082019050919050565b60006200132a602883620014c6565b915062001337826200175f565b604082019050919050565b600062001351602183620014c6565b91506200135e82620017ae565b604082019050919050565b620013748162001594565b82525050565b600060a08201905062001391600083018862001261565b620013a0602083018762001261565b620013af604083018662001369565b620013be606083018562001369565b8181036080830152620013d2818462001272565b90509695505050505050565b60006020820190508181036000830152620013fa8184620012b3565b905092915050565b600060208201905081810360008301526200141d81620012f4565b9050919050565b600060208201905081810360008301526200143f816200131b565b9050919050565b60006020820190508181036000830152620014618162001342565b9050919050565b60006040820190506200147f600083018562001369565b6200148e602083018462001369565b9392505050565b6000604051905090565b600081519050919050565b600081519050919050565b600082825260208201905092915050565b600082825260208201905092915050565b6000620014e48262001594565b9150620014f18362001594565b9250827fffffffffffffffffffffffffffffffffffffffffffffffffffffffffffffffff0382111562001529576200152862001640565b5b828201905092915050565b6000620015418262001574565b9050919050565b60007fffffffff0000000000000000000000000000000000000000000000000000000082169050919050565b600073ffffffffffffffffffffffffffffffffffffffff82169050919050565b6000819050919050565b60005b83811015620015be578082015181840152602081019050620015a1565b83811115620015ce576000848401525b50505050565b60006002820490506001821680620015ed57607f821691505b602082108114156200160457620016036200166f565b5b50919050565b6200161582620016f2565b810181811067ffffffffffffffff821117156200163757620016366200169e565b5b80604052505050565b7f4e487b7100000000000000000000000000000000000000000000000000000000600052601160045260246000fd5b7f4e487b7100000000000000000000000000000000000000000000000000000000600052602260045260246000fd5b7f4e487b7100000000000000000000000000000000000000000000000000000000600052604160045260246000fd5b600060033d1115620016ef5760046000803e620016ec60005162001703565b90505b90565b6000601f19601f8301169050919050565b60008160e01c9050919050565b7f455243313135353a207472616e7366657220746f206e6f6e204552433131353560008201527f526563656976657220696d706c656d656e746572000000000000000000000000602082015250565b7f455243313135353a204552433131353552656365697665722072656a6563746560008201527f6420746f6b656e73000000000000000000000000000000000000000000000000602082015250565b7f455243313135353a206d696e7420746f20746865207a65726f2061646472657360008201527f7300000000000000000000000000000000000000000000000000000000000000602082015250565b600060443d10156200180f576200189c565b6200181962001495565b60043d036004823e80513d602482011167ffffffffffffffff82111715620018435750506200189c565b808201805167ffffffffffffffff8111156200186357505050506200189c565b80602083010160043d038501811115620018825750505050506200189c565b62001893826020018501866200160a565b82955050505050505b90565b620018aa8162001548565b8114620018b657600080fd5b50565b613b4a80620018c96000396000f3fe608060405234801561001057600080fd5b506004361061014c5760003560e01c806383dfe5fd116100c3578063c9e525df1161007c578063c9e525df146103db578063e1954f12146103f9578063e264471e14610429578063e985e9c514610447578063f23a6e6114610477578063f242432a146104a75761014c565b806383dfe5fd146103055780638b8fbd9214610323578063a0ea32de14610341578063a22cb4651461035f578063bc197c811461037b578063c42f83b3146103ab5761014c565b80633ec252f6116101155780633ec252f61461022d5780634be1c7961461024b5780634e1273f41461026957806364a553231461029957806370a5d861146102c95780637fc12af2146102e75761014c565b8062fdd58e1461015157806301ffc9a71461018157806303cc0e8c146101b15780630e89341c146101e15780632eb2c2d614610211575b600080fd5b61016b600480360381019061016691906129d9565b6104c3565b60405161017891906131ee565b60405180910390f35b61019b60048036038101906101969190612a81565b61058c565b6040516101a89190612ff6565b60405180910390f35b6101cb60048036038101906101c691906127ea565b61059e565b6040516101d89190612f82565b60405180910390f35b6101fb60048036038101906101f69190612ad3565b610761565b604051610208919061302c565b60405180910390f35b61022b6004803603810190610226919061284f565b6107f5565b005b610235610896565b60405161024291906131ee565b60405180910390f35b61025361089b565b60405161026091906131ee565b60405180910390f35b610283600480360381019061027e9190612a15565b6108a0565b6040516102909190612f9d565b60405180910390f35b6102b360048036038101906102ae9190612afc565b610a51565b6040516102c091906131ee565b60405180910390f35b6102d1610a76565b6040516102de91906131ee565b60405180910390f35b6102ef610a7b565b6040516102fc91906131ee565b60405180910390f35b61030d610a80565b60405161031a91906131ee565b60405180910390f35b61032b610a85565b60405161033891906131ee565b60405180910390f35b610349610a8a565b60405161035691906131ee565b60405180910390f35b6103796004803603810190610374919061299d565b610a8f565b005b6103956004803603810190610390919061284f565b610aa5565b6040516103a29190613011565b60405180910390f35b6103c560048036038101906103c09190612ad3565b610ad3565b6040516103d29190612f82565b60405180910390f35b6103e3610c12565b6040516103f091906131ee565b60405180910390f35b610413600480360381019061040e91906129d9565b610c17565b60405161042091906131ee565b60405180910390f35b610431610c3c565b60405161043e91906131ee565b60405180910390f35b610461600480360381019061045c9190612813565b610c41565b60405161046e9190612ff6565b60405180910390f35b610491600480360381019061048c919061290e565b610cd5565b60405161049e9190613011565b60405180910390f35b6104c160048036038101906104bc919061290e565b610df5565b005b60008073ffffffffffffffffffffffffffffffffffffffff168373ffffffffffffffffffffffffffffffffffffffff161415610534576040517f08c379a000000000000000000000000000000000000000000000000000000000815260040161052b9061308e565b60405180910390fd5b60008083815260200190815260200160002060008473ffffffffffffffffffffffffffffffffffffffff1673ffffffffffffffffffffffffffffffffffffffff16815260200190815260200160002054905092915050565b60006105978261172f565b9050919050565b6105a66125cb565b6040518060600160405280600460008573ffffffffffffffffffffffffffffffffffffffff1673ffffffffffffffffffffffffffffffffffffffff168152602001908152602001600020600080600281111561062b577f4e487b7100000000000000000000000000000000000000000000000000000000600052602160045260246000fd5b8152602001908152602001600020548152602001600460008573ffffffffffffffffffffffffffffffffffffffff1673ffffffffffffffffffffffffffffffffffffffff1681526020019081526020016000206000600160028111156106ba577f4e487b7100000000000000000000000000000000000000000000000000000000600052602160045260246000fd5b8152602001908152602001600020548152602001600460008573ffffffffffffffffffffffffffffffffffffffff1673ffffffffffffffffffffffffffffffffffffffff1681526020019081526020016000206000600280811115610748577f4e487b7100000000000000000000000000000000000000000000000000000000600052602160045260246000fd5b8152602001908152602001600020548152509050919050565b60606002805461077090613518565b80601f016020809104026020016040519081016040528092919081815260200182805461079c90613518565b80156107e95780601f106107be576101008083540402835291602001916107e9565b820191906000526020600020905b8154815290600101906020018083116107cc57829003601f168201915b50505050509050919050565b6107fd6117a9565b73ffffffffffffffffffffffffffffffffffffffff168573ffffffffffffffffffffffffffffffffffffffff16148061084357506108428561083d6117a9565b610c41565b5b610882576040517f08c379a00000000000000000000000000000000000000000000000000000000081526004016108799061310e565b60405180910390fd5b61088f85858585856117b1565b5050505050565b601181565b601081565b606081518351146108e6576040517f08c379a00000000000000000000000000000000000000000000000000000000081526004016108dd906131ae565b60405180910390fd5b6000835167ffffffffffffffff811115610929577f4e487b7100000000000000000000000000000000000000000000000000000000600052604160045260246000fd5b6040519080825280602002602001820160405280156109575781602001602082028036833780820191505090505b50905060005b8451811015610a46576109f08582815181106109a2577f4e487b7100000000000000000000000000000000000000000000000000000000600052603260045260246000fd5b60200260200101518583815181106109e3577f4e487b7100000000000000000000000000000000000000000000000000000000600052603260045260246000fd5b60200260200101516104c3565b828281518110610a29577f4e487b7100000000000000000000000000000000000000000000000000000000600052603260045260246000fd5b60200260200101818152505080610a3f9061357b565b905061095d565b508091505092915050565b6003602052816000526040600020602052806000526040600020600091509150505481565b600181565b600b81565b600681565b600f81565b600881565b610aa1610a9a6117a9565b8383611b11565b5050565b60007ff23a6e612e1ff4830e658fe43f4e3cb4a5f8170bd5d9e69fb5d7a7fa9e4fdf97905095945050505050565b610adb6125cb565b6040518060600160405280600360008581526020019081526020016000206000806002811115610b34577f4e487b7100000000000000000000000000000000000000000000000000000000600052602160045260246000fd5b815260200190815260200160002054815260200160036000858152602001908152602001600020600060016002811115610b97577f4e487b7100000000000000000000000000000000000000000000000000000000600052602160045260246000fd5b8152602001908152602001600020548152602001600360008581526020019081526020016000206000600280811115610bf9577f4e487b7100000000000000000000000000000000000000000000000000000000600052602160045260246000fd5b8152602001908152602001600020548152509050919050565b600781565b6004602052816000526040600020602052806000526040600020600091509150505481565b600381565b6000600160008473ffffffffffffffffffffffffffffffffffffffff1673ffffffffffffffffffffffffffffffffffffffff16815260200190815260200160002060008373ffffffffffffffffffffffffffffffffffffffff1673ffffffffffffffffffffffffffffffffffffffff16815260200190815260200160002060009054906101000a900460ff16905092915050565b60007fd0ca18092a86c00a4cef53e183e80daee7b403b352f89c089767165224fbe6b1858585604051610d0a93929190612f4b565b60405180910390a1610d7583600460008873ffffffffffffffffffffffffffffffffffffffff1673ffffffffffffffffffffffffffffffffffffffff168152602001908152602001600020600087815260200190815260200160002054611c7e90919063ffffffff16565b600460008773ffffffffffffffffffffffffffffffffffffffff1673ffffffffffffffffffffffffffffffffffffffff1681526020019081526020016000206000868152602001908152602001600020819055507ff23a6e612e1ff4830e658fe43f4e3cb4a5f8170bd5d9e69fb5d7a7fa9e4fdf97905095945050505050565b82826000610e0283610ad3565b90506000600460003373ffffffffffffffffffffffffffffffffffffffff1673ffffffffffffffffffffffffffffffffffffffff1681526020019081526020016000206000806002811115610e80577f4e487b7100000000000000000000000000000000000000000000000000000000600052602160045260246000fd5b81526020019081526020016000205490506000600460003373ffffffffffffffffffffffffffffffffffffffff1673ffffffffffffffffffffffffffffffffffffffff168152602001908152602001600020600060016002811115610f0e577f4e487b7100000000000000000000000000000000000000000000000000000000600052602160045260246000fd5b81526020019081526020016000205490506000600460003373ffffffffffffffffffffffffffffffffffffffff1673ffffffffffffffffffffffffffffffffffffffff1681526020019081526020016000206000600280811115610f9b577f4e487b7100000000000000000000000000000000000000000000000000000000600052602160045260246000fd5b8152602001908152602001600020549050611035858560006002811115610feb577f4e487b7100000000000000000000000000000000000000000000000000000000600052602160045260246000fd5b60038110611022577f4e487b7100000000000000000000000000000000000000000000000000000000600052603260045260246000fd5b6020020151611c9490919063ffffffff16565b831015611077576040517f08c379a000000000000000000000000000000000000000000000000000000000815260040161106e906130ce565b60405180910390fd5b6111008585600160028111156110b6577f4e487b7100000000000000000000000000000000000000000000000000000000600052602160045260246000fd5b600381106110ed577f4e487b7100000000000000000000000000000000000000000000000000000000600052603260045260246000fd5b6020020151611c9490919063ffffffff16565b821015611142576040517f08c379a00000000000000000000000000000000000000000000000000000000081526004016111399061314e565b60405180910390fd5b6111ca8585600280811115611180577f4e487b7100000000000000000000000000000000000000000000000000000000600052602160045260246000fd5b600381106111b7577f4e487b7100000000000000000000000000000000000000000000000000000000600052603260045260246000fd5b6020020151611c9490919063ffffffff16565b81101561120c576040517f08c379a00000000000000000000000000000000000000000000000000000000081526004016112039061316e565b60405180910390fd5b60006112178a610ad3565b905061132a8160006002811115611257577f4e487b7100000000000000000000000000000000000000000000000000000000600052602160045260246000fd5b6003811061128e577f4e487b7100000000000000000000000000000000000000000000000000000000600052603260045260246000fd5b6020020151600460003373ffffffffffffffffffffffffffffffffffffffff1673ffffffffffffffffffffffffffffffffffffffff168152602001908152602001600020600080600281111561130d577f4e487b7100000000000000000000000000000000000000000000000000000000600052602160045260246000fd5b815260200190815260200160002054611caa90919063ffffffff16565b600460003373ffffffffffffffffffffffffffffffffffffffff1673ffffffffffffffffffffffffffffffffffffffff16815260200190815260200160002060008060028111156113a4577f4e487b7100000000000000000000000000000000000000000000000000000000600052602160045260246000fd5b8152602001908152602001600020819055506114c881600160028111156113f4577f4e487b7100000000000000000000000000000000000000000000000000000000600052602160045260246000fd5b6003811061142b577f4e487b7100000000000000000000000000000000000000000000000000000000600052603260045260246000fd5b6020020151600460003373ffffffffffffffffffffffffffffffffffffffff1673ffffffffffffffffffffffffffffffffffffffff1681526020019081526020016000206000600160028111156114ab577f4e487b7100000000000000000000000000000000000000000000000000000000600052602160045260246000fd5b815260200190815260200160002054611caa90919063ffffffff16565b600460003373ffffffffffffffffffffffffffffffffffffffff1673ffffffffffffffffffffffffffffffffffffffff168152602001908152602001600020600060016002811115611543577f4e487b7100000000000000000000000000000000000000000000000000000000600052602160045260246000fd5b81526020019081526020016000208190555061166581600280811115611592577f4e487b7100000000000000000000000000000000000000000000000000000000600052602160045260246000fd5b600381106115c9577f4e487b7100000000000000000000000000000000000000000000000000000000600052603260045260246000fd5b6020020151600460003373ffffffffffffffffffffffffffffffffffffffff1673ffffffffffffffffffffffffffffffffffffffff1681526020019081526020016000206000600280811115611648577f4e487b7100000000000000000000000000000000000000000000000000000000600052602160045260246000fd5b815260200190815260200160002054611caa90919063ffffffff16565b600460003373ffffffffffffffffffffffffffffffffffffffff1673ffffffffffffffffffffffffffffffffffffffff16815260200190815260200160002060006002808111156116df577f4e487b7100000000000000000000000000000000000000000000000000000000600052602160045260246000fd5b8152602001908152602001600020819055506116fe8c8c8c8c8c611cc0565b505050505050505050505050565b6000808273ffffffffffffffffffffffffffffffffffffffff163b119050919050565b60007f4e2312e0000000000000000000000000000000000000000000000000000000007bffffffffffffffffffffffffffffffffffffffffffffffffffffffff1916827bffffffffffffffffffffffffffffffffffffffffffffffffffffffff191614806117a257506117a182611d61565b5b9050919050565b600033905090565b81518351146117f5576040517f08c379a00000000000000000000000000000000000000000000000000000000081526004016117ec906131ce565b60405180910390fd5b600073ffffffffffffffffffffffffffffffffffffffff168473ffffffffffffffffffffffffffffffffffffffff161415611865576040517f08c379a000000000000000000000000000000000000000000000000000000000815260040161185c906130ee565b60405180910390fd5b600061186f6117a9565b905061187f818787878787611e43565b60005b8451811015611a7c5760008582815181106118c6577f4e487b7100000000000000000000000000000000000000000000000000000000600052603260045260246000fd5b60200260200101519050600085838151811061190b577f4e487b7100000000000000000000000000000000000000000000000000000000600052603260045260246000fd5b60200260200101519050600080600084815260200190815260200160002060008b73ffffffffffffffffffffffffffffffffffffffff1673ffffffffffffffffffffffffffffffffffffffff168152602001908152602001600020549050818110156119ac576040517f08c379a00000000000000000000000000000000000000000000000000000000081526004016119a39061312e565b60405180910390fd5b81810360008085815260200190815260200160002060008c73ffffffffffffffffffffffffffffffffffffffff1673ffffffffffffffffffffffffffffffffffffffff168152602001908152602001600020819055508160008085815260200190815260200160002060008b73ffffffffffffffffffffffffffffffffffffffff1673ffffffffffffffffffffffffffffffffffffffff1681526020019081526020016000206000828254611a61919061337e565b9250508190555050505080611a759061357b565b9050611882565b508473ffffffffffffffffffffffffffffffffffffffff168673ffffffffffffffffffffffffffffffffffffffff168273ffffffffffffffffffffffffffffffffffffffff167f4a39dc06d4c0dbc64b70af90fd698a233a518aa5d07e595d983b8c0526c8f7fb8787604051611af3929190612fbf565b60405180910390a4611b09818787878787611e4b565b505050505050565b8173ffffffffffffffffffffffffffffffffffffffff168373ffffffffffffffffffffffffffffffffffffffff161415611b80576040517f08c379a0000000000000000000000000000000000000000000000000000000008152600401611b779061318e565b60405180910390fd5b80600160008573ffffffffffffffffffffffffffffffffffffffff1673ffffffffffffffffffffffffffffffffffffffff16815260200190815260200160002060008473ffffffffffffffffffffffffffffffffffffffff1673ffffffffffffffffffffffffffffffffffffffff16815260200190815260200160002060006101000a81548160ff0219169083151502179055508173ffffffffffffffffffffffffffffffffffffffff168373ffffffffffffffffffffffffffffffffffffffff167f17307eab39ab6107e8899845ad3d59bd9653f200f220920489ca2b5937696c3183604051611c719190612ff6565b60405180910390a3505050565b60008183611c8c919061337e565b905092915050565b60008183611ca291906133d4565b905092915050565b60008183611cb8919061342e565b905092915050565b611cc86117a9565b73ffffffffffffffffffffffffffffffffffffffff168573ffffffffffffffffffffffffffffffffffffffff161480611d0e5750611d0d85611d086117a9565b610c41565b5b611d4d576040517f08c379a0000000000000000000000000000000000000000000000000000000008152600401611d44906130ae565b60405180910390fd5b611d5a8585858585612032565b5050505050565b60007fd9b67a26000000000000000000000000000000000000000000000000000000007bffffffffffffffffffffffffffffffffffffffffffffffffffffffff1916827bffffffffffffffffffffffffffffffffffffffffffffffffffffffff19161480611e2c57507f0e89341c000000000000000000000000000000000000000000000000000000007bffffffffffffffffffffffffffffffffffffffffffffffffffffffff1916827bffffffffffffffffffffffffffffffffffffffffffffffffffffffff1916145b80611e3c5750611e3b826122b4565b5b9050919050565b505050505050565b611e6a8473ffffffffffffffffffffffffffffffffffffffff1661170c565b1561202a578373ffffffffffffffffffffffffffffffffffffffff1663bc197c8187878686866040518663ffffffff1660e01b8152600401611eb0959493929190612e89565b602060405180830381600087803b158015611eca57600080fd5b505af1925050508015611efb57506040513d601f19601f82011682018060405250810190611ef89190612aaa565b60015b611fa157611f07613651565b806308c379a01415611f645750611f1c613a22565b80611f275750611f66565b806040517f08c379a0000000000000000000000000000000000000000000000000000000008152600401611f5b919061302c565b60405180910390fd5b505b6040517f08c379a0000000000000000000000000000000000000000000000000000000008152600401611f989061304e565b60405180910390fd5b63bc197c8160e01b7bffffffffffffffffffffffffffffffffffffffffffffffffffffffff1916817bffffffffffffffffffffffffffffffffffffffffffffffffffffffff191614612028576040517f08c379a000000000000000000000000000000000000000000000000000000000815260040161201f9061306e565b60405180910390fd5b505b505050505050565b600073ffffffffffffffffffffffffffffffffffffffff168473ffffffffffffffffffffffffffffffffffffffff1614156120a2576040517f08c379a0000000000000000000000000000000000000000000000000000000008152600401612099906130ee565b60405180910390fd5b60006120ac6117a9565b90506120cc8187876120bd8861231e565b6120c68861231e565b87611e43565b600080600086815260200190815260200160002060008873ffffffffffffffffffffffffffffffffffffffff1673ffffffffffffffffffffffffffffffffffffffff16815260200190815260200160002054905083811015612163576040517f08c379a000000000000000000000000000000000000000000000000000000000815260040161215a9061312e565b60405180910390fd5b83810360008087815260200190815260200160002060008973ffffffffffffffffffffffffffffffffffffffff1673ffffffffffffffffffffffffffffffffffffffff168152602001908152602001600020819055508360008087815260200190815260200160002060008873ffffffffffffffffffffffffffffffffffffffff1673ffffffffffffffffffffffffffffffffffffffff1681526020019081526020016000206000828254612218919061337e565b925050819055508573ffffffffffffffffffffffffffffffffffffffff168773ffffffffffffffffffffffffffffffffffffffff168373ffffffffffffffffffffffffffffffffffffffff167fc3d58168c5ae7397731d063d5bbf3d657854427343f4c083240f7aacaa2d0f628888604051612295929190613209565b60405180910390a46122ab8288888888886123e4565b50505050505050565b60007f01ffc9a7000000000000000000000000000000000000000000000000000000007bffffffffffffffffffffffffffffffffffffffffffffffffffffffff1916827bffffffffffffffffffffffffffffffffffffffffffffffffffffffff1916149050919050565b60606000600167ffffffffffffffff811115612363577f4e487b7100000000000000000000000000000000000000000000000000000000600052604160045260246000fd5b6040519080825280602002602001820160405280156123915781602001602082028036833780820191505090505b50905082816000815181106123cf577f4e487b7100000000000000000000000000000000000000000000000000000000600052603260045260246000fd5b60200260200101818152505080915050919050565b6124038473ffffffffffffffffffffffffffffffffffffffff1661170c565b156125c3578373ffffffffffffffffffffffffffffffffffffffff1663f23a6e6187878686866040518663ffffffff1660e01b8152600401612449959493929190612ef1565b602060405180830381600087803b15801561246357600080fd5b505af192505050801561249457506040513d601f19601f820116820180604052508101906124919190612aaa565b60015b61253a576124a0613651565b806308c379a014156124fd57506124b5613a22565b806124c057506124ff565b806040517f08c379a00000000000000000000000000000000000000000000000000000000081526004016124f4919061302c565b60405180910390fd5b505b6040517f08c379a00000000000000000000000000000000000000000000000000000000081526004016125319061304e565b60405180910390fd5b63f23a6e6160e01b7bffffffffffffffffffffffffffffffffffffffffffffffffffffffff1916817bffffffffffffffffffffffffffffffffffffffffffffffffffffffff1916146125c1576040517f08c379a00000000000000000000000000000000000000000000000000000000081526004016125b89061306e565b60405180910390fd5b505b505050505050565b6040518060600160405280600390602082028036833780820191505090505090565b60006126006125fb84613257565b613232565b9050808382526020820190508285602086028201111561261f57600080fd5b60005b8581101561264f57816126358882612703565b845260208401935060208301925050600181019050612622565b5050509392505050565b600061266c61266784613283565b613232565b9050808382526020820190508285602086028201111561268b57600080fd5b60005b858110156126bb57816126a188826127d5565b84526020840193506020830192505060018101905061268e565b5050509392505050565b60006126d86126d3846132af565b613232565b9050828152602081018484840111156126f057600080fd5b6126fb8482856134d6565b509392505050565b60008135905061271281613ab8565b92915050565b600082601f83011261272957600080fd5b81356127398482602086016125ed565b91505092915050565b600082601f83011261275357600080fd5b8135612763848260208601612659565b91505092915050565b60008135905061277b81613acf565b92915050565b60008135905061279081613ae6565b92915050565b6000815190506127a581613ae6565b92915050565b600082601f8301126127bc57600080fd5b81356127cc8482602086016126c5565b91505092915050565b6000813590506127e481613afd565b92915050565b6000602082840312156127fc57600080fd5b600061280a84828501612703565b91505092915050565b6000806040838503121561282657600080fd5b600061283485828601612703565b925050602061284585828601612703565b9150509250929050565b600080600080600060a0868803121561286757600080fd5b600061287588828901612703565b955050602061288688828901612703565b945050604086013567ffffffffffffffff8111156128a357600080fd5b6128af88828901612742565b935050606086013567ffffffffffffffff8111156128cc57600080fd5b6128d888828901612742565b925050608086013567ffffffffffffffff8111156128f557600080fd5b612901888289016127ab565b9150509295509295909350565b600080600080600060a0868803121561292657600080fd5b600061293488828901612703565b955050602061294588828901612703565b9450506040612956888289016127d5565b9350506060612967888289016127d5565b925050608086013567ffffffffffffffff81111561298457600080fd5b612990888289016127ab565b9150509295509295909350565b600080604083850312156129b057600080fd5b60006129be85828601612703565b92505060206129cf8582860161276c565b9150509250929050565b600080604083850312156129ec57600080fd5b60006129fa85828601612703565b9250506020612a0b858286016127d5565b9150509250929050565b60008060408385031215612a2857600080fd5b600083013567ffffffffffffffff811115612a4257600080fd5b612a4e85828601612718565b925050602083013567ffffffffffffffff811115612a6b57600080fd5b612a7785828601612742565b9150509250929050565b600060208284031215612a9357600080fd5b6000612aa184828501612781565b91505092915050565b600060208284031215612abc57600080fd5b6000612aca84828501612796565b91505092915050565b600060208284031215612ae557600080fd5b6000612af3848285016127d5565b91505092915050565b60008060408385031215612b0f57600080fd5b6000612b1d858286016127d5565b9250506020612b2e858286016127d5565b9150509250929050565b6000612b448383612e6b565b60208301905092915050565b612b5981613462565b82525050565b612b68816132fa565b612b728184613340565b9250612b7d826132e0565b8060005b83811015612bae578151612b958782612b38565b9650612ba083613326565b925050600181019050612b81565b505050505050565b6000612bc182613305565b612bcb818561334b565b9350612bd6836132ea565b8060005b83811015612c07578151612bee8882612b38565b9750612bf983613333565b925050600181019050612bda565b5085935050505092915050565b612c1d81613474565b82525050565b612c2c81613480565b82525050565b6000612c3d82613310565b612c47818561335c565b9350612c578185602086016134e5565b612c6081613673565b840191505092915050565b6000612c768261331b565b612c80818561336d565b9350612c908185602086016134e5565b612c9981613673565b840191505092915050565b6000612cb160348361336d565b9150612cbc82613691565b604082019050919050565b6000612cd460288361336d565b9150612cdf826136e0565b604082019050919050565b6000612cf7602b8361336d565b9150612d028261372f565b604082019050919050565b6000612d1a60298361336d565b9150612d258261377e565b604082019050919050565b6000612d3d60168361336d565b9150612d48826137cd565b602082019050919050565b6000612d6060258361336d565b9150612d6b826137f6565b604082019050919050565b6000612d8360328361336d565b9150612d8e82613845565b604082019050919050565b6000612da6602a8361336d565b9150612db182613894565b604082019050919050565b6000612dc960158361336d565b9150612dd4826138e3565b602082019050919050565b6000612dec60148361336d565b9150612df78261390c565b602082019050919050565b6000612e0f60298361336d565b9150612e1a82613935565b604082019050919050565b6000612e3260298361336d565b9150612e3d82613984565b604082019050919050565b6000612e5560288361336d565b9150612e60826139d3565b604082019050919050565b612e74816134cc565b82525050565b612e83816134cc565b82525050565b600060a082019050612e9e6000830188612b50565b612eab6020830187612b50565b8181036040830152612ebd8186612bb6565b90508181036060830152612ed18185612bb6565b90508181036080830152612ee58184612c32565b90509695505050505050565b600060a082019050612f066000830188612b50565b612f136020830187612b50565b612f206040830186612e7a565b612f2d6060830185612e7a565b8181036080830152612f3f8184612c32565b90509695505050505050565b6000606082019050612f606000830186612b50565b612f6d6020830185612e7a565b612f7a6040830184612e7a565b949350505050565b6000606082019050612f976000830184612b5f565b92915050565b60006020820190508181036000830152612fb78184612bb6565b905092915050565b60006040820190508181036000830152612fd98185612bb6565b90508181036020830152612fed8184612bb6565b90509392505050565b600060208201905061300b6000830184612c14565b92915050565b60006020820190506130266000830184612c23565b92915050565b600060208201905081810360008301526130468184612c6b565b905092915050565b6000602082019050818103600083015261306781612ca4565b9050919050565b6000602082019050818103600083015261308781612cc7565b9050919050565b600060208201905081810360008301526130a781612cea565b9050919050565b600060208201905081810360008301526130c781612d0d565b9050919050565b600060208201905081810360008301526130e781612d30565b9050919050565b6000602082019050818103600083015261310781612d53565b9050919050565b6000602082019050818103600083015261312781612d76565b9050919050565b6000602082019050818103600083015261314781612d99565b9050919050565b6000602082019050818103600083015261316781612dbc565b9050919050565b6000602082019050818103600083015261318781612ddf565b9050919050565b600060208201905081810360008301526131a781612e02565b9050919050565b600060208201905081810360008301526131c781612e25565b9050919050565b600060208201905081810360008301526131e781612e48565b9050919050565b60006020820190506132036000830184612e7a565b92915050565b600060408201905061321e6000830185612e7a565b61322b6020830184612e7a565b9392505050565b600061323c61324d565b9050613248828261354a565b919050565b6000604051905090565b600067ffffffffffffffff82111561327257613271613622565b5b602082029050602081019050919050565b600067ffffffffffffffff82111561329e5761329d613622565b5b602082029050602081019050919050565b600067ffffffffffffffff8211156132ca576132c9613622565b5b6132d382613673565b9050602081019050919050565b6000819050919050565b6000819050602082019050919050565b600060039050919050565b600081519050919050565b600081519050919050565b600081519050919050565b6000602082019050919050565b6000602082019050919050565b600081905092915050565b600082825260208201905092915050565b600082825260208201905092915050565b600082825260208201905092915050565b6000613389826134cc565b9150613394836134cc565b9250827fffffffffffffffffffffffffffffffffffffffffffffffffffffffffffffffff038211156133c9576133c86135c4565b5b828201905092915050565b60006133df826134cc565b91506133ea836134cc565b9250817fffffffffffffffffffffffffffffffffffffffffffffffffffffffffffffffff0483118215151615613423576134226135c4565b5b828202905092915050565b6000613439826134cc565b9150613444836134cc565b925082821015613457576134566135c4565b5b828203905092915050565b600061346d826134ac565b9050919050565b60008115159050919050565b60007fffffffff0000000000000000000000000000000000000000000000000000000082169050919050565b600073ffffffffffffffffffffffffffffffffffffffff82169050919050565b6000819050919050565b82818337600083830152505050565b60005b838110156135035780820151818401526020810190506134e8565b83811115613512576000848401525b50505050565b6000600282049050600182168061353057607f821691505b60208210811415613544576135436135f3565b5b50919050565b61355382613673565b810181811067ffffffffffffffff8211171561357257613571613622565b5b80604052505050565b6000613586826134cc565b91507fffffffffffffffffffffffffffffffffffffffffffffffffffffffffffffffff8214156135b9576135b86135c4565b5b600182019050919050565b7f4e487b7100000000000000000000000000000000000000000000000000000000600052601160045260246000fd5b7f4e487b7100000000000000000000000000000000000000000000000000000000600052602260045260246000fd5b7f4e487b7100000000000000000000000000000000000000000000000000000000600052604160045260246000fd5b600060033d11156136705760046000803e61366d600051613684565b90505b90565b6000601f19601f8301169050919050565b60008160e01c9050919050565b7f455243313135353a207472616e7366657220746f206e6f6e204552433131353560008201527f526563656976657220696d706c656d656e746572000000000000000000000000602082015250565b7f455243313135353a204552433131353552656365697665722072656a6563746560008201527f6420746f6b656e73000000000000000000000000000000000000000000000000602082015250565b7f455243313135353a2062616c616e636520717565727920666f7220746865207a60008201527f65726f2061646472657373000000000000000000000000000000000000000000602082015250565b7f455243313135353a2063616c6c6572206973206e6f74206f776e6572206e6f7260008201527f20617070726f7665640000000000000000000000000000000000000000000000602082015250565b7f4e6f7420656e6f7567687420656c656374726f6e732e00000000000000000000600082015250565b7f455243313135353a207472616e7366657220746f20746865207a65726f20616460008201527f6472657373000000000000000000000000000000000000000000000000000000602082015250565b7f455243313135353a207472616e736665722063616c6c6572206973206e6f742060008201527f6f776e6572206e6f7220617070726f7665640000000000000000000000000000602082015250565b7f455243313135353a20696e73756666696369656e742062616c616e636520666f60008201527f72207472616e7366657200000000000000000000000000000000000000000000602082015250565b7f4e6f7420656e6f75676874206e657574726f6e732e0000000000000000000000600082015250565b7f4e6f7420656e6f756768742070726f746f6e732e000000000000000000000000600082015250565b7f455243313135353a2073657474696e6720617070726f76616c2073746174757360008201527f20666f722073656c660000000000000000000000000000000000000000000000602082015250565b7f455243313135353a206163636f756e747320616e6420696473206c656e67746860008201527f206d69736d617463680000000000000000000000000000000000000000000000602082015250565b7f455243313135353a2069647320616e6420616d6f756e7473206c656e6774682060008201527f6d69736d61746368000000000000000000000000000000000000000000000000602082015250565b600060443d1015613a3257613ab5565b613a3a61324d565b60043d036004823e80513d602482011167ffffffffffffffff82111715613a62575050613ab5565b808201805167ffffffffffffffff811115613a805750505050613ab5565b80602083010160043d038501811115613a9d575050505050613ab5565b613aac8260200185018661354a565b82955050505050505b90565b613ac181613462565b8114613acc57600080fd5b50565b613ad881613474565b8114613ae357600080fd5b50565b613aef81613480565b8114613afa57600080fd5b50565b613b06816134cc565b8114613b1157600080fd5b5056fea2646970667358221220ad3f95fc28695aac73b520dc04b076f71ec48f386ef0df44d009b22dc3a5d40764736f6c6343000804003368747470733a2f2f73796e7468657369732e6578616d706c652f6170692f6974656d2f7b69647d2e6a736f6e",
  "linkReferences": {},
  "deployedLinkReferences": {}
}