{
  "_format": "hh-sol-artifact-1",
  "contractName": "Element",
  "sourceName": "contracts/Element.sol",
  "abi": [
    {
      "inputs": [],
      "stateMutability": "nonpayable",
      "type": "constructor"
    },
    {
      "anonymous": false,
      "inputs": [
        {
          "indexed": true,
          "internalType": "address",
          "name": "account",
          "type": "address"
        },
        {
          "indexed": true,
          "internalType": "address",
          "name": "operator",
          "type": "address"
        },
        {
          "indexed": false,
          "internalType": "bool",
          "name": "approved",
          "type": "bool"
        }
      ],
      "name": "ApprovalForAll",
      "type": "event"
    },
    {
      "anonymous": false,
      "inputs": [
        {
          "indexed": true,
          "internalType": "address",
          "name": "operator",
          "type": "address"
        },
        {
          "indexed": true,
          "internalType": "address",
          "name": "from",
          "type": "address"
        },
        {
          "indexed": true,
          "internalType": "address",
          "name": "to",
          "type": "address"
        },
        {
          "indexed": false,
          "internalType": "uint256[]",
          "name": "ids",
          "type": "uint256[]"
        },
        {
          "indexed": false,
          "internalType": "uint256[]",
          "name": "values",
          "type": "uint256[]"
        }
      ],
      "name": "TransferBatch",
      "type": "event"
    },
    {
      "anonymous": false,
      "inputs": [
        {
          "indexed": true,
          "internalType": "address",
          "name": "operator",
          "type": "address"
        },
        {
          "indexed": true,
          "internalType": "address",
          "name": "from",
          "type": "address"
        },
        {
          "indexed": true,
          "internalType": "address",
          "name": "to",
          "type": "address"
        },
        {
          "indexed": false,
          "internalType": "uint256",
          "name": "id",
          "type": "uint256"
        },
        {
          "indexed": false,
          "internalType": "uint256",
          "name": "value",
          "type": "uint256"
        }
      ],
      "name": "TransferSingle",
      "type": "event"
    },
    {
      "anonymous": false,
      "inputs": [
        {
          "indexed": false,
          "internalType": "string",
          "name": "value",
          "type": "string"
        },
        {
          "indexed": true,
          "internalType": "uint256",
          "name": "id",
          "type": "uint256"
        }
      ],
      "name": "URI",
      "type": "event"
    },
    {
      "inputs": [],
      "name": "C",
      "outputs": [
        {
          "internalType": "uint256",
          "name": "",
          "type": "uint256"
        }
      ],
      "stateMutability": "view",
      "type": "function"
    },
    {
      "inputs": [],
      "name": "Cl",
      "outputs": [
        {
          "internalType": "uint256",
          "name": "",
          "type": "uint256"
        }
      ],
      "stateMutability": "view",
      "type": "function"
    },
    {
      "inputs": [],
      "name": "H",
      "outputs": [
        {
          "internalType": "uint256",
          "name": "",
          "type": "uint256"
        }
      ],
      "stateMutability": "view",
      "type": "function"
    },
    {
      "inputs": [],
      "name": "Li",
      "outputs": [
        {
          "internalType": "uint256",
          "name": "",
          "type": "uint256"
        }
      ],
      "stateMutability": "view",
      "type": "function"
    },
    {
      "inputs": [],
      "name": "N",
      "outputs": [
        {
          "internalType": "uint256",
          "name": "",
          "type": "uint256"
        }
      ],
      "stateMutability": "view",
      "type": "function"
    },
    {
      "inputs": [],
      "name": "Na",
      "outputs": [
        {
          "internalType": "uint256",
          "name": "",
          "type": "uint256"
        }
      ],
      "stateMutability": "view",
      "type": "function"
    },
    {
      "inputs": [],
      "name": "O",
      "outputs": [
        {
          "internalType": "uint256",
          "name": "",
          "type": "uint256"
        }
      ],
      "stateMutability": "view",
      "type": "function"
    },
    {
      "inputs": [],
      "name": "P",
      "outputs": [
        {
          "internalType": "uint256",
          "name": "",
          "type": "uint256"
        }
      ],
      "stateMutability": "view",
      "type": "function"
    },
    {
      "inputs": [],
      "name": "S",
      "outputs": [
        {
          "internalType": "uint256",
          "name": "",
          "type": "uint256"
        }
      ],
      "stateMutability": "view",
      "type": "function"
    },
    {
      "inputs": [
        {
          "internalType": "address",
          "name": "account",
          "type": "address"
        },
        {
          "internalType": "uint256",
          "name": "id",
          "type": "uint256"
        }
      ],
      "name": "balanceOf",
      "outputs": [
        {
          "internalType": "uint256",
          "name": "",
          "type": "uint256"
        }
      ],
      "stateMutability": "view",
      "type": "function"
    },
    {
      "inputs": [
        {
          "internalType": "address[]",
          "name": "accounts",
          "type": "address[]"
        },
        {
          "internalType": "uint256[]",
          "name": "ids",
          "type": "uint256[]"
        }
      ],
      "name": "balanceOfBatch",
      "outputs": [
        {
          "internalType": "uint256[]",
          "name": "",
          "type": "uint256[]"
        }
      ],
      "stateMutability": "view",
      "type": "function"
    },
    {
      "inputs": [
        {
          "internalType": "uint256",
          "name": "",
          "type": "uint256"
        }
      ],
      "name": "elementsComposition",
      "outputs": [
        {
          "internalType": "uint256",
          "name": "e_count",
          "type": "uint256"
        },
        {
          "internalType": "uint256",
          "name": "p_count",
          "type": "uint256"
        },
        {
          "internalType": "uint256",
          "name": "n_count",
          "type": "uint256"
        }
      ],
      "stateMutability": "view",
      "type": "function"
    },
    {
      "inputs": [
        {
          "internalType": "uint256",
          "name": "token_id",
          "type": "uint256"
        }
      ],
      "name": "getElementCompound",
      "outputs": [
        {
          "components": [
            {
              "internalType": "uint256",
              "name": "e_count",
              "type": "uint256"
            },
            {
              "internalType": "uint256",
              "name": "p_count",
              "type": "uint256"
            },
            {
              "internalType": "uint256",
              "name": "n_count",
              "type": "uint256"
            }
          ],
          "internalType": "struct Element.ElementCompound",
          "name": "",
          "type": "tuple"
        }
      ],
      "stateMutability": "view",
      "type": "function"
    },
    {
      "inputs": [
        {
          "internalType": "address",
          "name": "account",
          "type": "address"
        },
        {
          "internalType": "address",
          "name": "operator",
          "type": "address"
        }
      ],
      "name": "isApprovedForAll",
      "outputs": [
        {
          "internalType": "bool",
          "name": "",
          "type": "bool"
        }
      ],
      "stateMutability": "view",
      "type": "function"
    },
    {
      "inputs": [
        {
          "internalType": "address",
          "name": "operator",
          "type": "address"
        },
        {
          "internalType": "address",
          "name": "from",
          "type": "address"
        },
        {
          "internalType": "uint256[]",
          "name": "ids",
          "type": "uint256[]"
        },
        {
          "internalType": "uint256[]",
          "name": "values",
          "type": "uint256[]"
        },
        {
          "internalType": "bytes",
          "name": "data",
          "type": "bytes"
        }
      ],
      "name": "onERC1155BatchReceived",
      "outputs": [
        {
          "internalType": "bytes4",
          "name": "",
          "type": "bytes4"
        }
      ],
      "stateMutability": "nonpayable",
      "type": "function"
    },
    {
      "inputs": [
        {
          "internalType": "address",
          "name": "operator",
          "type": "address"
        },
        {
          "internalType": "address",
          "name": "from",
          "type": "address"
        },
        {
          "internalType": "uint256",
          "name": "id",
          "type": "uint256"
        },
        {
          "internalType": "uint256",
          "name": "value",
          "type": "uint256"
        },
        {
          "internalType": "bytes",
          "name": "data",
          "type": "bytes"
        }
      ],
      "name": "onERC1155Received",
      "outputs": [
        {
          "internalType": "bytes4",
          "name": "",
          "type": "bytes4"
        }
      ],
      "stateMutability": "nonpayable",
      "type": "function"
    },
    {
      "inputs": [
        {
          "internalType": "address",
          "name": "",
          "type": "address"
        },
        {
          "internalType": "uint256",
          "name": "",
          "type": "uint256"
        }
      ],
      "name": "particleTransmitters",
      "outputs": [
        {
          "internalType": "uint256",
          "name": "",
          "type": "uint256"
        }
      ],
      "stateMutability": "view",
      "type": "function"
    },
    {
      "inputs": [
        {
          "internalType": "address",
          "name": "from",
          "type": "address"
        },
        {
          "internalType": "address",
          "name": "to",
          "type": "address"
        },
        {
          "internalType": "uint256[]",
          "name": "ids",
          "type": "uint256[]"
        },
        {
          "internalType": "uint256[]",
          "name": "amounts",
          "type": "uint256[]"
        },
        {
          "internalType": "bytes",
          "name": "data",
          "type": "bytes"
        }
      ],
      "name": "safeBatchTransferFrom",
      "outputs": [],
      "stateMutability": "nonpayable",
      "type": "function"
    },
    {
      "inputs": [
        {
          "internalType": "address",
          "name": "from",
          "type": "address"
        },
        {
          "internalType": "address",
          "name": "to",
          "type": "address"
        },
        {
          "internalType": "uint256",
          "name": "id",
          "type": "uint256"
        },
        {
          "internalType": "uint256",
          "name": "amount",
          "type": "uint256"
        },
        {
          "internalType": "bytes",
          "name": "data",
          "type": "bytes"
        }
      ],
      "name": "safeTransferFrom",
      "outputs": [],
      "stateMutability": "nonpayable",
      "type": "function"
    },
    {
      "inputs": [
        {
          "internalType": "address",
          "name": "operator",
          "type": "address"
        },
        {
          "internalType": "bool",
          "name": "approved",
          "type": "bool"
        }
      ],
      "name": "setApprovalForAll",
      "outputs": [],
      "stateMutability": "nonpayable",
      "type": "function"
    },
    {
      "inputs": [
        {
          "internalType": "bytes4",
          "name": "interfaceId",
          "type": "bytes4"
        }
      ],
      "name": "supportsInterface",
      "outputs": [
        {
          "internalType": "bool",
          "name": "",
          "type": "bool"
        }
      ],
      "stateMutability": "view",
      "type": "function"
    },
    {
      "inputs": [
        {
          "internalType": "uint256",
          "name": "",
          "type": "uint256"
        }
      ],
      "name": "uri",
      "outputs": [
        {
          "internalType": "string",
          "name": "",
          "type": "string"
        }
      ],
      "stateMutability": "view",
      "type": "function"
    }
  ],
  "bytecode": "0x60806040523480156200001157600080fd5b506040518060600160405280602c815260200162003d88602c91396200003d81620004df60201b60201c565b50604051806060016040528060018152602001600181526020016000815250600460006001815260200190815260200160002060008201518160000155602082015181600101556040820151816002015590505060405180606001604052806003815260200160038152602001600481525060046000600381526020019081526020016000206000820151816000015560208201518160010155604082015181600201559050506040518060600160405280600b8152602001600b8152602001600c81525060046000600b815260200190815260200160002060008201518160000155602082015181600101556040820151816002015590505060405180606001604052806008815260200160088152602001600881525060046000600881526020019081526020016000206000820151816000015560208201518160010155604082015181600201559050506040518060600160405280600681526020016006815260200160068152506004600060068152602001908152602001600020600082015181600001556020820151816001015560408201518160020155905050604051806060016040528060078152602001600781526020016007815250600460006007815260200190815260200160002060008201518160000155602082015181600101556040820151816002015590505060405180606001604052806011815260200160118152602001601181525060046000601181526020019081526020016000206000820151816000015560208201518160010155604082015181600201559050506040518060600160405280600f8152602001600f8152602001601081525060046000600f81526020019081526020016000206000820151816000015560208201518160010155604082015181600201559050506040518060600160405280601081526020016010815260200160108152506004600060108152602001908152602001600020600082015181600001556020820151816001015560408201518160020155905050620003593360016b033b2e3c9fd0803ce800000060405180602001604052806000815250620004fb60201b60201c565b620003893360036b033b2e3c9fd0803ce800000060405180602001604052806000815250620004fb60201b60201c565b620003b933600b6b033b2e3c9fd0803ce800000060405180602001604052806000815250620004fb60201b60201c565b620003e93360086b033b2e3c9fd0803ce800000060405180602001604052806000815250620004fb60201b60201c565b620004193360066b033b2e3c9fd0803ce800000060405180602001604052806000815250620004fb60201b60201c565b620004493360076b033b2e3c9fd0803ce800000060405180602001604052806000815250620004fb60201b60201c565b620004793360116b033b2e3c9fd0803ce800000060405180602001604052806000815250620004fb60201b60201c565b620004a933600f6b033b2e3c9fd0803ce800000060405180602001604052806000815250620004fb60201b60201c565b620004d93360106b033b2e3c9fd0803ce800000060405180602001604052806000815250620004fb60201b60201c565b62001111565b8060029080519060200190620004f7929190620009c6565b5050565b600073ffffffffffffffffffffffffffffffffffffffff168473ffffffffffffffffffffffffffffffffffffffff1614156200056e576040517f08c379a0000000000000000000000000000000000000000000000000000000008152600401620005659062000c9e565b60405180910390fd5b600062000580620006c060201b60201c565b9050620005b9816000876200059b88620006c860201b60201c565b620005ac88620006c860201b60201c565b876200079160201b60201c565b8260008086815260200190815260200160002060008773ffffffffffffffffffffffffffffffffffffffff1673ffffffffffffffffffffffffffffffffffffffff16815260200190815260200160002060008282546200061a919062000d2f565b925050819055508473ffffffffffffffffffffffffffffffffffffffff16600073ffffffffffffffffffffffffffffffffffffffff168273ffffffffffffffffffffffffffffffffffffffff167fc3d58168c5ae7397731d063d5bbf3d657854427343f4c083240f7aacaa2d0f6287876040516200069a92919062000cc0565b60405180910390a4620006b9816000878787876200079960201b60201c565b5050505050565b600033905090565b60606000600167ffffffffffffffff8111156200070e577f4e487b7100000000000000000000000000000000000000000000000000000000600052604160045260246000fd5b6040519080825280602002602001820160405280156200073d5781602001602082028036833780820191505090505b50905082816000815181106200077c577f4e487b7100000000000000000000000000000000000000000000000000000000600052603260045260246000fd5b60200260200101818152505080915050919050565b505050505050565b620007c58473ffffffffffffffffffffffffffffffffffffffff16620009a360201b62000b701760201c565b156200099b578373ffffffffffffffffffffffffffffffffffffffff1663f23a6e6187878686866040518663ffffffff1660e01b81526004016200080e95949392919062000bd2565b602060405180830381600087803b1580156200082957600080fd5b505af19250505080156200085d57506040513d601f19601f820116820180604052508101906200085a919062000a8d565b60015b6200090f576200086c62000f25565b806308c379a01415620008d057506200088462001055565b80620008915750620008d2565b806040517f08c379a0000000000000000000000000000000000000000000000000000000008152600401620008c7919062000c36565b60405180910390fd5b505b6040517f08c379a0000000000000000000000000000000000000000000000000000000008152600401620009069062000c5a565b60405180910390fd5b63f23a6e6160e01b7bffffffffffffffffffffffffffffffffffffffffffffffffffffffff1916817bffffffffffffffffffffffffffffffffffffffffffffffffffffffff19161462000999576040517f08c379a0000000000000000000000000000000000000000000000000000000008152600401620009909062000c7c565b60405180910390fd5b505b505050505050565b6000808273ffffffffffffffffffffffffffffffffffffffff163b119050919050565b828054620009d49062000e2c565b90600052602060002090601f016020900481019282620009f8576000855562000a44565b82601f1062000a1357805160ff191683800117855562000a44565b8280016001018555821562000a44579182015b8281111562000a4357825182559160200191906001019062000a26565b5b50905062000a53919062000a57565b5090565b5b8082111562000a7257600081600090555060010162000a58565b5090565b60008151905062000a8781620010f7565b92915050565b60006020828403121562000aa057600080fd5b600062000ab08482850162000a76565b91505092915050565b62000ac48162000d8c565b82525050565b600062000ad78262000cf7565b62000ae3818562000d0d565b935062000af581856020860162000df6565b62000b008162000f4a565b840191505092915050565b600062000b188262000d02565b62000b24818562000d1e565b935062000b3681856020860162000df6565b62000b418162000f4a565b840191505092915050565b600062000b5b60348362000d1e565b915062000b688262000f68565b604082019050919050565b600062000b8260288362000d1e565b915062000b8f8262000fb7565b604082019050919050565b600062000ba960218362000d1e565b915062000bb68262001006565b604082019050919050565b62000bcc8162000dec565b82525050565b600060a08201905062000be9600083018862000ab9565b62000bf8602083018762000ab9565b62000c07604083018662000bc1565b62000c16606083018562000bc1565b818103608083015262000c2a818462000aca565b90509695505050505050565b6000602082019050818103600083015262000c52818462000b0b565b905092915050565b6000602082019050818103600083015262000c758162000b4c565b9050919050565b6000602082019050818103600083015262000c978162000b73565b9050919050565b6000602082019050818103600083015262000cb98162000b9a565b9050919050565b600060408201905062000cd7600083018562000bc1565b62000ce6602083018462000bc1565b9392505050565b6000604051905090565b600081519050919050565b600081519050919050565b600082825260208201905092915050565b600082825260208201905092915050565b600062000d3c8262000dec565b915062000d498362000dec565b9250827fffffffffffffffffffffffffffffffffffffffffffffffffffffffffffffffff0382111562000d815762000d8062000e98565b5b828201905092915050565b600062000d998262000dcc565b9050919050565b60007fffffffff0000000000000000000000000000000000000000000000000000000082169050919050565b600073ffffffffffffffffffffffffffffffffffffffff82169050919050565b6000819050919050565b60005b8381101562000e1657808201518184015260208101905062000df9565b8381111562000e26576000848401525b50505050565b6000600282049050600182168062000e4557607f821691505b6020821081141562000e5c5762000e5b62000ec7565b5b50919050565b62000e6d8262000f4a565b810181811067ffffffffffffffff8211171562000e8f5762000e8e62000ef6565b5b80604052505050565b7f4e487b7100000000000000000000000000000000000000000000000000000000600052601160045260246000fd5b7f4e487b7100000000000000000000000000000000000000000000000000000000600052602260045260246000fd5b7f4e487b7100000000000000000000000000000000000000000000000000000000600052604160045260246000fd5b600060033d111562000f475760046000803e62000f4460005162000f5b565b90505b90565b6000601f19601f8301169050919050565b60008160e01c9050919050565b7f455243313135353a207472616e7366657220746f206e6f6e204552433131353560008201527f526563656976657220696d706c656d656e746572000000000000000000000000602082015250565b7f455243313135353a204552433131353552656365697665722072656a6563746560008201527f6420746f6b656e73000000000000000000000000000000000000000000000000602082015250565b7f455243313135353a206d696e7420746f20746865207a65726f2061646472657360008201527f7300000000000000000000000000000000000000000000000000000000000000602082015250565b600060443d10156200106757620010f4565b6200107162000ced565b60043d036004823e80513d602482011167ffffffffffffffff821117156200109b575050620010f4565b808201805167ffffffffffffffff811115620010bb5750505050620010f4565b80602083010160043d038501811115620010da575050505050620010f4565b620010eb8260200185018662000e62565b82955050505050505b90565b620011028162000da0565b81146200110e57600080fd5b50565b612c6780620011216000396000f3fe608060405234801561001057600080fd5b50600436106101415760003560e01c8063a0ea32de116100b8578063c9e525df1161007c578063c9e525df146103a2578063e1954f12146103c0578063e264471e146103f0578063e985e9c51461040e578063f23a6e611461043e578063f242432a1461046e57610141565b8063a0ea32de146102d6578063a22cb465146102f4578063b470208f14610310578063bc197c8114610342578063c42f83b31461037257610141565b80634be1c7961161010a5780634be1c796146102105780634e1273f41461022e57806370a5d8611461025e5780637fc12af21461027c57806383dfe5fd1461029a5780638b8fbd92146102b857610141565b8062fdd58e1461014657806301ffc9a7146101765780630e89341c146101a65780632eb2c2d6146101d65780633ec252f6146101f2575b600080fd5b610160600480360381019061015b9190611d46565b61048a565b60405161016d919061240a565b60405180910390f35b610190600480360381019061018b9190611dee565b610553565b60405161019d9190612257565b60405180910390f35b6101c060048036038101906101bb9190611e40565b610565565b6040516101cd919061228d565b60405180910390f35b6101f060048036038101906101eb9190611bbc565b6105f9565b005b6101fa61069a565b604051610207919061240a565b60405180910390f35b61021861069f565b604051610225919061240a565b60405180910390f35b61024860048036038101906102439190611d82565b6106a4565b60405161025591906121fe565b60405180910390f35b610266610855565b604051610273919061240a565b60405180910390f35b61028461085a565b604051610291919061240a565b60405180910390f35b6102a261085f565b6040516102af919061240a565b60405180910390f35b6102c0610864565b6040516102cd919061240a565b60405180910390f35b6102de610869565b6040516102eb919061240a565b60405180910390f35b61030e60048036038101906103099190611d0a565b61086e565b005b61032a60048036038101906103259190611e40565b610884565b6040516103399392919061244e565b60405180910390f35b61035c60048036038101906103579190611bbc565b6108ae565b6040516103699190612272565b60405180910390f35b61038c60048036038101906103879190611e40565b6108dc565b60405161039991906123ef565b60405180910390f35b6103aa610927565b6040516103b7919061240a565b60405180910390f35b6103da60048036038101906103d59190611d46565b61092c565b6040516103e7919061240a565b60405180910390f35b6103f8610951565b604051610405919061240a565b60405180910390f35b61042860048036038101906104239190611b80565b610956565b6040516104359190612257565b60405180910390f35b61045860048036038101906104539190611c7b565b6109ea565b6040516104659190612272565b60405180910390f35b61048860048036038101906104839190611c7b565b610acf565b005b60008073ffffffffffffffffffffffffffffffffffffffff168373ffffffffffffffffffffffffffffffffffffffff1614156104fb576040517f08c379a00000000000000000000000000000000000000000000000000000000081526004016104f2906122ef565b60405180910390fd5b60008083815260200190815260200160002060008473ffffffffffffffffffffffffffffffffffffffff1673ffffffffffffffffffffffffffffffffffffffff16815260200190815260200160002054905092915050565b600061055e82610b93565b9050919050565b606060028054610574906126b0565b80601f01602080910402602001604051908101604052809291908181526020018280546105a0906126b0565b80156105ed5780601f106105c2576101008083540402835291602001916105ed565b820191906000526020600020905b8154815290600101906020018083116105d057829003601f168201915b50505050509050919050565b610601610c0d565b73ffffffffffffffffffffffffffffffffffffffff168573ffffffffffffffffffffffffffffffffffffffff161480610647575061064685610641610c0d565b610956565b5b610686576040517f08c379a000000000000000000000000000000000000000000000000000000000815260040161067d9061234f565b60405180910390fd5b6106938585858585610c15565b5050505050565b601181565b601081565b606081518351146106ea576040517f08c379a00000000000000000000000000000000000000000000000000000000081526004016106e1906123af565b60405180910390fd5b6000835167ffffffffffffffff81111561072d577f4e487b7100000000000000000000000000000000000000000000000000000000600052604160045260246000fd5b60405190808252806020026020018201604052801561075b5781602001602082028036833780820191505090505b50905060005b845181101561084a576107f48582815181106107a6577f4e487b7100000000000000000000000000000000000000000000000000000000600052603260045260246000fd5b60200260200101518583815181106107e7577f4e487b7100000000000000000000000000000000000000000000000000000000600052603260045260246000fd5b602002602001015161048a565b82828151811061082d577f4e487b7100000000000000000000000000000000000000000000000000000000600052603260045260246000fd5b6020026020010181815250508061084390612713565b9050610761565b508091505092915050565b600181565b600b81565b600681565b600f81565b600881565b610880610879610c0d565b8383610f75565b5050565b60046020528060005260406000206000915090508060000154908060010154908060020154905083565b60007ff23a6e612e1ff4830e658fe43f4e3cb4a5f8170bd5d9e69fb5d7a7fa9e4fdf97905095945050505050565b6108e4611962565b6004600083815260200190815260200160002060405180606001604052908160008201548152602001600182015481526020016002820154815250509050919050565b600781565b6003602052816000526040600020602052806000526040600020600091509150505481565b600381565b6000600160008473ffffffffffffffffffffffffffffffffffffffff1673ffffffffffffffffffffffffffffffffffffffff16815260200190815260200160002060008373ffffffffffffffffffffffffffffffffffffffff1673ffffffffffffffffffffffffffffffffffffffff16815260200190815260200160002060009054906101000a900460ff16905092915050565b6000610a4f83600360008873ffffffffffffffffffffffffffffffffffffffff1673ffffffffffffffffffffffffffffffffffffffff1681526020019081526020016000206000878152602001908152602001600020546110e290919063ffffffff16565b600360008773ffffffffffffffffffffffffffffffffffffffff1673ffffffffffffffffffffffffffffffffffffffff1681526020019081526020016000206000868152602001908152602001600020819055507ff23a6e612e1ff4830e658fe43f4e3cb4a5f8170bd5d9e69fb5d7a7fa9e4fdf97905095945050505050565b610ad7610c0d565b73ffffffffffffffffffffffffffffffffffffffff168573ffffffffffffffffffffffffffffffffffffffff161480610b1d5750610b1c85610b17610c0d565b610956565b5b610b5c576040517f08c379a0000000000000000000000000000000000000000000000000000000008152600401610b539061230f565b60405180910390fd5b610b6985858585856110f8565b5050505050565b6000808273ffffffffffffffffffffffffffffffffffffffff163b119050919050565b60007f4e2312e0000000000000000000000000000000000000000000000000000000007bffffffffffffffffffffffffffffffffffffffffffffffffffffffff1916827bffffffffffffffffffffffffffffffffffffffffffffffffffffffff19161480610c065750610c058261137a565b5b9050919050565b600033905090565b8151835114610c59576040517f08c379a0000000000000000000000000000000000000000000000000000000008152600401610c50906123cf565b60405180910390fd5b600073ffffffffffffffffffffffffffffffffffffffff168473ffffffffffffffffffffffffffffffffffffffff161415610cc9576040517f08c379a0000000000000000000000000000000000000000000000000000000008152600401610cc09061232f565b60405180910390fd5b6000610cd3610c0d565b9050610ce381878787878761145c565b60005b8451811015610ee0576000858281518110610d2a577f4e487b7100000000000000000000000000000000000000000000000000000000600052603260045260246000fd5b602002602001015190506000858381518110610d6f577f4e487b7100000000000000000000000000000000000000000000000000000000600052603260045260246000fd5b60200260200101519050600080600084815260200190815260200160002060008b73ffffffffffffffffffffffffffffffffffffffff1673ffffffffffffffffffffffffffffffffffffffff16815260200190815260200160002054905081811015610e10576040517f08c379a0000000000000000000000000000000000000000000000000000000008152600401610e079061236f565b60405180910390fd5b81810360008085815260200190815260200160002060008c73ffffffffffffffffffffffffffffffffffffffff1673ffffffffffffffffffffffffffffffffffffffff168152602001908152602001600020819055508160008085815260200190815260200160002060008b73ffffffffffffffffffffffffffffffffffffffff1673ffffffffffffffffffffffffffffffffffffffff1681526020019081526020016000206000828254610ec591906125a4565b9250508190555050505080610ed990612713565b9050610ce6565b508473ffffffffffffffffffffffffffffffffffffffff168673ffffffffffffffffffffffffffffffffffffffff168273ffffffffffffffffffffffffffffffffffffffff167f4a39dc06d4c0dbc64b70af90fd698a233a518aa5d07e595d983b8c0526c8f7fb8787604051610f57929190612220565b60405180910390a4610f6d818787878787611464565b505050505050565b8173ffffffffffffffffffffffffffffffffffffffff168373ffffffffffffffffffffffffffffffffffffffff161415610fe4576040517f08c379a0000000000000000000000000000000000000000000000000000000008152600401610fdb9061238f565b60405180910390fd5b80600160008573ffffffffffffffffffffffffffffffffffffffff1673ffffffffffffffffffffffffffffffffffffffff16815260200190815260200160002060008473ffffffffffffffffffffffffffffffffffffffff1673ffffffffffffffffffffffffffffffffffffffff16815260200190815260200160002060006101000a81548160ff0219169083151502179055508173ffffffffffffffffffffffffffffffffffffffff168373ffffffffffffffffffffffffffffffffffffffff167f17307eab39ab6107e8899845ad3d59bd9653f200f220920489ca2b5937696c31836040516110d59190612257565b60405180910390a3505050565b600081836110f091906125a4565b905092915050565b600073ffffffffffffffffffffffffffffffffffffffff168473ffffffffffffffffffffffffffffffffffffffff161415611168576040517f08c379a000000000000000000000000000000000000000000000000000000000815260040161115f9061232f565b60405180910390fd5b6000611172610c0d565b90506111928187876111838861164b565b61118c8861164b565b8761145c565b600080600086815260200190815260200160002060008873ffffffffffffffffffffffffffffffffffffffff1673ffffffffffffffffffffffffffffffffffffffff16815260200190815260200160002054905083811015611229576040517f08c379a00000000000000000000000000000000000000000000000000000000081526004016112209061236f565b60405180910390fd5b83810360008087815260200190815260200160002060008973ffffffffffffffffffffffffffffffffffffffff1673ffffffffffffffffffffffffffffffffffffffff168152602001908152602001600020819055508360008087815260200190815260200160002060008873ffffffffffffffffffffffffffffffffffffffff1673ffffffffffffffffffffffffffffffffffffffff16815260200190815260200160002060008282546112de91906125a4565b925050819055508573ffffffffffffffffffffffffffffffffffffffff168773ffffffffffffffffffffffffffffffffffffffff168373ffffffffffffffffffffffffffffffffffffffff167fc3d58168c5ae7397731d063d5bbf3d657854427343f4c083240f7aacaa2d0f62888860405161135b929190612425565b60405180910390a4611371828888888888611711565b50505050505050565b60007fd9b67a26000000000000000000000000000000000000000000000000000000007bffffffffffffffffffffffffffffffffffffffffffffffffffffffff1916827bffffffffffffffffffffffffffffffffffffffffffffffffffffffff1916148061144557507f0e89341c000000000000000000000000000000000000000000000000000000007bffffffffffffffffffffffffffffffffffffffffffffffffffffffff1916827bffffffffffffffffffffffffffffffffffffffffffffffffffffffff1916145b806114555750611454826118f8565b5b9050919050565b505050505050565b6114838473ffffffffffffffffffffffffffffffffffffffff16610b70565b15611643578373ffffffffffffffffffffffffffffffffffffffff1663bc197c8187878686866040518663ffffffff1660e01b81526004016114c995949392919061213c565b602060405180830381600087803b1580156114e357600080fd5b505af192505050801561151457506040513d601f19601f820116820180604052508101906115119190611e17565b60015b6115ba576115206127e9565b806308c379a0141561157d5750611535612b3f565b80611540575061157f565b806040517f08c379a0000000000000000000000000000000000000000000000000000000008152600401611574919061228d565b60405180910390fd5b505b6040517f08c379a00000000000000000000000000000000000000000000000000000000081526004016115b1906122af565b60405180910390fd5b63bc197c8160e01b7bffffffffffffffffffffffffffffffffffffffffffffffffffffffff1916817bffffffffffffffffffffffffffffffffffffffffffffffffffffffff191614611641576040517f08c379a0000000000000000000000000000000000000000000000000000000008152600401611638906122cf565b60405180910390fd5b505b505050505050565b60606000600167ffffffffffffffff811115611690577f4e487b7100000000000000000000000000000000000000000000000000000000600052604160045260246000fd5b6040519080825280602002602001820160405280156116be5781602001602082028036833780820191505090505b50905082816000815181106116fc577f4e487b7100000000000000000000000000000000000000000000000000000000600052603260045260246000fd5b60200260200101818152505080915050919050565b6117308473ffffffffffffffffffffffffffffffffffffffff16610b70565b156118f0578373ffffffffffffffffffffffffffffffffffffffff1663f23a6e6187878686866040518663ffffffff1660e01b81526004016117769594939291906121a4565b602060405180830381600087803b15801561179057600080fd5b505af19250505080156117c157506040513d601f19601f820116820180604052508101906117be9190611e17565b60015b611867576117cd6127e9565b806308c379a0141561182a57506117e2612b3f565b806117ed575061182c565b806040517f08c379a0000000000000000000000000000000000000000000000000000000008152600401611821919061228d565b60405180910390fd5b505b6040517f08c379a000000000000000000000000000000000000000000000000000000000815260040161185e906122af565b60405180910390fd5b63f23a6e6160e01b7bffffffffffffffffffffffffffffffffffffffffffffffffffffffff1916817bffffffffffffffffffffffffffffffffffffffffffffffffffffffff1916146118ee576040517f08c379a00000000000000000000000000000000000000000000000000000000081526004016118e5906122cf565b60405180910390fd5b505b505050505050565b60007f01ffc9a7000000000000000000000000000000000000000000000000000000007bffffffffffffffffffffffffffffffffffffffffffffffffffffffff1916827bffffffffffffffffffffffffffffffffffffffffffffffffffffffff1916149050919050565b60405180606001604052806000815260200160008152602001600081525090565b6000611996611991846124aa565b612485565b905080838252602082019050828560208602820111156119b557600080fd5b60005b858110156119e557816119cb8882611a99565b8452602084019350602083019250506001810190506119b8565b5050509392505050565b6000611a026119fd846124d6565b612485565b90508083825260208201905082856020860282011115611a2157600080fd5b60005b85811015611a515781611a378882611b6b565b845260208401935060208301925050600181019050611a24565b5050509392505050565b6000611a6e611a6984612502565b612485565b905082815260208101848484011115611a8657600080fd5b611a9184828561266e565b509392505050565b600081359050611aa881612bd5565b92915050565b600082601f830112611abf57600080fd5b8135611acf848260208601611983565b91505092915050565b600082601f830112611ae957600080fd5b8135611af98482602086016119ef565b91505092915050565b600081359050611b1181612bec565b92915050565b600081359050611b2681612c03565b92915050565b600081519050611b3b81612c03565b92915050565b600082601f830112611b5257600080fd5b8135611b62848260208601611a5b565b91505092915050565b600081359050611b7a81612c1a565b92915050565b60008060408385031215611b9357600080fd5b6000611ba185828601611a99565b9250506020611bb285828601611a99565b9150509250929050565b600080600080600060a08688031215611bd457600080fd5b6000611be288828901611a99565b9550506020611bf388828901611a99565b945050604086013567ffffffffffffffff811115611c1057600080fd5b611c1c88828901611ad8565b935050606086013567ffffffffffffffff811115611c3957600080fd5b611c4588828901611ad8565b925050608086013567ffffffffffffffff811115611c6257600080fd5b611c6e88828901611b41565b9150509295509295909350565b600080600080600060a08688031215611c9357600080fd5b6000611ca188828901611a99565b9550506020611cb288828901611a99565b9450506040611cc388828901611b6b565b9350506060611cd488828901611b6b565b925050608086013567ffffffffffffffff811115611cf157600080fd5b611cfd88828901611b41565b9150509295509295909350565b60008060408385031215611d1d57600080fd5b6000611d2b85828601611a99565b9250506020611d3c85828601611b02565b9150509250929050565b60008060408385031215611d5957600080fd5b6000611d6785828601611a99565b9250506020611d7885828601611b6b565b9150509250929050565b60008060408385031215611d9557600080fd5b600083013567ffffffffffffffff811115611daf57600080fd5b611dbb85828601611aae565b925050602083013567ffffffffffffffff811115611dd857600080fd5b611de485828601611ad8565b9150509250929050565b600060208284031215611e0057600080fd5b6000611e0e84828501611b17565b91505092915050565b600060208284031215611e2957600080fd5b6000611e3784828501611b2c565b91505092915050565b600060208284031215611e5257600080fd5b6000611e6084828501611b6b565b91505092915050565b6000611e75838361211e565b60208301905092915050565b611e8a816125fa565b82525050565b6000611e9b82612543565b611ea58185612571565b9350611eb083612533565b8060005b83811015611ee1578151611ec88882611e69565b9750611ed383612564565b925050600181019050611eb4565b5085935050505092915050565b611ef78161260c565b82525050565b611f0681612618565b82525050565b6000611f178261254e565b611f218185612582565b9350611f3181856020860161267d565b611f3a8161280b565b840191505092915050565b6000611f5082612559565b611f5a8185612593565b9350611f6a81856020860161267d565b611f738161280b565b840191505092915050565b6000611f8b603483612593565b9150611f9682612829565b604082019050919050565b6000611fae602883612593565b9150611fb982612878565b604082019050919050565b6000611fd1602b83612593565b9150611fdc826128c7565b604082019050919050565b6000611ff4602983612593565b9150611fff82612916565b604082019050919050565b6000612017602583612593565b915061202282612965565b604082019050919050565b600061203a603283612593565b9150612045826129b4565b604082019050919050565b600061205d602a83612593565b915061206882612a03565b604082019050919050565b6000612080602983612593565b915061208b82612a52565b604082019050919050565b60006120a3602983612593565b91506120ae82612aa1565b604082019050919050565b60006120c6602883612593565b91506120d182612af0565b604082019050919050565b6060820160008201516120f2600085018261211e565b506020820151612105602085018261211e565b506040820151612118604085018261211e565b50505050565b61212781612664565b82525050565b61213681612664565b82525050565b600060a0820190506121516000830188611e81565b61215e6020830187611e81565b81810360408301526121708186611e90565b905081810360608301526121848185611e90565b905081810360808301526121988184611f0c565b90509695505050505050565b600060a0820190506121b96000830188611e81565b6121c66020830187611e81565b6121d3604083018661212d565b6121e0606083018561212d565b81810360808301526121f28184611f0c565b90509695505050505050565b600060208201905081810360008301526122188184611e90565b905092915050565b6000604082019050818103600083015261223a8185611e90565b9050818103602083015261224e8184611e90565b90509392505050565b600060208201905061226c6000830184611eee565b92915050565b60006020820190506122876000830184611efd565b92915050565b600060208201905081810360008301526122a78184611f45565b905092915050565b600060208201905081810360008301526122c881611f7e565b9050919050565b600060208201905081810360008301526122e881611fa1565b9050919050565b6000602082019050818103600083015261230881611fc4565b9050919050565b6000602082019050818103600083015261232881611fe7565b9050919050565b600060208201905081810360008301526123488161200a565b9050919050565b600060208201905081810360008301526123688161202d565b9050919050565b6000602082019050818103600083015261238881612050565b9050919050565b600060208201905081810360008301526123a881612073565b9050919050565b600060208201905081810360008301526123c881612096565b9050919050565b600060208201905081810360008301526123e8816120b9565b9050919050565b600060608201905061240460008301846120dc565b92915050565b600060208201905061241f600083018461212d565b92915050565b600060408201905061243a600083018561212d565b612447602083018461212d565b9392505050565b6000606082019050612463600083018661212d565b612470602083018561212d565b61247d604083018461212d565b949350505050565b600061248f6124a0565b905061249b82826126e2565b919050565b6000604051905090565b600067ffffffffffffffff8211156124c5576124c46127ba565b5b602082029050602081019050919050565b600067ffffffffffffffff8211156124f1576124f06127ba565b5b602082029050602081019050919050565b600067ffffffffffffffff82111561251d5761251c6127ba565b5b6125268261280b565b9050602081019050919050565b6000819050602082019050919050565b600081519050919050565b600081519050919050565b600081519050919050565b6000602082019050919050565b600082825260208201905092915050565b600082825260208201905092915050565b600082825260208201905092915050565b60006125af82612664565b91506125ba83612664565b9250827fffffffffffffffffffffffffffffffffffffffffffffffffffffffffffffffff038211156125ef576125ee61275c565b5b828201905092915050565b600061260582612644565b9050919050565b60008115159050919050565b60007fffffffff0000000000000000000000000000000000000000000000000000000082169050919050565b600073ffffffffffffffffffffffffffffffffffffffff82169050919050565b6000819050919050565b82818337600083830152505050565b60005b8381101561269b578082015181840152602081019050612680565b838111156126aa576000848401525b50505050565b600060028204905060018216806126c857607f821691505b602082108114156126dc576126db61278b565b5b50919050565b6126eb8261280b565b810181811067ffffffffffffffff8211171561270a576127096127ba565b5b80604052505050565b600061271e82612664565b91507fffffffffffffffffffffffffffffffffffffffffffffffffffffffffffffffff8214156127515761275061275c565b5b600182019050919050565b7f4e487b7100000000000000000000000000000000000000000000000000000000600052601160045260246000fd5b7f4e487b7100000000000000000000000000000000000000000000000000000000600052602260045260246000fd5b7f4e487b7100000000000000000000000000000000000000000000000000000000600052604160045260246000fd5b600060033d11156128085760046000803e61280560005161281c565b90505b90565b6000601f19601f8301169050919050565b60008160e01c9050919050565b7f455243313135353a207472616e7366657220746f206e6f6e204552433131353560008201527f526563656976657220696d706c656d656e746572000000000000000000000000602082015250565b7f455243313135353a204552433131353552656365697665722072656a6563746560008201527f6420746f6b656e73000000000000000000000000000000000000000000000000602082015250565b7f455243313135353a2062616c616e636520717565727920666f7220746865207a60008201527f65726f2061646472657373000000000000000000000000000000000000000000602082015250565b7f455243313135353a2063616c6c6572206973206e6f74206f776e6572206e6f7260008201527f20617070726f7665640000000000000000000000000000000000000000000000602082015250565b7f455243313135353a207472616e7366657220746f20746865207a65726f20616460008201527f6472657373000000000000000000000000000000000000000000000000000000602082015250565b7f455243313135353a207472616e736665722063616c6c6572206973206e6f742060008201527f6f776e6572206e6f7220617070726f7665640000000000000000000000000000602082015250565b7f455243313135353a20696e73756666696369656e742062616c616e636520666f60008201527f72207472616e7366657200000000000000000000000000000000000000000000602082015250565b7f455243313135353a2073657474696e6720617070726f76616c2073746174757360008201527f20666f722073656c660000000000000000000000000000000000000000000000602082015250565b7f455243313135353a206163636f756e747320616e6420696473206c656e67746860008201527f206d69736d617463680000000000000000000000000000000000000000000000602082015250565b7f455243313135353a2069647320616e6420616d6f756e7473206c656e6774682060008201527f6d69736d61746368000000000000000000000000000000000000000000000000602082015250565b600060443d1015612b4f57612bd2565b612b576124a0565b60043d036004823e80513d602482011167ffffffffffffffff82111715612b7f575050612bd2565b808201805167ffffffffffffffff811115612b9d5750505050612bd2565b80602083010160043d038501811115612bba575050505050612bd2565b612bc9826020018501866126e2565b82955050505050505b90565b612bde816125fa565b8114612be957600080fd5b50565b612bf58161260c565b8114612c0057600080fd5b50565b612c0c81612618565b8114612c1757600080fd5b50565b612c2381612664565b8114612c2e57600080fd5b5056fea2646970667358221220f61a0989936cb760c9aa199d78df3ad47a1a2cdddaa9773d752c8e1bfb6c88f564736f6c6343000804003368747470733a2f2f73796e7468657369732e6578616d706c652f6170692f6974656d2f7b69647d2e6a736f6e",
  "linkReferences": {},
  "deployedLinkReferences": {}
}