{
  "_format": "hh-sol-artifact-1",
  "contractName": "Element",
  "sourceName": "contracts/Element.sol",
  "abi": [
    {
      "inputs": [],
      "stateMutability": "nonpayable",
      "type": "constructor"
    },
    {
      "anonymous": false,
      "inputs": [
        {
          "indexed": true,
          "internalType": "address",
          "name": "account",
          "type": "address"
        },
        {
          "indexed": true,
          "internalType": "address",
          "name": "operator",
          "type": "address"
        },
        {
          "indexed": false,
          "internalType": "bool",
          "name": "approved",
          "type": "bool"
        }
      ],
      "name": "ApprovalForAll",
      "type": "event"
    },
    {
      "anonymous": false,
      "inputs": [
        {
          "indexed": false,
          "internalType": "address",
          "name": "operator",
          "type": "address"
        },
        {
          "indexed": false,
          "internalType": "address",
          "name": "applicant",
          "type": "address"
        },
        {
          "indexed": false,
          "internalType": "address",
          "name": "owner",
          "type": "address"
        },
        {
          "indexed": false,
          "internalType": "uint256",
          "name": "id",
          "type": "uint256"
        },
        {
          "indexed": false,
          "internalType": "uint256",
          "name": "count",
          "type": "uint256"
        }
      ],
      "name": "ObtainRequested",
      "type": "event"
    },
    {
      "anonymous": false,
      "inputs": [
        {
          "indexed": false,
          "internalType": "address",
          "name": "sender",
          "type": "address"
        },
        {
          "indexed": false,
          "internalType": "uint256",
          "name": "id",
          "type": "uint256"
        },
        {
          "indexed": false,
          "internalType": "uint256",
          "name": "count",
          "type": "uint256"
        }
      ],
      "name": "ParticleReceived",
      "type": "event"
    },
    {
      "anonymous": false,
      "inputs": [
        {
          "indexed": true,
          "internalType": "address",
          "name": "operator",
          "type": "address"
        },
        {
          "indexed": true,
          "internalType": "address",
          "name": "from",
          "type": "address"
        },
        {
          "indexed": true,
          "internalType": "address",
          "name": "to",
          "type": "address"
        },
        {
          "indexed": false,
          "internalType": "uint256[]",
          "name": "ids",
          "type": "uint256[]"
        },
        {
          "indexed": false,
          "internalType": "uint256[]",
          "name": "values",
          "type": "uint256[]"
        }
      ],
      "name": "TransferBatch",
      "type": "event"
    },
    {
      "anonymous": false,
      "inputs": [
        {
          "indexed": true,
          "internalType": "address",
          "name": "operator",
          "type": "address"
        },
        {
          "indexed": true,
          "internalType": "address",
          "name": "from",
          "type": "address"
        },
        {
          "indexed": true,
          "internalType": "address",
          "name": "to",
          "type": "address"
        },
        {
          "indexed": false,
          "internalType": "uint256",
          "name": "id",
          "type": "uint256"
        },
        {
          "indexed": false,
          "internalType": "uint256",
          "name": "value",
          "type": "uint256"
        }
      ],
      "name": "TransferSingle",
      "type": "event"
    },
    {
      "anonymous": false,
      "inputs": [
        {
          "indexed": false,
          "internalType": "string",
          "name": "value",
          "type": "string"
        },
        {
          "indexed": true,
          "internalType": "uint256",
          "name": "id",
          "type": "uint256"
        }
      ],
      "name": "URI",
      "type": "event"
    },
    {
      "inputs": [],
      "name": "C",
      "outputs": [
        {
          "internalType": "uint256",
          "name": "",
          "type": "uint256"
        }
      ],
      "stateMutability": "view",
      "type": "function"
    },
    {
      "inputs": [],
      "name": "Cl",
      "outputs": [
        {
          "internalType": "uint256",
          "name": "",
          "type": "uint256"
        }
      ],
      "stateMutability": "view",
      "type": "function"
    },
    {
      "inputs": [],
      "name": "H",
      "outputs": [
        {
          "internalType": "uint256",
          "name": "",
          "type": "uint256"
        }
      ],
      "stateMutability": "view",
      "type": "function"
    },
    {
      "inputs": [],
      "name": "Li",
      "outputs": [
        {
          "internalType": "uint256",
          "name": "",
          "type": "uint256"
        }
      ],
      "stateMutability": "view",
      "type": "function"
    },
    {
      "inputs": [],
      "name": "N",
      "outputs": [
        {
          "internalType": "uint256",
          "name": "",
          "type": "uint256"
        }
      ],
      "stateMutability": "view",
      "type": "function"
    },
    {
      "inputs": [],
      "name": "Na",
      "outputs": [
        {
          "internalType": "uint256",
          "name": "",
          "type": "uint256"
        }
      ],
      "stateMutability": "view",
      "type": "function"
    },
    {
      "inputs": [],
      "name": "O",
      "outputs": [
        {
          "internalType": "uint256",
          "name": "",
          "type": "uint256"
        }
      ],
      "stateMutability": "view",
      "type": "function"
    },
    {
      "inputs": [],
      "name": "P",
      "outputs": [
        {
          "internalType": "uint256",
          "name": "",
          "type": "uint256"
        }
      ],
      "stateMutability": "view",
      "type": "function"
    },
    {
      "inputs": [],
      "name": "S",
      "outputs": [
        {
          "internalType": "uint256",
          "name": "",
          "type": "uint256"
        }
      ],
      "stateMutability": "view",
      "type": "function"
    },
    {
      "inputs": [
        {
          "internalType": "address",
          "name": "account",
          "type": "address"
        },
        {
          "internalType": "uint256",
          "name": "id",
          "type": "uint256"
        }
      ],
      "name": "balanceOf",
      "outputs": [
        {
          "internalType": "uint256",
          "name": "",
          "type": "uint256"
        }
      ],
      "stateMutability": "view",
      "type": "function"
    },
    {
      "inputs": [
        {
          "internalType": "address[]",
          "name": "accounts",
          "type": "address[]"
        },
        {
          "internalType": "uint256[]",
          "name": "ids",
          "type": "uint256[]"
        }
      ],
      "name": "balanceOfBatch",
      "outputs": [
        {
          "internalType": "uint256[]",
          "name": "",
          "type": "uint256[]"
        }
      ],
      "stateMutability": "view",
      "type": "function"
    },
    {
      "inputs": [
        {
          "internalType": "uint256",
          "name": "",
          "type": "uint256"
        },
        {
          "internalType": "uint256",
          "name": "",
          "type": "uint256"
        }
      ],
      "name": "elementsCompound",
      "outputs": [
        {
          "internalType": "uint256",
          "name": "",
          "type": "uint256"
        }
      ],
      "stateMutability": "view",
      "type": "function"
    },
    {
      "inputs": [
        {
          "internalType": "uint256",
          "name": "token_id",
          "type": "uint256"
        }
      ],
      "name": "getElementCompound",
      "outputs": [
        {
          "internalType": "uint256[3]",
          "name": "",
          "type": "uint256[3]"
        }
      ],
      "stateMutability": "view",
      "type": "function"
    },
    {
      "inputs": [
        {
          "internalType": "address",
          "name": "addr",
          "type": "address"
        }
      ],
      "name": "getParticlesBalance",
      "outputs": [
        {
          "internalType": "uint256[3]",
          "name": "",
          "type": "uint256[3]"
        }
      ],
      "stateMutability": "view",
      "type": "function"
    },
    {
      "inputs": [
        {
          "internalType": "address",
          "name": "account",
          "type": "address"
        },
        {
          "internalType": "address",
          "name": "operator",
          "type": "address"
        }
      ],
      "name": "isApprovedForAll",
      "outputs": [
        {
          "internalType": "bool",
          "name": "",
          "type": "bool"
        }
      ],
      "stateMutability": "view",
      "type": "function"
    },
    {
      "inputs": [
        {
          "internalType": "address",
          "name": "from",
          "type": "address"
        },
        {
          "internalType": "uint256",
          "name": "id",
          "type": "uint256"
        },
        {
          "internalType": "uint256",
          "name": "value",
          "type": "uint256"
        }
      ],
      "name": "onERC20Received",
      "outputs": [
        {
          "internalType": "bool",
          "name": "",
          "type": "bool"
        }
      ],
      "stateMutability": "nonpayable",
      "type": "function"
    },
    {
      "inputs": [],
      "name": "owner",
      "outputs": [
        {
          "internalType": "address",
          "name": "",
          "type": "address"
        }
      ],
      "stateMutability": "view",
      "type": "function"
    },
    {
      "inputs": [
        {
          "internalType": "address",
          "name": "",
          "type": "address"
        },
        {
          "internalType": "uint256",
          "name": "",
          "type": "uint256"
        }
      ],
      "name": "particleTransmitters",
      "outputs": [
        {
          "internalType": "uint256",
          "name": "",
          "type": "uint256"
        }
      ],
      "stateMutability": "view",
      "type": "function"
    },
    {
      "inputs": [
        {
          "internalType": "address",
          "name": "account",
          "type": "address"
        },
        {
          "internalType": "uint256",
          "name": "id",
          "type": "uint256"
        },
        {
          "internalType": "uint256",
          "name": "amount",
          "type": "uint256"
        },
        {
          "internalType": "bytes",
          "name": "data",
          "type": "bytes"
        }
      ],
      "name": "requestObtain",
      "outputs": [],
      "stateMutability": "nonpayable",
      "type": "function"
    },
    {
      "inputs": [
        {
          "internalType": "address",
          "name": "from",
          "type": "address"
        },
        {
          "internalType": "address",
          "name": "to",
          "type": "address"
        },
        {
          "internalType": "uint256[]",
          "name": "ids",
          "type": "uint256[]"
        },
        {
          "internalType": "uint256[]",
          "name": "amounts",
          "type": "uint256[]"
        },
        {
          "internalType": "bytes",
          "name": "data",
          "type": "bytes"
        }
      ],
      "name": "safeBatchTransferFrom",
      "outputs": [],
      "stateMutability": "nonpayable",
      "type": "function"
    },
    {
      "inputs": [
        {
          "internalType": "address",
          "name": "from",
          "type": "address"
        },
        {
          "internalType": "address",
          "name": "to",
          "type": "address"
        },
        {
          "internalType": "uint256",
          "name": "id",
          "type": "uint256"
        },
        {
          "internalType": "uint256",
          "name": "amount",
          "type": "uint256"
        },
        {
          "internalType": "bytes",
          "name": "data",
          "type": "bytes"
        }
      ],
      "name": "safeTransferFrom",
      "outputs": [],
      "stateMutability": "nonpayable",
      "type": "function"
    },
    {
      "inputs": [
        {
          "internalType": "address",
          "name": "operator",
          "type": "address"
        },
        {
          "internalType": "bool",
          "name": "approved",
          "type": "bool"
        }
      ],
      "name": "setApprovalForAll",
      "outputs": [],
      "stateMutability": "nonpayable",
      "type": "function"
    },
    {
      "inputs": [
        {
          "internalType": "bytes4",
          "name": "interfaceId",
          "type": "bytes4"
        }
      ],
      "name": "supportsInterface",
      "outputs": [
        {
          "internalType": "bool",
          "name": "",
          "type": "bool"
        }
      ],
      "stateMutability": "view",
      "type": "function"
    },
    {
      "inputs": [
        {
          "internalType": "uint256",
          "name": "",
          "type": "uint256"
        }
      ],
      "name": "uri",
      "outputs": [
        {
          "internalType": "string",
          "name": "",
          "type": "string"
        }
      ],
      "stateMutability": "view",
      "type": "function"
    }
  ],
  "bytecode": "0x60806040523480156200001157600080fd5b506040518060600160405280602c81526020016200559d602c91396200003d8162000cc960201b60201c565b5033600360006101000a81548173ffffffffffffffffffffffffffffffffffffffff021916908373ffffffffffffffffffffffffffffffffffffffff160217905550600160046000600181526020019081526020016000206000806002811115620000d1577f4e487b7100000000000000000000000000000000000000000000000000000000600052602160045260246000fd5b8152602001908152602001600020819055506001600460006001815260200190815260200160002060006001600281111562000136577f4e487b7100000000000000000000000000000000000000000000000000000000600052602160045260246000fd5b8152602001908152602001600020819055506000600460006001815260200190815260200160002060006002808111156200019a577f4e487b7100000000000000000000000000000000000000000000000000000000600052602160045260246000fd5b815260200190815260200160002081905550600360046000600381526020019081526020016000206000806002811115620001fe577f4e487b7100000000000000000000000000000000000000000000000000000000600052602160045260246000fd5b8152602001908152602001600020819055506003600460006003815260200190815260200160002060006001600281111562000263577f4e487b7100000000000000000000000000000000000000000000000000000000600052602160045260246000fd5b8152602001908152602001600020819055506004806000600381526020019081526020016000206000600280811115620002c6577f4e487b7100000000000000000000000000000000000000000000000000000000600052602160045260246000fd5b815260200190815260200160002081905550600b60046000600b815260200190815260200160002060008060028111156200032a577f4e487b7100000000000000000000000000000000000000000000000000000000600052602160045260246000fd5b815260200190815260200160002081905550600b60046000600b81526020019081526020016000206000600160028111156200038f577f4e487b7100000000000000000000000000000000000000000000000000000000600052602160045260246000fd5b815260200190815260200160002081905550600c60046000600b81526020019081526020016000206000600280811115620003f3577f4e487b7100000000000000000000000000000000000000000000000000000000600052602160045260246000fd5b81526020019081526020016000208190555060086004600060088152602001908152602001600020600080600281111562000457577f4e487b7100000000000000000000000000000000000000000000000000000000600052602160045260246000fd5b81526020019081526020016000208190555060086004600060088152602001908152602001600020600060016002811115620004bc577f4e487b7100000000000000000000000000000000000000000000000000000000600052602160045260246000fd5b81526020019081526020016000208190555060086004600060088152602001908152602001600020600060028081111562000520577f4e487b7100000000000000000000000000000000000000000000000000000000600052602160045260246000fd5b81526020019081526020016000208190555060066004600060068152602001908152602001600020600080600281111562000584577f4e487b7100000000000000000000000000000000000000000000000000000000600052602160045260246000fd5b81526020019081526020016000208190555060066004600060068152602001908152602001600020600060016002811115620005e9577f4e487b7100000000000000000000000000000000000000000000000000000000600052602160045260246000fd5b8152602001908152602001600020819055506006600460006006815260200190815260200160002060006002808111156200064d577f4e487b7100000000000000000000000000000000000000000000000000000000600052602160045260246000fd5b815260200190815260200160002081905550600760046000600781526020019081526020016000206000806002811115620006b1577f4e487b7100000000000000000000000000000000000000000000000000000000600052602160045260246000fd5b8152602001908152602001600020819055506007600460006007815260200190815260200160002060006001600281111562000716577f4e487b7100000000000000000000000000000000000000000000000000000000600052602160045260246000fd5b8152602001908152602001600020819055506007600460006007815260200190815260200160002060006002808111156200077a577f4e487b7100000000000000000000000000000000000000000000000000000000600052602160045260246000fd5b815260200190815260200160002081905550601160046000601181526020019081526020016000206000806002811115620007de577f4e487b7100000000000000000000000000000000000000000000000000000000600052602160045260246000fd5b8152602001908152602001600020819055506011600460006011815260200190815260200160002060006001600281111562000843577f4e487b7100000000000000000000000000000000000000000000000000000000600052602160045260246000fd5b815260200190815260200160002081905550601160046000601181526020019081526020016000206000600280811115620008a7577f4e487b7100000000000000000000000000000000000000000000000000000000600052602160045260246000fd5b815260200190815260200160002081905550600f60046000600f815260200190815260200160002060008060028111156200090b577f4e487b7100000000000000000000000000000000000000000000000000000000600052602160045260246000fd5b815260200190815260200160002081905550600f60046000600f815260200190815260200160002060006001600281111562000970577f4e487b7100000000000000000000000000000000000000000000000000000000600052602160045260246000fd5b815260200190815260200160002081905550601060046000600f81526020019081526020016000206000600280811115620009d4577f4e487b7100000000000000000000000000000000000000000000000000000000600052602160045260246000fd5b81526020019081526020016000208190555060106004600060108152602001908152602001600020600080600281111562000a38577f4e487b7100000000000000000000000000000000000000000000000000000000600052602160045260246000fd5b8152602001908152602001600020819055506010600460006010815260200190815260200160002060006001600281111562000a9d577f4e487b7100000000000000000000000000000000000000000000000000000000600052602160045260246000fd5b81526020019081526020016000208190555060106004600060108152602001908152602001600020600060028081111562000b01577f4e487b7100000000000000000000000000000000000000000000000000000000600052602160045260246000fd5b81526020019081526020016000208190555062000b433360016b033b2e3c9fd0803ce80000006040518060200160405280600081525062000ce560201b60201c565b62000b733360036b033b2e3c9fd0803ce80000006040518060200160405280600081525062000ce560201b60201c565b62000ba333600b6b033b2e3c9fd0803ce80000006040518060200160405280600081525062000ce560201b60201c565b62000bd33360086b033b2e3c9fd0803ce80000006040518060200160405280600081525062000ce560201b60201c565b62000c033360066b033b2e3c9fd0803ce80000006040518060200160405280600081525062000ce560201b60201c565b62000c333360076b033b2e3c9fd0803ce80000006040518060200160405280600081525062000ce560201b60201c565b62000c633360116b033b2e3c9fd0803ce80000006040518060200160405280600081525062000ce560201b60201c565b62000c9333600f6b033b2e3c9fd0803ce80000006040518060200160405280600081525062000ce560201b60201c565b62000cc33360106b033b2e3c9fd0803ce80000006040518060200160405280600081525062000ce560201b60201c565b620018fb565b806002908051906020019062000ce1929190620011b0565b5050565b600073ffffffffffffffffffffffffffffffffffffffff168473ffffffffffffffffffffffffffffffffffffffff16141562000d58576040517f08c379a000000000000000000000000000000000000000000000000000000000815260040162000d4f9062001488565b60405180910390fd5b600062000d6a62000eaa60201b60201c565b905062000da38160008762000d858862000eb260201b60201c565b62000d968862000eb260201b60201c565b8762000f7b60201b60201c565b8260008086815260200190815260200160002060008773ffffffffffffffffffffffffffffffffffffffff1673ffffffffffffffffffffffffffffffffffffffff168152602001908152602001600020600082825462000e04919062001519565b925050819055508473ffffffffffffffffffffffffffffffffffffffff16600073ffffffffffffffffffffffffffffffffffffffff168273ffffffffffffffffffffffffffffffffffffffff167fc3d58168c5ae7397731d063d5bbf3d657854427343f4c083240f7aacaa2d0f62878760405162000e84929190620014aa565b60405180910390a462000ea38160008787878762000f8360201b60201c565b5050505050565b600033905090565b60606000600167ffffffffffffffff81111562000ef8577f4e487b7100000000000000000000000000000000000000000000000000000000600052604160045260246000fd5b60405190808252806020026020018201604052801562000f275781602001602082028036833780820191505090505b509050828160008151811062000f66577f4e487b7100000000000000000000000000000000000000000000000000000000600052603260045260246000fd5b60200260200101818152505080915050919050565b505050505050565b62000faf8473ffffffffffffffffffffffffffffffffffffffff166200118d60201b620017e71760201c565b1562001185578373ffffffffffffffffffffffffffffffffffffffff1663f23a6e6187878686866040518663ffffffff1660e01b815260040162000ff8959493929190620013bc565b602060405180830381600087803b1580156200101357600080fd5b505af19250505080156200104757506040513d601f19601f8201168201806040525081019062001044919062001277565b60015b620010f957620010566200170f565b806308c379a01415620010ba57506200106e6200183f565b806200107b5750620010bc565b806040517f08c379a0000000000000000000000000000000000000000000000000000000008152600401620010b1919062001420565b60405180910390fd5b505b6040517f08c379a0000000000000000000000000000000000000000000000000000000008152600401620010f09062001444565b60405180910390fd5b63f23a6e6160e01b7bffffffffffffffffffffffffffffffffffffffffffffffffffffffff1916817bffffffffffffffffffffffffffffffffffffffffffffffffffffffff19161462001183576040517f08c379a00000000000000000000000000000000000000000000000000000000081526004016200117a9062001466565b60405180910390fd5b505b505050505050565b6000808273ffffffffffffffffffffffffffffffffffffffff163b119050919050565b828054620011be9062001616565b90600052602060002090601f016020900481019282620011e257600085556200122e565b82601f10620011fd57805160ff19168380011785556200122e565b828001600101855582156200122e579182015b828111156200122d57825182559160200191906001019062001210565b5b5090506200123d919062001241565b5090565b5b808211156200125c57600081600090555060010162001242565b5090565b6000815190506200127181620018e1565b92915050565b6000602082840312156200128a57600080fd5b60006200129a8482850162001260565b91505092915050565b620012ae8162001576565b82525050565b6000620012c182620014e1565b620012cd8185620014f7565b9350620012df818560208601620015e0565b620012ea8162001734565b840191505092915050565b60006200130282620014ec565b6200130e818562001508565b935062001320818560208601620015e0565b6200132b8162001734565b840191505092915050565b60006200134560348362001508565b9150620013528262001752565b604082019050919050565b60006200136c60288362001508565b91506200137982620017a1565b604082019050919050565b60006200139360218362001508565b9150620013a082620017f0565b604082019050919050565b620013b681620015d6565b82525050565b600060a082019050620013d36000830188620012a3565b620013e26020830187620012a3565b620013f16040830186620013ab565b620014006060830185620013ab565b8181036080830152620014148184620012b4565b90509695505050505050565b600060208201905081810360008301526200143c8184620012f5565b905092915050565b600060208201905081810360008301526200145f8162001336565b9050919050565b6000602082019050818103600083015262001481816200135d565b9050919050565b60006020820190508181036000830152620014a38162001384565b9050919050565b6000604082019050620014c16000830185620013ab565b620014d06020830184620013ab565b9392505050565b6000604051905090565b600081519050919050565b600081519050919050565b600082825260208201905092915050565b600082825260208201905092915050565b60006200152682620015d6565b91506200153383620015d6565b9250827fffffffffffffffffffffffffffffffffffffffffffffffffffffffffffffffff038211156200156b576200156a62001682565b5b828201905092915050565b60006200158382620015b6565b9050919050565b60007fffffffff0000000000000000000000000000000000000000000000000000000082169050919050565b600073ffffffffffffffffffffffffffffffffffffffff82169050919050565b6000819050919050565b60005b8381101562001600578082015181840152602081019050620015e3565b8381111562001610576000848401525b50505050565b600060028204905060018216806200162f57607f821691505b60208210811415620016465762001645620016b1565b5b50919050565b620016578262001734565b810181811067ffffffffffffffff82111715620016795762001678620016e0565b5b80604052505050565b7f4e487b7100000000000000000000000000000000000000000000000000000000600052601160045260246000fd5b7f4e487b7100000000000000000000000000000000000000000000000000000000600052602260045260246000fd5b7f4e487b7100000000000000000000000000000000000000000000000000000000600052604160045260246000fd5b600060033d1115620017315760046000803e6200172e60005162001745565b90505b90565b6000601f19601f8301169050919050565b60008160e01c9050919050565b7f455243313135353a207472616e7366657220746f206e6f6e204552433131353560008201527f526563656976657220696d706c656d656e746572000000000000000000000000602082015250565b7f455243313135353a204552433131353552656365697665722072656a6563746560008201527f6420746f6b656e73000000000000000000000000000000000000000000000000602082015250565b7f455243313135353a206d696e7420746f20746865207a65726f2061646472657360008201527f7300000000000000000000000000000000000000000000000000000000000000602082015250565b600060443d10156200185157620018de565b6200185b620014d7565b60043d036004823e80513d602482011167ffffffffffffffff8211171562001885575050620018de565b808201805167ffffffffffffffff811115620018a55750505050620018de565b80602083010160043d038501811115620018c4575050505050620018de565b620018d5826020018501866200164c565b82955050505050505b90565b620018ec816200158a565b8114620018f857600080fd5b50565b613c92806200190b6000396000f3fe608060405234801561001057600080fd5b50600436106101575760003560e01c806383dfe5fd116100c3578063c9e525df1161007c578063c9e525df14610404578063e1954f1214610422578063e264471e14610452578063e985e9c514610470578063f242432a146104a0578063fd9d0b9c146104bc57610157565b806383dfe5fd146103405780638b8fbd921461035e5780638da5cb5b1461037c578063a0ea32de1461039a578063a22cb465146103b8578063c42f83b3146103d457610157565b80633ec252f6116101155780633ec252f6146102685780634be1c796146102865780634e1273f4146102a457806364a55323146102d457806370a5d861146103045780637fc12af21461032257610157565b8062fdd58e1461015c57806301ffc9a71461018c57806303cc0e8c146101bc5780630915c9ce146101ec5780630e89341c1461021c5780632eb2c2d61461024c575b600080fd5b61017660048036038101906101719190612a13565b6104d8565b6040516101839190613336565b60405180910390f35b6101a660048036038101906101a19190612b85565b6105a1565b6040516101b39190613159565b60405180910390f35b6101d660048036038101906101d19190612824565b6105b3565b6040516101e391906130e5565b60405180910390f35b61020660048036038101906102019190612a4f565b610776565b6040516102139190613159565b60405180910390f35b61023660048036038101906102319190612bd7565b610875565b6040516102439190613174565b60405180910390f35b61026660048036038101906102619190612889565b610909565b005b6102706109aa565b60405161027d9190613336565b60405180910390f35b61028e6109af565b60405161029b9190613336565b60405180910390f35b6102be60048036038101906102b99190612b19565b6109b4565b6040516102cb9190613100565b60405180910390f35b6102ee60048036038101906102e99190612c00565b610b65565b6040516102fb9190613336565b60405180910390f35b61030c610b8a565b6040516103199190613336565b60405180910390f35b61032a610b8f565b6040516103379190613336565b60405180910390f35b610348610b94565b6040516103559190613336565b60405180910390f35b610366610b99565b6040516103739190613336565b60405180910390f35b610384610b9e565b6040516103919190612f7e565b60405180910390f35b6103a2610bc4565b6040516103af9190613336565b60405180910390f35b6103d260048036038101906103cd91906129d7565b610bc9565b005b6103ee60048036038101906103e99190612bd7565b610bdf565b6040516103fb91906130e5565b60405180910390f35b61040c610d1e565b6040516104199190613336565b60405180910390f35b61043c60048036038101906104379190612a13565b610d23565b6040516104499190613336565b60405180910390f35b61045a610d48565b6040516104679190613336565b60405180910390f35b61048a6004803603810190610485919061284d565b610d4d565b6040516104979190613159565b60405180910390f35b6104ba60048036038101906104b59190612948565b610de1565b005b6104d660048036038101906104d19190612a9e565b610e82565b005b60008073ffffffffffffffffffffffffffffffffffffffff168373ffffffffffffffffffffffffffffffffffffffff161415610549576040517f08c379a0000000000000000000000000000000000000000000000000000000008152600401610540906131d6565b60405180910390fd5b60008083815260200190815260200160002060008473ffffffffffffffffffffffffffffffffffffffff1673ffffffffffffffffffffffffffffffffffffffff16815260200190815260200160002054905092915050565b60006105ac8261180a565b9050919050565b6105bb612605565b6040518060600160405280600560008573ffffffffffffffffffffffffffffffffffffffff1673ffffffffffffffffffffffffffffffffffffffff1681526020019081526020016000206000806002811115610640577f4e487b7100000000000000000000000000000000000000000000000000000000600052602160045260246000fd5b8152602001908152602001600020548152602001600560008573ffffffffffffffffffffffffffffffffffffffff1673ffffffffffffffffffffffffffffffffffffffff1681526020019081526020016000206000600160028111156106cf577f4e487b7100000000000000000000000000000000000000000000000000000000600052602160045260246000fd5b8152602001908152602001600020548152602001600560008573ffffffffffffffffffffffffffffffffffffffff1673ffffffffffffffffffffffffffffffffffffffff168152602001908152602001600020600060028081111561075d577f4e487b7100000000000000000000000000000000000000000000000000000000600052602160045260246000fd5b8152602001908152602001600020548152509050919050565b60007fd0ca18092a86c00a4cef53e183e80daee7b403b352f89c089767165224fbe6b18484846040516107ab939291906130ae565b60405180910390a161081682600560008773ffffffffffffffffffffffffffffffffffffffff1673ffffffffffffffffffffffffffffffffffffffff16815260200190815260200160002060008681526020019081526020016000205461188490919063ffffffff16565b600560008673ffffffffffffffffffffffffffffffffffffffff1673ffffffffffffffffffffffffffffffffffffffff168152602001908152602001600020600085815260200190815260200160002081905550600190509392505050565b60606002805461088490613660565b80601f01602080910402602001604051908101604052809291908181526020018280546108b090613660565b80156108fd5780601f106108d2576101008083540402835291602001916108fd565b820191906000526020600020905b8154815290600101906020018083116108e057829003601f168201915b50505050509050919050565b61091161189a565b73ffffffffffffffffffffffffffffffffffffffff168573ffffffffffffffffffffffffffffffffffffffff16148061095757506109568561095161189a565b610d4d565b5b610996576040517f08c379a000000000000000000000000000000000000000000000000000000000815260040161098d90613256565b60405180910390fd5b6109a385858585856118a2565b5050505050565b601181565b601081565b606081518351146109fa576040517f08c379a00000000000000000000000000000000000000000000000000000000081526004016109f1906132f6565b60405180910390fd5b6000835167ffffffffffffffff811115610a3d577f4e487b7100000000000000000000000000000000000000000000000000000000600052604160045260246000fd5b604051908082528060200260200182016040528015610a6b5781602001602082028036833780820191505090505b50905060005b8451811015610b5a57610b04858281518110610ab6577f4e487b7100000000000000000000000000000000000000000000000000000000600052603260045260246000fd5b6020026020010151858381518110610af7577f4e487b7100000000000000000000000000000000000000000000000000000000600052603260045260246000fd5b60200260200101516104d8565b828281518110610b3d577f4e487b7100000000000000000000000000000000000000000000000000000000600052603260045260246000fd5b60200260200101818152505080610b53906136c3565b9050610a71565b508091505092915050565b6004602052816000526040600020602052806000526040600020600091509150505481565b600181565b600b81565b600681565b600f81565b600360009054906101000a900473ffffffffffffffffffffffffffffffffffffffff1681565b600881565b610bdb610bd461189a565b8383611c02565b5050565b610be7612605565b6040518060600160405280600460008581526020019081526020016000206000806002811115610c40577f4e487b7100000000000000000000000000000000000000000000000000000000600052602160045260246000fd5b815260200190815260200160002054815260200160046000858152602001908152602001600020600060016002811115610ca3577f4e487b7100000000000000000000000000000000000000000000000000000000600052602160045260246000fd5b8152602001908152602001600020548152602001600460008581526020019081526020016000206000600280811115610d05577f4e487b7100000000000000000000000000000000000000000000000000000000600052602160045260246000fd5b8152602001908152602001600020548152509050919050565b600781565b6005602052816000526040600020602052806000526040600020600091509150505481565b600381565b6000600160008473ffffffffffffffffffffffffffffffffffffffff1673ffffffffffffffffffffffffffffffffffffffff16815260200190815260200160002060008373ffffffffffffffffffffffffffffffffffffffff1673ffffffffffffffffffffffffffffffffffffffff16815260200190815260200160002060009054906101000a900460ff16905092915050565b610de961189a565b73ffffffffffffffffffffffffffffffffffffffff168573ffffffffffffffffffffffffffffffffffffffff161480610e2f5750610e2e85610e2961189a565b610d4d565b5b610e6e576040517f08c379a0000000000000000000000000000000000000000000000000000000008152600401610e65906131f6565b60405180910390fd5b610e7b8585858585611d6f565b5050505050565b8282856000610e9084610bdf565b90506000610e9d836105b3565b9050610f28848360006002811115610ede577f4e487b7100000000000000000000000000000000000000000000000000000000600052602160045260246000fd5b60038110610f15577f4e487b7100000000000000000000000000000000000000000000000000000000600052603260045260246000fd5b6020020151611ff190919063ffffffff16565b8160006002811115610f63577f4e487b7100000000000000000000000000000000000000000000000000000000600052602160045260246000fd5b60038110610f9a577f4e487b7100000000000000000000000000000000000000000000000000000000600052603260045260246000fd5b60200201511015610fe0576040517f08c379a0000000000000000000000000000000000000000000000000000000008152600401610fd790613216565b60405180910390fd5b61106984836001600281111561101f577f4e487b7100000000000000000000000000000000000000000000000000000000600052602160045260246000fd5b60038110611056577f4e487b7100000000000000000000000000000000000000000000000000000000600052603260045260246000fd5b6020020151611ff190919063ffffffff16565b81600160028111156110a4577f4e487b7100000000000000000000000000000000000000000000000000000000600052602160045260246000fd5b600381106110db577f4e487b7100000000000000000000000000000000000000000000000000000000600052603260045260246000fd5b60200201511015611121576040517f08c379a000000000000000000000000000000000000000000000000000000000815260040161111890613296565b60405180910390fd5b6111a9848360028081111561115f577f4e487b7100000000000000000000000000000000000000000000000000000000600052602160045260246000fd5b60038110611196577f4e487b7100000000000000000000000000000000000000000000000000000000600052603260045260246000fd5b6020020151611ff190919063ffffffff16565b816002808111156111e3577f4e487b7100000000000000000000000000000000000000000000000000000000600052602160045260246000fd5b6003811061121a577f4e487b7100000000000000000000000000000000000000000000000000000000600052603260045260246000fd5b60200201511015611260576040517f08c379a0000000000000000000000000000000000000000000000000000000008152600401611257906132b6565b60405180910390fd5b60003390507fb257737aae7c16bd97a7f44817796b7c57821eea18c118627855455fdd461a38818b600360009054906101000a900473ffffffffffffffffffffffffffffffffffffffff168c8c6040516112be959493929190612f99565b60405180910390a160006112d18a610bdf565b90506113e48160006002811115611311577f4e487b7100000000000000000000000000000000000000000000000000000000600052602160045260246000fd5b60038110611348577f4e487b7100000000000000000000000000000000000000000000000000000000600052603260045260246000fd5b6020020151600560008e73ffffffffffffffffffffffffffffffffffffffff1673ffffffffffffffffffffffffffffffffffffffff16815260200190815260200160002060008060028111156113c7577f4e487b7100000000000000000000000000000000000000000000000000000000600052602160045260246000fd5b81526020019081526020016000205461200790919063ffffffff16565b600560008d73ffffffffffffffffffffffffffffffffffffffff1673ffffffffffffffffffffffffffffffffffffffff168152602001908152602001600020600080600281111561145e577f4e487b7100000000000000000000000000000000000000000000000000000000600052602160045260246000fd5b81526020019081526020016000208190555061158281600160028111156114ae577f4e487b7100000000000000000000000000000000000000000000000000000000600052602160045260246000fd5b600381106114e5577f4e487b7100000000000000000000000000000000000000000000000000000000600052603260045260246000fd5b6020020151600560008e73ffffffffffffffffffffffffffffffffffffffff1673ffffffffffffffffffffffffffffffffffffffff168152602001908152602001600020600060016002811115611565577f4e487b7100000000000000000000000000000000000000000000000000000000600052602160045260246000fd5b81526020019081526020016000205461200790919063ffffffff16565b600560008d73ffffffffffffffffffffffffffffffffffffffff1673ffffffffffffffffffffffffffffffffffffffff1681526020019081526020016000206000600160028111156115fd577f4e487b7100000000000000000000000000000000000000000000000000000000600052602160045260246000fd5b81526020019081526020016000208190555061171f8160028081111561164c577f4e487b7100000000000000000000000000000000000000000000000000000000600052602160045260246000fd5b60038110611683577f4e487b7100000000000000000000000000000000000000000000000000000000600052603260045260246000fd5b6020020151600560008e73ffffffffffffffffffffffffffffffffffffffff1673ffffffffffffffffffffffffffffffffffffffff1681526020019081526020016000206000600280811115611702577f4e487b7100000000000000000000000000000000000000000000000000000000600052602160045260246000fd5b81526020019081526020016000205461200790919063ffffffff16565b600560008d73ffffffffffffffffffffffffffffffffffffffff1673ffffffffffffffffffffffffffffffffffffffff1681526020019081526020016000206000600280811115611799577f4e487b7100000000000000000000000000000000000000000000000000000000600052602160045260246000fd5b8152602001908152602001600020819055506117da600360009054906101000a900473ffffffffffffffffffffffffffffffffffffffff168c8c8c8c610de1565b5050505050505050505050565b6000808273ffffffffffffffffffffffffffffffffffffffff163b119050919050565b60007f0915c9ce000000000000000000000000000000000000000000000000000000007bffffffffffffffffffffffffffffffffffffffffffffffffffffffff1916827bffffffffffffffffffffffffffffffffffffffffffffffffffffffff1916148061187d575061187c8261201d565b5b9050919050565b6000818361189291906134c6565b905092915050565b600033905090565b81518351146118e6576040517f08c379a00000000000000000000000000000000000000000000000000000000081526004016118dd90613316565b60405180910390fd5b600073ffffffffffffffffffffffffffffffffffffffff168473ffffffffffffffffffffffffffffffffffffffff161415611956576040517f08c379a000000000000000000000000000000000000000000000000000000000815260040161194d90613236565b60405180910390fd5b600061196061189a565b90506119708187878787876120ff565b60005b8451811015611b6d5760008582815181106119b7577f4e487b7100000000000000000000000000000000000000000000000000000000600052603260045260246000fd5b6020026020010151905060008583815181106119fc577f4e487b7100000000000000000000000000000000000000000000000000000000600052603260045260246000fd5b60200260200101519050600080600084815260200190815260200160002060008b73ffffffffffffffffffffffffffffffffffffffff1673ffffffffffffffffffffffffffffffffffffffff16815260200190815260200160002054905081811015611a9d576040517f08c379a0000000000000000000000000000000000000000000000000000000008152600401611a9490613276565b60405180910390fd5b81810360008085815260200190815260200160002060008c73ffffffffffffffffffffffffffffffffffffffff1673ffffffffffffffffffffffffffffffffffffffff168152602001908152602001600020819055508160008085815260200190815260200160002060008b73ffffffffffffffffffffffffffffffffffffffff1673ffffffffffffffffffffffffffffffffffffffff1681526020019081526020016000206000828254611b5291906134c6565b9250508190555050505080611b66906136c3565b9050611973565b508473ffffffffffffffffffffffffffffffffffffffff168673ffffffffffffffffffffffffffffffffffffffff168273ffffffffffffffffffffffffffffffffffffffff167f4a39dc06d4c0dbc64b70af90fd698a233a518aa5d07e595d983b8c0526c8f7fb8787604051611be4929190613122565b60405180910390a4611bfa818787878787612107565b505050505050565b8173ffffffffffffffffffffffffffffffffffffffff168373ffffffffffffffffffffffffffffffffffffffff161415611c71576040517f08c379a0000000000000000000000000000000000000000000000000000000008152600401611c68906132d6565b60405180910390fd5b80600160008573ffffffffffffffffffffffffffffffffffffffff1673ffffffffffffffffffffffffffffffffffffffff16815260200190815260200160002060008473ffffffffffffffffffffffffffffffffffffffff1673ffffffffffffffffffffffffffffffffffffffff16815260200190815260200160002060006101000a81548160ff0219169083151502179055508173ffffffffffffffffffffffffffffffffffffffff168373ffffffffffffffffffffffffffffffffffffffff167f17307eab39ab6107e8899845ad3d59bd9653f200f220920489ca2b5937696c3183604051611d629190613159565b60405180910390a3505050565b600073ffffffffffffffffffffffffffffffffffffffff168473ffffffffffffffffffffffffffffffffffffffff161415611ddf576040517f08c379a0000000000000000000000000000000000000000000000000000000008152600401611dd690613236565b60405180910390fd5b6000611de961189a565b9050611e09818787611dfa886122ee565b611e03886122ee565b876120ff565b600080600086815260200190815260200160002060008873ffffffffffffffffffffffffffffffffffffffff1673ffffffffffffffffffffffffffffffffffffffff16815260200190815260200160002054905083811015611ea0576040517f08c379a0000000000000000000000000000000000000000000000000000000008152600401611e9790613276565b60405180910390fd5b83810360008087815260200190815260200160002060008973ffffffffffffffffffffffffffffffffffffffff1673ffffffffffffffffffffffffffffffffffffffff168152602001908152602001600020819055508360008087815260200190815260200160002060008873ffffffffffffffffffffffffffffffffffffffff1673ffffffffffffffffffffffffffffffffffffffff1681526020019081526020016000206000828254611f5591906134c6565b925050819055508573ffffffffffffffffffffffffffffffffffffffff168773ffffffffffffffffffffffffffffffffffffffff168373ffffffffffffffffffffffffffffffffffffffff167fc3d58168c5ae7397731d063d5bbf3d657854427343f4c083240f7aacaa2d0f628888604051611fd2929190613351565b60405180910390a4611fe88288888888886123b4565b50505050505050565b60008183611fff919061351c565b905092915050565b600081836120159190613576565b905092915050565b60007fd9b67a26000000000000000000000000000000000000000000000000000000007bffffffffffffffffffffffffffffffffffffffffffffffffffffffff1916827bffffffffffffffffffffffffffffffffffffffffffffffffffffffff191614806120e857507f0e89341c000000000000000000000000000000000000000000000000000000007bffffffffffffffffffffffffffffffffffffffffffffffffffffffff1916827bffffffffffffffffffffffffffffffffffffffffffffffffffffffff1916145b806120f857506120f78261259b565b5b9050919050565b505050505050565b6121268473ffffffffffffffffffffffffffffffffffffffff166117e7565b156122e6578373ffffffffffffffffffffffffffffffffffffffff1663bc197c8187878686866040518663ffffffff1660e01b815260040161216c959493929190612fec565b602060405180830381600087803b15801561218657600080fd5b505af19250505080156121b757506040513d601f19601f820116820180604052508101906121b49190612bae565b60015b61225d576121c3613799565b806308c379a0141561222057506121d8613b6a565b806121e35750612222565b806040517f08c379a00000000000000000000000000000000000000000000000000000000081526004016122179190613174565b60405180910390fd5b505b6040517f08c379a000000000000000000000000000000000000000000000000000000000815260040161225490613196565b60405180910390fd5b63bc197c8160e01b7bffffffffffffffffffffffffffffffffffffffffffffffffffffffff1916817bffffffffffffffffffffffffffffffffffffffffffffffffffffffff1916146122e4576040517f08c379a00000000000000000000000000000000000000000000000000000000081526004016122db906131b6565b60405180910390fd5b505b505050505050565b60606000600167ffffffffffffffff811115612333577f4e487b7100000000000000000000000000000000000000000000000000000000600052604160045260246000fd5b6040519080825280602002602001820160405280156123615781602001602082028036833780820191505090505b509050828160008151811061239f577f4e487b7100000000000000000000000000000000000000000000000000000000600052603260045260246000fd5b60200260200101818152505080915050919050565b6123d38473ffffffffffffffffffffffffffffffffffffffff166117e7565b15612593578373ffffffffffffffffffffffffffffffffffffffff1663f23a6e6187878686866040518663ffffffff1660e01b8152600401612419959493929190613054565b602060405180830381600087803b15801561243357600080fd5b505af192505050801561246457506040513d601f19601f820116820180604052508101906124619190612bae565b60015b61250a57612470613799565b806308c379a014156124cd5750612485613b6a565b8061249057506124cf565b806040517f08c379a00000000000000000000000000000000000000000000000000000000081526004016124c49190613174565b60405180910390fd5b505b6040517f08c379a000000000000000000000000000000000000000000000000000000000815260040161250190613196565b60405180910390fd5b63f23a6e6160e01b7bffffffffffffffffffffffffffffffffffffffffffffffffffffffff1916817bffffffffffffffffffffffffffffffffffffffffffffffffffffffff191614612591576040517f08c379a0000000000000000000000000000000000000000000000000000000008152600401612588906131b6565b60405180910390fd5b505b505050505050565b60007f01ffc9a7000000000000000000000000000000000000000000000000000000007bffffffffffffffffffffffffffffffffffffffffffffffffffffffff1916827bffffffffffffffffffffffffffffffffffffffffffffffffffffffff1916149050919050565b6040518060600160405280600390602082028036833780820191505090505090565b600061263a6126358461339f565b61337a565b9050808382526020820190508285602086028201111561265957600080fd5b60005b85811015612689578161266f888261273d565b84526020840193506020830192505060018101905061265c565b5050509392505050565b60006126a66126a1846133cb565b61337a565b905080838252602082019050828560208602820111156126c557600080fd5b60005b858110156126f557816126db888261280f565b8452602084019350602083019250506001810190506126c8565b5050509392505050565b600061271261270d846133f7565b61337a565b90508281526020810184848401111561272a57600080fd5b61273584828561361e565b509392505050565b60008135905061274c81613c00565b92915050565b600082601f83011261276357600080fd5b8135612773848260208601612627565b91505092915050565b600082601f83011261278d57600080fd5b813561279d848260208601612693565b91505092915050565b6000813590506127b581613c17565b92915050565b6000813590506127ca81613c2e565b92915050565b6000815190506127df81613c2e565b92915050565b600082601f8301126127f657600080fd5b81356128068482602086016126ff565b91505092915050565b60008135905061281e81613c45565b92915050565b60006020828403121561283657600080fd5b60006128448482850161273d565b91505092915050565b6000806040838503121561286057600080fd5b600061286e8582860161273d565b925050602061287f8582860161273d565b9150509250929050565b600080600080600060a086880312156128a157600080fd5b60006128af8882890161273d565b95505060206128c08882890161273d565b945050604086013567ffffffffffffffff8111156128dd57600080fd5b6128e98882890161277c565b935050606086013567ffffffffffffffff81111561290657600080fd5b6129128882890161277c565b925050608086013567ffffffffffffffff81111561292f57600080fd5b61293b888289016127e5565b9150509295509295909350565b600080600080600060a0868803121561296057600080fd5b600061296e8882890161273d565b955050602061297f8882890161273d565b94505060406129908882890161280f565b93505060606129a18882890161280f565b925050608086013567ffffffffffffffff8111156129be57600080fd5b6129ca888289016127e5565b9150509295509295909350565b600080604083850312156129ea57600080fd5b60006129f88582860161273d565b9250506020612a09858286016127a6565b9150509250929050565b60008060408385031215612a2657600080fd5b6000612a348582860161273d565b9250506020612a458582860161280f565b9150509250929050565b600080600060608486031215612a6457600080fd5b6000612a728682870161273d565b9350506020612a838682870161280f565b9250506040612a948682870161280f565b9150509250925092565b60008060008060808587031215612ab457600080fd5b6000612ac28782880161273d565b9450506020612ad38782880161280f565b9350506040612ae48782880161280f565b925050606085013567ffffffffffffffff811115612b0157600080fd5b612b0d878288016127e5565b91505092959194509250565b60008060408385031215612b2c57600080fd5b600083013567ffffffffffffffff811115612b4657600080fd5b612b5285828601612752565b925050602083013567ffffffffffffffff811115612b6f57600080fd5b612b7b8582860161277c565b9150509250929050565b600060208284031215612b9757600080fd5b6000612ba5848285016127bb565b91505092915050565b600060208284031215612bc057600080fd5b6000612bce848285016127d0565b91505092915050565b600060208284031215612be957600080fd5b6000612bf78482850161280f565b91505092915050565b60008060408385031215612c1357600080fd5b6000612c218582860161280f565b9250506020612c328582860161280f565b9150509250929050565b6000612c488383612f60565b60208301905092915050565b612c5d816135aa565b82525050565b612c6c81613442565b612c768184613488565b9250612c8182613428565b8060005b83811015612cb2578151612c998782612c3c565b9650612ca48361346e565b925050600181019050612c85565b505050505050565b6000612cc58261344d565b612ccf8185613493565b9350612cda83613432565b8060005b83811015612d0b578151612cf28882612c3c565b9750612cfd8361347b565b925050600181019050612cde565b5085935050505092915050565b612d21816135bc565b82525050565b6000612d3282613458565b612d3c81856134a4565b9350612d4c81856020860161362d565b612d55816137bb565b840191505092915050565b6000612d6b82613463565b612d7581856134b5565b9350612d8581856020860161362d565b612d8e816137bb565b840191505092915050565b6000612da66034836134b5565b9150612db1826137d9565b604082019050919050565b6000612dc96028836134b5565b9150612dd482613828565b604082019050919050565b6000612dec602b836134b5565b9150612df782613877565b604082019050919050565b6000612e0f6029836134b5565b9150612e1a826138c6565b604082019050919050565b6000612e326016836134b5565b9150612e3d82613915565b602082019050919050565b6000612e556025836134b5565b9150612e608261393e565b604082019050919050565b6000612e786032836134b5565b9150612e838261398d565b604082019050919050565b6000612e9b602a836134b5565b9150612ea6826139dc565b604082019050919050565b6000612ebe6015836134b5565b9150612ec982613a2b565b602082019050919050565b6000612ee16014836134b5565b9150612eec82613a54565b602082019050919050565b6000612f046029836134b5565b9150612f0f82613a7d565b604082019050919050565b6000612f276029836134b5565b9150612f3282613acc565b604082019050919050565b6000612f4a6028836134b5565b9150612f5582613b1b565b604082019050919050565b612f6981613614565b82525050565b612f7881613614565b82525050565b6000602082019050612f936000830184612c54565b92915050565b600060a082019050612fae6000830188612c54565b612fbb6020830187612c54565b612fc86040830186612c54565b612fd56060830185612f6f565b612fe26080830184612f6f565b9695505050505050565b600060a0820190506130016000830188612c54565b61300e6020830187612c54565b81810360408301526130208186612cba565b905081810360608301526130348185612cba565b905081810360808301526130488184612d27565b90509695505050505050565b600060a0820190506130696000830188612c54565b6130766020830187612c54565b6130836040830186612f6f565b6130906060830185612f6f565b81810360808301526130a28184612d27565b90509695505050505050565b60006060820190506130c36000830186612c54565b6130d06020830185612f6f565b6130dd6040830184612f6f565b949350505050565b60006060820190506130fa6000830184612c63565b92915050565b6000602082019050818103600083015261311a8184612cba565b905092915050565b6000604082019050818103600083015261313c8185612cba565b905081810360208301526131508184612cba565b90509392505050565b600060208201905061316e6000830184612d18565b92915050565b6000602082019050818103600083015261318e8184612d60565b905092915050565b600060208201905081810360008301526131af81612d99565b9050919050565b600060208201905081810360008301526131cf81612dbc565b9050919050565b600060208201905081810360008301526131ef81612ddf565b9050919050565b6000602082019050818103600083015261320f81612e02565b9050919050565b6000602082019050818103600083015261322f81612e25565b9050919050565b6000602082019050818103600083015261324f81612e48565b9050919050565b6000602082019050818103600083015261326f81612e6b565b9050919050565b6000602082019050818103600083015261328f81612e8e565b9050919050565b600060208201905081810360008301526132af81612eb1565b9050919050565b600060208201905081810360008301526132cf81612ed4565b9050919050565b600060208201905081810360008301526132ef81612ef7565b9050919050565b6000602082019050818103600083015261330f81612f1a565b9050919050565b6000602082019050818103600083015261332f81612f3d565b9050919050565b600060208201905061334b6000830184612f6f565b92915050565b60006040820190506133666000830185612f6f565b6133736020830184612f6f565b9392505050565b6000613384613395565b90506133908282613692565b919050565b6000604051905090565b600067ffffffffffffffff8211156133ba576133b961376a565b5b602082029050602081019050919050565b600067ffffffffffffffff8211156133e6576133e561376a565b5b602082029050602081019050919050565b600067ffffffffffffffff8211156134125761341161376a565b5b61341b826137bb565b9050602081019050919050565b6000819050919050565b6000819050602082019050919050565b600060039050919050565b600081519050919050565b600081519050919050565b600081519050919050565b6000602082019050919050565b6000602082019050919050565b600081905092915050565b600082825260208201905092915050565b600082825260208201905092915050565b600082825260208201905092915050565b60006134d182613614565b91506134dc83613614565b9250827fffffffffffffffffffffffffffffffffffffffffffffffffffffffffffffffff038211156135115761351061370c565b5b828201905092915050565b600061352782613614565b915061353283613614565b9250817fffffffffffffffffffffffffffffffffffffffffffffffffffffffffffffffff048311821515161561356b5761356a61370c565b5b828202905092915050565b600061358182613614565b915061358c83613614565b92508282101561359f5761359e61370c565b5b828203905092915050565b60006135b5826135f4565b9050919050565b60008115159050919050565b60007fffffffff0000000000000000000000000000000000000000000000000000000082169050919050565b600073ffffffffffffffffffffffffffffffffffffffff82169050919050565b6000819050919050565b82818337600083830152505050565b60005b8381101561364b578082015181840152602081019050613630565b8381111561365a576000848401525b50505050565b6000600282049050600182168061367857607f821691505b6020821081141561368c5761368b61373b565b5b50919050565b61369b826137bb565b810181811067ffffffffffffffff821117156136ba576136b961376a565b5b80604052505050565b60006136ce82613614565b91507fffffffffffffffffffffffffffffffffffffffffffffffffffffffffffffffff8214156137015761370061370c565b5b600182019050919050565b7f4e487b7100000000000000000000000000000000000000000000000000000000600052601160045260246000fd5b7f4e487b7100000000000000000000000000000000000000000000000000000000600052602260045260246000fd5b7f4e487b7100000000000000000000000000000000000000000000000000000000600052604160045260246000fd5b600060033d11156137b85760046000803e6137b56000516137cc565b90505b90565b6000601f19601f8301169050919050565b60008160e01c9050919050565b7f455243313135353a207472616e7366657220746f206e6f6e204552433131353560008201527f526563656976657220696d706c656d656e746572000000000000000000000000602082015250565b7f455243313135353a204552433131353552656365697665722072656a6563746560008201527f6420746f6b656e73000000000000000000000000000000000000000000000000602082015250565b7f455243313135353a2062616c616e636520717565727920666f7220746865207a60008201527f65726f2061646472657373000000000000000000000000000000000000000000602082015250565b7f455243313135353a2063616c6c6572206973206e6f74206f776e6572206e6f7260008201527f20617070726f7665640000000000000000000000000000000000000000000000602082015250565b7f4e6f7420656e6f7567687420656c656374726f6e732e00000000000000000000600082015250565b7f455243313135353a207472616e7366657220746f20746865207a65726f20616460008201527f6472657373000000000000000000000000000000000000000000000000000000602082015250565b7f455243313135353a207472616e736665722063616c6c6572206973206e6f742060008201527f6f776e6572206e6f7220617070726f7665640000000000000000000000000000602082015250565b7f455243313135353a20696e73756666696369656e742062616c616e636520666f60008201527f72207472616e7366657200000000000000000000000000000000000000000000602082015250565b7f4e6f7420656e6f75676874206e657574726f6e732e0000000000000000000000600082015250565b7f4e6f7420656e6f756768742070726f746f6e732e000000000000000000000000600082015250565b7f455243313135353a2073657474696e6720617070726f76616c2073746174757360008201527f20666f722073656c660000000000000000000000000000000000000000000000602082015250565b7f455243313135353a206163636f756e747320616e6420696473206c656e67746860008201527f206d69736d617463680000000000000000000000000000000000000000000000602082015250565b7f455243313135353a2069647320616e6420616d6f756e7473206c656e6774682060008201527f6d69736d61746368000000000000000000000000000000000000000000000000602082015250565b600060443d1015613b7a57613bfd565b613b82613395565b60043d036004823e80513d602482011167ffffffffffffffff82111715613baa575050613bfd565b808201805167ffffffffffffffff811115613bc85750505050613bfd565b80602083010160043d038501811115613be5575050505050613bfd565b613bf482602001850186613692565b82955050505050505b90565b613c09816135aa565b8114613c1457600080fd5b50565b613c20816135bc565b8114613c2b57600080fd5b50565b613c37816135c8565b8114613c4257600080fd5b50565b613c4e81613614565b8114613c5957600080fd5b5056fea26469706673582212206a936b2358881262cf00be9fae8005d095b77bbcfc53aee0e45c76c0d905ad3b64736f6c6343000804003368747470733a2f2f73796e7468657369732e6578616d706c652f6170692f6974656d2f7b69647d2e6a736f6e",
  "linkReferences": {},
  "deployedLinkReferences": {}
}