{
  "_format": "hh-sol-artifact-1",
  "contractName": "Neutron",
  "sourceName": "contracts/particles/Neutron.sol",
  "abi": [
    {
      "inputs": [
        {
          "internalType": "uint256",
          "name": "initialSupply",
          "type": "uint256"
        }
      ],
      "stateMutability": "nonpayable",
      "type": "constructor"
    },
    {
      "anonymous": false,
      "inputs": [
        {
          "indexed": true,
          "internalType": "address",
          "name": "owner",
          "type": "address"
        },
        {
          "indexed": true,
          "internalType": "address",
          "name": "spender",
          "type": "address"
        },
        {
          "indexed": false,
          "internalType": "uint256",
          "name": "value",
          "type": "uint256"
        }
      ],
      "name": "Approval",
      "type": "event"
    },
    {
      "anonymous": false,
      "inputs": [
        {
          "indexed": true,
          "internalType": "address",
          "name": "from",
          "type": "address"
        },
        {
          "indexed": true,
          "internalType": "address",
          "name": "to",
          "type": "address"
        },
        {
          "indexed": false,
          "internalType": "uint256",
          "name": "value",
          "type": "uint256"
        }
      ],
      "name": "Transfer",
      "type": "event"
    },
    {
      "inputs": [
        {
          "internalType": "address",
          "name": "owner",
          "type": "address"
        },
        {
          "internalType": "address",
          "name": "spender",
          "type": "address"
        }
      ],
      "name": "allowance",
      "outputs": [
        {
          "internalType": "uint256",
          "name": "",
          "type": "uint256"
        }
      ],
      "stateMutability": "view",
      "type": "function"
    },
    {
      "inputs": [
        {
          "internalType": "address",
          "name": "spender",
          "type": "address"
        },
        {
          "internalType": "uint256",
          "name": "amount",
          "type": "uint256"
        }
      ],
      "name": "approve",
      "outputs": [
        {
          "internalType": "bool",
          "name": "",
          "type": "bool"
        }
      ],
      "stateMutability": "nonpayable",
      "type": "function"
    },
    {
      "inputs": [
        {
          "internalType": "address",
          "name": "account",
          "type": "address"
        }
      ],
      "name": "balanceOf",
      "outputs": [
        {
          "internalType": "uint256",
          "name": "",
          "type": "uint256"
        }
      ],
      "stateMutability": "view",
      "type": "function"
    },
    {
      "inputs": [],
      "name": "decimals",
      "outputs": [
        {
          "internalType": "uint8",
          "name": "",
          "type": "uint8"
        }
      ],
      "stateMutability": "view",
      "type": "function"
    },
    {
      "inputs": [
        {
          "internalType": "address",
          "name": "spender",
          "type": "address"
        },
        {
          "internalType": "uint256",
          "name": "subtractedValue",
          "type": "uint256"
        }
      ],
      "name": "decreaseAllowance",
      "outputs": [
        {
          "internalType": "bool",
          "name": "",
          "type": "bool"
        }
      ],
      "stateMutability": "nonpayable",
      "type": "function"
    },
    {
      "inputs": [],
      "name": "id",
      "outputs": [
        {
          "internalType": "uint256",
          "name": "",
          "type": "uint256"
        }
      ],
      "stateMutability": "view",
      "type": "function"
    },
    {
      "inputs": [
        {
          "internalType": "address",
          "name": "spender",
          "type": "address"
        },
        {
          "internalType": "uint256",
          "name": "addedValue",
          "type": "uint256"
        }
      ],
      "name": "increaseAllowance",
      "outputs": [
        {
          "internalType": "bool",
          "name": "",
          "type": "bool"
        }
      ],
      "stateMutability": "nonpayable",
      "type": "function"
    },
    {
      "inputs": [],
      "name": "name",
      "outputs": [
        {
          "internalType": "string",
          "name": "",
          "type": "string"
        }
      ],
      "stateMutability": "view",
      "type": "function"
    },
    {
      "inputs": [],
      "name": "symbol",
      "outputs": [
        {
          "internalType": "string",
          "name": "",
          "type": "string"
        }
      ],
      "stateMutability": "view",
      "type": "function"
    },
    {
      "inputs": [],
      "name": "totalSupply",
      "outputs": [
        {
          "internalType": "uint256",
          "name": "",
          "type": "uint256"
        }
      ],
      "stateMutability": "view",
      "type": "function"
    },
    {
      "inputs": [
        {
          "internalType": "address",
          "name": "to",
          "type": "address"
        },
        {
          "internalType": "uint256",
          "name": "amount",
          "type": "uint256"
        }
      ],
      "name": "transfer",
      "outputs": [
        {
          "internalType": "bool",
          "name": "",
          "type": "bool"
        }
      ],
      "stateMutability": "nonpayable",
      "type": "function"
    },
    {
      "inputs": [
        {
          "internalType": "address",
          "name": "from",
          "type": "address"
        },
        {
          "internalType": "address",
          "name": "to",
          "type": "address"
        },
        {
          "internalType": "uint256",
          "name": "amount",
          "type": "uint256"
        }
      ],
      "name": "transferFrom",
      "outputs": [
        {
          "internalType": "bool",
          "name": "",
          "type": "bool"
        }
      ],
      "stateMutability": "nonpayable",
      "type": "function"
    }
  ],
  "bytecode": "0x60806040523480156200001157600080fd5b506040516200236538038062002365833981810160405281019062000037919062000572565b6040518060400160405280600781526020017f4e657574726f6e000000000000000000000000000000000000000000000000008152506040518060400160405280600381526020017f4e4e4e00000000000000000000000000000000000000000000000000000000008152508160039080519060200190620000bb92919062000468565b508060049080519060200190620000d492919062000468565b505050620000e93382620000f060201b60201c565b5062000b36565b600073ffffffffffffffffffffffffffffffffffffffff168273ffffffffffffffffffffffffffffffffffffffff16141562000163576040517f08c379a00000000000000000000000000000000000000000000000000000000081526004016200015a906200071b565b60405180910390fd5b62000177600083836200026960201b60201c565b80600260008282546200018b919062000780565b92505081905550806000808473ffffffffffffffffffffffffffffffffffffffff1673ffffffffffffffffffffffffffffffffffffffff1681526020019081526020016000206000828254620001e2919062000780565b925050819055508173ffffffffffffffffffffffffffffffffffffffff16600073ffffffffffffffffffffffffffffffffffffffff167fddf252ad1be2c89b69c2b068fc378daa952ba7f163c4a11628f55a4df523b3ef836040516200024991906200073d565b60405180910390a362000265600083836200026e60201b60201c565b5050565b505050565b6200028383836002846200028860201b60201c565b505050565b620002b48373ffffffffffffffffffffffffffffffffffffffff166200044560201b620006b31760201c565b156200043f578273ffffffffffffffffffffffffffffffffffffffff16630915c9ce8584846040518463ffffffff1660e01b8152600401620002f99392919062000676565b602060405180830381600087803b1580156200031457600080fd5b505af19250505080156200034857506040513d601f19601f8201168201806040525081019062000345919062000546565b60015b620003fa576200035762000956565b806308c379a01415620003bb57506200036f62000a60565b806200037c5750620003bd565b806040517f08c379a0000000000000000000000000000000000000000000000000000000008152600401620003b29190620006b3565b60405180910390fd5b505b6040517f08c379a0000000000000000000000000000000000000000000000000000000008152600401620003f190620006d7565b60405180910390fd5b806200043d576040517f08c379a00000000000000000000000000000000000000000000000000000000081526004016200043490620006f9565b60405180910390fd5b505b50505050565b6000808273ffffffffffffffffffffffffffffffffffffffff163b119050919050565b82805462000476906200085d565b90600052602060002090601f0160209004810192826200049a5760008555620004e6565b82601f10620004b557805160ff1916838001178555620004e6565b82800160010185558215620004e6579182015b82811115620004e5578251825591602001919060010190620004c8565b5b509050620004f59190620004f9565b5090565b5b8082111562000514576000816000905550600101620004fa565b5090565b600081519050620005298162000b02565b92915050565b600081519050620005408162000b1c565b92915050565b6000602082840312156200055957600080fd5b6000620005698482850162000518565b91505092915050565b6000602082840312156200058557600080fd5b600062000595848285016200052f565b91505092915050565b620005a981620007dd565b82525050565b6000620005bc8262000764565b620005c881856200076f565b9350620005da81856020860162000827565b620005e5816200097b565b840191505092915050565b6000620005ff6031836200076f565b91506200060c8262000999565b604082019050919050565b6000620006266024836200076f565b91506200063382620009e8565b604082019050919050565b60006200064d601f836200076f565b91506200065a8262000a37565b602082019050919050565b62000670816200081d565b82525050565b60006060820190506200068d60008301866200059e565b6200069c602083018562000665565b620006ab604083018462000665565b949350505050565b60006020820190508181036000830152620006cf8184620005af565b905092915050565b60006020820190508181036000830152620006f281620005f0565b9050919050565b60006020820190508181036000830152620007148162000617565b9050919050565b6000602082019050818103600083015262000736816200063e565b9050919050565b600060208201905062000754600083018462000665565b92915050565b6000604051905090565b600081519050919050565b600082825260208201905092915050565b60006200078d826200081d565b91506200079a836200081d565b9250827fffffffffffffffffffffffffffffffffffffffffffffffffffffffffffffffff03821115620007d257620007d1620008c9565b5b828201905092915050565b6000620007ea82620007fd565b9050919050565b60008115159050919050565b600073ffffffffffffffffffffffffffffffffffffffff82169050919050565b6000819050919050565b60005b83811015620008475780820151818401526020810190506200082a565b8381111562000857576000848401525b50505050565b600060028204905060018216806200087657607f821691505b602082108114156200088d576200088c620008f8565b5b50919050565b6200089e826200097b565b810181811067ffffffffffffffff82111715620008c057620008bf62000927565b5b80604052505050565b7f4e487b7100000000000000000000000000000000000000000000000000000000600052601160045260246000fd5b7f4e487b7100000000000000000000000000000000000000000000000000000000600052602260045260246000fd5b7f4e487b7100000000000000000000000000000000000000000000000000000000600052604160045260246000fd5b600060033d1115620009785760046000803e620009756000516200098c565b90505b90565b6000601f19601f8301169050919050565b60008160e01c9050919050565b7f45524332303a207472616e7366657220746f206e6f6e2049455243323052656360008201527f656976657220696d706c656d656e746572000000000000000000000000000000602082015250565b7f45524332303a20455243323052656365697665722072656a656374656420746f60008201527f6b656e7300000000000000000000000000000000000000000000000000000000602082015250565b7f45524332303a206d696e7420746f20746865207a65726f206164647265737300600082015250565b600060443d101562000a725762000aff565b62000a7c6200075a565b60043d036004823e80513d602482011167ffffffffffffffff8211171562000aa657505062000aff565b808201805167ffffffffffffffff81111562000ac6575050505062000aff565b80602083010160043d03850181111562000ae557505050505062000aff565b62000af68260200185018662000893565b82955050505050505b90565b62000b0d81620007f1565b811462000b1957600080fd5b50565b62000b27816200081d565b811462000b3357600080fd5b50565b61181f8062000b466000396000f3fe608060405234801561001057600080fd5b50600436106100b45760003560e01c806370a082311161007157806370a08231146101a357806395d89b41146101d3578063a457c2d7146101f1578063a9059cbb14610221578063af640d0f14610251578063dd62ed3e1461026f576100b4565b806306fdde03146100b9578063095ea7b3146100d757806318160ddd1461010757806323b872dd14610125578063313ce567146101555780633950935114610173575b600080fd5b6100c161029f565b6040516100ce91906110c1565b60405180910390f35b6100f160048036038101906100ec9190610e5a565b610331565b6040516100fe91906110a6565b60405180910390f35b61010f610354565b60405161011c9190611203565b60405180910390f35b61013f600480360381019061013a9190610e0b565b61035e565b60405161014c91906110a6565b60405180910390f35b61015d61038d565b60405161016a919061121e565b60405180910390f35b61018d60048036038101906101889190610e5a565b610396565b60405161019a91906110a6565b60405180910390f35b6101bd60048036038101906101b89190610da6565b610440565b6040516101ca9190611203565b60405180910390f35b6101db610488565b6040516101e891906110c1565b60405180910390f35b61020b60048036038101906102069190610e5a565b61051a565b60405161021891906110a6565b60405180910390f35b61023b60048036038101906102369190610e5a565b610604565b60405161024891906110a6565b60405180910390f35b610259610627565b6040516102669190611203565b60405180910390f35b61028960048036038101906102849190610dcf565b61062c565b6040516102969190611203565b60405180910390f35b6060600380546102ae9061133d565b80601f01602080910402602001604051908101604052809291908181526020018280546102da9061133d565b80156103275780601f106102fc57610100808354040283529160200191610327565b820191906000526020600020905b81548152906001019060200180831161030a57829003601f168201915b5050505050905090565b60008061033c6106d6565b90506103498185856106de565b600191505092915050565b6000600254905090565b6000806103696106d6565b90506103768582856108a9565b610381858585610935565b60019150509392505050565b60006012905090565b6000806103a16106d6565b9050610435818585600160008673ffffffffffffffffffffffffffffffffffffffff1673ffffffffffffffffffffffffffffffffffffffff16815260200190815260200160002060008973ffffffffffffffffffffffffffffffffffffffff1673ffffffffffffffffffffffffffffffffffffffff16815260200190815260200160002054610430919061125f565b6106de565b600191505092915050565b60008060008373ffffffffffffffffffffffffffffffffffffffff1673ffffffffffffffffffffffffffffffffffffffff168152602001908152602001600020549050919050565b6060600480546104979061133d565b80601f01602080910402602001604051908101604052809291908181526020018280546104c39061133d565b80156105105780601f106104e557610100808354040283529160200191610510565b820191906000526020600020905b8154815290600101906020018083116104f357829003601f168201915b5050505050905090565b6000806105256106d6565b90506000600160008373ffffffffffffffffffffffffffffffffffffffff1673ffffffffffffffffffffffffffffffffffffffff16815260200190815260200160002060008673ffffffffffffffffffffffffffffffffffffffff1673ffffffffffffffffffffffffffffffffffffffff168152602001908152602001600020549050838110156105eb576040517f08c379a00000000000000000000000000000000000000000000000000000000081526004016105e2906111e3565b60405180910390fd5b6105f882868684036106de565b60019250505092915050565b60008061060f6106d6565b905061061c818585610935565b600191505092915050565b600281565b6000600160008473ffffffffffffffffffffffffffffffffffffffff1673ffffffffffffffffffffffffffffffffffffffff16815260200190815260200160002060008373ffffffffffffffffffffffffffffffffffffffff1673ffffffffffffffffffffffffffffffffffffffff16815260200190815260200160002054905092915050565b6000808273ffffffffffffffffffffffffffffffffffffffff163b119050919050565b600033905090565b600073ffffffffffffffffffffffffffffffffffffffff168373ffffffffffffffffffffffffffffffffffffffff16141561074e576040517f08c379a0000000000000000000000000000000000000000000000000000000008152600401610745906111c3565b60405180910390fd5b600073ffffffffffffffffffffffffffffffffffffffff168273ffffffffffffffffffffffffffffffffffffffff1614156107be576040517f08c379a00000000000000000000000000000000000000000000000000000000081526004016107b590611123565b60405180910390fd5b80600160008573ffffffffffffffffffffffffffffffffffffffff1673ffffffffffffffffffffffffffffffffffffffff16815260200190815260200160002060008473ffffffffffffffffffffffffffffffffffffffff1673ffffffffffffffffffffffffffffffffffffffff168152602001908152602001600020819055508173ffffffffffffffffffffffffffffffffffffffff168373ffffffffffffffffffffffffffffffffffffffff167f8c5be1e5ebec7d5bd14f71427d1e84f3dd0314c0f7b2291e5b200ac8c7c3b9258360405161089c9190611203565b60405180910390a3505050565b60006108b5848461062c565b90507fffffffffffffffffffffffffffffffffffffffffffffffffffffffffffffffff811461092f5781811015610921576040517f08c379a000000000000000000000000000000000000000000000000000000000815260040161091890611143565b60405180910390fd5b61092e84848484036106de565b5b50505050565b600073ffffffffffffffffffffffffffffffffffffffff168373ffffffffffffffffffffffffffffffffffffffff1614156109a5576040517f08c379a000000000000000000000000000000000000000000000000000000000815260040161099c906111a3565b60405180910390fd5b600073ffffffffffffffffffffffffffffffffffffffff168273ffffffffffffffffffffffffffffffffffffffff161415610a15576040517f08c379a0000000000000000000000000000000000000000000000000000000008152600401610a0c906110e3565b60405180910390fd5b610a20838383610bb6565b60008060008573ffffffffffffffffffffffffffffffffffffffff1673ffffffffffffffffffffffffffffffffffffffff16815260200190815260200160002054905081811015610aa6576040517f08c379a0000000000000000000000000000000000000000000000000000000008152600401610a9d90611163565b60405180910390fd5b8181036000808673ffffffffffffffffffffffffffffffffffffffff1673ffffffffffffffffffffffffffffffffffffffff16815260200190815260200160002081905550816000808573ffffffffffffffffffffffffffffffffffffffff1673ffffffffffffffffffffffffffffffffffffffff1681526020019081526020016000206000828254610b39919061125f565b925050819055508273ffffffffffffffffffffffffffffffffffffffff168473ffffffffffffffffffffffffffffffffffffffff167fddf252ad1be2c89b69c2b068fc378daa952ba7f163c4a11628f55a4df523b3ef84604051610b9d9190611203565b60405180910390a3610bb0848484610bbb565b50505050565b505050565b610bc88383600284610bcd565b505050565b610bec8373ffffffffffffffffffffffffffffffffffffffff166106b3565b15610d61578273ffffffffffffffffffffffffffffffffffffffff16630915c9ce8584846040518463ffffffff1660e01b8152600401610c2e9392919061106f565b602060405180830381600087803b158015610c4857600080fd5b505af1925050508015610c7957506040513d601f19601f82011682018060405250810190610c769190610e96565b60015b610d1f57610c8561142d565b806308c379a01415610ce25750610c9a61170e565b80610ca55750610ce4565b806040517f08c379a0000000000000000000000000000000000000000000000000000000008152600401610cd991906110c1565b60405180910390fd5b505b6040517f08c379a0000000000000000000000000000000000000000000000000000000008152600401610d1690611103565b60405180910390fd5b80610d5f576040517f08c379a0000000000000000000000000000000000000000000000000000000008152600401610d5690611183565b60405180910390fd5b505b50505050565b600081359050610d76816117a4565b92915050565b600081519050610d8b816117bb565b92915050565b600081359050610da0816117d2565b92915050565b600060208284031215610db857600080fd5b6000610dc684828501610d67565b91505092915050565b60008060408385031215610de257600080fd5b6000610df085828601610d67565b9250506020610e0185828601610d67565b9150509250929050565b600080600060608486031215610e2057600080fd5b6000610e2e86828701610d67565b9350506020610e3f86828701610d67565b9250506040610e5086828701610d91565b9150509250925092565b60008060408385031215610e6d57600080fd5b6000610e7b85828601610d67565b9250506020610e8c85828601610d91565b9150509250929050565b600060208284031215610ea857600080fd5b6000610eb684828501610d7c565b91505092915050565b610ec8816112b5565b82525050565b610ed7816112c7565b82525050565b6000610ee882611243565b610ef2818561124e565b9350610f0281856020860161130a565b610f0b8161144f565b840191505092915050565b6000610f2360238361124e565b9150610f2e8261146d565b604082019050919050565b6000610f4660318361124e565b9150610f51826114bc565b604082019050919050565b6000610f6960228361124e565b9150610f748261150b565b604082019050919050565b6000610f8c601d8361124e565b9150610f978261155a565b602082019050919050565b6000610faf60268361124e565b9150610fba82611583565b604082019050919050565b6000610fd260248361124e565b9150610fdd826115d2565b604082019050919050565b6000610ff560258361124e565b915061100082611621565b604082019050919050565b600061101860248361124e565b915061102382611670565b604082019050919050565b600061103b60258361124e565b9150611046826116bf565b604082019050919050565b61105a816112f3565b82525050565b611069816112fd565b82525050565b60006060820190506110846000830186610ebf565b6110916020830185611051565b61109e6040830184611051565b949350505050565b60006020820190506110bb6000830184610ece565b92915050565b600060208201905081810360008301526110db8184610edd565b905092915050565b600060208201905081810360008301526110fc81610f16565b9050919050565b6000602082019050818103600083015261111c81610f39565b9050919050565b6000602082019050818103600083015261113c81610f5c565b9050919050565b6000602082019050818103600083015261115c81610f7f565b9050919050565b6000602082019050818103600083015261117c81610fa2565b9050919050565b6000602082019050818103600083015261119c81610fc5565b9050919050565b600060208201905081810360008301526111bc81610fe8565b9050919050565b600060208201905081810360008301526111dc8161100b565b9050919050565b600060208201905081810360008301526111fc8161102e565b9050919050565b60006020820190506112186000830184611051565b92915050565b60006020820190506112336000830184611060565b92915050565b6000604051905090565b600081519050919050565b600082825260208201905092915050565b600061126a826112f3565b9150611275836112f3565b9250827fffffffffffffffffffffffffffffffffffffffffffffffffffffffffffffffff038211156112aa576112a96113a0565b5b828201905092915050565b60006112c0826112d3565b9050919050565b60008115159050919050565b600073ffffffffffffffffffffffffffffffffffffffff82169050919050565b6000819050919050565b600060ff82169050919050565b60005b8381101561132857808201518184015260208101905061130d565b83811115611337576000848401525b50505050565b6000600282049050600182168061135557607f821691505b60208210811415611369576113686113cf565b5b50919050565b6113788261144f565b810181811067ffffffffffffffff82111715611397576113966113fe565b5b80604052505050565b7f4e487b7100000000000000000000000000000000000000000000000000000000600052601160045260246000fd5b7f4e487b7100000000000000000000000000000000000000000000000000000000600052602260045260246000fd5b7f4e487b7100000000000000000000000000000000000000000000000000000000600052604160045260246000fd5b600060033d111561144c5760046000803e611449600051611460565b90505b90565b6000601f19601f8301169050919050565b60008160e01c9050919050565b7f45524332303a207472616e7366657220746f20746865207a65726f206164647260008201527f6573730000000000000000000000000000000000000000000000000000000000602082015250565b7f45524332303a207472616e7366657220746f206e6f6e2049455243323052656360008201527f656976657220696d706c656d656e746572000000000000000000000000000000602082015250565b7f45524332303a20617070726f766520746f20746865207a65726f20616464726560008201527f7373000000000000000000000000000000000000000000000000000000000000602082015250565b7f45524332303a20696e73756666696369656e7420616c6c6f77616e6365000000600082015250565b7f45524332303a207472616e7366657220616d6f756e742065786365656473206260008201527f616c616e63650000000000000000000000000000000000000000000000000000602082015250565b7f45524332303a20455243323052656365697665722072656a656374656420746f60008201527f6b656e7300000000000000000000000000000000000000000000000000000000602082015250565b7f45524332303a207472616e736665722066726f6d20746865207a65726f20616460008201527f6472657373000000000000000000000000000000000000000000000000000000602082015250565b7f45524332303a20617070726f76652066726f6d20746865207a65726f2061646460008201527f7265737300000000000000000000000000000000000000000000000000000000602082015250565b7f45524332303a2064656372656173656420616c6c6f77616e63652062656c6f7760008201527f207a65726f000000000000000000000000000000000000000000000000000000602082015250565b600060443d101561171e576117a1565b611726611239565b60043d036004823e80513d602482011167ffffffffffffffff8211171561174e5750506117a1565b808201805167ffffffffffffffff81111561176c57505050506117a1565b80602083010160043d0385018111156117895750505050506117a1565b6117988260200185018661136f565b82955050505050505b90565b6117ad816112b5565b81146117b857600080fd5b50565b6117c4816112c7565b81146117cf57600080fd5b50565b6117db816112f3565b81146117e657600080fd5b5056fea26469706673582212205a54bdeab0a2857bb0090a4b3e511e78f0c4300cc23f0eb40b50ca142fa3683d64736f6c63430008040033",
  "linkReferences": {},
  "deployedLinkReferences": {}
}