{
  "_format": "hh-sol-artifact-1",
  "contractName": "Particle",
  "sourceName": "contracts/Particle.sol",
  "abi": [
    {
      "inputs": [
        {
          "internalType": "uint256",
          "name": "initialSupply",
          "type": "uint256"
        },
        {
          "internalType": "string",
          "name": "symbol",
          "type": "string"
        },
        {
          "internalType": "string",
          "name": "name",
          "type": "string"
        },
        {
          "internalType": "uint256",
          "name": "id",
          "type": "uint256"
        }
      ],
      "stateMutability": "nonpayable",
      "type": "constructor"
    },
    {
      "anonymous": false,
      "inputs": [
        {
          "indexed": true,
          "internalType": "address",
          "name": "owner",
          "type": "address"
        },
        {
          "indexed": true,
          "internalType": "address",
          "name": "spender",
          "type": "address"
        },
        {
          "indexed": false,
          "internalType": "uint256",
          "name": "value",
          "type": "uint256"
        }
      ],
      "name": "Approval",
      "type": "event"
    },
    {
      "anonymous": false,
      "inputs": [
        {
          "indexed": true,
          "internalType": "address",
          "name": "from",
          "type": "address"
        },
        {
          "indexed": true,
          "internalType": "address",
          "name": "to",
          "type": "address"
        },
        {
          "indexed": false,
          "internalType": "uint256",
          "name": "value",
          "type": "uint256"
        }
      ],
      "name": "Transfer",
      "type": "event"
    },
    {
      "inputs": [],
      "name": "_id",
      "outputs": [
        {
          "internalType": "uint256",
          "name": "",
          "type": "uint256"
        }
      ],
      "stateMutability": "view",
      "type": "function"
    },
    {
      "inputs": [
        {
          "internalType": "address",
          "name": "owner",
          "type": "address"
        },
        {
          "internalType": "address",
          "name": "spender",
          "type": "address"
        }
      ],
      "name": "allowance",
      "outputs": [
        {
          "internalType": "uint256",
          "name": "",
          "type": "uint256"
        }
      ],
      "stateMutability": "view",
      "type": "function"
    },
    {
      "inputs": [
        {
          "internalType": "address",
          "name": "spender",
          "type": "address"
        },
        {
          "internalType": "uint256",
          "name": "amount",
          "type": "uint256"
        }
      ],
      "name": "approve",
      "outputs": [
        {
          "internalType": "bool",
          "name": "",
          "type": "bool"
        }
      ],
      "stateMutability": "nonpayable",
      "type": "function"
    },
    {
      "inputs": [
        {
          "internalType": "address",
          "name": "account",
          "type": "address"
        }
      ],
      "name": "balanceOf",
      "outputs": [
        {
          "internalType": "uint256",
          "name": "",
          "type": "uint256"
        }
      ],
      "stateMutability": "view",
      "type": "function"
    },
    {
      "inputs": [],
      "name": "decimals",
      "outputs": [
        {
          "internalType": "uint8",
          "name": "",
          "type": "uint8"
        }
      ],
      "stateMutability": "view",
      "type": "function"
    },
    {
      "inputs": [
        {
          "internalType": "address",
          "name": "spender",
          "type": "address"
        },
        {
          "internalType": "uint256",
          "name": "subtractedValue",
          "type": "uint256"
        }
      ],
      "name": "decreaseAllowance",
      "outputs": [
        {
          "internalType": "bool",
          "name": "",
          "type": "bool"
        }
      ],
      "stateMutability": "nonpayable",
      "type": "function"
    },
    {
      "inputs": [
        {
          "internalType": "address",
          "name": "spender",
          "type": "address"
        },
        {
          "internalType": "uint256",
          "name": "addedValue",
          "type": "uint256"
        }
      ],
      "name": "increaseAllowance",
      "outputs": [
        {
          "internalType": "bool",
          "name": "",
          "type": "bool"
        }
      ],
      "stateMutability": "nonpayable",
      "type": "function"
    },
    {
      "inputs": [],
      "name": "name",
      "outputs": [
        {
          "internalType": "string",
          "name": "",
          "type": "string"
        }
      ],
      "stateMutability": "view",
      "type": "function"
    },
    {
      "inputs": [],
      "name": "symbol",
      "outputs": [
        {
          "internalType": "string",
          "name": "",
          "type": "string"
        }
      ],
      "stateMutability": "view",
      "type": "function"
    },
    {
      "inputs": [],
      "name": "totalSupply",
      "outputs": [
        {
          "internalType": "uint256",
          "name": "",
          "type": "uint256"
        }
      ],
      "stateMutability": "view",
      "type": "function"
    },
    {
      "inputs": [
        {
          "internalType": "address",
          "name": "to",
          "type": "address"
        },
        {
          "internalType": "uint256",
          "name": "amount",
          "type": "uint256"
        }
      ],
      "name": "transfer",
      "outputs": [
        {
          "internalType": "bool",
          "name": "",
          "type": "bool"
        }
      ],
      "stateMutability": "nonpayable",
      "type": "function"
    },
    {
      "inputs": [
        {
          "internalType": "address",
          "name": "from",
          "type": "address"
        },
        {
          "internalType": "address",
          "name": "to",
          "type": "address"
        },
        {
          "internalType": "uint256",
          "name": "amount",
          "type": "uint256"
        }
      ],
      "name": "transferFrom",
      "outputs": [
        {
          "internalType": "bool",
          "name": "",
          "type": "bool"
        }
      ],
      "stateMutability": "nonpayable",
      "type": "function"
    }
  ],
  "bytecode": "0x60806040523480156200001157600080fd5b506040516200244538038062002445833981810160405281019062000037919062000587565b81838160039080519060200190620000519291906200040b565b5080600490805190602001906200006a9291906200040b565b505050806005819055506200008633856200009060201b60201c565b5050505062000c12565b600073ffffffffffffffffffffffffffffffffffffffff168273ffffffffffffffffffffffffffffffffffffffff16141562000103576040517f08c379a0000000000000000000000000000000000000000000000000000000008152600401620000fa90620007a2565b60405180910390fd5b62000117600083836200020960201b60201c565b80600260008282546200012b91906200085c565b92505081905550806000808473ffffffffffffffffffffffffffffffffffffffff1673ffffffffffffffffffffffffffffffffffffffff16815260200190815260200160002060008282546200018291906200085c565b925050819055508173ffffffffffffffffffffffffffffffffffffffff16600073ffffffffffffffffffffffffffffffffffffffff167fddf252ad1be2c89b69c2b068fc378daa952ba7f163c4a11628f55a4df523b3ef83604051620001e99190620007c4565b60405180910390a362000205600083836200020e60201b60201c565b5050565b505050565b620002248383600554846200022960201b60201c565b505050565b620002558373ffffffffffffffffffffffffffffffffffffffff16620003e860201b620006b41760201c565b15620003e2578273ffffffffffffffffffffffffffffffffffffffff16630915c9ce85600554846040518463ffffffff1660e01b81526004016200029c93929190620006fd565b602060405180830381600087803b158015620002b757600080fd5b505af1925050508015620002eb57506040513d601f19601f82011682018060405250810190620002e891906200055b565b60015b6200039d57620002fa62000a32565b806308c379a014156200035e57506200031262000b3c565b806200031f575062000360565b806040517f08c379a00000000000000000000000000000000000000000000000000000000081526004016200035591906200073a565b60405180910390fd5b505b6040517f08c379a000000000000000000000000000000000000000000000000000000000815260040162000394906200075e565b60405180910390fd5b80620003e0576040517f08c379a0000000000000000000000000000000000000000000000000000000008152600401620003d79062000780565b60405180910390fd5b505b50505050565b6000808273ffffffffffffffffffffffffffffffffffffffff163b119050919050565b828054620004199062000939565b90600052602060002090601f0160209004810192826200043d576000855562000489565b82601f106200045857805160ff191683800117855562000489565b8280016001018555821562000489579182015b82811115620004885782518255916020019190600101906200046b565b5b5090506200049891906200049c565b5090565b5b80821115620004b75760008160009055506001016200049d565b5090565b6000620004d2620004cc846200080a565b620007e1565b905082815260208101848484011115620004eb57600080fd5b620004f884828562000903565b509392505050565b600081519050620005118162000bde565b92915050565b600082601f8301126200052957600080fd5b81516200053b848260208601620004bb565b91505092915050565b600081519050620005558162000bf8565b92915050565b6000602082840312156200056e57600080fd5b60006200057e8482850162000500565b91505092915050565b600080600080608085870312156200059e57600080fd5b6000620005ae8782880162000544565b945050602085015167ffffffffffffffff811115620005cc57600080fd5b620005da8782880162000517565b935050604085015167ffffffffffffffff811115620005f857600080fd5b620006068782880162000517565b9250506060620006198782880162000544565b91505092959194509250565b6200063081620008b9565b82525050565b6000620006438262000840565b6200064f81856200084b565b93506200066181856020860162000903565b6200066c8162000a57565b840191505092915050565b6000620006866031836200084b565b9150620006938262000a75565b604082019050919050565b6000620006ad6024836200084b565b9150620006ba8262000ac4565b604082019050919050565b6000620006d4601f836200084b565b9150620006e18262000b13565b602082019050919050565b620006f781620008f9565b82525050565b600060608201905062000714600083018662000625565b620007236020830185620006ec565b620007326040830184620006ec565b949350505050565b6000602082019050818103600083015262000756818462000636565b905092915050565b60006020820190508181036000830152620007798162000677565b9050919050565b600060208201905081810360008301526200079b816200069e565b9050919050565b60006020820190508181036000830152620007bd81620006c5565b9050919050565b6000602082019050620007db6000830184620006ec565b92915050565b6000620007ed62000800565b9050620007fb82826200096f565b919050565b6000604051905090565b600067ffffffffffffffff82111562000828576200082762000a03565b5b620008338262000a57565b9050602081019050919050565b600081519050919050565b600082825260208201905092915050565b60006200086982620008f9565b91506200087683620008f9565b9250827fffffffffffffffffffffffffffffffffffffffffffffffffffffffffffffffff03821115620008ae57620008ad620009a5565b5b828201905092915050565b6000620008c682620008d9565b9050919050565b60008115159050919050565b600073ffffffffffffffffffffffffffffffffffffffff82169050919050565b6000819050919050565b60005b838110156200092357808201518184015260208101905062000906565b8381111562000933576000848401525b50505050565b600060028204905060018216806200095257607f821691505b60208210811415620009695762000968620009d4565b5b50919050565b6200097a8262000a57565b810181811067ffffffffffffffff821117156200099c576200099b62000a03565b5b80604052505050565b7f4e487b7100000000000000000000000000000000000000000000000000000000600052601160045260246000fd5b7f4e487b7100000000000000000000000000000000000000000000000000000000600052602260045260246000fd5b7f4e487b7100000000000000000000000000000000000000000000000000000000600052604160045260246000fd5b600060033d111562000a545760046000803e62000a5160005162000a68565b90505b90565b6000601f19601f8301169050919050565b60008160e01c9050919050565b7f45524332303a207472616e7366657220746f206e6f6e2049455243323052656360008201527f656976657220696d706c656d656e746572000000000000000000000000000000602082015250565b7f45524332303a20455243323052656365697665722072656a656374656420746f60008201527f6b656e7300000000000000000000000000000000000000000000000000000000602082015250565b7f45524332303a206d696e7420746f20746865207a65726f206164647265737300600082015250565b600060443d101562000b4e5762000bdb565b62000b5862000800565b60043d036004823e80513d602482011167ffffffffffffffff8211171562000b8257505062000bdb565b808201805167ffffffffffffffff81111562000ba2575050505062000bdb565b80602083010160043d03850181111562000bc157505050505062000bdb565b62000bd2826020018501866200096f565b82955050505050505b90565b62000be981620008cd565b811462000bf557600080fd5b50565b62000c0381620008f9565b811462000c0f57600080fd5b50565b6118238062000c226000396000f3fe608060405234801561001057600080fd5b50600436106100b45760003560e01c80633950935111610071578063395093511461019157806370a08231146101c157806395d89b41146101f1578063a457c2d71461020f578063a9059cbb1461023f578063dd62ed3e1461026f576100b4565b806305180237146100b957806306fdde03146100d7578063095ea7b3146100f557806318160ddd1461012557806323b872dd14610143578063313ce56714610173575b600080fd5b6100c161029f565b6040516100ce9190611207565b60405180910390f35b6100df6102a5565b6040516100ec91906110c5565b60405180910390f35b61010f600480360381019061010a9190610e5e565b610337565b60405161011c91906110aa565b60405180910390f35b61012d61035a565b60405161013a9190611207565b60405180910390f35b61015d60048036038101906101589190610e0f565b610364565b60405161016a91906110aa565b60405180910390f35b61017b610393565b6040516101889190611222565b60405180910390f35b6101ab60048036038101906101a69190610e5e565b61039c565b6040516101b891906110aa565b60405180910390f35b6101db60048036038101906101d69190610daa565b610446565b6040516101e89190611207565b60405180910390f35b6101f961048e565b60405161020691906110c5565b60405180910390f35b61022960048036038101906102249190610e5e565b610520565b60405161023691906110aa565b60405180910390f35b61025960048036038101906102549190610e5e565b61060a565b60405161026691906110aa565b60405180910390f35b61028960048036038101906102849190610dd3565b61062d565b6040516102969190611207565b60405180910390f35b60055481565b6060600380546102b490611341565b80601f01602080910402602001604051908101604052809291908181526020018280546102e090611341565b801561032d5780601f106103025761010080835404028352916020019161032d565b820191906000526020600020905b81548152906001019060200180831161031057829003601f168201915b5050505050905090565b6000806103426106d7565b905061034f8185856106df565b600191505092915050565b6000600254905090565b60008061036f6106d7565b905061037c8582856108aa565b610387858585610936565b60019150509392505050565b60006012905090565b6000806103a76106d7565b905061043b818585600160008673ffffffffffffffffffffffffffffffffffffffff1673ffffffffffffffffffffffffffffffffffffffff16815260200190815260200160002060008973ffffffffffffffffffffffffffffffffffffffff1673ffffffffffffffffffffffffffffffffffffffff168152602001908152602001600020546104369190611263565b6106df565b600191505092915050565b60008060008373ffffffffffffffffffffffffffffffffffffffff1673ffffffffffffffffffffffffffffffffffffffff168152602001908152602001600020549050919050565b60606004805461049d90611341565b80601f01602080910402602001604051908101604052809291908181526020018280546104c990611341565b80156105165780601f106104eb57610100808354040283529160200191610516565b820191906000526020600020905b8154815290600101906020018083116104f957829003601f168201915b5050505050905090565b60008061052b6106d7565b90506000600160008373ffffffffffffffffffffffffffffffffffffffff1673ffffffffffffffffffffffffffffffffffffffff16815260200190815260200160002060008673ffffffffffffffffffffffffffffffffffffffff1673ffffffffffffffffffffffffffffffffffffffff168152602001908152602001600020549050838110156105f1576040517f08c379a00000000000000000000000000000000000000000000000000000000081526004016105e8906111e7565b60405180910390fd5b6105fe82868684036106df565b60019250505092915050565b6000806106156106d7565b9050610622818585610936565b600191505092915050565b6000600160008473ffffffffffffffffffffffffffffffffffffffff1673ffffffffffffffffffffffffffffffffffffffff16815260200190815260200160002060008373ffffffffffffffffffffffffffffffffffffffff1673ffffffffffffffffffffffffffffffffffffffff16815260200190815260200160002054905092915050565b6000808273ffffffffffffffffffffffffffffffffffffffff163b119050919050565b600033905090565b600073ffffffffffffffffffffffffffffffffffffffff168373ffffffffffffffffffffffffffffffffffffffff16141561074f576040517f08c379a0000000000000000000000000000000000000000000000000000000008152600401610746906111c7565b60405180910390fd5b600073ffffffffffffffffffffffffffffffffffffffff168273ffffffffffffffffffffffffffffffffffffffff1614156107bf576040517f08c379a00000000000000000000000000000000000000000000000000000000081526004016107b690611127565b60405180910390fd5b80600160008573ffffffffffffffffffffffffffffffffffffffff1673ffffffffffffffffffffffffffffffffffffffff16815260200190815260200160002060008473ffffffffffffffffffffffffffffffffffffffff1673ffffffffffffffffffffffffffffffffffffffff168152602001908152602001600020819055508173ffffffffffffffffffffffffffffffffffffffff168373ffffffffffffffffffffffffffffffffffffffff167f8c5be1e5ebec7d5bd14f71427d1e84f3dd0314c0f7b2291e5b200ac8c7c3b9258360405161089d9190611207565b60405180910390a3505050565b60006108b6848461062d565b90507fffffffffffffffffffffffffffffffffffffffffffffffffffffffffffffffff81146109305781811015610922576040517f08c379a000000000000000000000000000000000000000000000000000000000815260040161091990611147565b60405180910390fd5b61092f84848484036106df565b5b50505050565b600073ffffffffffffffffffffffffffffffffffffffff168373ffffffffffffffffffffffffffffffffffffffff1614156109a6576040517f08c379a000000000000000000000000000000000000000000000000000000000815260040161099d906111a7565b60405180910390fd5b600073ffffffffffffffffffffffffffffffffffffffff168273ffffffffffffffffffffffffffffffffffffffff161415610a16576040517f08c379a0000000000000000000000000000000000000000000000000000000008152600401610a0d906110e7565b60405180910390fd5b610a21838383610bb7565b60008060008573ffffffffffffffffffffffffffffffffffffffff1673ffffffffffffffffffffffffffffffffffffffff16815260200190815260200160002054905081811015610aa7576040517f08c379a0000000000000000000000000000000000000000000000000000000008152600401610a9e90611167565b60405180910390fd5b8181036000808673ffffffffffffffffffffffffffffffffffffffff1673ffffffffffffffffffffffffffffffffffffffff16815260200190815260200160002081905550816000808573ffffffffffffffffffffffffffffffffffffffff1673ffffffffffffffffffffffffffffffffffffffff1681526020019081526020016000206000828254610b3a9190611263565b925050819055508273ffffffffffffffffffffffffffffffffffffffff168473ffffffffffffffffffffffffffffffffffffffff167fddf252ad1be2c89b69c2b068fc378daa952ba7f163c4a11628f55a4df523b3ef84604051610b9e9190611207565b60405180910390a3610bb1848484610bbc565b50505050565b505050565b610bca838360055484610bcf565b505050565b610bee8373ffffffffffffffffffffffffffffffffffffffff166106b4565b15610d65578273ffffffffffffffffffffffffffffffffffffffff16630915c9ce85600554846040518463ffffffff1660e01b8152600401610c3293929190611073565b602060405180830381600087803b158015610c4c57600080fd5b505af1925050508015610c7d57506040513d601f19601f82011682018060405250810190610c7a9190610e9a565b60015b610d2357610c89611431565b806308c379a01415610ce65750610c9e611712565b80610ca95750610ce8565b806040517f08c379a0000000000000000000000000000000000000000000000000000000008152600401610cdd91906110c5565b60405180910390fd5b505b6040517f08c379a0000000000000000000000000000000000000000000000000000000008152600401610d1a90611107565b60405180910390fd5b80610d63576040517f08c379a0000000000000000000000000000000000000000000000000000000008152600401610d5a90611187565b60405180910390fd5b505b50505050565b600081359050610d7a816117a8565b92915050565b600081519050610d8f816117bf565b92915050565b600081359050610da4816117d6565b92915050565b600060208284031215610dbc57600080fd5b6000610dca84828501610d6b565b91505092915050565b60008060408385031215610de657600080fd5b6000610df485828601610d6b565b9250506020610e0585828601610d6b565b9150509250929050565b600080600060608486031215610e2457600080fd5b6000610e3286828701610d6b565b9350506020610e4386828701610d6b565b9250506040610e5486828701610d95565b9150509250925092565b60008060408385031215610e7157600080fd5b6000610e7f85828601610d6b565b9250506020610e9085828601610d95565b9150509250929050565b600060208284031215610eac57600080fd5b6000610eba84828501610d80565b91505092915050565b610ecc816112b9565b82525050565b610edb816112cb565b82525050565b6000610eec82611247565b610ef68185611252565b9350610f0681856020860161130e565b610f0f81611453565b840191505092915050565b6000610f27602383611252565b9150610f3282611471565b604082019050919050565b6000610f4a603183611252565b9150610f55826114c0565b604082019050919050565b6000610f6d602283611252565b9150610f788261150f565b604082019050919050565b6000610f90601d83611252565b9150610f9b8261155e565b602082019050919050565b6000610fb3602683611252565b9150610fbe82611587565b604082019050919050565b6000610fd6602483611252565b9150610fe1826115d6565b604082019050919050565b6000610ff9602583611252565b915061100482611625565b604082019050919050565b600061101c602483611252565b915061102782611674565b604082019050919050565b600061103f602583611252565b915061104a826116c3565b604082019050919050565b61105e816112f7565b82525050565b61106d81611301565b82525050565b60006060820190506110886000830186610ec3565b6110956020830185611055565b6110a26040830184611055565b949350505050565b60006020820190506110bf6000830184610ed2565b92915050565b600060208201905081810360008301526110df8184610ee1565b905092915050565b6000602082019050818103600083015261110081610f1a565b9050919050565b6000602082019050818103600083015261112081610f3d565b9050919050565b6000602082019050818103600083015261114081610f60565b9050919050565b6000602082019050818103600083015261116081610f83565b9050919050565b6000602082019050818103600083015261118081610fa6565b9050919050565b600060208201905081810360008301526111a081610fc9565b9050919050565b600060208201905081810360008301526111c081610fec565b9050919050565b600060208201905081810360008301526111e08161100f565b9050919050565b6000602082019050818103600083015261120081611032565b9050919050565b600060208201905061121c6000830184611055565b92915050565b60006020820190506112376000830184611064565b92915050565b6000604051905090565b600081519050919050565b600082825260208201905092915050565b600061126e826112f7565b9150611279836112f7565b9250827fffffffffffffffffffffffffffffffffffffffffffffffffffffffffffffffff038211156112ae576112ad6113a4565b5b828201905092915050565b60006112c4826112d7565b9050919050565b60008115159050919050565b600073ffffffffffffffffffffffffffffffffffffffff82169050919050565b6000819050919050565b600060ff82169050919050565b60005b8381101561132c578082015181840152602081019050611311565b8381111561133b576000848401525b50505050565b6000600282049050600182168061135957607f821691505b6020821081141561136d5761136c6113d3565b5b50919050565b61137c82611453565b810181811067ffffffffffffffff8211171561139b5761139a611402565b5b80604052505050565b7f4e487b7100000000000000000000000000000000000000000000000000000000600052601160045260246000fd5b7f4e487b7100000000000000000000000000000000000000000000000000000000600052602260045260246000fd5b7f4e487b7100000000000000000000000000000000000000000000000000000000600052604160045260246000fd5b600060033d11156114505760046000803e61144d600051611464565b90505b90565b6000601f19601f8301169050919050565b60008160e01c9050919050565b7f45524332303a207472616e7366657220746f20746865207a65726f206164647260008201527f6573730000000000000000000000000000000000000000000000000000000000602082015250565b7f45524332303a207472616e7366657220746f206e6f6e2049455243323052656360008201527f656976657220696d706c656d656e746572000000000000000000000000000000602082015250565b7f45524332303a20617070726f766520746f20746865207a65726f20616464726560008201527f7373000000000000000000000000000000000000000000000000000000000000602082015250565b7f45524332303a20696e73756666696369656e7420616c6c6f77616e6365000000600082015250565b7f45524332303a207472616e7366657220616d6f756e742065786365656473206260008201527f616c616e63650000000000000000000000000000000000000000000000000000602082015250565b7f45524332303a20455243323052656365697665722072656a656374656420746f60008201527f6b656e7300000000000000000000000000000000000000000000000000000000602082015250565b7f45524332303a207472616e736665722066726f6d20746865207a65726f20616460008201527f6472657373000000000000000000000000000000000000000000000000000000602082015250565b7f45524332303a20617070726f76652066726f6d20746865207a65726f2061646460008201527f7265737300000000000000000000000000000000000000000000000000000000602082015250565b7f45524332303a2064656372656173656420616c6c6f77616e63652062656c6f7760008201527f207a65726f000000000000000000000000000000000000000000000000000000602082015250565b600060443d1015611722576117a5565b61172a61123d565b60043d036004823e80513d602482011167ffffffffffffffff821117156117525750506117a5565b808201805167ffffffffffffffff81111561177057505050506117a5565b80602083010160043d03850181111561178d5750505050506117a5565b61179c82602001850186611373565b82955050505050505b90565b6117b1816112b9565b81146117bc57600080fd5b50565b6117c8816112cb565b81146117d357600080fd5b50565b6117df816112f7565b81146117ea57600080fd5b5056fea2646970667358221220207f0a96dcfa322455fe7b5fdfc72872230fa496bf2cadb1c63617b6fa0f529f64736f6c63430008040033",
  "linkReferences": {},
  "deployedLinkReferences": {}
}