{
  "_format": "hh-sol-artifact-1",
  "contractName": "Particle",
  "sourceName": "contracts/Particle.sol",
  "abi": [
    {
      "inputs": [],
      "stateMutability": "nonpayable",
      "type": "constructor"
    },
    {
      "anonymous": false,
      "inputs": [
        {
          "indexed": true,
          "internalType": "address",
          "name": "account",
          "type": "address"
        },
        {
          "indexed": true,
          "internalType": "address",
          "name": "operator",
          "type": "address"
        },
        {
          "indexed": false,
          "internalType": "bool",
          "name": "approved",
          "type": "bool"
        }
      ],
      "name": "ApprovalForAll",
      "type": "event"
    },
    {
      "anonymous": false,
      "inputs": [
        {
          "indexed": true,
          "internalType": "address",
          "name": "operator",
          "type": "address"
        },
        {
          "indexed": true,
          "internalType": "address",
          "name": "from",
          "type": "address"
        },
        {
          "indexed": true,
          "internalType": "address",
          "name": "to",
          "type": "address"
        },
        {
          "indexed": false,
          "internalType": "uint256[]",
          "name": "ids",
          "type": "uint256[]"
        },
        {
          "indexed": false,
          "internalType": "uint256[]",
          "name": "values",
          "type": "uint256[]"
        }
      ],
      "name": "TransferBatch",
      "type": "event"
    },
    {
      "anonymous": false,
      "inputs": [
        {
          "indexed": true,
          "internalType": "address",
          "name": "operator",
          "type": "address"
        },
        {
          "indexed": true,
          "internalType": "address",
          "name": "from",
          "type": "address"
        },
        {
          "indexed": true,
          "internalType": "address",
          "name": "to",
          "type": "address"
        },
        {
          "indexed": false,
          "internalType": "uint256",
          "name": "id",
          "type": "uint256"
        },
        {
          "indexed": false,
          "internalType": "uint256",
          "name": "value",
          "type": "uint256"
        }
      ],
      "name": "TransferSingle",
      "type": "event"
    },
    {
      "anonymous": false,
      "inputs": [
        {
          "indexed": false,
          "internalType": "string",
          "name": "value",
          "type": "string"
        },
        {
          "indexed": true,
          "internalType": "uint256",
          "name": "id",
          "type": "uint256"
        }
      ],
      "name": "URI",
      "type": "event"
    },
    {
      "inputs": [],
      "name": "ELECTRON",
      "outputs": [
        {
          "internalType": "uint256",
          "name": "",
          "type": "uint256"
        }
      ],
      "stateMutability": "view",
      "type": "function"
    },
    {
      "inputs": [],
      "name": "NEUTRON",
      "outputs": [
        {
          "internalType": "uint256",
          "name": "",
          "type": "uint256"
        }
      ],
      "stateMutability": "view",
      "type": "function"
    },
    {
      "inputs": [],
      "name": "PROTON",
      "outputs": [
        {
          "internalType": "uint256",
          "name": "",
          "type": "uint256"
        }
      ],
      "stateMutability": "view",
      "type": "function"
    },
    {
      "inputs": [
        {
          "internalType": "address",
          "name": "account",
          "type": "address"
        },
        {
          "internalType": "uint256",
          "name": "id",
          "type": "uint256"
        }
      ],
      "name": "balanceOf",
      "outputs": [
        {
          "internalType": "uint256",
          "name": "",
          "type": "uint256"
        }
      ],
      "stateMutability": "view",
      "type": "function"
    },
    {
      "inputs": [
        {
          "internalType": "address[]",
          "name": "accounts",
          "type": "address[]"
        },
        {
          "internalType": "uint256[]",
          "name": "ids",
          "type": "uint256[]"
        }
      ],
      "name": "balanceOfBatch",
      "outputs": [
        {
          "internalType": "uint256[]",
          "name": "",
          "type": "uint256[]"
        }
      ],
      "stateMutability": "view",
      "type": "function"
    },
    {
      "inputs": [
        {
          "internalType": "address",
          "name": "account",
          "type": "address"
        },
        {
          "internalType": "address",
          "name": "operator",
          "type": "address"
        }
      ],
      "name": "isApprovedForAll",
      "outputs": [
        {
          "internalType": "bool",
          "name": "",
          "type": "bool"
        }
      ],
      "stateMutability": "view",
      "type": "function"
    },
    {
      "inputs": [
        {
          "internalType": "address",
          "name": "from",
          "type": "address"
        },
        {
          "internalType": "address",
          "name": "to",
          "type": "address"
        },
        {
          "internalType": "uint256[]",
          "name": "ids",
          "type": "uint256[]"
        },
        {
          "internalType": "uint256[]",
          "name": "amounts",
          "type": "uint256[]"
        },
        {
          "internalType": "bytes",
          "name": "data",
          "type": "bytes"
        }
      ],
      "name": "safeBatchTransferFrom",
      "outputs": [],
      "stateMutability": "nonpayable",
      "type": "function"
    },
    {
      "inputs": [
        {
          "internalType": "address",
          "name": "from",
          "type": "address"
        },
        {
          "internalType": "address",
          "name": "to",
          "type": "address"
        },
        {
          "internalType": "uint256",
          "name": "id",
          "type": "uint256"
        },
        {
          "internalType": "uint256",
          "name": "amount",
          "type": "uint256"
        },
        {
          "internalType": "bytes",
          "name": "data",
          "type": "bytes"
        }
      ],
      "name": "safeTransferFrom",
      "outputs": [],
      "stateMutability": "nonpayable",
      "type": "function"
    },
    {
      "inputs": [
        {
          "internalType": "address",
          "name": "operator",
          "type": "address"
        },
        {
          "internalType": "bool",
          "name": "approved",
          "type": "bool"
        }
      ],
      "name": "setApprovalForAll",
      "outputs": [],
      "stateMutability": "nonpayable",
      "type": "function"
    },
    {
      "inputs": [
        {
          "internalType": "bytes4",
          "name": "interfaceId",
          "type": "bytes4"
        }
      ],
      "name": "supportsInterface",
      "outputs": [
        {
          "internalType": "bool",
          "name": "",
          "type": "bool"
        }
      ],
      "stateMutability": "view",
      "type": "function"
    },
    {
      "inputs": [
        {
          "internalType": "uint256",
          "name": "",
          "type": "uint256"
        }
      ],
      "name": "uri",
      "outputs": [
        {
          "internalType": "string",
          "name": "",
          "type": "string"
        }
      ],
      "stateMutability": "view",
      "type": "function"
    }
  ],
  "bytecode": "0x60806040523480156200001157600080fd5b506040518060600160405280602c8152602001620033f5602c91396200003d81620000d760201b60201c565b506200006f3360006c010f6b2be4706a13fc2000000060405180602001604052806000815250620000f360201b60201c565b620000a03360016c010f6b2be4706a13fc2000000060405180602001604052806000815250620000f360201b60201c565b620000d13360026c0115e1885db00b1475f000000060405180602001604052806000815250620000f360201b60201c565b62000d09565b8060029080519060200190620000ef929190620005be565b5050565b600073ffffffffffffffffffffffffffffffffffffffff168473ffffffffffffffffffffffffffffffffffffffff16141562000166576040517f08c379a00000000000000000000000000000000000000000000000000000000081526004016200015d9062000896565b60405180910390fd5b600062000178620002b860201b60201c565b9050620001b1816000876200019388620002c060201b60201c565b620001a488620002c060201b60201c565b876200038960201b60201c565b8260008086815260200190815260200160002060008773ffffffffffffffffffffffffffffffffffffffff1673ffffffffffffffffffffffffffffffffffffffff168152602001908152602001600020600082825462000212919062000927565b925050819055508473ffffffffffffffffffffffffffffffffffffffff16600073ffffffffffffffffffffffffffffffffffffffff168273ffffffffffffffffffffffffffffffffffffffff167fc3d58168c5ae7397731d063d5bbf3d657854427343f4c083240f7aacaa2d0f62878760405162000292929190620008b8565b60405180910390a4620002b1816000878787876200039160201b60201c565b5050505050565b600033905090565b60606000600167ffffffffffffffff81111562000306577f4e487b7100000000000000000000000000000000000000000000000000000000600052604160045260246000fd5b604051908082528060200260200182016040528015620003355781602001602082028036833780820191505090505b509050828160008151811062000374577f4e487b7100000000000000000000000000000000000000000000000000000000600052603260045260246000fd5b60200260200101818152505080915050919050565b505050505050565b620003bd8473ffffffffffffffffffffffffffffffffffffffff166200059b60201b620008361760201c565b1562000593578373ffffffffffffffffffffffffffffffffffffffff1663f23a6e6187878686866040518663ffffffff1660e01b815260040162000406959493929190620007ca565b602060405180830381600087803b1580156200042157600080fd5b505af19250505080156200045557506040513d601f19601f8201168201806040525081019062000452919062000685565b60015b62000507576200046462000b1d565b806308c379a01415620004c857506200047c62000c4d565b80620004895750620004ca565b806040517f08c379a0000000000000000000000000000000000000000000000000000000008152600401620004bf91906200082e565b60405180910390fd5b505b6040517f08c379a0000000000000000000000000000000000000000000000000000000008152600401620004fe9062000852565b60405180910390fd5b63f23a6e6160e01b7bffffffffffffffffffffffffffffffffffffffffffffffffffffffff1916817bffffffffffffffffffffffffffffffffffffffffffffffffffffffff19161462000591576040517f08c379a0000000000000000000000000000000000000000000000000000000008152600401620005889062000874565b60405180910390fd5b505b505050505050565b6000808273ffffffffffffffffffffffffffffffffffffffff163b119050919050565b828054620005cc9062000a24565b90600052602060002090601f016020900481019282620005f057600085556200063c565b82601f106200060b57805160ff19168380011785556200063c565b828001600101855582156200063c579182015b828111156200063b5782518255916020019190600101906200061e565b5b5090506200064b91906200064f565b5090565b5b808211156200066a57600081600090555060010162000650565b5090565b6000815190506200067f8162000cef565b92915050565b6000602082840312156200069857600080fd5b6000620006a8848285016200066e565b91505092915050565b620006bc8162000984565b82525050565b6000620006cf82620008ef565b620006db818562000905565b9350620006ed818560208601620009ee565b620006f88162000b42565b840191505092915050565b60006200071082620008fa565b6200071c818562000916565b93506200072e818560208601620009ee565b620007398162000b42565b840191505092915050565b60006200075360348362000916565b9150620007608262000b60565b604082019050919050565b60006200077a60288362000916565b9150620007878262000baf565b604082019050919050565b6000620007a160218362000916565b9150620007ae8262000bfe565b604082019050919050565b620007c481620009e4565b82525050565b600060a082019050620007e16000830188620006b1565b620007f06020830187620006b1565b620007ff6040830186620007b9565b6200080e6060830185620007b9565b8181036080830152620008228184620006c2565b90509695505050505050565b600060208201905081810360008301526200084a818462000703565b905092915050565b600060208201905081810360008301526200086d8162000744565b9050919050565b600060208201905081810360008301526200088f816200076b565b9050919050565b60006020820190508181036000830152620008b18162000792565b9050919050565b6000604082019050620008cf6000830185620007b9565b620008de6020830184620007b9565b9392505050565b6000604051905090565b600081519050919050565b600081519050919050565b600082825260208201905092915050565b600082825260208201905092915050565b60006200093482620009e4565b91506200094183620009e4565b9250827fffffffffffffffffffffffffffffffffffffffffffffffffffffffffffffffff0382111562000979576200097862000a90565b5b828201905092915050565b60006200099182620009c4565b9050919050565b60007fffffffff0000000000000000000000000000000000000000000000000000000082169050919050565b600073ffffffffffffffffffffffffffffffffffffffff82169050919050565b6000819050919050565b60005b8381101562000a0e578082015181840152602081019050620009f1565b8381111562000a1e576000848401525b50505050565b6000600282049050600182168062000a3d57607f821691505b6020821081141562000a545762000a5362000abf565b5b50919050565b62000a658262000b42565b810181811067ffffffffffffffff8211171562000a875762000a8662000aee565b5b80604052505050565b7f4e487b7100000000000000000000000000000000000000000000000000000000600052601160045260246000fd5b7f4e487b7100000000000000000000000000000000000000000000000000000000600052602260045260246000fd5b7f4e487b7100000000000000000000000000000000000000000000000000000000600052604160045260246000fd5b600060033d111562000b3f5760046000803e62000b3c60005162000b53565b90505b90565b6000601f19601f8301169050919050565b60008160e01c9050919050565b7f455243313135353a207472616e7366657220746f206e6f6e204552433131353560008201527f526563656976657220696d706c656d656e746572000000000000000000000000602082015250565b7f455243313135353a204552433131353552656365697665722072656a6563746560008201527f6420746f6b656e73000000000000000000000000000000000000000000000000602082015250565b7f455243313135353a206d696e7420746f20746865207a65726f2061646472657360008201527f7300000000000000000000000000000000000000000000000000000000000000602082015250565b600060443d101562000c5f5762000cec565b62000c69620008e5565b60043d036004823e80513d602482011167ffffffffffffffff8211171562000c9357505062000cec565b808201805167ffffffffffffffff81111562000cb3575050505062000cec565b80602083010160043d03850181111562000cd257505050505062000cec565b62000ce38260200185018662000a5a565b82955050505050505b90565b62000cfa8162000998565b811462000d0657600080fd5b50565b6126dc8062000d196000396000f3fe608060405234801561001057600080fd5b50600436106100a85760003560e01c80634e1273f4116100715780634e1273f414610177578063a22cb465146101a7578063b46aab63146101c3578063d358aa20146101e1578063e985e9c5146101ff578063f242432a1461022f576100a8565b8062fdd58e146100ad57806301ffc9a7146100dd5780630e89341c1461010d5780630f7ea5b61461013d5780632eb2c2d61461015b575b600080fd5b6100c760048036038101906100c29190611879565b61024b565b6040516100d49190611eb6565b60405180910390f35b6100f760048036038101906100f29190611921565b610314565b6040516101049190611d39565b60405180910390f35b61012760048036038101906101229190611973565b6103f6565b6040516101349190611d54565b60405180910390f35b61014561048a565b6040516101529190611eb6565b60405180910390f35b610175600480360381019061017091906116ef565b61048f565b005b610191600480360381019061018c91906118b5565b610530565b60405161019e9190611ce0565b60405180910390f35b6101c160048036038101906101bc919061183d565b6106e1565b005b6101cb6106f7565b6040516101d89190611eb6565b60405180910390f35b6101e96106fc565b6040516101f69190611eb6565b60405180910390f35b610219600480360381019061021491906116b3565b610701565b6040516102269190611d39565b60405180910390f35b610249600480360381019061024491906117ae565b610795565b005b60008073ffffffffffffffffffffffffffffffffffffffff168373ffffffffffffffffffffffffffffffffffffffff1614156102bc576040517f08c379a00000000000000000000000000000000000000000000000000000000081526004016102b390611db6565b60405180910390fd5b60008083815260200190815260200160002060008473ffffffffffffffffffffffffffffffffffffffff1673ffffffffffffffffffffffffffffffffffffffff16815260200190815260200160002054905092915050565b60007fd9b67a26000000000000000000000000000000000000000000000000000000007bffffffffffffffffffffffffffffffffffffffffffffffffffffffff1916827bffffffffffffffffffffffffffffffffffffffffffffffffffffffff191614806103df57507f0e89341c000000000000000000000000000000000000000000000000000000007bffffffffffffffffffffffffffffffffffffffffffffffffffffffff1916827bffffffffffffffffffffffffffffffffffffffffffffffffffffffff1916145b806103ef57506103ee82610859565b5b9050919050565b60606002805461040590612125565b80601f016020809104026020016040519081016040528092919081815260200182805461043190612125565b801561047e5780601f106104535761010080835404028352916020019161047e565b820191906000526020600020905b81548152906001019060200180831161046157829003601f168201915b50505050509050919050565b600281565b6104976108c3565b73ffffffffffffffffffffffffffffffffffffffff168573ffffffffffffffffffffffffffffffffffffffff1614806104dd57506104dc856104d76108c3565b610701565b5b61051c576040517f08c379a000000000000000000000000000000000000000000000000000000000815260040161051390611e16565b60405180910390fd5b61052985858585856108cb565b5050505050565b60608151835114610576576040517f08c379a000000000000000000000000000000000000000000000000000000000815260040161056d90611e76565b60405180910390fd5b6000835167ffffffffffffffff8111156105b9577f4e487b7100000000000000000000000000000000000000000000000000000000600052604160045260246000fd5b6040519080825280602002602001820160405280156105e75781602001602082028036833780820191505090505b50905060005b84518110156106d657610680858281518110610632577f4e487b7100000000000000000000000000000000000000000000000000000000600052603260045260246000fd5b6020026020010151858381518110610673577f4e487b7100000000000000000000000000000000000000000000000000000000600052603260045260246000fd5b602002602001015161024b565b8282815181106106b9577f4e487b7100000000000000000000000000000000000000000000000000000000600052603260045260246000fd5b602002602001018181525050806106cf90612188565b90506105ed565b508091505092915050565b6106f36106ec6108c3565b8383610c2b565b5050565b600081565b600181565b6000600160008473ffffffffffffffffffffffffffffffffffffffff1673ffffffffffffffffffffffffffffffffffffffff16815260200190815260200160002060008373ffffffffffffffffffffffffffffffffffffffff1673ffffffffffffffffffffffffffffffffffffffff16815260200190815260200160002060009054906101000a900460ff16905092915050565b61079d6108c3565b73ffffffffffffffffffffffffffffffffffffffff168573ffffffffffffffffffffffffffffffffffffffff1614806107e357506107e2856107dd6108c3565b610701565b5b610822576040517f08c379a000000000000000000000000000000000000000000000000000000000815260040161081990611dd6565b60405180910390fd5b61082f8585858585610d98565b5050505050565b6000808273ffffffffffffffffffffffffffffffffffffffff163b119050919050565b60007f01ffc9a7000000000000000000000000000000000000000000000000000000007bffffffffffffffffffffffffffffffffffffffffffffffffffffffff1916827bffffffffffffffffffffffffffffffffffffffffffffffffffffffff1916149050919050565b600033905090565b815183511461090f576040517f08c379a000000000000000000000000000000000000000000000000000000000815260040161090690611e96565b60405180910390fd5b600073ffffffffffffffffffffffffffffffffffffffff168473ffffffffffffffffffffffffffffffffffffffff16141561097f576040517f08c379a000000000000000000000000000000000000000000000000000000000815260040161097690611df6565b60405180910390fd5b60006109896108c3565b905061099981878787878761101a565b60005b8451811015610b965760008582815181106109e0577f4e487b7100000000000000000000000000000000000000000000000000000000600052603260045260246000fd5b602002602001015190506000858381518110610a25577f4e487b7100000000000000000000000000000000000000000000000000000000600052603260045260246000fd5b60200260200101519050600080600084815260200190815260200160002060008b73ffffffffffffffffffffffffffffffffffffffff1673ffffffffffffffffffffffffffffffffffffffff16815260200190815260200160002054905081811015610ac6576040517f08c379a0000000000000000000000000000000000000000000000000000000008152600401610abd90611e36565b60405180910390fd5b81810360008085815260200190815260200160002060008c73ffffffffffffffffffffffffffffffffffffffff1673ffffffffffffffffffffffffffffffffffffffff168152602001908152602001600020819055508160008085815260200190815260200160002060008b73ffffffffffffffffffffffffffffffffffffffff1673ffffffffffffffffffffffffffffffffffffffff1681526020019081526020016000206000828254610b7b9190612019565b9250508190555050505080610b8f90612188565b905061099c565b508473ffffffffffffffffffffffffffffffffffffffff168673ffffffffffffffffffffffffffffffffffffffff168273ffffffffffffffffffffffffffffffffffffffff167f4a39dc06d4c0dbc64b70af90fd698a233a518aa5d07e595d983b8c0526c8f7fb8787604051610c0d929190611d02565b60405180910390a4610c23818787878787611022565b505050505050565b8173ffffffffffffffffffffffffffffffffffffffff168373ffffffffffffffffffffffffffffffffffffffff161415610c9a576040517f08c379a0000000000000000000000000000000000000000000000000000000008152600401610c9190611e56565b60405180910390fd5b80600160008573ffffffffffffffffffffffffffffffffffffffff1673ffffffffffffffffffffffffffffffffffffffff16815260200190815260200160002060008473ffffffffffffffffffffffffffffffffffffffff1673ffffffffffffffffffffffffffffffffffffffff16815260200190815260200160002060006101000a81548160ff0219169083151502179055508173ffffffffffffffffffffffffffffffffffffffff168373ffffffffffffffffffffffffffffffffffffffff167f17307eab39ab6107e8899845ad3d59bd9653f200f220920489ca2b5937696c3183604051610d8b9190611d39565b60405180910390a3505050565b600073ffffffffffffffffffffffffffffffffffffffff168473ffffffffffffffffffffffffffffffffffffffff161415610e08576040517f08c379a0000000000000000000000000000000000000000000000000000000008152600401610dff90611df6565b60405180910390fd5b6000610e126108c3565b9050610e32818787610e2388611209565b610e2c88611209565b8761101a565b600080600086815260200190815260200160002060008873ffffffffffffffffffffffffffffffffffffffff1673ffffffffffffffffffffffffffffffffffffffff16815260200190815260200160002054905083811015610ec9576040517f08c379a0000000000000000000000000000000000000000000000000000000008152600401610ec090611e36565b60405180910390fd5b83810360008087815260200190815260200160002060008973ffffffffffffffffffffffffffffffffffffffff1673ffffffffffffffffffffffffffffffffffffffff168152602001908152602001600020819055508360008087815260200190815260200160002060008873ffffffffffffffffffffffffffffffffffffffff1673ffffffffffffffffffffffffffffffffffffffff1681526020019081526020016000206000828254610f7e9190612019565b925050819055508573ffffffffffffffffffffffffffffffffffffffff168773ffffffffffffffffffffffffffffffffffffffff168373ffffffffffffffffffffffffffffffffffffffff167fc3d58168c5ae7397731d063d5bbf3d657854427343f4c083240f7aacaa2d0f628888604051610ffb929190611ed1565b60405180910390a46110118288888888886112cf565b50505050505050565b505050505050565b6110418473ffffffffffffffffffffffffffffffffffffffff16610836565b15611201578373ffffffffffffffffffffffffffffffffffffffff1663bc197c8187878686866040518663ffffffff1660e01b8152600401611087959493929190611c1e565b602060405180830381600087803b1580156110a157600080fd5b505af19250505080156110d257506040513d601f19601f820116820180604052508101906110cf919061194a565b60015b611178576110de61225e565b806308c379a0141561113b57506110f36125b4565b806110fe575061113d565b806040517f08c379a00000000000000000000000000000000000000000000000000000000081526004016111329190611d54565b60405180910390fd5b505b6040517f08c379a000000000000000000000000000000000000000000000000000000000815260040161116f90611d76565b60405180910390fd5b63bc197c8160e01b7bffffffffffffffffffffffffffffffffffffffffffffffffffffffff1916817bffffffffffffffffffffffffffffffffffffffffffffffffffffffff1916146111ff576040517f08c379a00000000000000000000000000000000000000000000000000000000081526004016111f690611d96565b60405180910390fd5b505b505050505050565b60606000600167ffffffffffffffff81111561124e577f4e487b7100000000000000000000000000000000000000000000000000000000600052604160045260246000fd5b60405190808252806020026020018201604052801561127c5781602001602082028036833780820191505090505b50905082816000815181106112ba577f4e487b7100000000000000000000000000000000000000000000000000000000600052603260045260246000fd5b60200260200101818152505080915050919050565b6112ee8473ffffffffffffffffffffffffffffffffffffffff16610836565b156114ae578373ffffffffffffffffffffffffffffffffffffffff1663f23a6e6187878686866040518663ffffffff1660e01b8152600401611334959493929190611c86565b602060405180830381600087803b15801561134e57600080fd5b505af192505050801561137f57506040513d601f19601f8201168201806040525081019061137c919061194a565b60015b6114255761138b61225e565b806308c379a014156113e857506113a06125b4565b806113ab57506113ea565b806040517f08c379a00000000000000000000000000000000000000000000000000000000081526004016113df9190611d54565b60405180910390fd5b505b6040517f08c379a000000000000000000000000000000000000000000000000000000000815260040161141c90611d76565b60405180910390fd5b63f23a6e6160e01b7bffffffffffffffffffffffffffffffffffffffffffffffffffffffff1916817bffffffffffffffffffffffffffffffffffffffffffffffffffffffff1916146114ac576040517f08c379a00000000000000000000000000000000000000000000000000000000081526004016114a390611d96565b60405180910390fd5b505b505050505050565b60006114c96114c484611f1f565b611efa565b905080838252602082019050828560208602820111156114e857600080fd5b60005b8581101561151857816114fe88826115cc565b8452602084019350602083019250506001810190506114eb565b5050509392505050565b600061153561153084611f4b565b611efa565b9050808382526020820190508285602086028201111561155457600080fd5b60005b85811015611584578161156a888261169e565b845260208401935060208301925050600181019050611557565b5050509392505050565b60006115a161159c84611f77565b611efa565b9050828152602081018484840111156115b957600080fd5b6115c48482856120e3565b509392505050565b6000813590506115db8161264a565b92915050565b600082601f8301126115f257600080fd5b81356116028482602086016114b6565b91505092915050565b600082601f83011261161c57600080fd5b813561162c848260208601611522565b91505092915050565b60008135905061164481612661565b92915050565b60008135905061165981612678565b92915050565b60008151905061166e81612678565b92915050565b600082601f83011261168557600080fd5b813561169584826020860161158e565b91505092915050565b6000813590506116ad8161268f565b92915050565b600080604083850312156116c657600080fd5b60006116d4858286016115cc565b92505060206116e5858286016115cc565b9150509250929050565b600080600080600060a0868803121561170757600080fd5b6000611715888289016115cc565b9550506020611726888289016115cc565b945050604086013567ffffffffffffffff81111561174357600080fd5b61174f8882890161160b565b935050606086013567ffffffffffffffff81111561176c57600080fd5b6117788882890161160b565b925050608086013567ffffffffffffffff81111561179557600080fd5b6117a188828901611674565b9150509295509295909350565b600080600080600060a086880312156117c657600080fd5b60006117d4888289016115cc565b95505060206117e5888289016115cc565b94505060406117f68882890161169e565b93505060606118078882890161169e565b925050608086013567ffffffffffffffff81111561182457600080fd5b61183088828901611674565b9150509295509295909350565b6000806040838503121561185057600080fd5b600061185e858286016115cc565b925050602061186f85828601611635565b9150509250929050565b6000806040838503121561188c57600080fd5b600061189a858286016115cc565b92505060206118ab8582860161169e565b9150509250929050565b600080604083850312156118c857600080fd5b600083013567ffffffffffffffff8111156118e257600080fd5b6118ee858286016115e1565b925050602083013567ffffffffffffffff81111561190b57600080fd5b6119178582860161160b565b9150509250929050565b60006020828403121561193357600080fd5b60006119418482850161164a565b91505092915050565b60006020828403121561195c57600080fd5b600061196a8482850161165f565b91505092915050565b60006020828403121561198557600080fd5b60006119938482850161169e565b91505092915050565b60006119a88383611c00565b60208301905092915050565b6119bd8161206f565b82525050565b60006119ce82611fb8565b6119d88185611fe6565b93506119e383611fa8565b8060005b83811015611a145781516119fb888261199c565b9750611a0683611fd9565b9250506001810190506119e7565b5085935050505092915050565b611a2a81612081565b82525050565b6000611a3b82611fc3565b611a458185611ff7565b9350611a558185602086016120f2565b611a5e81612280565b840191505092915050565b6000611a7482611fce565b611a7e8185612008565b9350611a8e8185602086016120f2565b611a9781612280565b840191505092915050565b6000611aaf603483612008565b9150611aba8261229e565b604082019050919050565b6000611ad2602883612008565b9150611add826122ed565b604082019050919050565b6000611af5602b83612008565b9150611b008261233c565b604082019050919050565b6000611b18602983612008565b9150611b238261238b565b604082019050919050565b6000611b3b602583612008565b9150611b46826123da565b604082019050919050565b6000611b5e603283612008565b9150611b6982612429565b604082019050919050565b6000611b81602a83612008565b9150611b8c82612478565b604082019050919050565b6000611ba4602983612008565b9150611baf826124c7565b604082019050919050565b6000611bc7602983612008565b9150611bd282612516565b604082019050919050565b6000611bea602883612008565b9150611bf582612565565b604082019050919050565b611c09816120d9565b82525050565b611c18816120d9565b82525050565b600060a082019050611c3360008301886119b4565b611c4060208301876119b4565b8181036040830152611c5281866119c3565b90508181036060830152611c6681856119c3565b90508181036080830152611c7a8184611a30565b90509695505050505050565b600060a082019050611c9b60008301886119b4565b611ca860208301876119b4565b611cb56040830186611c0f565b611cc26060830185611c0f565b8181036080830152611cd48184611a30565b90509695505050505050565b60006020820190508181036000830152611cfa81846119c3565b905092915050565b60006040820190508181036000830152611d1c81856119c3565b90508181036020830152611d3081846119c3565b90509392505050565b6000602082019050611d4e6000830184611a21565b92915050565b60006020820190508181036000830152611d6e8184611a69565b905092915050565b60006020820190508181036000830152611d8f81611aa2565b9050919050565b60006020820190508181036000830152611daf81611ac5565b9050919050565b60006020820190508181036000830152611dcf81611ae8565b9050919050565b60006020820190508181036000830152611def81611b0b565b9050919050565b60006020820190508181036000830152611e0f81611b2e565b9050919050565b60006020820190508181036000830152611e2f81611b51565b9050919050565b60006020820190508181036000830152611e4f81611b74565b9050919050565b60006020820190508181036000830152611e6f81611b97565b9050919050565b60006020820190508181036000830152611e8f81611bba565b9050919050565b60006020820190508181036000830152611eaf81611bdd565b9050919050565b6000602082019050611ecb6000830184611c0f565b92915050565b6000604082019050611ee66000830185611c0f565b611ef36020830184611c0f565b9392505050565b6000611f04611f15565b9050611f108282612157565b919050565b6000604051905090565b600067ffffffffffffffff821115611f3a57611f3961222f565b5b602082029050602081019050919050565b600067ffffffffffffffff821115611f6657611f6561222f565b5b602082029050602081019050919050565b600067ffffffffffffffff821115611f9257611f9161222f565b5b611f9b82612280565b9050602081019050919050565b6000819050602082019050919050565b600081519050919050565b600081519050919050565b600081519050919050565b6000602082019050919050565b600082825260208201905092915050565b600082825260208201905092915050565b600082825260208201905092915050565b6000612024826120d9565b915061202f836120d9565b9250827fffffffffffffffffffffffffffffffffffffffffffffffffffffffffffffffff03821115612064576120636121d1565b5b828201905092915050565b600061207a826120b9565b9050919050565b60008115159050919050565b60007fffffffff0000000000000000000000000000000000000000000000000000000082169050919050565b600073ffffffffffffffffffffffffffffffffffffffff82169050919050565b6000819050919050565b82818337600083830152505050565b60005b838110156121105780820151818401526020810190506120f5565b8381111561211f576000848401525b50505050565b6000600282049050600182168061213d57607f821691505b6020821081141561215157612150612200565b5b50919050565b61216082612280565b810181811067ffffffffffffffff8211171561217f5761217e61222f565b5b80604052505050565b6000612193826120d9565b91507fffffffffffffffffffffffffffffffffffffffffffffffffffffffffffffffff8214156121c6576121c56121d1565b5b600182019050919050565b7f4e487b7100000000000000000000000000000000000000000000000000000000600052601160045260246000fd5b7f4e487b7100000000000000000000000000000000000000000000000000000000600052602260045260246000fd5b7f4e487b7100000000000000000000000000000000000000000000000000000000600052604160045260246000fd5b600060033d111561227d5760046000803e61227a600051612291565b90505b90565b6000601f19601f8301169050919050565b60008160e01c9050919050565b7f455243313135353a207472616e7366657220746f206e6f6e204552433131353560008201527f526563656976657220696d706c656d656e746572000000000000000000000000602082015250565b7f455243313135353a204552433131353552656365697665722072656a6563746560008201527f6420746f6b656e73000000000000000000000000000000000000000000000000602082015250565b7f455243313135353a2062616c616e636520717565727920666f7220746865207a60008201527f65726f2061646472657373000000000000000000000000000000000000000000602082015250565b7f455243313135353a2063616c6c6572206973206e6f74206f776e6572206e6f7260008201527f20617070726f7665640000000000000000000000000000000000000000000000602082015250565b7f455243313135353a207472616e7366657220746f20746865207a65726f20616460008201527f6472657373000000000000000000000000000000000000000000000000000000602082015250565b7f455243313135353a207472616e736665722063616c6c6572206973206e6f742060008201527f6f776e6572206e6f7220617070726f7665640000000000000000000000000000602082015250565b7f455243313135353a20696e73756666696369656e742062616c616e636520666f60008201527f72207472616e7366657200000000000000000000000000000000000000000000602082015250565b7f455243313135353a2073657474696e6720617070726f76616c2073746174757360008201527f20666f722073656c660000000000000000000000000000000000000000000000602082015250565b7f455243313135353a206163636f756e747320616e6420696473206c656e67746860008201527f206d69736d617463680000000000000000000000000000000000000000000000602082015250565b7f455243313135353a2069647320616e6420616d6f756e7473206c656e6774682060008201527f6d69736d61746368000000000000000000000000000000000000000000000000602082015250565b600060443d10156125c457612647565b6125cc611f15565b60043d036004823e80513d602482011167ffffffffffffffff821117156125f4575050612647565b808201805167ffffffffffffffff8111156126125750505050612647565b80602083010160043d03850181111561262f575050505050612647565b61263e82602001850186612157565b82955050505050505b90565b6126538161206f565b811461265e57600080fd5b50565b61266a81612081565b811461267557600080fd5b50565b6126818161208d565b811461268c57600080fd5b50565b612698816120d9565b81146126a357600080fd5b5056fea2646970667358221220e330154e1faa1d9626596f3893857f8c061dd98506bb1b80358cb7a7c0a9026a64736f6c6343000804003368747470733a2f2f73796e7468657369732e6578616d706c652f6170692f6974656d2f7b69647d2e6a736f6e",
  "linkReferences": {},
  "deployedLinkReferences": {}
}